:020000040000FA
:100000000C9498000C94AD050C9486050C94C000DB
:100010000C94C0000C94C0000C94C0000C94C00060
:100020000C94C0000C94C0000C94C0000C94C00050
:100030000C94C0000C94C0000C94C0000C94C00040
:100040000C943C050C94C0000C94FA050C94D40557
:100050000C94C0000C94C0000C94C0000C94C00020
:100060000C94C0000C94C0004C6F526120696E6902
:100070006369616C697A61646F20636F7272656332
:1000800074616D656E74652E2E2E000A0A4C6F52D7
:100090006120476174657761792054657374657276
:1000A0002076362E3100205B4F6B5D002C002C003B
:1000B0002C00445441002C00C2AB204572726F7278
:1000C000206465206C6563747572612E2E2E20C2CB
:1000D000BB000A20E29494E294802000000000001B
:1000E00008000201000003040700000000000000F7
:1000F0000000000000250028002B00000000002464
:100100000027002A00040404040404040402020278
:100110000202020303030303030102040810204048
:1001200080010204081020010204081020008B0640
:1001300011241FBECFEFD8E0DEBFCDBF22E0A0E587
:10014000B1E001C01D92AF31B207E1F711E0A0E0CC
:10015000B1E0E4EEFBE102C005900D92A035B107DD
:10016000D9F710E0C8E9D0E004C02197FE010E9451
:10017000DE0BC739D107C9F70E94E4060C94F00DD5
:100180000C94000090E0FC01E75EFE4F24918B5F31
:100190009E4FFC018491882399F090E0880F991F6D
:1001A000FC01E550FF4FA591B491FC01EF50FF4FCA
:1001B000859194918FB7F894EC91E22BEC938FBFDB
:1001C000089590E0FC01E352FF4F2491FC01E75EAB
:1001D000FE4F3491FC01EB5FFE4FE491EE23C9F03A
:1001E000222339F0233001F1A8F4213019F1223013
:1001F00029F1F0E0EE0FFF1FEF50FF4FA591B491F2
:100200008FB7F894EC91611126C030953E233C9352
:100210008FBF08952730A9F02830C9F0243049F75E
:10022000809180008F7D03C0809180008F778093C4
:100230008000DFCF84B58F7784BDDBCF84B58F7D21
:10024000FBCF8091B0008F778093B000D2CF8091A8
:10025000B0008F7DF9CF3E2BDACF3FB7F894809175
:10026000570190915801A0915901B0915A0126B5BA
:10027000A89B05C02F3F19F00196A11DB11D3FBFDE
:10028000BA2FA92F982F8827BC01CD01620F711DAD
:10029000811D911D43E0660F771F881F991F4A95A6
:1002A000D1F708958F929F92AF92BF92CF92DF9233
:1002B000EF92FF924B015C010E942D016B017C01CA
:1002C0000E942D016C197D098E099F09683E7340BB
:1002D00081059105A8F321E0821A9108A108B108CF
:1002E00088EEC80E83E0D81EE11CF11C8114910435
:1002F000A104B10429F7FF90EF90DF90CF90BF9059
:10030000AF909F908F90089508950895DB01149603
:100310004D915C9115976D917C91DC01ED91FC9173
:100320000280F381E02D0994AF92BF92CF92DF92C9
:10033000EF92FF920F931F93CF93DF936C017B019A
:100340008B01040F151FEB015E01AE18BF08C0172B
:10035000D10759F06991D601ED91FC910190F0819E
:10036000E02DC6010995892B79F7C501DF91CF9161
:100370001F910F91FF90EF90DF90CF90BF90AF90C3
:100380000895FC01538D448D252F30E0842F90E09B
:10039000821B930B541710F0CF9608950197089580
:1003A000FC01918D828D981761F0A28DAE0FBF2F49
:1003B000B11D5D968C91928D9F5F9F73928F90E09F
:1003C00008958FEF9FEF0895FC01918D828D98170E
:1003D00031F0828DE80FF11D858D90E008958FEF4B
:1003E0009FEF0895FC01918D228D892F90E0805C14
:1003F0009F4F821B91098F73992708958BE591E098
:100400000E94F20121E0892B09F420E0822F089557
:1004100080E090E0892B29F00E94FE0181110C946C
:1004200000000895FC01A48DA80FB92FB11DA35A97
:10043000BF4F2C91848D90E001968F739927848F04
:10044000A689B7892C93A089B1898C918370806427
:100450008C93938D848D981306C00288F389E02DC8
:1004600080818F7D80830895EF92FF920F931F9379
:10047000CF93DF93EC0181E0888F9B8D8C8D981357
:100480001AC0E889F989808185FF15C09FB7F89463
:10049000EE89FF896083E889F989808183708064AF
:1004A00080839FBF81E090E0DF91CF911F910F91FA
:1004B000FF90EF900895F62E0B8D10E00F5F1F4F09
:1004C0000F731127E02E8C8D8E110CC00FB607FC18
:1004D000FACFE889F989808185FFF5CFCE010E94A6
:1004E0001202F1CFEB8DEC0FFD2FF11DE35AFF4F00
:1004F000F0829FB7F8940B8FEA89FB898081806234
:10050000CFCF0F931F93CF93DF938C01D0E0C0E048
:10051000F801EC0FFD1F6491662341F08BE591E03B
:100520000E943402892B11F02196F2CFCE01DF9187
:10053000CF911F910F910895CF93DF930E94810275
:10054000EC0142E050E06CE471E08BE591E00E9448
:1005500094018C0F9D1FDF91CF910895CF93DF936E
:10056000EC01888D8823B9F0AA89BB89E889F989CB
:100570008C9185FD03C0808186FD0DC00FB607FC00
:10058000F7CF8C9185FFF2CF808185FFEDCFCE0133
:100590000E941202E9CFDF91CF9108950F931F932C
:1005A000CF93DF93EC01062F142F60E088890E941F
:1005B000E1009C858D859CBD8DBD0EBD00000DB4F8
:1005C00007FEFDCF8EB51EBD00000DB407FEFDCFAA
:1005D0001EB561E088890E94E100812FDF91CF91F3
:1005E0001F910F91089540E00C94CE0210921602D4
:1005F000109215026DE189EF91E00E94F302482FFD
:100600004E7F6DE989EF91E00C94CE0208950F932F
:100610001F93CF93DF93EC01E881F9810084F1858A
:10062000E02D0995892BB1F06DE0CE010E94F30217
:10063000082F60E0CE010E94F302182F402F6DE8D2
:10064000CE010E94CE02812F90E0DF91CF911F91C9
:100650000F9108958FEF9FEFF8CFCF93DF93EC01C9
:10066000E881F9810084F185E02D0995892B69F0F5
:100670008A8D9B8D01969B8F8A8F60E0CE010E94B0
:10068000F30290E0DF91CF9108958FEF9FEFFACFC3
:10069000CF93DF93EC0163E10E94F30290E02A8D97
:1006A0003B8D821B930BDF91CF910895AF92BF9248
:1006B000CF92DF92FF920F931F93CF93DF936C0142
:1006C0005B01EA0162E20E94F302F82E90E09C01D5
:1006D0002C0F3D1F2F3F310529F020F0CFEFD0E048
:1006E000C81BD90B8501AC0EBD1E0A151B0541F0B8
:1006F000F80141918F0160E8C6010E94CE02F5CF5A
:100700004C2F4F0D62EAC6010E94CE02CE01DF914E
:10071000CF911F910F91FF90DF90CF90BF90AF903E
:100720000895CF93DF931F92CDB7DEB76983DC01C5
:10073000ED91FC910280F381E02D41E050E0BE019B
:100740006F5F7F4F09950F90DF91CF91089590E0F3
:1007500080E00895DC0114966D917C91159730E04E
:1007600020E090E080E026173707A1F0ED91FC91A2
:100770001197309761F410925001E0E5F1E040816B
:10078000840F911D47FD9A952F5F3F4FECCFE20FED
:10079000F31FF5CF0895CF93DF93EC018881998102
:1007A000009711F00E94800C198218821D821C8211
:1007B0001B821A82DF91CF910895FC018081918183
:1007C000009711F00C94800C0895CF93DF93DC0117
:1007D00014962D913C911597232B79F0FB01CD9127
:1007E000DC9160817181CE010E94D60D009729F0C5
:1007F0008C1B9D0BDF91CF9108958FEF9FEFFACF68
:100800000F931F93CF93DF93EC0188819981009719
:1008100059F02A813B812617370730F081E0DF91BC
:10082000CF911F910F9108958B016F5F7F4F0E94B1
:10083000090D009759F0998388831B830A832C81C3
:100840003D81232B59F7FC011082E8CF80E0E7CFF0
:10085000EF92FF920F931F93CF93DF93EC017B01F5
:10086000CB010E94130B0097A9F00C811D81080F8A
:10087000191FB801CE010E940004882361F028816D
:1008800039818C819D81B701820F931F0E940C0BCF
:100890001D830C8381E0DF91CF911F910F91FF9019
:1008A000EF900895EF92FF920F931F93CF93DF93F2
:1008B0006115710541F480E0DF91CF911F910F9197
:1008C000FF90EF90089541155105B1F07B01EC01C7
:1008D0000C811D81040F151FB8010E94000488239C
:1008E00051F3288139818C819D81B701820F931F3B
:1008F0000E94CF0D1D830C8381E0DECFEF92FF922B
:100900000F931F93CF93DF93EC018B01CB010E94D8
:10091000130B7C01BC01CE010E94000481110BC0AD
:10092000CE010E94CB03CE01DF91CF911F910F9199
:10093000FF90EF900895FD82EC82B8018881998143
:100940000E940C0BF0CFEF92FF920F931F93CF9367
:10095000DF93EC017B018A01BA010E94000481113E
:100960000BC0CE010E94CB03CE01DF91CF911F912E
:100970000F91FF90EF9008951D830C83B70188813C
:1009800099810E94CF0DF0CFAF92BF92CF92DF92AC
:10099000EF92FF920F931F93CF93DF93EC016B01C4
:1009A0005A0179012417350720F48B2D5901E42EC3
:1009B000F82E198218821B821A821D821C8250E036
:1009C00040E06EE471E0CE010E94A304D6011496CB
:1009D0000D911C91A016B10628F5E016F10608F459
:1009E0008701D601ED91FC911197E00FF11FF08086
:1009F00010826D917C916A0D7B1D61157105F1F07E
:100A0000FB0101900020E9F73197AF01461B570B1E
:100A1000CE010E94A304F60180819181080F191F65
:100A2000D801FC92CE01DF91CF911F910F91FF90E1
:100A3000EF90DF90CF90BF90AF900895CE010E94CD
:100A4000CB03E9CFFB01DC0111961C921E92139699
:100A50001C921E92129715961C921E92149786173E
:100A6000970749F0608171816115710521F044811A
:100A700055810C94A30408951F920F920FB60F9204
:100A800011242F933F938F939F93AF93BF938091A4
:100A9000530190915401A0915501B09156013091AC
:100AA000520126E0230F2D3758F50296A11DB11DE6
:100AB000209352018093530190935401A0935501C8
:100AC000B09356018091570190915801A09159011E
:100AD000B0915A010196A11DB11D809357019093C9
:100AE0005801A0935901B0935A01BF91AF919F91C2
:100AF0008F913F912F910F900FBE0F901F901895DF
:100B000029E8230F0396A11DB11DD2CF1F920F928A
:100B10000FB60F9211242F933F934F935F936F93D0
:100B20007F938F939F93AF93BF93EF93FF93E09146
:100B30000201F09103010995FF91EF91BF91AF91EF
:100B40009F918F917F916F915F914F913F912F91E5
:100B50000F900FBE0F901F9018951F920F920FB617
:100B60000F9211242F933F934F935F936F937F9333
:100B70008F939F93AF93BF93EF93FF93E091000107
:100B8000F09101010995FF91EF91BF91AF919F9174
:100B90008F917F916F915F914F913F912F910F9026
:100BA0000FBE0F901F9018951F920F920FB60F92C5
:100BB00011242F933F934F935F936F937F938F9362
:100BC0009F93AF93BF93EF93FF938BE591E00E94C8
:100BD0001202FF91EF91BF91AF919F918F917F9101
:100BE0006F915F914F913F912F910F900FBE0F909A
:100BF0001F9018951F920F920FB60F9211242F93EA
:100C00008F939F93EF93FF93E0916B01F0916C01B1
:100C10008081E0917101F091720182FD1BC0908191
:100C2000809174018F5F8F7320917501821741F05D
:100C3000E0917401F0E0E55AFE4F958F80937401C6
:100C4000FF91EF919F918F912F910F900FBE0F9079
:100C50001F9018958081F4CFCF92DF92EF92FF9290
:100C6000CF93DF936DE189EF91E00E94F30290E072
:100C700034E0959587953A95E1F78A3091050CF027
:100C800042C0FC01EE0FFF1FE80FF91FE65FFE4FA9
:100C9000C080D180E2800E2C000CFF086EE189EF4D
:100CA00091E00E94F302D82F66E289EF91E00E9462
:100CB000F302C82FD295DF7021E030E040E050E031
:100CC00004C0220F331F441F551FDA95D2F7C70106
:100CD000B6010E949D0B68EE73E080E090E00E94F8
:100CE0009D0B213131054105510594F04C2F486091
:100CF00066EA89EF91E0DF91CF91FF90EF90DF906E
:100D0000CF900C94CE02CC24CA94DC2C7601C6CFB2
:100D10004C2F477FEDCFEBE5F1E01382128288EE96
:100D200093E0A0E0B0E084839583A683B7838CE250
:100D300091E09183808385EC90E09587848784ECB3
:100D400090E09787868780EC90E0918B808B81EC98
:100D500090E0938B828B82EC90E0958B848B86EC79
:100D600090E0978B868B118E128E138E148EE9EF86
:100D7000F1E0138212828EE391E09183808380E51B
:100D8000848781E0858788EF91E0978786878AE06E
:100D900090E0918B808B89E090E0938B828B82E056
:100DA00090E0958B848B168A178A108E118E138E85
:100DB000128E158E148E178E168E11A210A214820A
:100DC0001582168217820895CF93DF93CDB7DEB7D1
:100DD000E6970FB6F894DEBF0FBECDBF789484B50A
:100DE000826084BD84B5816084BD85B5826085BD27
:100DF00085B5816085BD80916E00816080936E00B5
:100E000010928100809181008260809381008091A6
:100E10008100816080938100809180008160809357
:100E200080008091B10084608093B1008091B00017
:100E300081608093B00080917A00846080937A0012
:100E400080917A00826080937A0080917A008E7F10
:100E500080937A0080917A00806880937A00109263
:100E6000C100E0916B01F0916C0182E08083E09120
:100E70006701F09168011082E0916901F0916A01C7
:100E800083E3808310927301E0916F01F091700110
:100E900086E08083E0916D01F0916E018081806138
:100EA0008083E0916D01F0916E0180818860808384
:100EB000E0916D01F0916E01808180688083E09106
:100EC0006D01F0916E0180818F7D80838BE890E0D1
:100ED0000E949C02809109020E94C20061E0809100
:100EE00009020E94E10080910B0290910C028F3F59
:100EF0009807C1F00E94C20060E080910B020E943E
:100F0000E1006AE070E080E090E00E94520161E060
:100F100080910B020E94E1006AE070E080E090E0C6
:100F20000E9452011FB7F89480915101811124C091
:100F3000EFE0F1E08491E3E2F1E09491E82FF0E05A
:100F4000EE0FFF1FE550FF4FA591B491EC91E923FF
:100F500021F461E08AE00E94E1008AE00E94C20080
:100F60008CB580618CBD8CB580648CBD8DE00E9499
:100F7000C2008BE00E94C200809151018F5F80937C
:100F800051011FBF62E489EF91E00E94F3028231B8
:100F900009F0FDC040E861E889EF91E00E94CE02CF
:100FA00080EC9AECA9E8B6E380930F0290931002CC
:100FB000A0931102B093120244EE66E889EF91E02B
:100FC0000E94CE0240EC67E889EF91E00E94CE02D9
:100FD00040E068E889EF91E00E94CE0240E06EE8D0
:100FE00089EF91E00E94CE0240E06FE889EF91E046
:100FF0000E94CE026CE089EF91E00E94F302482F3C
:1010000043606CE889EF91E00E94CE0244E066EA1A
:1010100089EF91E00E94CE0244E86DEC89EF91E007
:101020000E94CE024BE26BE889EF91E00E94CE0273
:101030004FE869E889EF91E00E94CE0241E861E85B
:1010400089EF91E00E94CE0247E86DEC89EF91E0D4
:101050000E94CE0241E36BE889EF91E00E94CE024C
:101060004FE869E889EF91E00E94CE026DE189EFD7
:1010700091E00E94F3028F70482F40676DE989EF7D
:1010800091E00E94CE020E942C0643EC61EB89EFB6
:1010900091E00E94CE024AE067EB89EF91E00E9466
:1010A000CE026EE189EF91E00E94F3028F70482F2B
:1010B000406C6EE989EF91E00E94CE020E942C06FE
:1010C0006DE189EF91E00E94F302817F482F426039
:1010D0006DE989EF91E00E94CE0240E861E889EF76
:1010E00091E00E94CE0288E690E00E949C028E0170
:1010F0000F5F1F4F30E0432E30E0532E62E189EF47
:1011000091E00E94F302F82E0E94F6024F2D62E950
:1011100089EF91E00E94CE02F6FE3AC0F5FC38C09D
:1011200010921402109213028091150290911602EF
:1011300062E2892B09F463E189EF91E00E94F302F6
:10114000E82EF12C60E189EF91E00E94F302482F34
:101150006DE889EF91E00E94CE0241E861E889EFF5
:1011600091E00E94CE02EF2839F562E370E080E062
:1011700090E00E9452014114510409F4BFCF0E9433
:10118000FE01882309F4B6CF0E940000B3CFFFCF41
:1011900061E089EF91E00E94F302863831F340E08C
:1011A0006DE889EF91E00E94CE0246E861E889EFA0
:1011B00091E00E94CE02D9CF1AAA19AA1CAA1BAA92
:1011C0001EAA1DAA6CED70E0CE01C1960E947E049D
:1011D00089EF91E00E944803892B71F089EF91E03B
:1011E0000E942D0389831A8241E050E0B801CE01AC
:1011F000C1960E945204ECCF82ED90E00E948102E1
:10120000BE016F5C7F4FCE0143960E9422051A8279
:1012100019821C821B821E821D8266EB70E0C8014F
:101220000E947E048F89988D2D813E816C01C21AA7
:10123000D30A2115310541F1009731F18217930747
:1012400018F1C816D90620F06C0121E0C21AD108A5
:10125000AB88BC8869807A80C501EE24EA94FE2CB4
:1012600045018C0C9D1C8816990688F0B3010E94DC
:10127000D60D009761F09C012A193B09C216D306CE
:1012800008F079010196EFCFEE24EA94FE2CC80114
:101290000E94DD038FEFE81AF80A2F89388DA70125
:1012A000BE016D5E7F4FC8010E94C40489819A818E
:1012B000812C912C5401009719F00E94E50A4B01F2
:1012C000C8010E94DD03970150E040E0BE016D5E61
:1012D0007F4FC8010E94C4048B899C89009709F440
:1012E0005CC169817A816115710509F454C14D8928
:1012F0005E892D813E814217530708F44CC10E943C
:10130000CF0D8D819E81988F8F8B1E821D82C8018B
:101310000E94DD03BE016D5E7F4FC8010E94220561
:10132000C8010E94AA036C01C8010E94DD031A8251
:1013300019821C821B821E821D8262EB70E0C80132
:101340000E947E04B801CE0143960E94E503892BDA
:1013500029F4FF24F394C814D90409F0F12CC8012E
:101360000E94DD03CE0143960E94DD03BE016F5C47
:101370007F4F8BE591E0FF2009F420C10E94860198
:10138000BE016F5C7F4FCE018B960E9422051A82B0
:1013900019821C821B821E821D8260EB70E0C801D4
:1013A0000E947E04B801CE018B960E94E5037C0169
:1013B000C8010E94DD03970150E040E0BE01655D79
:1013C0007F4FCE0185960E94C404BE016B5D7F4FA6
:1013D000CE0143960E9422056EEA70E0CE0143964C
:1013E0000E942804811104C0CE0143960E94CB03C1
:1013F0004AE0B80185E090E00E941C0BF8010190E2
:101400000020E9F73197AF01401B510BB801CE0125
:1014100043960E945204811104C0CE0143960E945B
:10142000CB036CEA70E0CE0143960E942804811140
:1014300004C0CE0143960E94CB03BE016D5E7F4F78
:10144000CE014F960E942205CE0143960E94DD03F5
:10145000BE01615E7F4FCE0149960E942205CE01FA
:1014600049960E94AA031C8A1B8A1E8A1D8A188E0E
:101470001F8A4AE0B8010E941C0BF801019000206D
:10148000E9F73197AF01401B510BB801CE014396EC
:101490000E94A3044F89588D6B897C89CE014F9699
:1014A0000E945204CE0143960E94DD03CE0149966C
:1014B0000E94DD0362E370E080E090E00E94520150
:1014C000BE01615E7F4FC8010E94220561E089EF85
:1014D00091E00E94F3028370833009F162E189EFA9
:1014E00091E00E94F30283FF06C048E062E989EFC1
:1014F00091E00E94CE0241E861E889EF91E00E940C
:10150000CE020E94F60240E06DE889EF91E00E9471
:10151000CE0240E062EA89EF91E00E94CE02B8017B
:1015200089EF91E00E94860143E861E889EF91E04C
:101530000E94CE0262E189EF91E00E94F30283FFF4
:10154000F9CF48E062E989EF91E00E94CE0264E6BB
:1015500070E080E090E00E94520186EA90E00E94F4
:10156000810240E861E889EF91E00E94CE02C80163
:101570000E94DD03CE014F960E94DD03CE018596C9
:101580000E94DD03CE018B960E94DD03CE01C19641
:101590000E94DD03EACD0E94800C89819A819C8B98
:1015A0008B8B8B819C819E8B8D8B8D819E81988F67
:1015B0008F8B1A8219821C821B82A7CE0E94860101
:1015C00088EB90E00E948102E1CF1F93FC019927F4
:1015D0008827BC01E89411911032E9F3193010F01A
:1015E0001E30C8F31B3251F01D3249F4689406C016
:1015F0000E94270B610F711D811D911D11911053C8
:101600001A30B0F33EF490958095709561957F4FB8
:101610008F4F9F4F1F910895FB01DC0105900D92A4
:101620000020E1F70895FC0105900020E9F780957E
:1016300090958E0F9F1F0895BB274A3031F4992350
:1016400022F4BDE2909581959F4F0C943D0B592F4C
:10165000482F372F262F660F771F881F991F660F79
:10166000771F881F991F620F731F841F951F660FB6
:10167000771F881F991F0895BB27FB015527AA27AD
:10168000880F991FAA1FA41710F0A41B839550510F
:10169000B9F7A05DAA3308F0A95DA193009779F787
:1016A000B111B1931192CB010C94560BDC01FC01EA
:1016B000672F71917723E1F7329704C07C916D9386
:1016C00070836291AE17BF07C8F308952F923F92BF
:1016D0004F925F926F927F928F929F92AF92BF9242
:1016E000CF92DF92EF92FF920F931F93CF93DF93EE
:1016F000CDB7DEB7CA1BDB0B0FB6F894DEBF0FBE4B
:10170000CDBF09942A88398848885F846E847D8497
:101710008C849B84AA84B984C884DF80EE80FD8099
:101720000C811B81AA81B981CE0FD11D0FB6F8940F
:10173000DEBF0FBECDBFED010895052E97FB1EF451
:1017400000940E94B40B57FD07D00E94BC0B07FC0D
:1017500003D04EF40C94B40B5095409530952195E0
:101760003F4F4F4F5F4F08959095809570956195CD
:101770007F4F8F4F9F4F0895A1E21A2EAA1BBB1BCC
:10178000FD010DC0AA1FBB1FEE1FFF1FA217B3074D
:10179000E407F50720F0A21BB30BE40BF50B661F63
:1017A000771F881F991F1A9469F760957095809527
:1017B00090959B01AC01BD01CF010895EE0FFF1F75
:1017C0000590F491E02D09940F931F93CF93DF932D
:1017D0008230910510F482E090E0E0911D02F091DA
:1017E0001E0230E020E0B0E0A0E0309799F421152F
:1017F000310509F44AC0281B390B24303105D8F5CE
:101800008A819B816115710589F1FB019383828334
:10181000FE0111C04081518102811381481759078F
:10182000E0F04817590799F4109761F012960C935D
:10183000129713961C933296CF01DF91CF911F918F
:101840000F91089500931D0210931E02F4CF2115ED
:10185000310551F04217530738F0A901DB019A0115
:10186000BD01DF01F801C1CFEF01F9CF90931E0256
:1018700080931D02CDCFFE01E20FF31F8193919360
:101880002250310939832883D7CF20911B02309110
:101890001C02232B41F42091060130910701309363
:1018A0001C0220931B022091040130910501211597
:1018B000310541F42DB73EB740910801509109011F
:1018C000241B350BE0911B02F0911C02E217F30779
:1018D000A0F42E1B3F0B2817390778F0AC014E5FA0
:1018E0005F4F2417350748F04E0F5F1F50931C02BF
:1018F00040931B02819391939FCFF0E0E0E09CCF57
:10190000CF93DF930097E9F0FC01329713821282A4
:10191000A0911D02B0911E02ED0130E020E0109771
:10192000A1F420813181820F931F20911B023091FD
:101930001C022817390709F061C0F0931C02E093DC
:101940001B02DF91CF910895EA01CE17DF07E8F57A
:101950004A815B819E0141155105B1F7E901FB8385
:10196000EA8349915991C40FD51FEC17FD0761F423
:10197000808191810296840F951FE9019983888364
:10198000828193819B838A83F0E0E0E012968D91BF
:101990009C9113970097B9F52D913C911197CD012A
:1019A0000296820F931F20911B0230911C02281770
:1019B000390739F6309751F510921E0210921D0228
:1019C000B0931C02A0931B02BCCFD383C28340817F
:1019D0005181840F951FC817D90761F44E5F5F4F7F
:1019E00088819981480F591F518340838A819B8147
:1019F000938382832115310509F0B0CFF0931E0245
:101A0000E0931D029ECFFD01DC01C0CF1382128244
:101A1000D7CFB0E0A0E0EFE0FDE00C94680B8C01C4
:101A2000009751F4CB010E94E40B8C01C801CDB7A3
:101A3000DEB7E0E10C94840BFC01E60FF71F9C017C
:101A400022503109E217F30708F49DC0D901CD9166
:101A5000DC911197C617D70798F0C530D10530F340
:101A6000CE0104978617970708F3C61BD70B22975A
:101A7000C193D1936D937C93CF010E94800CD6CFFC
:101A80005B01AC1ABD0A4C018C0E9D1EA0911D027B
:101A9000B0911E02512C412CF12CE12C109731F504
:101AA00080911B0290911C028815990509F05CC079
:101AB0004616570608F058C0809104019091050120
:101AC000009741F48DB79EB74091080150910901EC
:101AD000841B950BE817F90708F055C0F0931C021A
:101AE000E0931B02F90171836083A0CF8D919C91DB
:101AF000119712966C90129713967C901397A815D5
:101B0000B90559F56C0142E0C40ED11CCA14DB04BE
:101B100020F1AC014A195B09DA011296159780F0A1
:101B20006282738251834083D9016D937C93E11467
:101B3000F10471F0D7011396FC93EE93129776CFD0
:101B400022968C0F9D1FF90191838083F301EFCFC3
:101B5000F0931E02E0931D0269CF4816590608F45F
:101B60002C017D01D3019ACFCB010E94E40B7C01B3
:101B7000009749F0AE01B8010E94C60DC8010E944D
:101B8000800C870153CF10E000E050CFFB01DC0157
:101B900002C001900D9241505040D8F70895FB01CA
:101BA000DC0101900D920020E1F70895FB015191B5
:101BB0005523A9F0BF01DC014D9145174111E1F713
:101BC00059F4CD010190002049F04D91401541118B
:101BD000C9F3FB014111EFCF81E090E00197089537
:101BE000F894FFCF8501850100001F028000781E58
:101BF00000A02800F03C00405100127A00E4A2004E
:101C000024F40048E80190D00320A1070000000060
:101C100034029401C101AE02F201D001E4010000DE
:101C2000000091035603A703060348032D0307038F
:041C30000D0A000099
:107800000C94343C0C94513C0C94513C0C94513CE1
:107810000C94513C0C94513C0C94513C0C94513CB4
:107820000C94513C0C94513C0C94513C0C94513CA4
:107830000C94513C0C94513C0C94513C0C94513C94
:107840000C94513C0C94513C0C94513C0C94513C84
:107850000C94513C0C94513C0C94513C0C94513C74
:107860000C94513C0C94513C11241FBECFEFD8E036
:10787000DEBFCDBF11E0A0E0B1E0EAE8FFE702C063
:1078800005900D92A230B107D9F712E0A2E0B1E065
:1078900001C01D92AD30B107E1F70E942D3D0C945F
:1078A000C33F0C94003C982F95959595959595958B
:1078B000905D8F708A307CF0282F295A8091C0000B
:1078C00085FFFCCF9093C6008091C00085FFFCCF60
:1078D0002093C6000895282F205DF0CF982F809127
:1078E000C00085FFFCCF9093C6000895EF92FF92F1
:1078F0000F931F93EE24FF2487018091C00087FD22
:1079000017C00894E11CF11C011D111D81E2E8164D
:1079100081EAF80687E0080780E0180770F3E09135
:107920000401F091050109958091C00087FFE9CF1E
:107930008091C6001F910F91FF90EF9008950E94D3
:10794000763C982F8091C00085FFFCCF9093C600B5
:1079500091362CF490330CF09053892F089597555D
:10796000892F08951F930E949F3C182F0E949F3CCF
:107970001295107F810F1F9108951F93182F882350
:1079800021F00E94763C1150E1F71F9108951F935A
:10799000182F0E94763C803249F0809103018F5F5E
:1079A000809303018530C1F01F9108958091C0003C
:1079B00085FFFCCF84E18093C6008091C00085FFE5
:1079C000FCCF1093C6008091C00085FFFCCF80E102
:1079D0008093C6001F910895E0910401F091050184
:1079E00009951F9108950E94763C803241F0809164
:1079F00003018F5F80930301853081F008958091AA
:107A0000C00085FFFCCF84E18093C6008091C00058
:107A100085FFFCCF80E18093C6000895E0910401CA
:107A2000F09105010995089548EC50E08823A1F0F4
:107A30002D9A28EE33E0FA013197F1F721503040CA
:107A4000D1F72D9828EE33E0FA013197F1F7215064
:107A50003040D1F7815061F708953F924F925F9285
:107A60006F927F928F929F92AF92BF92CF92DF924E
:107A7000EF92FF920F931F93CF93DF93000082E06A
:107A80008093C00080E18093C4001092C50088E11B
:107A90008093C10086E08093C2005098589A259A3E
:107AA00081E00E94143D24E1F22E9EE1E92E85E959
:107AB000D82E0FE0C02E10E1B12EAA24A394B1E479
:107AC0009B2EA6E58A2EF2E57F2EE0E26E2E79E46B
:107AD000572E63E5462E50E5352E0E94763C8033C6
:107AE000B1F18133B9F1803409F46FC0813409F404
:107AF00076C0823409F485C0853409F488C08035A5
:107B000031F1823521F1813511F1853509F485C0D6
:107B1000863509F48DC0843609F496C0843709F49B
:107B200003C1853709F472C1863709F466C08091B4
:107B300003018F5F80930301853079F6E0910401A2
:107B4000F091050109950E94763C803351F60E9420
:107B5000F33CC3CF0E94763C803249F78091C0004D
:107B600085FFFCCFF092C6008091C00085FFFCCF5E
:107B70009092C6008091C00085FFFCCF8092C60025
:107B80008091C00085FFFCCF7092C6008091C0003C
:107B900085FFFCCF6092C6008091C00085FFFCCFBE
:107BA0005092C6008091C00085FFFCCF4092C60075
:107BB0008091C00085FFFCCF3092C6008091C0004C
:107BC00085FFFCCFB092C60088CF0E94763C8638F5
:107BD00008F4BDCF0E94763C0E94F33C7ECF0E9409
:107BE000763C803809F49CC0813809F40BC1823896
:107BF00009F430C1883909F48FC080E00E94C73C85
:107C00006CCF84E10E94BD3C0E94F33C66CF85E0CE
:107C10000E94BD3C0E94F33C60CF0E94763C809362
:107C200006010E94763C809307010E94F33C55CFE9
:107C30000E94763C803309F411C183E00E94BD3C70
:107C400080E00E94C73C49CF0E94763C80930902A5
:107C50000E94763C8093080280910C028E7F809374
:107C60000C020E94763C853409F409C18091080217
:107C700090910902892B89F000E010E00E94763C87
:107C8000F801E85FFE4F80830F5F1F4F809108026D
:107C9000909109020817190788F30E94763C8032F8
:107CA00009F045CF80910C0280FFF5C0609106017C
:107CB00070910701660F771F7093070160930601AB
:107CC000A0910802B09109021097C9F0E8E0F1E034
:107CD0009B01AD014E0F5F1FF999FECF32BD21BD53
:107CE000819180BDFA9AF99A2F5F3F4FE417F5070B
:107CF00099F76A0F7B1F70930701609306018091CB
:107D0000C00085FFFCCFF092C6008091C00085FFC7
:107D1000FCCFB092C600E1CE83E00E94C73CDDCE2E
:107D200082E00E94C73CD9CE0E94763C8093090233
:107D30000E94763C80930802809106019091070191
:107D4000880F991F90930701809306010E94763C4B
:107D5000853409F49AC080910C028E7F80930C02C6
:107D60000E94763C803209F0B8CE8091C00085FF39
:107D7000FCCFF092C600A0910802B09109021097C2
:107D8000C1F180910C02082F0170182F1695117007
:107D9000E0910601F0910701AF014F5F5F4FBA011B
:107DA00020E030E00023B1F4112339F49491809164
:107DB000C00085FFFCCF9093C6002F5F3F4FCB01E3
:107DC0000196FA012A173B0780F4BC014F5F5F4F11
:107DD000002351F3F999FECFF2BDE1BDF89A90B5B9
:107DE0008091C00085FFFCCFE6CF709307016093C0
:107DF00006018091C00085FDE5CE8091C00085FF21
:107E0000F8CFE0CE81E00E94C73C67CE0E94763C6E
:107E1000803209F08CCE8091C00085FFFCCFF092BB
:107E2000C6008091C00085FFFCCFE092C600809123
:107E3000C00085FFFCCFD092C6008091C00085FFB6
:107E4000FCCFC092C6008091C00085FFFCCFB092ED
:107E5000C60043CE80E10E94C73C3FCE0E94763CE4
:107E60000E94763C182F0E94763C112309F483C0AF
:107E7000113009F484C08FE00E94C73C2ECE80915F
:107E80000C02816080930C02F1CE80910C02816023
:107E900080930C0265CF809107018823880F880B9F
:107EA0008A2180930B028091060190910701880F2F
:107EB000991F90930701809306018091080280FF2B
:107EC00009C08091080290910902019690930902DD
:107ED00080930802F894F999FECF1127E0910601EA
:107EE000F0910701C8E0D1E0809108029091090269
:107EF000103091F40091570001700130D9F303E084
:107F000000935700E8950091570001700130D9F3B4
:107F100001E100935700E8950990199000915700EE
:107F200001700130D9F301E000935700E8951395F3
:107F3000103498F011270091570001700130D9F3E7
:107F400005E000935700E89500915700017001305B
:107F5000D9F301E100935700E8953296029709F0B2
:107F6000C7CF103011F00296E5CF11248091C000E8
:107F700085FFC5CEC8CE8EE10E94C73CAECD85E957
:0C7F80000E94C73CAACDF894FFCF8000FF
:00000001FF
