:100000000C949E000C94BC050C9495050C94C600B1
:100010000C94C6000C94C6000C94C6000C94C60048
:100020000C94C6000C94C6000C94C6000C94C60038
:100030000C94C6000C94C6000C94C6000C94C60028
:100040000C944B050C94C6000C9409060C94E30523
:100050000C94C6000C94C6000C94C6000C94C60008
:100060000C94C6000C94C6004C6F526120696E69F6
:100070006369616C697A61646F20636F7272656332
:1000800074616D656E74652E2E2E000A0A4C6F52D7
:100090006120476174657761792054657374657276
:1000A0002076362E3200205B20E29C94204F6B207D
:1000B0005D002C002C002C002C00445441002C002E
:1000C0002C0020C2AB20E29C98204572726F7220F7
:1000D0006465206C6563747572612E2E2E20C2BB20
:1000E000000A2052783A20000000000008000201B7
:1000F00000000304070000000000000000000000F2
:1001000000250028002B0000000000240027002A02
:1001100000040404040404040402020202020203B0
:1001200003030303030102040810204080010204BA
:10013000081020010204081020009A0611241FBE96
:10014000CFEFD8E0DEBFCDBF22E0A6E5B1E001C031
:100150001D92A532B207E1F711E0A0E0B1E0E4ECB6
:10016000FCE102C005900D92A635B107D9F710E069
:10017000CEE9D0E004C02197FE010E94400CCD39A9
:10018000D107C9F70E94F3060C94600E0C9400008E
:1001900090E0FC01EB5DFE4F24918F5E9E4FFC01D1
:1001A0008491882399F090E0880F991FFC01E95F02
:1001B000FE4FA591B491FC01E350FF4F85919491BE
:1001C0008FB7F894EC91E22BEC938FBF089590E0F9
:1001D000FC01E751FF4F2491FC01EB5DFE4F349190
:1001E000FC01EF5EFE4FE491EE23C9F0222339F0CB
:1001F000233001F1A8F4213019F1223029F1F0E087
:10020000EE0FFF1FE350FF4FA591B4918FB7F89405
:10021000EC91611126C030953E233C938FBF089529
:100220002730A9F02830C9F0243049F780918000A8
:100230008F7D03C0809180008F7780938000DFCF17
:1002400084B58F7784BDDBCF84B58F7DFBCF809164
:10025000B0008F778093B000D2CF8091B0008F7DB7
:10026000F9CF3E2BDACF3FB7F89480915D019091A2
:100270005E01A0915F01B091600126B5A89B05C009
:100280002F3F19F00196A11DB11D3FBFBA2FA92F15
:10029000982F8827BC01CD01620F711D811D911D12
:1002A00043E0660F771F881F991F4A95D1F708957D
:1002B0008F929F92AF92BF92CF92DF92EF92FF9276
:1002C0004B015C010E9433016B017C010E943301F0
:1002D0006C197D098E099F09683E7340810591055F
:1002E000A8F321E0821A9108A108B10888EEC80E8F
:1002F00083E0D81EE11CF11C81149104A104B10417
:1003000029F7FF90EF90DF90CF90BF90AF909F9034
:100310008F90089508950895DB0114964D915C9196
:1003200015976D917C91DC01ED91FC910280F38138
:10033000E02D0994AF92BF92CF92DF92EF92FF929D
:100340000F931F93CF93DF936C017B018B01040FFD
:10035000151FEB015E01AE18BF08C017D10759F099
:100360006991D601ED91FC910190F081E02DC601DB
:100370000995892B79F7C501DF91CF911F910F91D5
:10038000FF90EF90DF90CF90BF90AF900895FC0169
:10039000538D448D252F30E0842F90E0821B930BEA
:1003A000541710F0CF96089501970895FC01918D90
:1003B000828D981761F0A28DAE0FBF2FB11D5D9693
:1003C0008C91928D9F5F9F73928F90E008958FEF35
:1003D0009FEF0895FC01918D828D981731F0828DE9
:1003E000E80FF11D858D90E008958FEF9FEF089540
:1003F000FC01918D228D892F90E0805C9F4F821BA4
:1004000091098F739927089581E691E00E94F80180
:1004100021E0892B09F420E0822F089580E090E00C
:10042000892B29F00E94040281110C940000089588
:10043000FC01A48DA80FB92FB11DA35ABF4F2C9159
:10044000848D90E001968F739927848FA689B78950
:100450002C93A089B1898C91837080648C93938D47
:10046000848D981306C00288F389E02D80818F7DEA
:1004700080830895EF92FF920F931F93CF93DF93A2
:10048000EC0181E0888F9B8D8C8D98131AC0E889D0
:10049000F989808185FF15C09FB7F894EE89FF899F
:1004A0006083E889F98980818370806480839FBF3D
:1004B00081E090E0DF91CF911F910F91FF90EF903D
:1004C0000895F62E0B8D10E00F5F1F4F0F7311274D
:1004D000E02E8C8D8E110CC00FB607FCFACFE88988
:1004E000F989808185FFF5CFCE010E941802F1CFF6
:1004F000EB8DEC0FFD2FF11DE35AFF4FF0829FB7FC
:10050000F8940B8FEA89FB8980818062CFCF0F93AB
:100510001F93CF93DF938C01D0E0C0E0F801EC0F84
:10052000FD1F6491662341F081E691E00E943A024A
:10053000892B11F02196F2CFCE01DF91CF911F913F
:100540000F910895CF93DF930E948702EC0142E060
:1005500050E06CE471E081E691E00E949A018C0F1A
:100560009D1FDF91CF910895CF93DF93EC01888D8C
:100570008823B9F0AA89BB89E889F9898C9185FD1E
:1005800003C0808186FD0DC00FB607FCF7CF8C91AC
:1005900085FFF2CF808185FFEDCFCE010E9418024A
:1005A000E9CFDF91CF9108950F931F93CF93DF93FE
:1005B000EC01062F142F60E088890E94E7009C85DB
:1005C0008D859CBD8DBD0EBD00000DB407FEFDCF19
:1005D0008EB51EBD00000DB407FEFDCF1EB561E057
:1005E00088890E94E700812FDF91CF911F910F91A1
:1005F000089540E00C94D40210921C0210921B0249
:100600006DE18FEF91E00E94F902482F4E7F6DE976
:100610008FEF91E00C94D40208950F931F93CF9322
:10062000DF93EC01E881F9810084F185E02D0995E3
:10063000892BB1F06DE0CE010E94F902082F60E035
:10064000CE010E94F902182F402F6DE8CE010E94C2
:10065000D402812F90E0DF91CF911F910F910895E7
:100660008FEF9FEFF8CFCF93DF93EC01E881F98113
:100670000084F185E02D0995892B69F08A8D9B8D89
:1006800001969B8F8A8F60E0CE010E94F90290E074
:10069000DF91CF9108958FEF9FEFFACFCF93DF9344
:1006A000EC0163E10E94F90290E02A8D3B8D821BF0
:1006B000930BDF91CF910895AF92BF92CF92DF92CB
:1006C000FF920F931F93CF93DF936C015B01EA01BD
:1006D00062E20E94F902F82E90E09C012C0F3D1F6F
:1006E0002F3F310529F020F0CFEFD0E0C81BD90B08
:1006F0008501AC0EBD1E0A151B0541F0F8014191A4
:100700008F0160E8C6010E94D402F5CF4C2F4F0D37
:1007100062EAC6010E94D402CE01DF91CF911F91FF
:100720000F91FF90DF90CF90BF90AF900895CF933F
:10073000DF931F92CDB7DEB76983DC01ED91FC91A9
:100740000280F381E02D41E050E0BE016F5F7F4FFA
:1007500009950F90DF91CF91089590E080E0089582
:10076000DC0114966D917C91159730E020E090E0CB
:1007700080E026173707A1F0ED91FC911197309793
:1007800061F410925601E6E5F1E04081840F911D7D
:1007900047FD9A952F5F3F4FECCFE20FF31FF5CF48
:1007A0000895CF93DF93EC0188819981009711F030
:1007B0000E94E20C198218821D821C821B821A82FE
:1007C000DF91CF910895FC0180819181009711F014
:1007D0000C94E20C0895CF93DF93DC0114962D91D5
:1007E0003C911597232B79F0FB01CD91DC91608131
:1007F0007181CE010E94460E009729F08C1B9D0B43
:10080000DF91CF9108958FEF9FEFFACF0F931F9352
:10081000CF93DF93EC0188819981009759F02A8169
:100820003B812617370730F081E0DF91CF911F9190
:100830000F9108958B016F5F7F4F0E946B0D0097A2
:1008400059F0998388831B830A832C813D81232B54
:1008500059F7FC011082E8CF80E0E7CFEF92FF92DA
:100860000F931F93CF93DF93EC017B01CB010E9489
:10087000750B0097A9F00C811D81080F191FB80195
:10088000CE010E940604882361F0288139818C8181
:100890009D81B701820F931F0E946E0B1D830C83F5
:1008A00081E0DF91CF911F910F91FF90EF9008951C
:1008B000EF92FF920F931F93CF93DF936115710512
:1008C00041F480E0DF91CF911F910F91FF90EF9065
:1008D000089541155105B1F07B01EC010C811D819A
:1008E000040F151FB8010E940604882351F32881C4
:1008F00039818C819D81B701820F931F0E94310E37
:100900001D830C8381E0DECFEF92FF920F931F9344
:10091000CF93DF93EC017B018A01BA010E940604A8
:1009200081110BC0CE010E94D103CE01DF91CF9186
:100930001F910F91FF90EF9008951D830C83B701D5
:10094000888199810E94310EF0CFAF92BF92CF92F1
:10095000DF92EF92FF920F931F93CF93DF93EC01FF
:100960006B015A0179012417350720F48B2D5901A9
:10097000E42EF82E198218821B821A821D821C8294
:1009800050E040E06EE471E0CE010E948404D601A4
:1009900014960D911C91A016B10628F5E016F106EB
:1009A00008F48701D601ED91FC911197E00FF11F3A
:1009B000F08010826D917C916A0D7B1D611571052F
:1009C000F1F0FB0101900020E9F73197AF01461BE0
:1009D000570BCE010E948404F60180819181080F9B
:1009E000191FD801FC92CE01DF91CF911F910F9179
:1009F000FF90EF90DF90CF90BF90AF900895CE0121
:100A00000E94D103E9CFFB01DC0111961C921E92DA
:100A100013961C921E92129715961C921E92149772
:100A20008617970749F0608171816115710521F082
:100A3000448155810C9484040895EF92FF920F93A2
:100A40001F93CF93DF93EC018B01198218821B82D5
:100A50001A821D821C82CB010E94750B7C01BC0195
:100A6000CE010E940604811109C0CE01DF91CF9111
:100A70001F910F91FF90EF900C94D103FD82EC82B7
:100A8000B80188819981DF91CF911F910F91FF90DB
:100A9000EF900C946E0B1F920F920FB60F921124D1
:100AA0002F933F938F939F93AF93BF93809159015F
:100AB00090915A01A0915B01B0915C013091580175
:100AC00026E0230F2D3758F50296A11DB11D209366
:100AD00058018093590190935A01A0935B01B09300
:100AE0005C0180915D0190915E01A0915F01B091E8
:100AF00060010196A11DB11D80935D0190935E017F
:100B0000A0935F01B0936001BF91AF919F918F91CE
:100B10003F912F910F900FBE0F901F90189529E8CD
:100B2000230F0396A11DB11DD2CF1F920F920FB6B6
:100B30000F9211242F933F934F935F936F937F9363
:100B40008F939F93AF93BF93EF93FF93E091020135
:100B5000F09103010995FF91EF91BF91AF919F91A2
:100B60008F917F916F915F914F913F912F910F9056
:100B70000FBE0F901F9018951F920F920FB60F92F5
:100B800011242F933F934F935F936F937F938F9392
:100B90009F93AF93BF93EF93FF93E0910001F09188
:100BA00001010995FF91EF91BF91AF919F918F91B5
:100BB0007F916F915F914F913F912F910F900FBE59
:100BC0000F901F9018951F920F920FB60F9211243D
:100BD0002F933F934F935F936F937F938F939F9345
:100BE000AF93BF93EF93FF9381E691E00E941802C9
:100BF000FF91EF91BF91AF919F918F917F916F91F5
:100C00005F914F913F912F910F900FBE0F901F90CA
:100C100018951F920F920FB60F9211242F938F9356
:100C20009F93EF93FF93E0917101F09172018081A6
:100C3000E0917701F091780182FD1BC09081809155
:100C40007A018F5F8F7320917B01821741F0E091D1
:100C50007A01F0E0EF59FE4F958F80937A01FF9172
:100C6000EF919F918F912F910F900FBE0F901F903A
:100C700018958081F4CFCF92DF92EF92FF92CF93BD
:100C8000DF936DE18FEF91E00E94F90290E034E094
:100C9000959587953A95E1F78A3091050CF042C019
:100CA000FC01EE0FFF1FE80FF91FE65FFE4FC0804B
:100CB000D180E2800E2C000CFF086EE18FEF91E0F6
:100CC0000E94F902D82F66E28FEF91E00E94F902AC
:100CD000C82FD295DF7021E030E040E050E004C042
:100CE000220F331F441F551FDA95D2F7C701B601F3
:100CF0000E94FF0B68EE73E080E090E00E94FF0B23
:100D0000213131054105510594F04C2F486066EAC8
:100D10008FEF91E0DF91CF91FF90EF90DF90CF9038
:100D20000C94D402CC24CA94DC2C7601C6CF4C2F70
:100D3000477FEDCFE1E6F1E01382128288EE93E087
:100D4000A0E0B0E084839583A683B7838CE291E032
:100D50009183808385EC90E09587848784EC90E094
:100D60009787868780EC90E0918B808B81EC90E078
:100D7000938B828B82EC90E0958B848B86EC90E059
:100D8000978B868B118E128E138E148EEFEFF1E0FF
:100D9000138212828EE391E09183808380E58487C1
:100DA00081E085878EEF91E0978786878AE090E0E3
:100DB000918B808B89E090E0938B828B82E090E036
:100DC000958B848B168A178A108E118E138E128E35
:100DD000158E148E178E168E11A210A214821582F3
:100DE000168217820895CF93DF93CDB7DEB7E697CB
:100DF0000FB6F894DEBF0FBECDBF789484B5826085
:100E000084BD84B5816084BD85B5826085BD85B5AE
:100E1000816085BD80916E00816080936E0010922C
:100E200081008091810082608093810080918100A7
:100E30008160809381008091800081608093800038
:100E40008091B10084608093B1008091B000816096
:100E50008093B00080917A00846080937A008091C2
:100E60007A00826080937A0080917A008E7F8093EE
:100E70007A0080917A00806880937A001092C10095
:100E8000E0917101F091720182E08083E0916D0147
:100E9000F0916E011082E0916F01F091700183E09A
:100EA000808310927901E0917501F091760186E0DE
:100EB0008083E0917301F09174018081806180836F
:100EC000E0917301F0917401808188608083E091EA
:100ED0007301F0917401808180688083E0917301D7
:100EE000F091740180818F7D80838BE890E00E9477
:100EF000A20280910F020E94C80061E080910F025F
:100F00000E94E70080911102909112028F3F980792
:100F1000C1F00E94C80060E0809111020E94E700C9
:100F20006AE070E080E090E00E94580161E080910A
:100F300011020E94E7006AE070E080E090E00E9409
:100F400058011FB7F89480915701811124C0EBE13B
:100F5000F1E08491EFE2F1E09491E82FF0E0EE0F00
:100F6000FF1FE95FFE4FA591B491EC91E92321F4B5
:100F700061E08AE00E94E7008AE00E94C8008CB528
:100F800080618CBD8CB580648CBD8DE00E94C800F2
:100F90008BE00E94C800809157018F5F80935701BA
:100FA0001FBF62E48FEF91E00E94F902823109F0E5
:100FB000FDC040E861E88FEF91E00E94D40280EC30
:100FC0009AECA9E8B6E38093150290931602A093D9
:100FD0001702B093180244EE66E88FEF91E00E948A
:100FE000D40240EC67E88FEF91E00E94D40240E029
:100FF00068E88FEF91E00E94D40240E06EE88FEF46
:1010000091E00E94D40240E06FE88FEF91E00E94EF
:10101000D4026CE08FEF91E00E94F902482F436008
:101020006CE88FEF91E00E94D40244E066EA8FEF13
:1010300091E00E94D40244E86DEC8FEF91E00E94B1
:10104000D4024BE26BE88FEF91E00E94D4024FE8AC
:1010500069E88FEF91E00E94D40241E861E88FEFE8
:1010600091E00E94D40247E86DEC8FEF91E00E947E
:10107000D40241E36BE88FEF91E00E94D4024FE885
:1010800069E88FEF91E00E94D4026DE18FEF91E06B
:101090000E94F9028F70482F40676DE98FEF91E051
:1010A0000E94D4020E943B0643EC61EB8FEF91E07B
:1010B0000E94D4024AE067EB8FEF91E00E94D402D5
:1010C0006EE18FEF91E00E94F9028F70482F406C23
:1010D0006EE98FEF91E00E94D4020E943B066DE121
:1010E0008FEF91E00E94F902817F482F42606DE905
:1010F0008FEF91E00E94D40240E861E88FEF91E029
:101100000E94D40288E690E00E94A2028E010F5F46
:101110001F4F30E0432E30E0532E62E18FEF91E01D
:101120000E94F902F82E0E94FC024F2D62E98FEF17
:1011300091E00E94D402F6FE3AC0F5FC38C010924D
:101140001A021092190280911B0290911C0262E215
:10115000892B09F463E18FEF91E00E94F902E82EF8
:10116000F12C60E18FEF91E00E94F902482F6DE8C9
:101170008FEF91E00E94D40241E861E88FEF91E0A7
:101180000E94D402EF2839F562E370E080E090E03D
:101190000E9458014114510409F4BFCF0E94040277
:1011A000882309F4B6CF0E940000B3CFFFCF61E0DF
:1011B0008FEF91E00E94F902863831F340E06DE84C
:1011C0008FEF91E00E94D40246E861E88FEF91E052
:1011D0000E94D402D9CF68EE70E0CE01C1960E9481
:1011E0001D058FEF91E00E944E03892B71F08FEF68
:1011F00091E00E94330389831A8241E050E0B801F4
:10120000CE01C1960E945804ECCF81EE90E00E947E
:101210008702BE016F5C7F4FCE014F960E9403058F
:1012200060EC70E0C8010E941D058BA19CA12D817E
:101230003E816C01C21AD30A2115310541F1009794
:1012400031F18217930718F1C816D90620F06C0106
:1012500021E0C21AD108AF8CB8A069807A80C5019C
:10126000EE24EA94FE2C45018C0C9D1C88169906F0
:1012700088F0B3010E94460E009761F09C012A1984
:101280003B09C216D30608F079010196EFCFEE2490
:10129000EA94FE2CC8010E94E3038FEFE81AF80AD3
:1012A0002BA13CA1A701BE01615E7F4FC8010E9436
:1012B000A50489819A81812C912C5401009719F001
:1012C0000E94470B4B01C8010E94E303970150E0C5
:1012D00040E0BE01615E7F4FC8010E94A5048F8D72
:1012E00098A1009709F4B9C169817A8161157105E6
:1012F00009F4B1C149A15AA12D813E81421753077A
:1013000008F4A9C10E94310E8D819E819CA38BA3FC
:101310001E821D82C8010E94E303BE01615E7F4FF1
:10132000C8010E940305C8010E94B0036C01C801F6
:101330000E94E3036EEB70E0C8010E941D05B80136
:10134000CE014F960E94EB037C01C8010E94E3038B
:101350002BA13CA121503109A7014F5F5F4FBE0176
:10136000615E7F4FCE0149960E94A5046AEB70E052
:10137000C8010E941D054D815E818BA19CA184172F
:10138000950708F47BC18F8D98A1009709F476C169
:1013900069817A816115710509F470C10E94380E66
:1013A000892B09F06BC168EB70E0CE0143960E9477
:1013B0001D05BE016D5E7F4FCE0149960E94EB0375
:1013C000019629F0FF24F394C814D90409F0F12CF4
:1013D000CE0143960E94E303C8010E94E303CE01BD
:1013E00049960E94E303CE014F960E94E303BE019B
:1013F0006F5C7F4F81E691E0FF2009F441C10E94BC
:101400008C01BE016F5C7F4FCE018B960E9403055D
:1014100066EB70E0C8010E941D05B801CE018B96F5
:101420000E94EB037C01C8010E94E303970150E096
:1014300040E0BE01655D7F4FCE0185960E94A50408
:10144000BE016B5D7F4FCE0143960E94030564EBA6
:1014500070E0CE0143960E942E04811104C0CE019B
:1014600043960E94D1034AE0B80183E090E00E94D5
:101470007E0BF80101900020E9F73197AF01401B86
:10148000510BB801CE0143960E945804811104C04B
:10149000CE0143960E94D10362EB70E0CE014396E9
:1014A0000E942E04811104C0CE0143960E94D103F4
:1014B000BE016D5E7F4FCE014F960E940305CE01A7
:1014C00043960E94E303BE01615E7F4FCE014996C1
:1014D0000E940305CE0149960E94B0031C8A1B8A14
:1014E0001E8A1D8A188E1F8A4AE0B8010E947E0B50
:1014F000F80101900020E9F73197AF01401B510B33
:10150000B801CE0143960E9484044F89588D6B899F
:101510007C89CE014F960E945804CE0143960E94CA
:10152000E303CE0149960E94E30362E370E080E0AA
:1015300090E00E945801BE01615E7F4FCE0143964C
:101540000E94030561E08FEF91E00E94F902837031
:10155000833009F162E18FEF91E00E94F90283FF8D
:1015600006C048E062E98FEF91E00E94D40241E8B2
:1015700061E88FEF91E00E94D4020E94FC0240E0FB
:101580006DE88FEF91E00E94D40240E062EA8FEFB5
:1015900091E00E94D402BE016D5E7F4F8FEF91E01B
:1015A0000E948C0143E861E88FEF91E00E94D40231
:1015B00062E18FEF91E00E94F90283FFF9CF48E0EA
:1015C00062E98FEF91E00E94D4021A8219821C8294
:1015D0001B821E821D8246E050E06FE471E0C8016C
:1015E0000E9484044F89588D6B897C89C8010E94B0
:1015F0005804811103C0C8010E94D103B80181E6DB
:1016000091E00E948C01C8010E94E30386EA90E009
:101610000E94870264E670E080E090E00E9458013A
:1016200040E861E88FEF91E00E94D402CE0143963A
:101630000E94E303CE014F960E94E303CE018596FC
:101640000E94E303CE018B960E94E303CE01C19674
:101650000E94E30399CD0E94E20C89819A8198A3AC
:101660008F8F8B819C819AA389A38D819E819CA35E
:101670008BA31A8219821C821B824ACEF12CACCE1B
:101680000E948C0182EC90E00E948702DFCF1F93C2
:10169000FC0199278827BC01E89411911032E9F3E5
:1016A000193010F01E30C8F31B3251F01D3249F4CE
:1016B000689406C00E94890B610F711D811D911DE8
:1016C000119110531A30B0F33EF4909580957095B7
:1016D00061957F4F8F4F9F4F1F910895FB01DC0154
:1016E00005900D920020E1F70895FC01059000207F
:1016F000E9F7809590958E0F9F1F0895BB274A307C
:1017000031F4992322F4BDE2909581959F4F0C947A
:101710009F0B592F482F372F262F660F771F881FB3
:10172000991F660F771F881F991F620F731F841FF1
:10173000951F660F771F881F991F0895BB27FB0110
:101740005527AA27880F991FAA1FA41710F0A41BBA
:1017500083955051B9F7A05DAA3308F0A95DA19314
:10176000009779F7B111B1931192CB010C94B80B9A
:10177000DC01FC01672F71917723E1F7329704C0F8
:101780007C916D9370836291AE17BF07C8F3089583
:101790002F923F924F925F926F927F928F929F9281
:1017A000AF92BF92CF92DF92EF92FF920F931F936F
:1017B000CF93DF93CDB7DEB7CA1BDB0B0FB6F89420
:1017C000DEBF0FBECDBF09942A88398848885F8460
:1017D0006E847D848C849B84AA84B984C884DF80D1
:1017E000EE80FD800C811B81AA81B981CE0FD11DB5
:1017F0000FB6F894DEBF0FBECDBFED010895052EE4
:1018000097FB1EF400940E94160C57FD07D00E940F
:101810001E0C07FC03D04EF40C94160C509540950A
:10182000309521953F4F4F4F5F4F0895909580958C
:10183000709561957F4F8F4F9F4F0895A1E21A2EAB
:10184000AA1BBB1BFD010DC0AA1FBB1FEE1FFF1F64
:10185000A217B307E407F50720F0A21BB30BE40BB4
:10186000F50B661F771F881F991F1A9469F76095FB
:101870007095809590959B01AC01BD01CF010895B5
:10188000EE0FFF1F0590F491E02D09940F931F9325
:10189000CF93DF938230910510F482E090E0E091E5
:1018A0002302F091240230E020E0B0E0A0E0309785
:1018B00099F42115310509F44AC0281B390B24304D
:1018C0003105D8F58A819B816115710589F1FB018C
:1018D00093838283FE0111C0408151810281138173
:1018E00048175907E0F04817590799F4109761F025
:1018F00012960C93129713961C933296CF01DF9198
:10190000CF911F910F910895009323021093240209
:10191000F4CF2115310551F04217530738F0A901D2
:10192000DB019A01BD01DF01F801C1CFEF01F9CF61
:101930009093240280932302CDCFFE01E20FF31F88
:10194000819391932250310939832883D7CF2091F5
:10195000210230912202232B41F420910601309183
:10196000070130932202209321022091040130913B
:1019700005012115310541F42DB73EB7409108010D
:1019800050910901241B350BE0912102F0912202B4
:10199000E217F307A0F42E1B3F0B2817390778F046
:1019A000AC014E5F5F4F2417350748F04E0F5F1FA5
:1019B0005093220240932102819391939FCFF0E0B4
:1019C000E0E09CCFCF93DF930097E9F0FC013297E2
:1019D00013821282A0912302B0912402ED0130E023
:1019E00020E01097A1F420813181820F931F209174
:1019F0002102309122022817390709F061C0F093C3
:101A00002202E0932102DF91CF910895EA01CE17DF
:101A1000DF07E8F54A815B819E0141155105B1F769
:101A2000E901FB83EA8349915991C40FD51FEC1753
:101A3000FD0761F4808191810296840F951FE90171
:101A400099838883828193819B838A83F0E0E0E09D
:101A500012968D919C9113970097B9F52D913C9119
:101A60001197CD010296820F931F20912102309190
:101A700022022817390739F6309751F510922402BF
:101A800010922302B0932202A0932102BCCFD383F1
:101A9000C28340815181840F951FC817D90761F413
:101AA0004E5F5F4F88819981480F591F5183408352
:101AB0008A819B81938382832115310509F0B0CF00
:101AC000F0932402E09323029ECFFD01DC01C0CFFE
:101AD00013821282D7CFB0E0A0E0E1E7FDE00C94E2
:101AE000CA0B8C01009751F4CB010E94460C8C016B
:101AF000C801CDB7DEB7E0E10C94E60BFC01E60FC0
:101B0000F71F9C0122503109E217F30708F49DC02A
:101B1000D901CD91DC911197C617D70798F0C53040
:101B2000D10530F3CE0104978617970708F3C61B3B
:101B3000D70B2297C193D1936D937C93CF010E94D1
:101B4000E20CD6CF5B01AC1ABD0A4C018C0E9D1E77
:101B5000A0912302B0912402512C412CF12CE12CB4
:101B6000109731F5809121029091220288159905F4
:101B700009F05CC04616570608F058C08091040171
:101B800090910501009741F48DB79EB740910801EF
:101B900050910901841B950BE817F90708F055C00F
:101BA000F0932202E0932102F90171836083A0CFB8
:101BB0008D919C91119712966C90129713967C9030
:101BC0001397A815B90559F56C0142E0C40ED11C54
:101BD000CA14DB0420F1AC014A195B09DA01129640
:101BE000159780F06282738251834083D9016D938F
:101BF0007C93E114F10471F0D7011396FC93EE93FA
:101C0000129776CF22968C0F9D1FF90191838083C6
:101C1000F301EFCFF0932402E093230269CF48163B
:101C2000590608F42C017D01D3019ACFCB010E9403
:101C3000460C7C01009749F0AE01B8010E94280EC5
:101C4000C8010E94E20C870153CF10E000E050CFA2
:101C5000FB01DC0102C001900D9241505040D8F7C9
:101C60000895FB01DC0101900D920020E1F7089539
:101C7000FB01DC014150504030F08D910190801902
:101C800019F40020B9F7881B990B0895FB015191B5
:101C90005523A9F0BF01DC014D9145174111E1F732
:101CA00059F4CD010190002049F04D9140154111AA
:101CB000C9F3FB014111EFCF81E090E00197089556
:041CC000F894FFCFC6
:101CC4008B018B01000025028000781E00A02800F3
:101CD400F03C00405100127A00E4A20024F40048D1
:101CE400E80190D00320A107000000003A029A0105
:101CF400C701B402F801D601EA010000000097030D
:101D04005C03AD030C034E0333030D030D0A0009FA
:061D14002054783A200083
:00000001FF
