:100000000C943D020C94D4140C94AD140C94531520
:100010000C9453150C9453150C9465020C946502C2
:100020000C9465020C9465020C9465020C946502B4
:100030000C9465020C9465020C9465020C946502A4
:100040000C9463140C9465020C9421150C94FB140D
:100050000C9465020C9465020C9465020C94650284
:100060000C9465020C9465022B4353513A20002CEA
:10007000002B4353513A200041542B43535100006D
:10008000002C0000000041542B485454505245416C
:10009000443D302C333030004F6B00696E690041B5
:1000A000542B48545450414354494F4E3D30002244
:1000B0000026716F733D002673693D002672783DFE
:1000C000005D0026646174613D5B002F77732F73C0
:1000D000656E736F725F76362E7068703F69643D2F
:1000E0000041542B48545450504152413D225552E6
:1000F0004C222C22687474703A2F2F00004F4B0052
:100100000020000041542B4343494400000A0000F2
:100110000D000041542B434349440020636F6E207F
:100120006572726F7220E29C980020525353493AD4
:10013000200020636F7272656374616D656E746513
:1001400020E29C942049443A2000000041542B5363
:10015000415042523D312C310041542B53415042C9
:10016000523D332C312C22505744222C2277656289
:100170006770727332303032220041542B53415039
:1001800042523D332C312C2255534552222C22779A
:100190006562677072220041542B53415042523DB8
:1001A000332C312C2241504E222C22696E74657200
:1001B0006E65742E6974656C63656C2E636F6D2259
:1001C0000041542B53415042523D332C312C224399
:1001D0004F4E54595045222C224750525322004131
:1001E000542B43444E534346473D22382E382E3835
:1001F0002E38222C22382E382E342E342200415410
:100200002B53415042523D302C310041542B434638
:10021000554E3D310047534D20696E696369616CED
:10022000697A61646F002C002B4353513A200041DE
:10023000542B43535100636F6D6D4572726F723A68
:10024000200036303400363031004552524F5200D3
:100250002C002C0022002C0041542B4854545054A4
:1002600045524D002B48545450524541443A2000C9
:100270000A0041542B48545450504152413D2243AE
:100280004944222C310041542B48545450494E4982
:100290005400496E6963696F206465206C61206356
:1002A0006F6D756E6963616369C3B36E2E2E2E0028
:1002B000002020E29494E294802053656E736F7264
:1002C00065733A200044657363756272696D696590
:1002D0006E746F002020E2949CE294802046726548
:1002E0006375656E6369613A2000C2BB2056617216
:1002F0006961626C65733A20004D656D6F7269616A
:1003000020646973706F6E69626C653A20000A43FD
:100310006F6D756E6963616369C3B36E20636F6EE1
:1003200020656C207365727669646F7200307800A6
:100330003078007E204C6F526120696E696369617C
:100340006C697A61646F20636F7272656374616D4A
:10035000656E746520E29C94000A0A4C6F5261201D
:100360004761746577617920556E6976657273614E
:100370006C2076362E312E3235303830360020E281
:100380009C94204F6B002C002C002C002C0030780B
:10039000005D203C2D20000A20202020205B002C26
:1003A000003078002C00445441002C002C000A201E
:1003B00020202020E2869220000A2020202020E217
:1003C000869220C2AB20E29C98204572726F722008
:1003D0006465206C6563747572612E2E2E20C2BB1D
:1003E000000A2020202020E2869220C2AB20E29C3E
:1003F0009820446973706F73697469766F206E6FAB
:10040000207265636F6E6F6369646F2E2E2E20C23B
:10041000BB0044544100000A002C000000000024EE
:100420000027002A00000000080002010000030469
:10043000070000000000000000000000002300266C
:1004400000290000000000250028002B00040404FF
:10045000040404040402020202020203030303036D
:10046000030102040810204080010204081020014A
:100470000204081020002A16351D11241FBECFEFDC
:10048000D8E0DEBFCDBF11E0A0E0B1E0E4EEF2E4E1
:1004900002C005900D92AC3CB107D9F723E0ACEC5B
:1004A000B1E001C01D92A235B207E1F712E0CCE342
:1004B000D2E004C02197FE010E943920CB33D1073E
:1004C000C9F70E943D170C9465210C94000080919F
:1004D000490390914A03892B59F1E0911F02F09151
:1004E000200283E0EF32F80719F1309739F0A38941
:1004F000B4899C918589809589238C9380914D0343
:100500008E7F80934D0310921E0210921D028FE287
:1005100093E09093200280931F02E0914203F091B8
:100520004303808190914403892B808381E0089567
:1005300080E0089590E0FC01EB5DFB4F2491FC010D
:10054000EF59FB4F3491FC01E35BFB4FE491EE2349
:10055000C9F0222339F0233001F1A8F4213019F138
:10056000223029F1F0E0EE0FFF1FED5BFB4FA5916C
:10057000B4918FB7F894EC91611126C030953E2369
:100580003C938FBF08952730A9F02830C9F024305C
:1005900049F7809180008F7D03C0809180008F7724
:1005A00080938000DFCF84B58F7784BDDBCF84B5A7
:1005B0008F7DFBCF8091B0008F778093B000D2CF3A
:1005C0008091B0008F7DF9CF3E2BDACFCF93DF93B0
:1005D00090E0FC01EF59FB4F2491835B9B4FFC01A2
:1005E00084918823D1F090E0880F991FFC01E55E8B
:1005F000FB4FA591B491FC01ED5BFB4FC591D491EC
:1006000061110EC09FB7F8948C91E22FE0958E2374
:100610008C932881E223E8839FBFDF91CF910895D7
:100620008FB7F894EC91E22BEC938FBFF6CF3FB7E6
:10063000F8948091190290911A02A0911B02B09136
:100640001C0226B5A89B05C02F3F19F00196A11DDD
:10065000B11D3FBFBA2FA92F982F8827BC01CD010C
:10066000620F711D811D911D43E0660F771F881F6A
:10067000991F4A95D1F708958F929F92AF92BF929A
:10068000CF92DF92EF92FF926B017C010E941703E1
:100690004B015C01C114D104E104F104B9F00E94E2
:1006A0001703681979098A099B09683E7340810517
:1006B000910580F321E0C21AD108E108F10888EE23
:1006C000880E83E0981EA11CB11CE4CFFF90EF9030
:1006D000DF90CF90BF90AF909F908F9008952FB7ED
:1006E000F894609115027091160280911702909112
:1006F00018022FBF089508950895DB0114964D91B7
:100700005C9115976D917C91DC01ED91FC910280DB
:10071000F381E02D0994AF92BF92CF92DF92EF92D6
:10072000FF920F931F93CF93DF936C017B018B019B
:10073000040F151FEB015E01AE18BF08C017D107EB
:1007400059F06991D601ED91FC910190F081E02D75
:10075000C6010995892B79F7C501DF91CF911F91CA
:100760000F91FF90EF90DF90CF90BF90AF900895E2
:10077000FC01538D448D252F30E0842F90E0821BA7
:10078000930B541710F0CF96089501970895FC012C
:10079000918D828D981761F0A28DAE0FBF2FB11D84
:1007A0005D968C91928D9F5F9F73928F90E00895DC
:1007B0008FEF9FEF0895FC01918D828D981731F096
:1007C000828DE80FF11D858D90E008958FEF9FEFEA
:1007D0000895FC01918D228D892F90E0805C9F4FC0
:1007E000821B91098F739927089581E292E00E94FC
:1007F000E90321E0892B09F420E0822F089580E0AD
:1008000090E0892B29F00E94F50381110C940000DF
:100810000895FC01A48DA80FB92FB11DA35ABF4F95
:100820002C91848D90E001968F739927848FA689EF
:10083000B7892C93A089B1898C91837080648C9343
:10084000938D848D981306C00288F389E02D8081F2
:100850008F7D80830895EF92FF920F931F93CF9324
:10086000DF93EC0181E0888F9B8D8C8D98131AC0EB
:10087000E889F989808185FF15C09FB7F894EE89D2
:10088000FF896083E889F98980818370806480832F
:100890009FBF81E090E0DF91CF911F910F91FF907A
:1008A000EF900895F62E0B8D10E00F5F1F4F0F7322
:1008B0001127E02E8C8D8E110CC00FB607FCFACFDD
:1008C000E889F989808185FFF5CFCE010E9409046E
:1008D000F1CFEB8DEC0FFD2FF11DE35AFF4FF082AE
:1008E0009FB7F8940B8FEA89FB8980818062CFCF14
:1008F0000F931F93CF93DF938C01D0E0C0E0F801FA
:10090000EC0FFD1F6491662341F081E292E00E94AA
:100910002B04892B11F02196F2CFCE01DF91CF91DC
:100920001F910F910895CF93DF93EC01888D882359
:10093000B9F0AA89BB89E889F9898C9185FD03C042
:10094000808186FD0DC00FB607FCF7CF8C9185FF27
:10095000F2CF808185FFEDCFCE010E940904E9CF5F
:10096000DF91CF9108950F931F93CF93DF93EC0105
:10097000062F142F60E088890E949A029C858D853D
:100980009CBD8DBD0EBD00000DB407FEFDCF8EB524
:100990001EBD00000DB407FEFDCF1EB561E08889C5
:1009A0000E949A02812FDF91CF911F910F9108959C
:1009B00041E861E88FEB92E00C94B30440E00C94C2
:1009C000B3041092DC021092DB026DE18FEB92E037
:1009D0000E94DE04482F4E7F6DE98FEB92E00C946D
:1009E000B30408950F931F93CF93DF93EC01E88135
:1009F000F9810084F185E02D0995892BB1F06DE036
:100A0000CE010E94DE04082F60E0CE010E94DE04C9
:100A1000182F402F6DE8CE010E94B304812F90E083
:100A2000DF91CF911F910F9108958FEF9FEFF8CF36
:100A3000CF93DF93EC01E881F9810084F185E02D0B
:100A40000995892B69F08A8D9B8D01969B8F8A8FE2
:100A500060E0CE010E94DE0490E0DF91CF91089526
:100A60008FEF9FEFFACFCF93DF93EC0163E10E940A
:100A7000DE0490E02A8D3B8D821B930BDF91CF919A
:100A80000895AF92BF92CF92DF92FF920F931F9380
:100A9000CF93DF936C015B01EA0162E20E94DE0406
:100AA000F82E90E09C012C0F3D1F2F3F310529F0BF
:100AB00020F0CFEFD0E0C81BD90B8501AC0EBD1ED6
:100AC0000A151B0541F0F80141918F0160E8C6014C
:100AD0000E94B304F5CF4C2F4F0D62EAC6010E946D
:100AE000B304CE01DF91CF911F910F91FF90DF9062
:100AF000CF90BF90AF900895CF93DF931F92CDB763
:100B0000DEB76983DC01ED91FC910280F381E02D79
:100B100041E050E0BE016F5F7F4F09950F90DF917C
:100B2000CF91089520911F02309120022817390794
:100B300071F490911D0280911E02981741F0E0918E
:100B40001D02F0E0E253FE4F808190E008958FEFA8
:100B50009FEF0895EF92FF920F931F93CF93DF9330
:100B6000DC015C96ED90FC905D97E114F10479F462
:100B700081E090E013969C938E93129790E080E032
:100B8000DF91CF911F910F91FF90EF9008955196B3
:100B9000ED91FC91529750968C915097982F90958B
:100BA0000FB75E962C915E97122F127021FD609503
:100BB000F8942081112319F1282B2083E701219734
:100BC000F1F728E0462F50E0308160FF1AC0382B43
:100BD0003083E7012197F1F7BA01759567952150A8
:100BE00089F7112381F08081892380830FBF5C9670
:100BF0008D919C910197F1F781E090E0C1CF29237D
:100C0000DCCF3923E5CF9081892BEFCF20911F02D4
:100C1000309120022817390761F480911E0220913B
:100C20001D0290E0805C9F4F821B91098F73992772
:100C3000089590E080E0089520911F0230912002F5
:100C400028173907B9F490911D0280911E02981758
:100C500089F0E0911D02F0E0E253FE4F8081209187
:100C60001D0230E02F5F3F4F2F73332720931D026B
:100C700090E008958FEF9FEF089590E080E0089551
:100C800061E08FE00E949A0264EF71E080E090E002
:100C90000E943C0360E08FE00E949A0264EF71E0E2
:100CA00080E090E00C943C03DC0114966D917C9103
:100CB000159730E020E090E080E026173707A1F09C
:100CC000ED91FC911197309761F410920F02EFE0D3
:100CD000F2E04081840F911D47FD9A952F5F3F4FB1
:100CE000ECCFE20FF31FF5CF089540E060EC8FEBFF
:100CF00092E00E94B3040E94E10445E861E88FEBB2
:100D000092E00C94B304DF92EF92FF920F931F9343
:100D1000CF93DF93FC01E480F580E114F10451F4FA
:100D20008FEF9FEFDF91CF911F910F91FF90EF9089
:100D3000DF900895EC010190F081E02DEE0DFF1D94
:100D4000D08010820881198162E270E0C8010E949F
:100D500040210E0D1F1DF801D082009709F3288154
:100D60003981821B930BDECFFC0124813581FB018D
:100D70004481558124173507E1F4FC01808191817C
:100D8000FB01608171810097D1F061157105A1F4BB
:100D9000232BC1F0FC01808190E008C0232B91F04F
:100DA000FB01808190E091958195910921E0892B4B
:100DB00009F020E0822F08950E942221F7CF6115CB
:100DC000710561F721E0F6CFFB0101900020E9F702
:100DD0003197AF01461B570BDC01ED91FC9102806E
:100DE000F381E02D09948F929F92AF92BF920F935F
:100DF0001F93CF93DF93CDB7DEB7A1970FB6F894CB
:100E0000DEBF0FBECDBF19A2423008F44AE08E010A
:100E10000F5D1F4F842E912CB12CA12CA5019401A4
:100E20000E94DD1FE62FB901CA01EA3004F5E05D3A
:100E3000D801EE938D01232B242B252B79F790E0FD
:100E400080E0109729F0BD0181E292E00E94E40663
:100E5000A1960FB6F894DEBF0FBECDBFDF91CF9144
:100E60001F910F91BF90AF909F908F900895E95C74
:100E7000DFCFCF92DF92EF92FF92CF93DF936B01A0
:100E80007C016DE281E292E00E942B04EC01662776
:100E90007727CB016C197D098E099F094AE00E94D2
:100EA000F3068C0F9D1FDF91CF91FF90EF90DF90A5
:100EB000CF900895CF93DF930E947804EC0164E60D
:100EC00071E081E292E00E94E4068C0F9D1FDF91A9
:100ED000CF910895CF93DF93BC01990F880B990BA5
:100EE00097FF0EC00E943907EC0164E671E081E2D1
:100EF00092E00E94E4068C0F9D1FDF91CF91089530
:100F00004AE00E94F306F0CF0F931F93CF93DF9335
:100F1000EC010E947D038C0164E671E0CE010E9429
:100F2000E406800F911FDF91CF911F910F910895DB
:100F3000FC0180819181009711F00C94901E60E07B
:100F400070E0CB010895AF92BF92CF92DF92EF9203
:100F5000FF920F931F93CF93DF936B01EA01FB0185
:100F6000448155814115510561F1FC012481358190
:100F70002115310531F12417350718F1C217D307B0
:100F800010F0E9012197FC0100811181C801AA2418
:100F9000AA94BB24BA947801EC0EFD1EE816F9065B
:100FA000A0F0F601608171810E944B21009769F0E9
:100FB0009C01201B310BC217D30708F05901019681
:100FC000EDCFAA24AA94BB24BA94C501DF91CF9196
:100FD0001F910F91FF90EF90DF90CF90BF90AF9057
:100FE0000895CF93DF93FC01248135814217530785
:100FF00088F4C081D181FB0160817181CE01840FB1
:10100000951F0E944B21009729F08C1B9D0BDF91AF
:10101000CF9108958FEF9FEFFACF50E040E00C940E
:10102000F1072F923F924F925F926F927F928F9231
:101030009F92AF92BF92CF92DF92EF92FF920F9367
:101040001F93CF93DF93FC014480558041145104DA
:1010500009F4CDC0FB01648075806114710409F44A
:10106000C6C07A016B01EC01FA01A480B580A61814
:10107000B70808811981A114B104B9F4F60160819F
:101080007181C8010E944B218C01009709F4AFC007
:10109000F70160817181448155810E94FC20F70134
:1010A00084819581080F191FE9CFB7FC10C0FB019F
:1010B000208031804201C801B1010E944B2100977C
:1010C00009F448C0860D971D8A0C9B1CF5CF38018A
:1010D000F60160817181C8010E944B212C010097AB
:1010E00019F14C01801A910AA401B801C3010E94B0
:1010F000FC20680C791CF701608171814481558165
:10110000C3010E94FC20F70184809580680C791C43
:10111000F60104811581040D151D8C819D818A0DB8
:101120009B1D9D838C83D4CFB801C301DF91CF91E8
:101130001F910F91FF90EF90DF90CF90BF90AF90F5
:101140009F908F907F906F905F904F903F902F90E7
:101150000C942B214814590409F449C08A819B81BD
:101160008815990560F4B4016F5F7F4FC8010E9434
:101170003F200097E1F1998388839B828A824C818A
:101180005D814150510957FD32C0B601CE010E9428
:10119000A3078C0197FD2BC0F60124813581280F10
:1011A000391F88819981820F931F4C815D81421B79
:1011B000530BBC018A0D9B1D0E9405218C819D81D2
:1011C0008A0D9B1D9D838C8328813981820F931FFB
:1011D000FC01108288819981F701608171814481CD
:1011E0005581800F911F0E94FC20A801CACFDF917A
:1011F000CF911F910F91FF90EF90DF90CF90BF9014
:10120000AF909F908F907F906F905F904F903F90A6
:101210002F9008950F931F93CF93DF93EC01888154
:101220009981009759F02A813B812617370730F0C2
:1012300081E0DF91CF911F910F9108958B016F5F36
:101240007F4F0E943F20009759F0998388831B832A
:101250000A832C813D81232B59F7FC011082E8CFB2
:1012600080E0E7CFEF92FF920F931F93CF93DF932E
:101270006115710541F480E0DF91CF911F910F91CD
:10128000FF90EF90089541155105B1F07B01EC01FD
:101290000C811D81040F151FB8010E940A098823C3
:1012A00051F3288139818C819D81B701820F931F71
:1012B0000E942B211D830C8381E0DECFFB01448142
:1012C0005581608171810C943209FB014481558103
:1012D000FC01248135812417350778F080819181C4
:1012E000009759F0FB01608171816115710529F04A
:1012F0000E94322121E0892B09F020E0822F0895FD
:10130000EF92FF920F931F93CF93DF93EC017B013A
:10131000CB010E94BE1E0097A9F00C811D81080F11
:10132000191FB801CE010E940A09882361F02881A3
:1013300039818C819D81B701820F931F0E94B71E56
:101340001D830C8381E0DF91CF911F910F91FF905E
:10135000EF9008950F931F93CF93DF938C01EB01D0
:10136000FC01808191810097E1F0688179816115AC
:101370007105A9F0428153812C813D8142175307A9
:1013800070F00E942B218C819D81F80195838483CC
:101390001D821C82DF91CF911F910F9108950E94B1
:1013A000071E88819981F801918380838A819B81BE
:1013B000938382838C819D81958384831982188293
:1013C0001B821A82E5CFCF93DF93EC01888199814C
:1013D000009711F00E94071E198218821D821C823C
:1013E0001B821A82DF91CF910895CF93DF93EC0196
:1013F0000E948009811103C0CE010E94E309CE0141
:10140000DF91CF910895CF93DF93EC01FB01019021
:101410000020E9F73197AF01461B570B0E943209B4
:10142000811103C0CE010E94E309CE01DF91CF916B
:101430000895CF93DF93EC01FB01448155816081D6
:1014400071810E943209811103C0CE010E94E3091B
:10145000CE01DF91CF910895EF92FF920F931F93EA
:10146000CF93DF93EC017B018A01BA010E940A0944
:1014700081110BC0CE010E94E309CE01DF91CF9113
:101480001F910F91FF90EF9008951D830C83B7017A
:10149000888199810E942B21F0CFFB0101900020CF
:1014A000E9F73197AF01461B570B0C942C0A0F93A9
:1014B0001F93CF93DF93CDB7DEB762970FB6F89443
:1014C000DEBF0FBECDBF8C01CB01F80111821082AF
:1014D00013821282158214824AE0BE016F5F7F4F31
:1014E0000E94C71EBE016F5F7F4FC8010E944D0A58
:1014F00062960FB6F894DEBF0FBECDBFDF91CF91DD
:101500001F910F9108950F931F93CF93DF93CDB742
:10151000DEB729970FB6F894DEBF0FBECDBF8C01A2
:10152000862FF80111821082138212821582148292
:101530004AE0BE016F5F7F4F90E00E94E71EBE0150
:101540006F5F7F4FC8010E944D0A29960FB6F8942D
:10155000DEBF0FBECDBFDF91CF911F910F910895D8
:10156000CF93DF93EC01FB018617970749F0608169
:1015700071816115710541F0448155810E942C0AE9
:10158000CE01DF91CF9108950E94E309F9CFFC01CC
:101590001182108213821282158214820C94B00A76
:1015A000FC01118210821382128215821482FB01C7
:1015B00001900020E9F73197AF01461B570B0C94BF
:1015C0002C0AAF92BF92CF92DF92EF92FF920F93CD
:1015D0001F93CF93DF936C015B017A01890124177C
:1015E000350720F48F2D7901042F182F66E671E05E
:1015F000C6010E94D00AD5011496CD91DC91EC165B
:10160000FD06E0F40C171D0708F4E801D501ED9183
:10161000FC911197EC0FFD1F108110826D917C9150
:101620006E0D7F1DC60161157105A1F00E944D0A66
:10163000F50180819181C80FD91F1883C601DF9100
:10164000CF911F910F91FF90EF90DF90CF90BF90BF
:10165000AF9008950E94E309EBCF4F925F926F9293
:101660007F92BF92CF92DF92EF92FF920F931F93E0
:10167000CF93DF9300D0CDB7DEB78C017A01B22EC5
:101680008FE293E00E948407B701FF0C880B990B4F
:101690000E943C0366E671E0C8010E94D00A809176
:1016A000CD0198E8C92E93E1D92E8A3020F480E14B
:1016B000C82E87E2D82E0E946F030D2C000CEE0876
:1016C000FF08C60ED71EE81EF91E0E946F032B01ED
:1016D0003C010E946F036C157D058E059F05C0F0CF
:1016E000BB2029F0B80181E292E00E948407C80182
:1016F0000F900F90DF91CF911F910F91FF90EF907E
:10170000DF90CF90BF907F906F905F904F90089543
:101710008FE293E00E940606892B99F08FE293E016
:101720000E941C0689831A8241E050E0BE016F5F6F
:101730007F4FC8010E9432090E946F032B013C01B8
:10174000E7CFF80184819581892B19F20E946F03FC
:101750006419750986099709693C71058105910528
:1017600008F4B7CFBDCFEF92FF920F931F93CF93A3
:10177000DF93EC018B01198218821B821A821D8271
:101780001C82CB010E94BE1E7C01BC01CE010E94C6
:101790000A09811109C0CE01DF91CF911F910F91EC
:1017A000FF90EF900C94E309FD82EC82B8018881F0
:1017B0009981DF91CF911F910F91FF90EF900C9441
:1017C000B71EFC0180819181009711F00C94071ED7
:1017D0000895AF92BF92CF92DF92EF92FF920F9354
:1017E0001F93CF93DF9300D000D000D0CDB7DEB7EA
:1017F0005C01BC0181EE92E00E940D08019609F4A3
:1018000044C060E373E0CE0101960E94B30BBE01B9
:101810006F5F7F4F81EE92E00E940D087C01CE0148
:1018200001960E94E10B10E000E06DE273E0CE0152
:1018300001960E94B30BA7014F5F5F4FBE016F5F20
:101840007F4F81EE92E00E94F1076C01CE0101967C
:101850000E94E10B9601A70161EE72E0CE010196B4
:101860000E94E10AB501CE0101960E940D087C019B
:10187000CE0101960E94E10BEF20E09441F40F5F4E
:101880001F4F76010A30110581F60FEF1FEFC801D7
:1018900026960FB6F894DEBF0FBECDBFDF91CF9175
:1018A0001F910F91FF90EF90DF90CF90BF90AF907E
:1018B00008950F931F93CF93DF93CDB7DEB768974B
:1018C0000FB6F894DEBF0FBECDBF68E770E0CE0163
:1018D00001960E94B30B20E04FE050E0BE016F5F25
:1018E0007F4FCE0143960E942D0BCE0101960E94A0
:1018F000E10B61E770E0CE0101960E94B30BBE01DF
:101900006F5F7F4FCE0143960E940D088C01CE0180
:1019100001960E94E10B0F3F1007B9F16FE670E0EE
:10192000CE0107960E94B30BBE01695F7F4FCE01C7
:1019300043960E940D088C0168E670E0CE01019686
:101940000E94B30BBE016F5F7F4FCE0143960E9492
:101950000D08AC014A5F5F4F9801BE016D5E7F4F7D
:10196000CE010D960E94E10ACE010D960E949807C5
:101970008B01CE010D960E94E10BCE0101960E94D3
:10198000E10BCE0107960E94E10BCE0143960E9427
:10199000E10BC80168960FB6F894DEBF0FBECDBF4D
:1019A000DF91CF911F910F9108958F929F92BF92D7
:1019B000CF92DF92EF92FF920F931F93CF93DF931B
:1019C000CDB7DEB768970FB6F894DEBF0FBECDBFB8
:1019D0006C018B0161EE70E0CE0143960E94B30B67
:1019E000B801CE0143960E945E096BEC70E0CE0117
:1019F00043960E94800963E273E0CE0143960E9401
:101A00005E0963EC70E0CE0143960E94800965E8B0
:101A100070E0CE010D960E94B30B07EE12E0BB24DE
:101A2000B394F12CE12C67E671E0CE0107960E9499
:101A3000D00ABE01695F7F4FC8010E940D08019660
:101A400009F03BC1B801CE0101960E94C70ABE0150
:101A50006F5F7F4FC8010E94AA09CE0101960E94C4
:101A6000E10BCE0107960E94E10B63E870E0CE0126
:101A700001960E94B30BBE016F5F7F4FC8010E94A9
:101A8000B406811101C0B12CCE0101960E94E10B78
:101A900090E8892E90E0992E89E0E816F10421F073
:101AA00081E8882E80E0982EB801CE0101960E9430
:101AB000C70AB401CE0101960E94F509BC01CE010E
:101AC0000D960E945E09CE0101960E94E10B2FEF58
:101AD000E21AF20A0A5F1F4F8AE0E816F10409F0E1
:101AE000A2CFBB2009F4F0C06FE770E0CE010196F1
:101AF0000E94B30BCE010D960E94E10BBE016F5FF9
:101B00007F4FCE0107960E94C70A61EC70E0CE01BC
:101B100007960E94F509BC01CE0143960E945E091A
:101B2000CE0107960E94E10BCE0101960E94E10BC7
:101B30006CEB70E0CE0143960E9480098091090110
:101B400068E970E0882311F06BE970E0CE014396FC
:101B50000E94800967EB70E0CE0143960E948009E5
:101B60006091CD01CE0101960E94830ABE016F5F94
:101B70007F4FCE0143960E945E09CE0101960E94DE
:101B8000E10B61EB70E0CE0143960E948009609109
:101B90000101CE0101960E94830ABE016F5F7F4F53
:101BA000CE0107960E94C70A6FEA70E0CE01079641
:101BB0000E94F509BC01CE0143960E945E09CE0148
:101BC00007960E94E10BCE0101960E94E10BBE0137
:101BD0006D5E7F4F81E292E00E948407BE016D5EE0
:101BE0007F4FCE0101960E94C70A20E04FE050E0EF
:101BF000BE016F5F7F4FCE0107960E942D0BCE0175
:101C000007960E94E10BCE0101960E94E10B6FE95D
:101C100070E0CE0101960E94B30B21E040E157E253
:101C2000BE016F5F7F4FCE010D960E942D0BCE013E
:101C300001960E94E10B6BE671E0CE0107960E94CF
:101C4000D00ABE01695F7F4FCE010D960E940D083C
:101C5000019609F041C066E870E0CE0101960E944D
:101C6000B30B21E050E040E0BE016F5F7F4FC60143
:101C70000E942D0BCE0101960E94E10BCE0107962A
:101C80000E94E10BCE010D960E94E10BCE0143961E
:101C90000E94E10BC60168960FB6F894DEBF0FBE36
:101CA000CDBFDF91CF911F910F91FF90EF90DF900B
:101CB000CF90BF909F908F90089564E870E0CE0120
:101CC00001960E94B30BC3CEBE01635F7F4FCE016E
:101CD00001960E94C70A0ECF66E671E0C6010E9417
:101CE000D00ACCCF4F925F926F927F928F929F9249
:101CF000AF92BF92CF92DF92EF92FF920F931F931A
:101D0000CF93DF93CDB7DEB76E970FB6F894DEBFF3
:101D10000FBECDBF8EE093E00E945A070E94590C7F
:101D20008093CD01809100018E010F5F1F4F8823AA
:101D300009F45AC285E192E00E94780410924A03A5
:101D400010924903109248031092470310924603E1
:101D5000109245038DEC90E090934C0380934B03DD
:101D600090913B03963108F047C025E530E0309371
:101D70004603209345032BEC30E030934803209337
:101D8000470320E930E030934A0320934903209130
:101D9000680084E0983048F031E09E3008F430E08C
:101DA00081E001C0880F3A95EAF7822B80936800A2
:101DB0002DE630E0983050F02BE630E09E3030F0E9
:101DC0002CE630E0963110F030E020E03093430311
:101DD00020934203292F30E0983008F09CC181E025
:101DE00001C0880F9A95EAF78093440380914B03D2
:101DF00090914C030197F1F70E9467020E946702DD
:101E00006BE072E0C8010E94B30B20E04FE050E0AD
:101E1000B801CE0107960E942D0BCE0107960E94B5
:101E2000E10BC8010E94E10B6EEF71E0C8010E9456
:101E3000B30B20E04FE050E0B801CE0107960E94BE
:101E40002D0BCE0107960E94E10BC8010E94E10B09
:101E50006FED71E0C8010E94B30B20E04FE050E04D
:101E6000B801CE0107960E942D0BCE0107960E9465
:101E7000E10BC8010E94E10B61EC71E0C8010E9416
:101E8000B30B20E04FE050E0B801CE0107960E946E
:101E90002D0BCE0107960E94E10BC8010E94E10BB9
:101EA00067E971E0C8010E94B30B20E04FE050E009
:101EB000B801CE0107960E942D0BCE0107960E9415
:101EC000E10BC8010E94E10B6AE771E0C8010E94C2
:101ED000B30B20E04FE050E0B801CE0107960E941E
:101EE0002D0BCE0107960E94E10BC8010E94E10B69
:101EF00069E571E0C8010E94B30B20E04FE050E0BB
:101F0000B801CE0107960E942D0BCE0107960E94C4
:101F1000E10BC8010E94E10B6CE471E0C8010E9472
:101F2000B30B20E04FE050E0B801CE0107960E94CD
:101F30002D0BCE0107960E94E10BC8010E94E10B18
:101F40002AE0822E912C6BE471E0C8010E94B30B51
:101F5000B80183E293E00E94B406882329F0FF24AD
:101F6000F394181419040CF0F12CC8010E94E10B31
:101F7000FF2009F417C163E171E0C8010E94B30BAF
:101F800020E04FE050E0B801CE010D960E942D0BED
:101F9000C8010E94E10B62E171E0C8010E94B30B2D
:101FA00060E171E0CE0107960E94B30BA801BE016B
:101FB000695F7F4FCE010D960E941108CE010796F2
:101FC0000E94E10BC8010E94E10B6FE071E0C801C3
:101FD0000E94B30B6DE071E0CE0107960E94B30B37
:101FE000A801BE01695F7F4FCE010D960E941108C6
:101FF000CE0107960E94E10BC8010E94E10B6CE044
:1020000071E0C8010E94B30B64E071E0CE01079655
:102010000E94B30BA801BE01695F7F4FCE010D96F0
:102020000E941108CE0107960E94E10BC8010E9490
:10203000E10B63E071E0C8010E94B30B61E071E065
:10204000CE0107960E94B30BA801BE01695F7F4FC6
:10205000CE010D960E941108CE0107960E94E10B59
:10206000C8010E94E10B60E071E0C8010E94B30B5F
:102070006DEF70E0CE0107960E94B30BA801BE0180
:10208000695F7F4FCE010D960E941108CE01079621
:102090000E94E10BC8010E94E10BAD84BE84A11433
:1020A000B10439F0E988FA886501E114F10409F016
:1020B00040C029893A892150310948E050E0BE01E9
:1020C000635F7F4FC8010E94E10AB801CE010D96FF
:1020D0000E94AA09C8010E94E10BBE01635F7F4F05
:1020E000C8010E94C70AE981FA812D813E812E0F25
:1020F0003F1F2E173F0709F4BBC38191082E000C28
:10210000990BC0970A97A8F36CEF70E0CE01079681
:102110000E94B30BBAC39E3040F42850310981E0CD
:1021200001C0880F2A95EAF75FCE2E503109F7CF0C
:10213000630136012FEF621A720AF6018081082EC0
:10214000000C990B0E94011F892B91F7F1E0EF1A07
:10215000F108EA0CFB1CF7018081082E000C990B9A
:102160000E94011F892B39F0EC14FD0420F0F1E0EE
:10217000EF1AF108F0CF2FEFE21AF20AA7014C197B
:102180005D095A8B498BAC14BD0420F4B601C5011E
:102190000E94FC20ED85FE8589899A89E80FF91F48
:1021A000108287CF6AE471E0C8010E94B30BB801C6
:1021B00083E293E00E94B406F82EC8010E94E10B6E
:1021C000F11093C282E391E00E94780463E273E02D
:1021D00081E292E00E947D038AE291E00E9478040D
:1021E0000E94590C0E946A0760EB72E0C8010E94CD
:1021F000B30BB80183E293E00E94B406F82EC80145
:102200000E94E10BF11002C382E992E00E945A079A
:102210006FE272E0C8010E94B30B20E04FE050E093
:10222000B801CE010D960E942D0BC8010E94E10B52
:1022300068E272E0C8010E94B30BB801CE010D96AE
:102240000E940D087C01C8010E94E10B8FEFE81687
:10225000F80621F1E988FA8866E272E0CE01079675
:102260000E94B30BBE01695F7F4FCE010D960E94A5
:102270000D08AC014F5F5F4F9701BE01635F7F4F59
:10228000C8010E94E10AC8010E9498077B01C801A9
:102290000E94E10BCE0107960E94E10BCE010D9644
:1022A0000E94E10BE092010166E872E0CE01079620
:1022B0000E94B30B20E04FE050E0BE01695F7F4F0A
:1022C000C8010E942D0BC8010E94E10BCE010796A8
:1022D0000E94E10B62E772E0CE0107960E94B30B09
:1022E00020E04FE050E0BE01695F7F4FC8010E94CF
:1022F0002D0BC8010E94E10BCE0107960E94E10B55
:1023000062E871E0C8010E94D00AB801CE01499686
:102310000E94D50CC8010E94E10B8D8D9E8D892BEA
:1023200029F0E98DFA8D8081811118C061E971E091
:10233000CE0107960E94D00ABE01695F7F4FC80197
:102340000E94D50CB801CE0149960E94AA09C80185
:102350000E94E10BCE0107960E94E10BCE01499647
:102360000E94830601966C018D8D9E8D892B61F0F4
:10237000E98CFA8C62E270E0C7010E941721AC017F
:102380004E195F09892B11F44FEF5FEF9601BE01E3
:10239000675E7F4FC8010E94E10A6D807E80C801A0
:1023A0000E94E10B60E772E0CE0107960E94B30B3A
:1023B00045E150E0BE01695F7F4FCE0149960E9422
:1023C000F1077C0164E672E0CE010D960E94B30B2A
:1023D000BE01635F7F4FCE0149960E940D08AC019C
:1023E000455F5F4F9701BE01675E7F4FC8010E9446
:1023F000E10AC8010E9498076B012B01C8010E94E5
:10240000E10BCE010D960E94E10BCE0107960E94D2
:10241000E10BB601C8010E94570AB301CE010D9627
:102420000E94570ABE01635F7F4FCE0107960E944C
:10243000C70A60EA71E0CE0107960E94030AB8015C
:102440000E94190ABC0181E292E00E948407CE0139
:1024500007960E94E10BCE010D960E94E10BC80188
:102460000E94E10B68E572E0CE0107960E94B30B73
:1024700020E04EE150E0BE01695F7F4FC8010E943D
:102480002D0BC8010E94E10BCE0107960E94E10BC3
:102490006C147D0409F0BFC06114710409F4BBC061
:1024A0001092080161E08FE00E949A02CE014996E5
:1024B0000E94830601967C018D8D9E8D892B61F093
:1024C000C98CDA8C62E270E0C6010E941721AC016F
:1024D0004C195D09892B11F44FEF5FEF9701BE0195
:1024E000675E7F4FC8010E94E10AB801CE0149969C
:1024F0000E94AA09C8010E94E10B66E572E0C801CA
:102500000E94B30B64E572E0CE0107960E94B30B04
:10251000A801BE01695F7F4FCE0149960E94110854
:10252000CE0107960E94E10BC8010E94E10B62E513
:1025300072E0CE0107960E94B30B41E050E0BE016D
:10254000695F7F4FCE0149960E94F1079C0141E0EF
:1025500050E0BE01675E7F4FC8010E94E10AC801DA
:102560000E9498074B01C8010E94E10BCE0107961B
:102570000E94E10B8091060190910701892BE9F4FB
:1025800081149104D1F087EEE82E82E0F82E93E2D8
:10259000C92E93E0D92E66E671E0C8010E94D00AE8
:1025A000B801C7010E94AA09C8010E94E10BE6E038
:1025B000EE0EF11CCE14DF0471F7909207018092A9
:1025C0000601ED8CFE8CF1E0EF1AF10860E572E097
:1025D000CE0107960E94B30B41E050E0BE01695F57
:1025E0007F4FCE0149960E94F107AC014F5F5F4FCC
:1025F0009701BE01675E7F4FC8010E94E10AB801E2
:1026000081EE92E00E94AA09C8010E94E10BCE016E
:1026100007960E94E10BBE01675E7F4FCE01439695
:102620000E94C70A6AE472E0C8010E94B30BB801B5
:10263000CE0143960E940D08019609F05BC066E446
:1026400072E0CE0107960E94B30BBE01695F7F4F17
:10265000CE0143960E940D08019609F050C062E435
:1026600072E0CE010D960E94B30BBE01635F7F4FF7
:10267000CE0143960E940D08FF24F394019609F4BD
:10268000F12C81E0EE24E394F0920001882321F004
:10269000CE010D960E94E10BEE2021F0CE010796AF
:1026A0000E94E10BC8010E94E10B8091CD018430B2
:1026B00050F180910101883030F5F11024C064148C
:1026C000750409F51092CC018091CC018530B1F5EB
:1026D0001092CC0160E08EE00E949A0268EE73E0F6
:1026E00080E090E00E943C03F9CF8BE191E00E94F2
:1026F0005A077ACD80E0E12CFF24F394C5CF80E027
:10270000EE24E394F9CF6091CC01FF24F394F60E0C
:10271000F092CC01FF20C1F286E392E00E9478049F
:102720006F2D70E090E080E04AE00E94F30664E6DE
:1027300071E081E292E00E94E406C6CFCE014396AA
:102740000E94E10BCE0149960E94E10B89EF92E0D5
:102750000E94780480914E0390914F03009711F4EA
:1027600082E593E09801281B390BC9010E946A0792
:102770008AEE92E00E945A0784ED92E00E9478046B
:1027800060910601709107016115710509F46BC034
:10279000CE0107960E94570ABE01695F7F4FC801AC
:1027A0000E94C70A6AEB71E0C8010E94030ABC01DB
:1027B00081E292E00E948407C8010E94E10BCE01F1
:1027C00007960E94E10B81EB92E00E94780461EE93
:1027D00072E081E292E00E948407109209016E96F5
:1027E0000FB6F894DEBF0FBECDBFDF91CF911F9122
:1027F0000F91FF90EF90DF90CF90BF90AF909F90A0
:102800008F907F906F905F904F90089591E090939C
:1028100000018091CC018F5F8093CC0190930801DF
:102820006091CD01C8010E94830A64EA71E0CE0183
:1028300007960E94D00A63E273E0CE0107960E94D9
:10284000190A60EB71E00E94030AB8010E94190A9C
:10285000BC0181E292E00E948407CE0107960E94AB
:10286000E10BC80171CF85EC92E00E945A07ABCF13
:1028700089899A890A97029708F046CCBE01635F5E
:102880007F4FCE0107960E94C70AC8010E94E10B44
:10289000CE010D960E94E10BBE01695F7F4F83E27E
:1028A00093E00E94AA09CE0107960E94E10B0E94C4
:1028B000400660E871E081E292E00E94E40631E0C7
:1028C000831A910840CB1F920F920FB60F921124DA
:1028D0002F933F938F939F93AF93BF938091150254
:1028E00090911602A0911702B09118023091140233
:1028F00026E0230F2D3758F50296A11DB11D209318
:1029000014028093150290931602A0931702B093BD
:1029100018028091190290911A02A0911B02B091A5
:102920001C020196A11DB11D8093190290931A02F9
:10293000A0931B02B0931C02BF91AF919F918F9106
:102940003F912F910F900FBE0F901F90189529E87F
:10295000230F0396A11DB11DD2CF1F920F920FB668
:102960000F9211242F933F934F935F936F937F9315
:102970008F939F93AF93BF93EF93FF93E0910401E5
:10298000F09105010995FF91EF91BF91AF919F9152
:102990008F917F916F915F914F913F912F910F9008
:1029A0000FBE0F901F9018951F920F920FB60F92A7
:1029B00011242F933F934F935F936F937F938F9344
:1029C0009F93AF93BF93EF93FF93E0910201F09138
:1029D00003010995FF91EF91BF91AF919F918F9165
:1029E0007F916F915F914F913F912F910F900FBE0B
:1029F0000F901F9018951F920F920FB60F921124EF
:102A00002F933F934F935F936F937F938F939F93F6
:102A1000AF93BF93EF93FF9381E292E00E9409048A
:102A2000FF91EF91BF91AF919F918F917F916F91A6
:102A30005F914F913F912F910F900FBE0F901F907C
:102A400018951F920F920FB60F9211242F938F9308
:102A50009F93EF93FF93E0913102F09132028081D6
:102A6000E0913702F091380282FD1BC09081809185
:102A70003A028F5F8F7320913B02821741F0E09101
:102A80003A02F0E0EF5DFD4F958F80933A02FF919F
:102A9000EF919F918F912F910F900FBE0F901F90EC
:102AA00018958081F4CF1F920F920FB60F921124C8
:102AB0002F933F934F935F936F937F938F939F9346
:102AC000AF93BF93EF93FF93E0911F02F091200229
:102AD000309749F0A685B7858585968D91FF14C0FE
:102AE0009C918923A1F4FF91EF91BF91AF919F91A8
:102AF0008F917F916F915F914F913F912F910F90A7
:102B00000FBE0F901F9018959C91892361F7A389A0
:102B1000B4899C918589809589238C93868997892E
:102B20000197F1F7608D718DA685B785558538E0E1
:102B300020E0CB010197F1F7822F90E095958795E2
:102B4000282F4C91452309F02068315091F7868D4C
:102B500081FD209580911E0290E001968F73992748
:102B600030911D02381799F0A0911E02B0E0A253D7
:102B7000BE4F2C9380931E02828D938D0197F1F7A7
:102B8000A389B4898C919589892B8C93ACCF868D40
:102B90008160868FF1CFCF92DF92EF92FF92CF9339
:102BA000DF936DE18FEB92E00E94DE0490E034E071
:102BB000959587953A95E1F78A3091050CF042C0DA
:102BC000FC01EE0FFF1FE80FF91FE05FFE4FC08012
:102BD000D180E2800E2C000CFF086EE18FEB92E0BA
:102BE0000E94DE04D82F66E28FEB92E00E94DE04A2
:102BF000C82FD295DF7021E030E040E050E004C003
:102C0000220F331F441F551FDA95D2F7C701B601B3
:102C10000E94FF1F68EE73E080E090E00E94FF1FBB
:102C2000213131054105510594F04C2F486066EA89
:102C30008FEB92E0DF91CF91FF90EF90DF90CF90FC
:102C40000C94B304CC24CA94DC2C7601C6CF4C2F50
:102C5000477FEDCFCF93DF9310922402109223028F
:102C600088EE93E0A0E0B0E08093250290932602E6
:102C7000A0932702B093280222E331E0309322028E
:102C80002093210225EC30E030932E0220932D0278
:102C900024EC30E03093300220932F0220EC30E01F
:102CA000309332022093310221EC30E03093340231
:102CB0002093330222EC30E0309336022093350229
:102CC00026EC30E0309338022093370210923A021B
:102CD00010923B0210923C0210923D021092C202EE
:102CE0001092C10224E431E03093C0022093BF026D
:102CF00020E52093CB0261E06093CC022EEB32E022
:102D00003093CE022093CD022AE030E03093D002FF
:102D10002093CF0229E030E03093D2022093D102F9
:102D200022E030E03093D4022093D3021092D502F7
:102D30001092D6021092D7021092D8021092DA02A4
:102D40001092D9021092DC021092DB021092DE0285
:102D50001092DD021092E0021092DF021092C30284
:102D60001092C4021092C5021092C6021092320351
:102D7000109231038093330390933403A09335036F
:102D8000B093360386E591E09093300380932F0350
:102D90001092460310924503109248031092470385
:102DA00010924A031092490310924C0310924B0365
:102DB00080914D038E7F8D7F80934D03869581702A
:102DC000682783E00E949A0261E083E00E94E602A5
:102DD000E4E6F4E0E491E0933F03E0E5F4E0E4911D
:102DE000F0E0EE0FFF1FED5BFB4F85919491909308
:102DF00041038093400360E084E00E94E6028091FA
:102E00004D0381FD04C061E084E00E949A0284E0E9
:102E100080933B03E5E6F4E0E491E0933C03E1E5D5
:102E2000F4E0E491F0E0EE0FFF1FE75CFB4F8591CB
:102E3000949190933E0380933D0366E671E089E2AE
:102E400093E00E94D00A66E671E083E293E00E947C
:102E5000D00AC7EED2E066E671E0CE010E94D00A49
:102E6000269683E0C332D807B1F766E671E081EEBB
:102E700092E0DF91CF910C94D00ACF93DF93CDB73E
:102E8000DEB7E8970FB6F894DEBF0FBECDBF7894DB
:102E900084B5826084BD84B5816084BD85B582605F
:102EA00085BD85B5816085BD80916E008160809310
:102EB0006E00109281008091810082608093810079
:102EC0008091810081608093810080918000816089
:102ED000809380008091B10084608093B1008091E4
:102EE000B00081608093B00080917A00846080930C
:102EF0007A0080917A00826080937A0080917A00D3
:102F00008E7F80937A0080917A00806880937A0027
:102F10001092C10061E08FE00E94E60261E08EE065
:102F20000E949A0261E08EE00E94E60261E08EE07B
:102F30000E949A020E944006E0913102F091320212
:102F400082E08083E0912D02F0912E021082E091C8
:102F50002F02F091300283E0808310923902E091D9
:102F60003502F091360286E08083E0913302F091E1
:102F70003402808180618083E0913302F0913402D9
:102F8000808188608083E0913302F09134028081F7
:102F900080688083E0913302F091340280818F7DDC
:102FA000808389E593E00E945A0761E08091CF0217
:102FB0000E94E60261E08091CF020E949A02809115
:102FC000D1029091D2028F3F9807C9F061E00E9430
:102FD000E60260E08091D1020E949A026AE070E00D
:102FE00080E090E00E943C0361E08091D1020E9469
:102FF0009A026AE070E080E090E00E943C031FB714
:10300000F89480910E02811127C0E7E5F4E08491E5
:10301000EBE6F4E09491E82FF0E0EE0FFF1FE55EA1
:10302000FB4FA591B491EC91E92321F461E08AE092
:103030000E949A0261E08AE00E94E6028CB58061FB
:103040008CBD8CB580648CBD61E08DE00E94E60291
:1030500061E08BE00E94E60280910E028F5F809318
:103060000E021FBF62E48FEB92E00E94DE04823109
:1030700009F050C140E861E88FEB92E00E94B30490
:1030800080EC9AECA9E8B6E38093D5029093D6023F
:10309000A093D702B093D80244EE66E88FEB92E09B
:1030A0000E94B30440EC67E88FEB92E00E94B30407
:1030B00040E068E88FEB92E00E94B30440E06EE8E5
:1030C0008FEB92E00E94B30440E06FE88FEB92E058
:1030D0000E94B3046CE08FEB92E00E94DE04482F64
:1030E00043606CE88FEB92E00E94B30444E066EA30
:1030F0008FEB92E00E94B30444E86DEC8FEB92E01A
:103100000E94B3044BE26BE88FEB92E00E94B304A1
:103110004FE869E88FEB92E00E94B3040E94D80464
:1031200047E86DEC8FEB92E00E94B30441E36BE85B
:103130008FEB92E00E94B3044FE869E88FEB92E0D6
:103140000E94B3046DE18FEB92E00E94DE048F7069
:10315000482F40676DE98FEB92E00E94B3040E9414
:10316000CB1543EC61EB8FEB92E00E94B3044AE095
:1031700067EB8FEB92E00E94B3046EE18FEB92E07D
:103180000E94DE048F70482F406C6EE98FEB92E056
:103190000E94B3040E94CB156DE18FEB92E00E9478
:1031A000DE04817F482F42606DE98FEB92E00E9440
:1031B000B3040E94750683E393E00E945A070E94BD
:1031C00040060E94720E0E94400647EEE42E42E046
:1031D000F42E8E010F5F1F4F66E671E0C8010E945A
:1031E000D00AB801C7010E94AA09C8010E94E10BD8
:1031F00086E0E80EF11C23E2E21623E0F20661F716
:103200000E946F0360931002709311028093120268
:103210009093130235E0C32ED12CA0910601B091FA
:10322000070190E3492E95E7592E612C712C1A164F
:103230001B0644F4AA0FBB1F20E335E70E941E20A3
:103240002B013C010E946F038090100290901102AC
:10325000A0901202B0901302681979098A099B099B
:10326000641575058605970508F0C4C380910901AA
:103270008111C0C362E18FEB92E00E94DE04F82E60
:103280000E94E1044F2D62E98FEB92E00E94B304AB
:10329000F6FE41C08F2D8072982EF5FC3CC0109236
:1032A000DA021092D9028091DB029091DC0262E294
:1032B000892B09F463E18FEB92E00E94DE04E82E93
:1032C000F12C60E18FEB92E00E94DE04482F6DE864
:1032D0008FEB92E00E94B3040E94D804EF2879F5A6
:1032E00080910801882309F4B9C30E94400662E373
:1032F00070E080E090E00E943C0380E090E0892B49
:1033000009F48BCF0E94F503882309F483CF0E9430
:10331000000080CFFFCF61E08FEB92E00E94DE04DF
:103320008638F1F240E06DE88FEB92E00E94B30442
:1033300046E861E88FEB92E00E94B304D1CF66E1EA
:1033400074E0CE01C3960E94B30B8FEB92E00E9413
:103350003305892B71F08FEB92E00E941805898369
:103360001A8241E050E0B801CE01C3960E943209B2
:10337000ECCF62E174E0C8010E94B30BB801CE014A
:10338000C3960E946509F82EC8010E94E10BBE0198
:103390006D5C7F4FF1100DC081E292E00E947D03D1
:1033A00081EE93E00E947804CE01C3960E94E10B67
:1033B00097CFCE0145960E94C70A6CEA73E0C80118
:1033C0000E94B30B498D5A8D8D819E81481B590BEC
:1033D000B801CE0145960E94A3077C01C8010E9456
:1033E000E10B2FEFE21AF20A298D3A8DA701BE01F7
:1033F0006B5E7F4FC8010E94E10AC8010E949807D6
:103400002B01C8010E94E10B970150E040E0BE0192
:103410006B5E7F4FC8010E94E10AB801CE0145965C
:103420000E94AA09C8010E94E10BBE016B5E7F4F9A
:10343000C8010E94C70AC8010E9454065C01C80165
:103440000E94E10B6AEA73E0C8010E94B30BB80165
:10345000CE0145960E940D087C01C8010E94E10B37
:10346000298D3A8D21503109A7014F5F5F4FBE0171
:103470006B5E7F4FCE010F960E94E10A66EA73E011
:10348000C8010E94B30BB801CE0145960E946509A0
:10349000F12C8823C9F064EA73E0CE0109960E94FA
:1034A000B30BBE01675F7F4FCE010F960E940D08E0
:1034B000019629F0FF24F394A414B50409F0F12C2B
:1034C000CE0109960E94E10BC8010E94E10BCE01DA
:1034D0000F960E94E10BCE0145960E94E10BF11080
:1034E00003C089EB93E05ECF8091060190910701C4
:1034F000892B09F0EFC0BE016D5C7F4FCE01459670
:103500000E94C70A61EA73E0C8010E94B30BB801C8
:10351000CE0145960E940D085C01C8010E94E10B96
:103520006FE973E0C8010E94B30BB801CE01459664
:103530000E940D083C01C8010E94E10B9301A50106
:10354000BE016B5E7F4FCE010F960E94E10ABE0165
:10355000615F7F4FCE0109960E94C70A8D859E85C7
:10356000039708F441C022E030E050E040E0BE01A3
:10357000675F7F4FC8010E94E10A8D819E81892B80
:1035800059F063EC71E089819A810E94222199248B
:103590009394892B09F0912CC8010E94E10B99208A
:1035A00019F1ED85FE8569857A8522E030E02E17D8
:1035B0003F07D8F4DB01A20FB31F6115710521F499
:1035C00010920F02AFE0B2E08C91482F082E000C51
:1035D000550B405351094A30510518F0815486303B
:1035E00018F42F5F3F4FE3CFF12CCE0109960E94D4
:1035F000E10BFF2009F461C0BE01615F7F4FC8018C
:103600000E94C70AC8010E94E90B7C01C8010E9400
:10361000E10B8FEFE816F80609F04FC0BE01615FBD
:103620007F4FCE0109960E94C70ABE01675F7F4F98
:1036300081EE92E00E940D08019601F566EC71E0C2
:10364000C8010E94D00ABE01675F7F4FC8010E9477
:10365000190ABC0181EE92E00E945E09C8010E9435
:10366000E10BBE01675F7F4FC8010E94C70AC80116
:103670000E94E90B7C01C8010E94E10BCE01099672
:103680000E94E10B8FEFE816F806B9F087E993E0A6
:103690000E947804B701FF0C880B990B97FF16C0A6
:1036A0000E94390781E993E00E947804BE01615FBE
:1036B0007F4F81E292E00E947D03CE010F960E942F
:1036C000E10BCE0145960E94E10B6ECE4AE00E94CE
:1036D000F306E8CF8EEA93E00E947804BE016D5CA9
:1036E0007F4F81E292E00E947D036AE18FEB92E0DE
:1036F0000E94DE04E82EF12C6091D5027091D60272
:103700008091D7029091D8020E94211F2AEE36E5BF
:103710004AEF5DE40E941A1F87FD69C18DE990E0C0
:10372000B701681B790BCE018D960E94570ABE0126
:103730006D5C7F4FCE0187960E94C70A6EE873E0EA
:10374000C8010E94B30BB801CE0187960E940D08F4
:103750005C01C8010E94E10B6CE873E0C8010E94A3
:10376000B30BB801CE0187960E940D087C01C801F9
:103770000E94E10B9701A501BE01695D7F4FCE015B
:1037800081960E94E10ABE016F5D7F4FC8010E94D1
:10379000C70AC8010E94E90B5C01C8010E94E10B45
:1037A000B501CE0109960E94570A68EC71E0C80184
:1037B0000E94D00ABE01675F7F4FC8010E94190AAC
:1037C0006AEC71E00E94030ABE016F5D7F4F0E94A8
:1037D000190ABC0181E292E00E947D03C8010E94A7
:1037E000E10BCE0109960E94E10B2FEFA216B20663
:1037F00009F4F2C06AE873E0C8010E94B30B4BA55C
:103800005CA58D819E81481B590BB801CE0187961E
:103810000E94A307A7014F5F5F4F9C01BE01695D36
:103820007F4FCE014B960E94E10AC8010E94E10B36
:1038300026E02A9DC0012B9D900D1124BE01655EDE
:103840007F4F89519D4F0E94B00ABE016F5D7F4F2F
:10385000CE0145960E94C70A80910601909107010A
:10386000B6010E94C91F5B01BE016B5E7F4FCE0196
:1038700009960E94C70A68E873E0CE0109960E9483
:10388000F5097C01C5011816190614F081E090E0D5
:103890004AE0B8010E94C71EF80101900020E9F734
:1038A0003197AF01401B510BB801C7010E9432098B
:1038B000811103C0C7010E94E30966E873E0C701F4
:1038C0000E94F509BC01CE010F960E94C70ACE01E5
:1038D00009960E94E10BBE01615F7F4FCE01099600
:1038E0000E94C70ACE0109960E945406BC01C80175
:1038F0000E94570AB801CE010F960E945E09C801C6
:103900000E94E10BCE0109960E94E10B64EF71E089
:1039100080E090E00E943C03BE01615F7F4FC801E0
:103920000E94C70A0E94D80461E08FEB92E00E94D7
:10393000DE0483708330E9F062E18FEB92E00E9455
:10394000DE0483FF06C048E062E98FEB92E00E944C
:10395000B3040E94D8040E94E10440E06DE88FEBBC
:1039600092E00E94B30440E062EA8FEB92E00E9492
:10397000B304B8018FEB92E00E947D0343E861E855
:103980008FEB92E00E94B30462E18FEB92E00E9421
:10399000DE0483FFF9CF48E062E98FEB92E00E94FA
:1039A000B30464E670E080E090E00E943C038EE7A0
:1039B00093E00E9478040E947506C8010E94E10B02
:1039C000CE010F960E94E10BCE0145960E94E10BBD
:1039D000CE014B960E94E10BCE0181960E94E10B35
:1039E000CE0187960E94E10BCE018D966CCE84EAC3
:1039F00090E096CE64E671E081E292E00E94E406F7
:103A000087EEA82E82E0B82EF12CE12CB50181E2E0
:103A100092E00E947D0389E0E816F10421F089E13B
:103A200094E00E9478042FEFE21AF20A86E0A80ED2
:103A3000B11C2AE0E216F10449F787E194E00E9404
:103A400078040E94720E0E946F03609310027093BC
:103A50001102809312029093130242CC61E08FE036
:103A60000E949A021092080142CCCF93DF9381EE1C
:103A700092E00E94E10BC3E2D3E02697CE010E94C0
:103A8000E10B22E0C73ED207C1F783E293E00E9438
:103A9000E10B89E293E00E94E10B86E591E09093CF
:103AA000300380932F0380911F02909120028F5248
:103AB000934071F4E0914203F0914303908180912F
:103AC00044038095892380831092200210921F0264
:103AD000DF91CF9108950F931F93CF93DF9382309F
:103AE000910510F482E090E0E0915003F0915103D1
:103AF00030E020E0B0E0A0E0309799F421153105E6
:103B000009F44AC0281B390B24303105D8F58A81C5
:103B10009B816115710589F1FB0193838283FE010D
:103B200011C0408151810281138148175907E0F08B
:103B30004817590799F4109761F012960C93129751
:103B400013961C933296CF01DF91CF911F910F9165
:103B500008950093500310935103F4CF21153105BC
:103B600051F04217530738F0A901DB019A01BD015A
:103B7000DF01F801C1CFEF01F9CF9093510380939A
:103B80005003CDCFFE01E20FF31F8193919322509A
:103B9000310939832883D7CF20914E0330914F03C9
:103BA000232B41F420910C0130910D0130934F03F0
:103BB00020934E0320910A0130910B01211531050C
:103BC00041F42DB73EB740910E0150910F01241BD7
:103BD000350BE0914E03F0914F03E217F307A0F489
:103BE0002E1B3F0B2817390778F0AC014E5F5F4F53
:103BF0002417350748F04E0F5F1F50934F03409333
:103C00004E03819391939FCFF0E0E0E09CCFCF9360
:103C1000DF930097E9F0FC01329713821282A091A2
:103C20005003B0915103ED0130E020E01097A1F472
:103C300020813181820F931F20914E0330914F03D9
:103C40002817390709F061C0F0934F03E0934E0342
:103C5000DF91CF910895EA01CE17DF07E8F54A8199
:103C60005B819E0141155105B1F7E901FB83EA83B0
:103C700049915991C40FD51FEC17FD0761F480815C
:103C800091810296840F951FE9019983888382812F
:103C900093819B838A83F0E0E0E012968D919C9162
:103CA00013970097B9F52D913C911197CD0102968C
:103CB000820F931F20914E0330914F03281739072D
:103CC00039F6309751F51092510310925003B0938A
:103CD0004F03A0934E03BCCFD383C2834081518155
:103CE000840F951FC817D90761F44E5F5F4F888115
:103CF0009981480F591F518340838A819B81938307
:103D000082832115310509F0B0CFF0935103E09380
:103D100050039ECFFD01DC01C0CF13821282D7CFAA
:103D20001F93FC0199278827BC01E8941191103258
:103D3000E9F3193010F01E30C8F31B3251F01D3278
:103D400049F4689406C00E94D21E610F711D811D46
:103D5000911D119110531A30B0F33EF49095809557
:103D6000709561957F4F8F4F9F4F1F910895FB0175
:103D7000DC0105900D920020E1F70895FC0105900B
:103D80000020E9F7809590958E0F9F1F0895BB271F
:103D90004A3031F4992322F4BDE2909581959F4FEA
:103DA0000C94E81E592F482F372F262F660F771FA8
:103DB000881F991F660F771F881F991F620F731F37
:103DC000841F951F660F771F881F991F0895BB27B3
:103DD000FB015527AA27880F991FAA1FA41710F0C7
:103DE000A41B83955051B9F7A05DAA3308F0A95DD3
:103DF000A193009779F7B111B1931192CB010C9473
:103E00000A1F91110C94801F803219F0895085503F
:103E1000C8F70895DC01FC01672F71917723E1F762
:103E2000329704C07C916D9370836291AE17BF0787
:103E3000C8F308950E945C1F08F481E00895E89497
:103E400009C097FB3EF490958095709561957F4FE2
:103E50008F4F9F4F9923A9F0F92F96E9BB27939590
:103E6000F695879577956795B795F111F8CFFAF4A0
:103E7000BB0F11F460FF1BC06F5F7F4F8F4F9F4FD1
:103E800016C0882311F096E911C0772321F09EE82F
:103E9000872F762F05C0662371F096E8862F70E095
:103EA00060E02AF09A95660F771F881FDAF7880F6F
:103EB0009695879597F90895990F0008550FAA0BC5
:103EC000E0E8FEEF16161706E807F907C0F012162D
:103ED0001306E407F50798F0621B730B840B950B30
:103EE00039F40A2661F0232B242B252B21F4089585
:103EF0000A2609F4A140A6958FEF811D811D089522
:103F00009927882708952F923F924F925F926F9240
:103F10007F928F929F92AF92BF92CF92DF92EF9259
:103F2000FF920F931F93CF93DF93CDB7DEB7CA1BDA
:103F3000DB0B0FB6F894DEBF0FBECDBF09942A8805
:103F4000398848885F846E847D848C849B84AA84AD
:103F5000B984C884DF80EE80FD800C811B81AA813A
:103F6000B981CE0FD11D0FB6F894DEBF0FBECDBF05
:103F7000ED010895A29FB001B39FC001A39F700DF2
:103F8000811D1124911DB29F700D811D1124911D61
:103F9000089597FB072E16F4009407D077FD09D0FB
:103FA0000E94252007FC05D03EF4909581959F4FF7
:103FB0000895709561957F4F0895A1E21A2EAA1B6E
:103FC000BB1BFD010DC0AA1FBB1FEE1FFF1FA217C9
:103FD000B307E407F50720F0A21BB30BE40BF50BC6
:103FE000661F771F881F991F1A9469F7609570954F
:103FF000809590959B01AC01BD01CF010895052EE0
:1040000097FB1EF400940E94162057FD07D00E94D3
:10401000DD1F07FC03D04EF40C94162050954095FC
:10402000309521953F4F4F4F5F4F08959095809564
:10403000709561957F4F8F4F9F4F08950E94BA1FD3
:10404000B7FF0895821B930B0895AA1BBB1B51E178
:1040500007C0AA1FBB1FA617B70710F0A61BB70BF8
:10406000881F991F5A95A9F780959095BC01CD019D
:104070000895EE0FFF1F0590F491E02D0994B0E034
:10408000A0E0E5E4F0E20C94851F8C01009751F468
:10409000CB010E946B1D8C01C801CDB7DEB7E0E1FA
:1040A0000C94A11FFC01E60FF71F9C01225031095F
:1040B000E217F30708F49DC0D901CD91DC91119767
:1040C000C617D70798F0C530D10530F3CE01049755
:1040D0008617970708F3C61BD70B2297C193D19376
:1040E0006D937C93CF010E94071ED6CF5B01AC1A63
:1040F000BD0A4C018C0E9D1EA0915003B09151033E
:10410000512C412CF12CE12C109731F580914E036C
:1041100090914F038815990509F05CC04616570623
:1041200008F058C080910A0190910B01009741F46A
:104130008DB79EB740910E0150910F01841B950BD6
:10414000E817F90708F055C0F0934F03E0934E03CA
:10415000F90171836083A0CF8D919C911197129684
:104160006C90129713967C901397A815B90559F582
:104170006C0142E0C40ED11CCA14DB0420F1AC0176
:104180004A195B09DA011296159780F062827382F0
:1041900051834083D9016D937C93E114F10471F054
:1041A000D7011396FC93EE93129776CF22968C0F3D
:1041B0009D1FF90191838083F301EFCFF0935103A9
:1041C000E093500369CF4816590608F42C017D018D
:1041D000D3019ACFCB010E946B1D7C01009749F05F
:1041E000AE01B8010E94FC20C8010E94071E870191
:1041F00053CF10E000E050CFFB01DC0102C0019082
:104200000D9241505040D8F708956817790768F427
:10421000FB01DC01E40FF51FA40FB51F02C00290E3
:104220000E9241505040D8F708950C94FC20FC01A8
:104230008191861721F08823D9F79927089531971E
:10424000CF010895FB01DC018D91019080190110CF
:10425000D9F3990B0895FB01DC0101900D92002028
:10426000E1F70895FB01DC014150504030F08D91A1
:104270000190801919F40020B9F7881B990B089553
:10428000FC0181E090E00190061609F4CF010020C6
:10429000D1F701970895FB0151915523A9F0BF0172
:1042A000DC014D9145174111E1F759F4CD01019021
:1042B000002049F04D9140154111C9F3FB01411116
:1042C000EFCF81E090E00197089512E0CCE3D2E0D7
:1042D00004C0FE010E9439202196CD33D107C9F7D1
:0442E000F894FFCF80
:1042E40001637C037C030100010100005203800090
:1042F400781E00A02800F03C00405100127A00E42F
:10430400A20024F40048E80190D00320A107000093
:1043140000002B048B03B8039304E903C703DB03F6
:10432400000000007C0541053D06F1043305180535
:10433400F20400000000AA058B033D06F104060602
:104344001C0692050D0A00445441002B4854545055
:10435400414354494F4E3A20302C3630332C3000F0
:104364002E00647461616D65726963612E636F6DA3
:10437400003137322E3130322E3234362E32320082
:10438400202F200054656CC3A9666F6E6F3A20001D
:10439400205365C3B1616C3A2000206D696E757459
:0C43A4006F73003078002C005B005D009F
:00000001FF
