:100000000C9423020C94F2120C94CB120C944B021D
:100010000C944B020C944B020C9490140C944B02D5
:100020000C944B020C944B020C944B020C944B021C
:100030000C944B020C944B020C944B020C944B020C
:100040000C9481120C944B020C943F130C941913D2
:100050000C944B020C944B020C944B020C944B02EC
:100060000C9471130C944B0207634236B79BD8A7CC
:100070001A39685618AEBAAB558C1D3CB7CC5763CD
:10008000BD6DEDFD753EF6177231BF000000803F7B
:1000900000407A10F35A00A0724E18090010A5D43F
:1000A000E80000E87648170000E40B54020000CA9C
:1000B0009A3B000000E1F5050000809698000000E2
:1000C00040420F000000A086010000001027000041
:1000D0000000E803000000006400000000000A00C7
:1000E000000000000100000000002C76D888DC67CA
:1000F0004F0823DFC1DFAE59E1B1B796E5E3E45322
:10010000C63AE651997696E8E6C28426EB898C9B3E
:1001100062ED407C6FFCEFBC9C9F40F2BAA56FA5DE
:10012000F490055A2AF75C936B6CF9676DC11BFC60
:10013000E0E40D47FEF520E6B500D0ED902E03007B
:10014000943577050080841E080000204E0A0000C8
:1001500000C80C333333330F986E12831141EF8D87
:100160002114893BE65516CFFEE6DB18D1844B38C7
:100170001BF77C1D901DA4BBE424203284725E22F8
:100180008100C9F124ECA1E53D27005EBCE2613F9E
:10019000DD83C29C7E20A3FD1F41009D23BE46DB64
:1001A00065F88C11AF32CA57E9742020E280A22092
:1001B0004C6F526120696E696369616C697A616430
:1001C0006F20636F7272656374616D656E74652E06
:1001D0002E2E002020E280A22053656E736F7220C5
:1001E000445320696E696369616C697A61646F2048
:1001F000636F7272656374616D656E74652E2E2E09
:10020000004453003030003030002020E280A22033
:1002100053656E736F7220534854347820696E6949
:100220006369616C697A61646F20636F7272656380
:1002300074616D656E74652E2E2E00534854003027
:100240003000250A002020E280A2205375656C6FE3
:1002500020432E2043616D706F3A2000250020203E
:10026000E280A2205375656C6F20536174757261D2
:10027000646F3A20002020E280A22049443A200006
:100280007E20436F6E6669677572616369C3B36E82
:100290003A002020E280A22053656E736F722064C2
:1002A000652068756D656461642064656C20737594
:1002B000656C6F20696E696369616C697A61646FEE
:1002C00020636F7272656374616D656E74652E2E46
:1002D0002E002020E280A22050726F746F636F6C3A
:1002E0006F3A204454412D534854342D307849649A
:1002F0002C4D732C48722C54C2B0432C5663632C83
:100300004353007E2048756D6564616420792074D4
:10031000656D706572617475726120616D62696589
:100320006E7465007E20536F6E6461206465206882
:10033000756D656461642064656C207375656C6FB0
:10034000000A0A4D6963726F657374616369C3B3B0
:100350006E20616772C3AD636F6C61205354482097
:1003600076372E337232002C002C002C002C002CFF
:100370000054783A20002C002C002C002020202053
:10038000E29C97205469656D706F206465206573E9
:10039000706572612061676F7461646F002020E294
:1003A0008692204D656E73616A652069676E6F7213
:1003B00061646F3A20006D696E002020E29C9320FA
:1003C000436F6E6669726D616369C3B36E20726557
:1003D000636962696461202D2054494D45523A2079
:1003E0000053485400303000000000002400270073
:1003F0002A0000000000250028002B000000000853
:1004000000020100000304070000000000000000DB
:100410000000000023002600290004040404040452
:1004200004040202020202020303030303030102A3
:100430000408102040800102040810200102040872
:10044000102006152A2011241FBECFEFD8E0DEBFF2
:10045000CDBF11E0A0E0B1E0EEEDF4E502C0059003
:100460000D92AE3AB107D9F724E0AEEAB1E001C08F
:100470001D92A33DB207E1F712E0C2E2D2E004C050
:100480002197FE010E942228C132D107C9F70E949C
:10049000D0150C94622A0C940000FC019081909578
:1004A00028E030E081E397FF03C0990F982701C04F
:1004B000990F21503109B9F78181892728E030E06F
:1004C00091E387FF03C0880F892701C0880F21505F
:1004D0003109B9F70895833081F028F4813099F01B
:1004E0008230A9F008958730A9F08830C9F08430AF
:1004F000B1F4809180008F7D03C0809180008F7760
:1005000080938000089584B58F7784BD089584B565
:100510008F7DFBCF8091B0008F778093B0000895DE
:100520008091B0008F7DF9CFCF93DF93EFEFF3E0B1
:100530008491E1E3F4E0D491EDE1F4E0C491CC23C3
:10054000A1F081110E946B02EC2FF0E0EE0FFF1F73
:10055000E05FFB4FA591B491EC91ED2381E090E039
:1005600009F480E0DF91CF91089580E090E0FACF28
:100570001F93CF93DF93282F30E0F901E450FC4F15
:100580008491F901E25DFB4FD491F901E65EFB4FE6
:10059000C491CC23A9F0162F81110E946B02EC2F7D
:1005A000F0E0EE0FFF1FEE50FC4FA591B4918FB716
:1005B000F894EC91111108C0D095DE23DC938FBF25
:1005C000DF91CF911F910895DE2BF8CFCF93DF936A
:1005D00090E0FC01E25DFB4F2491865E9B4FFC01A5
:1005E00084918823C9F090E0880F991FFC01E8519D
:1005F000FC4FA591B491FC01EE50FC4FC591D491F4
:1006000061110DC09FB7F8948C91209582238C9333
:100610008881282328839FBFDF91CF91089562307E
:1006200051F49FB7F8943C91822F809583238C934B
:10063000E8812E2BEFCF8FB7F894EC912E2B2C93D3
:100640008FBFEACF3FB7F89480914603909147035C
:10065000A0914803B091490326B5A89B05C02F3F40
:1006600019F00196A11DB11D3FBFBA2FA92F982FD8
:100670008827BC01CD01620F711D811D911D43E0D2
:10068000660F771F881F991F4A95D1F708958F929B
:100690009F92AF92BF92CF92DF92EF92FF926B0147
:1006A0007C010E9422034B015C01C114D104E104CE
:1006B000F104B9F00E942203681979098A099B099B
:1006C000683E73408105910580F321E0C21AD1088C
:1006D000E108F10888EE880E83E0981EA11CB11C89
:1006E000E4CFFF90EF90DF90CF90BF90AF909F90BE
:1006F0008F9008952FB7F89460914203709143034F
:1007000080914403909145032FBF08950895089563
:1007100008950895AF92BF92CF92DF92EF92FF9229
:100720000F931F93CF93DF936C017B018B01040F19
:10073000151FEB015E01AE18BF08C017D10759F0B5
:100740006991D601ED91FC910190F081E02DC601F7
:100750000995892B79F7C501DF91CF911F910F91F1
:10076000FF90EF90DF90CF90BF90AF900895FC0185
:10077000538D448D252F30E0842F90E0821B930B06
:10078000541710F0CF96089501970895FC01918DAC
:10079000828D981761F0A28DAE0FBF2FB11D5D96AF
:1007A0008C91928D9F5F9F73928F90E008958FEF51
:1007B0009FEF0895FC01918D828D981731F0828D05
:1007C000E80FF11D858D90E008958FEF9FEF08955C
:1007D000FC01918D228D892F90E0805C9F4F821BC0
:1007E00091098F73992708958CEB93E00E94E80399
:1007F00021E0892B09F420E0822F089580E090E029
:10080000892B29F00E94F40381110C9400000895B3
:10081000FC01A48DA80FB92FB11DA35ABF4F2C9175
:10082000848D90E001968F739927848FA689B7896C
:100830002C93A089B1898C91837080648C93938D63
:10084000848D981306C00288F389E02D80818F7D06
:1008500080830895EF92FF920F931F93CF93DF93BE
:10086000EC0181E0888F9B8D8C8D98131AC0E889EC
:10087000F989808185FF15C09FB7F894EE89FF89BB
:100880006083E889F98980818370806480839FBF59
:1008900081E090E0DF91CF911F910F91FF90EF9059
:1008A0000895F62E0B8D10E00F5F1F4F0F73112769
:1008B000E02E8C8D8E110CC00FB607FCFACFE889A4
:1008C000F989808185FFF5CFCE010E940804F1CF20
:1008D000EB8DEC0FFD2FF11DE35AFF4FF0829FB718
:1008E000F8940B8FEA89FB8980818062CFCF0F93C8
:1008F0001F93CF93DF938C01D0E0C0E0F801EC0FA1
:10090000FD1F6491662341F08CEB93E00E942A0462
:10091000892B11F02196F2CFCE01DF91CF911F915B
:100920000F910895CF93DF93EC01888D8823B9F060
:10093000AA89BB89E889F9898C9185FD03C08081EA
:1009400086FD0DC00FB607FCF7CF8C9185FFF2CF67
:10095000808185FFEDCFCE010E940804E9CFDF91B1
:10096000CF9108950F931F93CF93DF93EC01062F40
:10097000142F60E088890E94B8029C858D859CBDFB
:100980008DBD0EBD00000DB407FEFDCF8EB51EBDA2
:1009900000000DB407FEFDCF1EB561E088890E94FE
:1009A000B802812FDF91CF911F910F91089541E8F7
:1009B00061E88AE594E00C94B20440E00C94B2043F
:1009C00010927704109276046DE18AE594E00E941B
:1009D000DD04482F4E7F6DE98AE594E00C94B20463
:1009E00008950F931F93CF93DF93EC01E881F98172
:1009F0000084F185E02D0995892BB1F06DE0CE01E1
:100A00000E94DD04082F60E0CE010E94DD04182F53
:100A1000402F6DE8CE010E94B204812F90E0DF915B
:100A2000CF911F910F9108958FEF9FEFF8CFCF9344
:100A3000DF93EC01E881F9810084F185E02D0995CF
:100A4000892B69F08A8D9B8D01969B8F8A8F60E040
:100A5000CE010E94DD0490E0DF91CF9108958FEFE9
:100A60009FEFFACFCF93DF93EC0163E10E94DD04A7
:100A700090E02A8D3B8D821B930BDF91CF910895DF
:100A8000AF92BF92CF92DF92FF920F931F93CF93BB
:100A9000DF936C015B01EA0162E20E94DD04F82E43
:100AA00090E09C012C0F3D1F2F3F310529F020F0D5
:100AB000CFEFD0E0C81BD90B8501AC0EBD1E0A15C7
:100AC0001B0541F0F80141918F0160E8C6010E94C9
:100AD000B204F5CF4C2F4F0D62EAC6010E94B2045A
:100AE000CE01DF91CF911F910F91FF90DF90CF90BA
:100AF000BF90AF900895CF93DF931F92CDB7DEB72D
:100B00006983DC01ED91FC910280F381E02D41E0ED
:100B100050E0BE016F5F7F4F09950F90DF91CF913D
:100B200008952091D001260F3327331F213231053C
:100B3000ECF420919203FC0190E080E0243069F015
:100B400082E00895A091D0012191AC0140555E4F03
:100B5000A40FB52FB11D2C930196861798F38091A1
:100B6000D001680F6093D00180E0089581E008957E
:100B70001092920381E08093910310926C0361E0E4
:100B800082E10E94B80261E083E10E94B802E9EBD1
:100B9000F0E080818E7F808380818D7F808380E202
:100BA0008093B80085E48093BC000895CF93DF93D1
:100BB00091E09093AF018823B9F0C091B800D09133
:100BC000BA008091BC008A7B8093BC0060E082E127
:100BD0000E94B80260E083E10E94B8020E94B8055A
:100BE000D093BA00C093B800DF91CF9108958F924F
:100BF0009F92AF92BF92CF92DF92EF92FF920F93AC
:100C00001F93CF93DF93D091BB03D13208F0D7C0AD
:100C1000182FC091BA030E9422036B017C018091BE
:100C2000920381116BC082E0809392031093910331
:100C30008FEF8093900310928F03D0938E03AAE9D5
:100C4000B3E0EEE6F3E080E0D81391C010926D03BC
:100C500080916D03CC0FC82BC0936D0380916C0302
:100C6000813009F088C010926C030E9422036B014E
:100C70007C0180916D038093BB00809194039091DF
:100C80009503A0919603B0919703892B8A2B8B2B08
:100C9000A1F00E94220300919403109195032091EA
:100CA0009603309197036C197D098E099F090617E9
:100CB00017072807390708F442C08091BC0083FD5C
:100CC000D8CF85EC8093BC000E9422036B017C018D
:100CD00080919203823009F450C0809190038F3F3D
:100CE00009F46FC080919003803209F46CC0809148
:100CF0009003803309F469C084E026C08091940396
:100D000090919503A0919603B0919703892B8A2B1C
:100D10008B2B09F484CF0E9422038090940390903F
:100D20009503A0909603B09097036C197D098E09E6
:100D30009F0986169706A806B90608F070CF80911D
:100D400093030E94D60585E0109299031092BB038D
:100D500010929803DF91CF911F910F91FF90EF9028
:100D6000DF90CF90BF90AF909F908F9008959D910E
:100D700091938F5F69CF85EEA5CF80919403909179
:100D80009503A0919603B0919703892B8A2B8B2B07
:100D900009F49ECF0E9422030091940310919503C1
:100DA00020919603309197036C197D098E099F0954
:100DB000061717072807390708F08ACFC0CF81E048
:100DC000C3CF80E0C1CF82E0BFCF83E0BDCFDC01E5
:100DD00011968D919C91DC01ED91FC910280F38143
:100DE000E02D41E050E00995019729F481E00E944F
:100DF000F70591E0811190E0892F0895E0914B0370
:100E000080914A03E81730F4F0E0E45BFC4F808106
:100E100090E008958FEF9FEF089590914B0380919C
:100E20004A032FEF3FEF981748F4E92FF0E0E45B17
:100E3000FC4F208130E09F5F90934B03C9010895E0
:100E400080914A0390914B03891B990B0895CF928F
:100E5000DF92EF92FF920F931F93CF93DF937C016A
:100E6000CB018A0120919803222389F0EB016B01C9
:100E7000C40ED51ECC15DD0569F06991D701ED9141
:100E8000FC910190F081E02DC7010995F3CF642F0B
:100E90000E949105C801DF91CF911F910F91FF90A2
:100EA000EF90DF90CF900895CF93DF931F92CDB74F
:100EB000DEB76983209198032223F9F02091BB03C8
:100EC000203258F021E030E0FC013383228390E0AF
:100ED00080E00F90DF91CF91089580919903E82FE2
:100EE000F0E0E656FC4F998190838F5F80939903E1
:100EF0008093BB0381E090E0ECCF61E0CE010196EE
:100F00000E949105F7CF90E080E00895CF93DF93A2
:100F1000EC018B818823A1F0888191E09093980364
:100F20008093BA03109299031092BB0381E00E9450
:100F3000F70591E0811190E0892FDF91CF9108951D
:100F400010924B0310924A03109299031092BB0324
:100F50000E94B80586E893E09093F5018093F40130
:100F600087E893E09093F7018093F60181E08B830B
:100F7000CE010E948607982F8111CECFDDCF089534
:100F80000895DC0180E0615090F09D919827E92F51
:100F9000EF70F0E0E657FE4F2491E92FE295EF70F5
:100FA000F0E0E656FE4FE491822F8E27ECCF0895B5
:100FB000DC012C911196ED91FC91F8948181822BAA
:100FC00081839281322F30959323928382E090E047
:100FD0000197F1F781818323818380E190E001977C
:100FE000F1F790817894E6E6F0E03197F1F79223FB
:100FF00081E009F480E00895FC0190810180F28194
:10100000E02D292F209560FF14C0F894828182235F
:1010100082838181892B8183A0E1B0E01197F1F770
:101020008281982B928378948AE690E00197F1F779
:101030000895F8948281822382838181892B818320
:10104000AEE7B0E01197F1F78281982B9283789404
:1010500086E090E0EBCFDF92EF92FF920F931F9329
:10106000CF93DF93EC01D62EE42E08E010E0FF24AE
:10107000F39461E08D2D8F2109F460E0CE010E9490
:10108000FC07FF0C01501109A1F7E11010C0F89402
:10109000E981FA8191818881809589238183E98121
:1010A000FA81928188818095892382837894DF9167
:1010B000CF911F910F91FF90EF90DF900895EF92E5
:1010C000FF920F931F93CF93DF938C017B0140E03E
:1010D00065E50E942B08E70188E0E80EF11C6991A4
:1010E00040E0C8010E942B08CE15DF05C1F7DF9153
:1010F000CF911F910F91FF90EF90089541155105E9
:1011000029F4EAE7F0E080818F7780836A30710507
:10111000B9F0CB01880F991F880F991F80726770F3
:101120006860682B88E10FB6F894A89580936000FA
:101130000FBE60936000E0E6F0E080818064808311
:10114000232BD9F483B7817F846083BFF89483B75E
:10115000816083BF85B7806685BF8F7D85BF7894AA
:10116000889583B78E7F83BF7894452B29F4EAE76F
:10117000F0E0808180688083089583B7817F8460F8
:1011800083BFF89483B7816083BF7894889583B7D1
:101190008E7F83BF7894E9CF8EE480937C0062E0F9
:1011A00070E080E090E00E94470380917A008064C4
:1011B00080937A0080917A0086FDFCCF8091780040
:1011C0002091790030E0322F2227032E000C440BAF
:1011D000550B282B60E070E381E190E00E9414251C
:1011E000CA01B9010E94F72320E030E04AE754E445
:1011F0000E941B260895DC0114966D917C91159731
:1012000030E020E090E080E026173707A1F0ED9174
:10121000FC911197309761F41092AE01EEEAF1E083
:101220004081840F911D47FD9A952F5F3F4FECCF72
:10123000E20FF31FF5CF08952F923F924F925F92E6
:101240006F927F928F929F92AF92BF92CF92DF92D6
:10125000EF92FF920F931F93CF93DF936C011B01CB
:10126000F12CE12C86E0A82EB12CD60114968D919C
:101270009C9185010E191F098017910708F48C01B4
:10128000F601D0810E9422032B013C018091920340
:10129000811172C0C02F013208F0C0E2F1E0F0937A
:1012A000920321E0C501801B910BE816F90608F4B2
:1012B00020E0209391038FEF8093900310928F038F
:1012C0008C0F80938E03A1E0A0936D0380916D033A
:1012D000DD0FD82BD0936D0380916C03813009F022
:1012E00090C010926C030E9422032B013C0180915C
:1012F0006D038093BB008091940390919503A0911E
:101300009603B0919703892B8A2B8B2BA1F00E9417
:1013100022032091940330919503409196035091BC
:10132000970364197509860997092617370748072F
:10133000590708F442C08091BC0083FDD8CFB5ECBA
:10134000B093BC000E9422032B013C0180919203C8
:10135000813009F45AC080918F038C1710F4C0912A
:101360008F03AEE6B3E0ECE4F3E080E08C1751F1DC
:101370009D9191938F5FFACF809194039091950303
:10138000A0919603B0919703892B8A2B8B2B09F49C
:101390007DCF0E94220320919403309195034091C8
:1013A00096035091970364197509860997092617C2
:1013B00037074807590708F069CF809193030E94C7
:1013C000D605C0E010924B03C0934A03C017110624
:1013D00009F058C041018E0C9F1CE401CE01881910
:1013E00099098017910798F5D60111968D919C91D6
:1013F000DC01ED91FC910284F385E02D0995899340
:10140000EDCFE5EEE093BC009DCF809194039091E9
:101410009503A0919603B0919703892B8A2B8B2B70
:1014200009F494CF0E9422032091940330919503F4
:10143000409196035091970364197509860997099D
:10144000261737074807590708F080CFB6CFE00EB8
:10145000F11EB6E0EB16F10408F407CF81E0DF914E
:10146000CF911F910F91FF90EF90DF90CF90BF90A1
:10147000AF909F908F907F906F905F904F903F9034
:101480002F90089580E0EBCFFC0190810180F281E4
:10149000E02DF8948181292F2095822381837894EF
:1014A0003DE7315011F180818923D9F3F89482818D
:1014B000822382838181892B81837894ACEBB3E092
:1014C0001197F1F7F894818182238183A8E8B0E035
:1014D0001197F1F78081982381E009F080E07894FA
:1014E000E0E3F3E03197F1F7089580E00895BF92CB
:1014F000CF92DF92EF92FF920F931F93CF93DF93E0
:10150000EC01B62EC72E8D85811105C0CE010E943B
:10151000440A81110EC01B861D861C8680E0DF9167
:10152000CF911F910F91FF90EF90DF90CF90BF90E0
:10153000089540E060EFCE010E942B0801E0E12C0D
:10154000D12C11E0CE010E94D807F82ECE010E94C6
:10155000D80791E0F91218C0813099F51134D8F20A
:10156000DB86D11002C081E08D878B81882399F2C0
:101570002396EB2DFC2DCF01089629912193E81796
:10158000F907D9F781E0CBCFEE2DF0E0F8120FC0CC
:101590008B851817A0F4DE01AE0FBF1F13968C9138
:1015A000802379F4F12C193008F41C87D12EEC0F2C
:1015B000FD1F8381902F9095892383830AC0811317
:1015C000F1CFFE01EE0DF11D8381802B8383FF247B
:1015D000F3946F2DCE010E94FC071F5F000F11F4E2
:1015E000E39401E087E08E1508F0ACCFB7CFCF933E
:1015F000DF93EC01E091A704F091A804138615860F
:10160000148612861186108617821682158214821D
:101610001382BC018091A7049091A8040E94770ACC
:10162000982F882341F067E0CE010E94C10791E026
:101630002F81281390E0892FDF91CF9108956F9229
:101640007F928F929F92AF92BF92CF92DF92EF9252
:10165000FF920F931F93CF93DF938C01EB01809147
:10166000A7049091A8040E94440A882309F43FC06B
:10167000B8018091A7049091A8040E945F0840E0FF
:101680006EEB8091A7049091A8040E942B087E0124
:101690006E0189E0C80ED11C8E01A090A704B09005
:1016A000A80488E0882E912C712C66246394C501CF
:1016B0000E94D80781117628660CE1E08E1A910805
:1016C000B1F7F80171928F01CE16DF0631F78091E4
:1016D000A7049091A8040E94440A813041F4F701C4
:1016E00081917F01811105C0E017F107C1F790E0FA
:1016F00008C068E0CE010E94C10791E02885281348
:10170000F6CF892FDF91CF911F910F91FF90EF902E
:10171000DF90CF90BF90AF909F908F907F906F9011
:1017200008952F923F924F925F926F927F928F9285
:101730009F92AF92BF92CF92DF92EF92FF920F9360
:101740001F93CF93DF93CDB7DEB72A970FB6F894E8
:10175000DEBF0FBECDBF8C012DB73EB73A872987BC
:101760006C0130E5C30ED11C7C0160E070E0CB0160
:10177000F70121913191419151917F010E94AF2553
:10178000CE14DF04A9F720E030E040EA51E40E94E3
:101790001B262B013C011A830983812C912C5401B7
:1017A000E981FA816191719181919191FA83E98343
:1017B000A30192010E94AE259B01AC010E94562418
:1017C0009B01AC01C501B4010E94AF254B015C0136
:1017D00029813A81E216F30619F720E030E040EA69
:1017E00051E40E941B260E94A5272AE939E949E90C
:1017F0005EE30E94F02387FF7CC0F8018080918027
:10180000A280B3801C830B8318861F82EB81FC812E
:10181000C190D190E190F190FC83EB831E830D8306
:10182000312C212CED81FE816191719181919191F9
:10183000FE83ED83A70196010E94AE252B013C019A
:1018400020E030E0A9010E942427181674F42DEC42
:101850003CEC4CEC5DE3C301B2010E94F02387FF36
:101860000EC0FFEF2F1A3F0A0AC02DEC3CEC4CECE7
:101870005DEBC301B2010E942427181694F329815D
:101880003A818D819E812817390761F6EF81F885AD
:10189000E215F30524F438862F8246015701298189
:1018A0003A818B819C812817390709F0AFCFB401A9
:1018B000C501E985FA850FB6F894FEBF0FBEEDBFEE
:1018C0002A960FB6F894DEBF0FBECDBFDF91CF9141
:1018D0001F910F91FF90EF90DF90CF90BF90AF904E
:1018E0009F908F907F906F905F904F903F902F9040
:1018F0000895EDB7FEB7FA83E9832DB73EB72055BB
:1019000031090FB6F8943EBF0FBE2DBF8DB79EB7FD
:1019100001961C0180E5F801D10101900D928A9594
:10192000E1F783E1E82EF12C8101D12CC12CCE14FA
:10193000DF0414F5F80181909190A190B1908F018E
:10194000FFEFCF1ADF0AF801408051806280738078
:10195000A3019201C501B4010E94242718163CF787
:10196000F80134974082518262827382F80180824A
:101970009182A282B382DBCFF1E0EF1AF108A1F6E7
:10198000F10120A531A542A553A564A175A186A1A9
:1019900097A10E94AF2520E030E040E05FE30E9485
:1019A00056244B015C0129813A810FB6F8943EBF61
:1019B0000FBE2DBF7CCF8F929F92AF92BF920F939D
:1019C0001F93CF93DF93CDB7DEB7A1970FB6F894EF
:1019D000DEBF0FBECDBF19A2423008F44AE08E012F
:1019E0000F5D1F4F842E912CB12CA12CA5019401C9
:1019F0000E947D25E62FB901CA01EA3044F5E05D79
:101A0000D801EE938D01232B242B252B79F790E021
:101A100080E0109769F0FD0101900020E9F731970F
:101A2000AF014A1B5B0BBD018CEB93E00E948A0364
:101A3000A1960FB6F894DEBF0FBECDBFDF91CF9158
:101A40001F910F91BF90AF909F908F900895E95C88
:101A5000D7CFCF92DF92EF92FF92CF93DF936C01BB
:101A6000990FEE08FF08F7FE19C06DE28CEB93E0CA
:101A70000E942A04EC0166277727CB016C197D09A7
:101A80008E099F094AE00E94DB0C8C0F9D1FDF919D
:101A9000CF91FF90EF90DF90CF9008954AE0C7017B
:101AA000B601DF91CF91FF90EF90DF90CF900C9433
:101AB000DB0C42E050E06DE871E08CEB93E00C94BD
:101AC0008A03CF93DF930E947704EC010E94590DA3
:101AD0008C0F9D1FDF91CF910895CF93DF93FC0171
:101AE00044815581608171818CEB93E00E948A036F
:101AF000EC010E94590D8C0F9D1FDF91CF9108952D
:101B0000AF92BF92CF92DF92EF92FF920F931F930B
:101B1000CF93DF936B01EA01FB01448155814115AD
:101B2000510561F1FC01248135812115310531F127
:101B30002417350718F1C217D30710F0E9012197D0
:101B4000FC0100811181C801AA24AA94BB24BA9483
:101B50007801EC0EFD1EE816F906A0F0F601608192
:101B600071810E94482A009769F09C01201B310B6B
:101B7000C217D30708F059010196EDCFAA24AA9401
:101B8000BB24BA94C501DF91CF911F910F91FF90B3
:101B9000EF90DF90CF90BF90AF900895CF93DF93F9
:101BA000EC0188819981009711F00E94C428198264
:101BB00018821D821C821B821A82DF91CF910895A8
:101BC000FC0180819181009711F00C94C428089544
:101BD0000C94C4280C94C428FC0124813581FB0199
:101BE0004481558124173507E1F4FC0180819181FE
:101BF000FB01608171810097D1F061157105A1F43D
:101C0000232BC1F0FC01808190E008C0232B91F0D0
:101C1000FB01808190E091958195910921E0892BCC
:101C200009F020E0822F08950E941B2AF7CF61154A
:101C3000710561F721E0F6CF0F931F93CF93DF93E8
:101C40008C01EB01FC01808191810097E1F06881BA
:101C5000798161157105A9F0428153812C813D8103
:101C60004217530770F00E94242A8C819D81F8014D
:101C7000958384831D821C82DF91CF911F910F91E8
:101C800008950E94C42888819981F80191838083F6
:101C90008A819B81938382838C819D8195838483B8
:101CA000198218821B821A82E5CF0F931F93CF935C
:101CB000DF93EC0188819981009759F02A813B815B
:101CC0002617370730F081E0DF91CF911F910F91F8
:101CD00008958B016F5F7F4F0E944D29009759F047
:101CE000998388831B830A832C813D81232B59F799
:101CF000FC011082E8CF80E0E7CFEF92FF920F93D4
:101D00001F93CF93DF93EC017B01CB010E94442111
:101D10000097A9F00C811D81080F191FB801CE0191
:101D20000E94550E882361F0288139818C819D8124
:101D3000B701820F931F0E943D211D830C8381E018
:101D4000DF91CF911F910F91FF90EF900895EF9247
:101D5000FF920F931F93CF93DF936115710541F4A9
:101D600080E0DF91CF911F910F91FF90EF90089548
:101D700041155105B1F07B01EC010C811D81040F6F
:101D8000151FB8010E94550E882351F3288139810F
:101D90008C819D81B701820F931F0E94242A1D838D
:101DA0000C8381E0DECFFB0144815581608171812C
:101DB0000C94A70EEF92FF920F931F93CF93DF9394
:101DC000EC018B01CB010E9444217C01BC01CE01BE
:101DD0000E94550E81110BC0CE010E94CE0DCE0186
:101DE000DF91CF911F910F91FF90EF900895FD82A9
:101DF000EC82B801888199810E943D21F0CFFC01DD
:101E00001182108213821282158214820C94DA0ECF
:101E1000EF92FF920F931F93CF93DF93EC017B011F
:101E20008A01BA010E94550E81110BC0CE010E9499
:101E3000CE0DCE01DF91CF911F910F91FF90EF90CA
:101E400008951D830C83B701888199810E94242AFB
:101E5000F0CFFB0101900020E9F73197AF01461B5D
:101E6000570B0C94080F0F931F93CF93DF93CDB7AD
:101E7000DEB729970FB6F894DEBF0FBECDBF8C0139
:101E8000862FF80111821082138212821582148229
:101E900040E1BE016F5F7F4F90E00E948F21BE0145
:101EA0006F5F7F4FC8010E94290F29960FB6F894E3
:101EB000DEBF0FBECDBFDF91CF911F910F9108956F
:101EC000FB01DC0111961C921E9213961C921E922D
:101ED000129715961C921E9214978617970749F031
:101EE000608171816115710521F0448155810C94E7
:101EF000080F0895FC01118210821382128215824C
:101F00001482FB0101900020E9F73197AF01461BD5
:101F1000570B0C94080FAF92BF92CF92DF92EF92C3
:101F2000FF920F931F93CF93DF936C015B017A01B4
:101F300089012417350720F48F2D7901042F182FDC
:101F40006FE871E0C6010E947A0FD5011496CD9119
:101F5000DC91EC16FD06E0F40C171D0708F4E8010F
:101F6000D501ED91FC911197EC0FFD1F10811082AE
:101F70006D917C916E0D7F1DC60161157105A1F0FB
:101F80000E94290FF50180819181C80FD91F188304
:101F9000C601DF91CF911F910F91FF90EF90DF90DD
:101FA000CF90BF90AF9008950E94CE0DEBCFEF92EF
:101FB000FF920F931F93CF93DF93CDB7DEB7E397D5
:101FC0000FB6F894DEBF0FBECDBF7C01CB01BA01C6
:101FD000F70111821082138212821582148242E06C
:101FE000420F8E010F5F1F4F0E945420009789F00F
:101FF000BC01C7010E94290FE3960FB6F894DEBF1B
:102000000FBECDBFDF91CF911F910F91FF90EF9049
:102010000895C7010E94CE0DEFCF85ED8093BC00DF
:102020008091940390919503A0919603B0919703AA
:102030000796A11DB11D23E0B695A79597958795A5
:102040002A95D1F72091BC0024FD03C01092920381
:102050000895409194035091950360919603709177
:102060009703452B462B472B69F30097A105B10534
:1020700041F025E12A95F1F700000197A109B10986
:10208000E1CF809193030C94D6050F931F93CF93C8
:10209000DF938C01EB0188E2FB0111928A95E9F74D
:1020A0004BE050E060E971E0CE010E94392A1B86C6
:1020B00081E090E0A0E0B0E08C879D87AE87BF878D
:1020C000F80182819381092E000CAA0BBB0B888B2F
:1020D000998BAA8BBB8B8DE090E0A0E0B0E08C8B5D
:1020E0009D8BAE8BBF8B1CA21DA21EA21FA280E0E7
:1020F00090E0A0E2B2EC8C8F9D8FAE8FBF8F80E01E
:1021000090E0AAEAB2E4888F998FAA8FBB8F8AE900
:1021100099E9A9E9BEE388A399A3AAA3BBA3DF9188
:10212000CF911F910F9108950F931F93CF93DF933A
:102130008C01EB0188E2FB0111928A95E9F74BE0F3
:1021400050E068E971E0CE010E94392A1B8681E0E7
:1021500090E0A0E0B0E08C879D87AE87BF87F80154
:1021600082819381092E000CAA0BBB0B888B998B63
:10217000AA8BBB8B8CE090E0A0E0B0E08C8B9D8BB9
:10218000AE8BBF8B1CA21DA21EA21FA21C8E1D8E79
:102190001E8E1F8E80E090E0A8ECB2E4888F998FAD
:1021A000AA8FBB8F80E090E0A0E0B0E488A399A361
:1021B000AAA3BBA3DF91CF911F910F9108952F92F6
:1021C0003F924F925F926F927F928F929F92AF92C7
:1021D000BF92CF92DF92EF92FF920F931F93CF9314
:1021E000DF9300D000D000D01F92CDB7DEB77C01C6
:1021F0006B011A010E947A032B013C018DEF8F8342
:10220000D70154968D919C915597009701F5529660
:102210002D913C912130310561F426EF2F8305E0AB
:1022200010E08430910571F484E28F830EE610E0B3
:1022300028C00AE010E02230310521F420EE2F837F
:1022400002E010E08530910589F48EE117C08130FD
:10225000910529F429E32F830CE414E0F3CF8230B5
:10226000910541F422E32F830EE610E0069749F42E
:1022700085E1DBCF8330910541F58FE28F830CE45C
:1022800014E0F70184859585DC0114962D913C912D
:10229000232BF1F410E0812F27960FB6F894DEBFC0
:1022A0000FBECDBFDF91CF911F910F91FF90EF90A7
:1022B000DF90CF90BF90AF909F908F907F906F9066
:1022C0005F904F903F902F9008950AE010E0A9CFC3
:1022D000FC01208131E0309398032093BA031092DF
:1022E00099031092BB03BE01695F7F4F0E94E7060E
:1022F000882381F2B80190E080E00E944703BE018C
:102300006F5F7F4FD7011C968D919C910E941C0995
:10231000182F882309F4BECF0B81CE0101960E94AD
:102320004D020813B7CF0E81CE0104960E944D02D4
:102330000813B0CF6C81862F90E0982F88276D818D
:10234000680F792F711D90E080E00E94F5234B010A
:102350005C016981862F90E0982F88276A81680F39
:10236000792F711D90E080E00E94F52320E030E09D
:102370004FE253E40E94562420E03FEF4FE757E43A
:102380000E941B2620E030E044E352E40E94AE2588
:10239000F701608371838283938320E030E04AEF0A
:1023A00052E4C501B4010E94562420E03FEF4FE7FC
:1023B00057E40E941B2620E030E040EC50E40E94ED
:1023C000AE254B015C0120E030E0A9010E942427EA
:1023D00018160CF07FC020E030E048EC52E4C50154
:1023E000B4010E94F02387FD06C0812C912C88EC5B
:1023F000A82E82E4B82ED70114968D929D92AD92AC
:10240000BC9217972114310481F1F101349680E2D6
:10241000DF011D928A95E9F784E290E0A0E0B0E048
:10242000F10180839183A283B383D7011A968D91A2
:102430009C91B0E0A0E084839583A683B7838DE070
:1024400090E0A0E0B0E080879187A287B387408AC0
:10245000518A628A738AF70180819181A281B38156
:10246000F101848B958BA68BB78BC114D10409F431
:1024700012CFF601349680E2DF011D928A95E9F7CA
:1024800084E290E0A0E0B0E0F60180839183A28333
:10249000B383D70118968D919C91B0E0A0E084831E
:1024A0009583A683B7838CE090E0A0E0B0E08087BE
:1024B0009187A287B387408A518A628A738AF7011B
:1024C00084819581A681B781F601848B958BA68B3B
:1024D000B78BE1CE812C912C54018DCFAB0170E0F4
:1024E00060E0FC01848195810E94DF1081E0089505
:1024F00050E040E0FC01848195810E94DF1081E082
:1025000008951F920F920FB60F9211242F933F93AD
:102510008F939F93AF93BF93809142039091430316
:10252000A0914403B09145033091410326E0230F6D
:102530002D3758F50296A11DB11D209341038093BC
:10254000420390934303A0934403B09345038091C7
:10255000460390914703A0914803B0914903019627
:10256000A11DB11D8093460390934703A093480398
:10257000B0934903BF91AF919F918F913F912F915C
:102580000F900FBE0F901F90189529E8230F039608
:10259000A11DB11DD2CF1F920F920FB60F92112421
:1025A0002F933F934F935F936F937F938F939F935B
:1025B000AF93BF93EF93FF93E0910201F09103017A
:1025C0000995FF91EF91BF91AF919F918F917F916D
:1025D0006F915F914F913F912F910F900FBE0F9090
:1025E0001F9018951F920F920FB60F9211242F93E0
:1025F0003F934F935F936F937F938F939F93AF938B
:10260000BF93EF93FF93E0910001F09101010995D1
:10261000FF91EF91BF91AF919F918F917F916F91BA
:102620005F914F913F912F910F900FBE0F901F9090
:1026300018951F920F920FB60F9211242F933F936C
:102640004F935F936F937F938F939F93AF93BF93BA
:10265000EF93FF938CEB93E00E940804FF91EF91BE
:10266000BF91AF919F918F917F916F915F914F91AA
:102670003F912F910F900FBE0F901F9018951F92B2
:102680000F920FB60F9211242F938F939F93EF9376
:10269000FF93E091CC03F091CD038081E091D203D0
:1026A000F091D30382FD1BC090818091D5038F5F91
:1026B0008F732091D603821741F0E091D503F0E0AB
:1026C000E454FC4F958F8093D503FF91EF919F9138
:1026D0008F912F910F900FBE0F901F9018958081B2
:1026E000F4CF1F920F920FB60F9211242F933F93A6
:1026F0004F935F936F937F938F939F93AF93BF930A
:10270000EF93FF938091B900887F803609F44AC027
:10271000F0F5883209F4A7C018F5803109F49BC0A0
:10272000B8F4882309F4F9C0883009F494C0FF9103
:10273000EF91BF91AF919F918F917F916F915F9139
:102740004F913F912F910F900FBE0F901F901895B2
:10275000883109F488C0803251F78093900314C007
:10276000803409F49DC040F48033B9F38833F9F61E
:102770008093900385ECB0C0803509F485C088351E
:1027800009F496C0883499F60E940D10D0CF88398C
:1027900009F48CC038F5883729F050F4883611F0E8
:1027A000803729F683E0809392031092F20157C09C
:1027B000883809F47BC0803919F0803809F0B7CF28
:1027C0008091F201803208F071C0E091F20181E065
:1027D0008E0F8093F2018091BB00F0E0EE52FE4F2D
:1027E00080833DC0803B39F0E0F4803A09F479C041
:1027F000883A09F09CCF84E0809392031092D10133
:102800001092D001E091F401F091F50109958091C9
:10281000D00181110FC081E08093D0011092B001EE
:1028200009C0803C09F4A6CF883C09F4A3CF883BBB
:1028300009F07DCFE091D10181E08E0F8093D1012D
:10284000F0E0E055FE4F80818093BB009091D10174
:102850008091D00129C080916D038093BB0085ECED
:102860008093BC0064CF90918F0380918E03981762
:1028700058F5E0918F0381E08E0F80938F03F0E095
:10288000E259FC4F8081E9CFE0918F0381E08E0F08
:1028900080938F038091BB00F0E0E259FC4F80836E
:1028A00090918F0380918E039817C8F285E8D8CF56
:1028B000E0918F0381E08E0F80938F038091BB00A6
:1028C000F0E0E259FC4F80838091910381115CCF4D
:1028D00081E080936C0384EA8093BC0010929203A1
:1028E00026CF85EC8093BC00109292038091F20178
:1028F000803230F4E091F201F0E0EE52FE4F1082AF
:102900006091F20170E0E091F601F091F70182ED43
:1029100091E009951092F2010ACF1092900334CF02
:102920001F920F920FB60F9211248F930FB6F89447
:10293000A89580916000886180936000109260008B
:102940000FBE8F910F900FBE0F901F901895CF92D2
:10295000DF92EF92FF92CF93DF936DE18AE594E0EF
:102960000E94DD0490E034E0959587953A95E1F773
:102970008A3091050CF042C0FC01EE0FFF1FE80FFA
:10298000F91FE75CFE4FC080D180E2800E2C000C66
:10299000FF086EE18AE594E00E94DD04D82F66E22C
:1029A0008AE594E00E94DD04C82FD295DF7021E013
:1029B00030E040E050E004C0220F331F441F551F99
:1029C000DA95D2F7C701B6010E94142568EE73E0CC
:1029D00080E090E00E941425213131054105510528
:1029E00094F04C2F486066EA8AE594E0DF91CF913D
:1029F000FF90EF90DF90CF900C94B204CC24CA9457
:102A0000DC2C7601C6CF4C2F477FEDCFCF93ECEB7C
:102A1000F3E01382128288EE93E0A0E0B0E08483BA
:102A20009583A683B7832BE531E03183208325ECA2
:102A300030E03587248724EC30E03787268720EC88
:102A400030E0318B208B21EC30E0338B228B22EC79
:102A500030E0358B248B26EC30E0378B268B118EC3
:102A6000128E138E148EEAE5F4E0138212822DE6A4
:102A700031E03183208320E52487C1E0C58729E543
:102A800034E0378726872AE030E0318B208B29E03D
:102A900030E0338B228B22E030E0358B248B168A9A
:102AA000178A108E118E138E128E158E148E178E1D
:102AB000168E11A210A21482158216821782ECE7DC
:102AC000F4E01382128284839583A683B7838FE711
:102AD00091E09183808360EA71E089EC94E00E9448
:102AE0007A0F6FE871E083EC94E00E947A0F60E067
:102AF00084E00E94E602E2E3F4E0E491A5EBB4E0B6
:102B0000EC93EEE1F4E0E491F0E0EE0FFF1FE05F04
:102B1000FB4F8591949112969C938E9311971B96DF
:102B20001C921B971D961C921D971C961C921C971D
:102B30001A961C921A9719961C92199718961C921D
:102B4000189717961C92179716961C92169715961B
:102B50001C92159714961C92149713961C92139717
:102B6000EEE9F4E017821086108289E08383C48343
:102B7000C583C6831182168A158A8FEF838B148AC8
:102B8000B287A187E8E8F4E01586148617861686D2
:102B9000118A108A138A128A158A148ACF9108958D
:102BA000CF93DF93CDB7DEB7C154D1090FB6F894F8
:102BB000DEBF0FBECDBF789484B5826084BD84B57E
:102BC000816084BD85B5826085BD85B5816085BD28
:102BD00080916E00816080936E00109281008091E0
:102BE0008100826080938100809181008160809368
:102BF0008100809180008160809380008091B1008D
:102C000084608093B1008091B00081608093B000B7
:102C100080917A00846080937A0080917A0082604B
:102C200080937A0080917A008E7F80937A008091E1
:102C30007A00806880937A001092C10062E083E09D
:102C40000E94E60261E08FE00E94E60281E080934C
:102C5000040160E08FE00E94B802E091CC03F091A3
:102C6000CD0382E08083E091C803F091C903108214
:102C7000E091CA03F091CB0383E080831092D403E8
:102C8000E091D003F091D10386E08083E091CE0300
:102C9000F091CF03808180618083E091CE03F09139
:102CA000CF03808188608083E091CE03F091CF03D1
:102CB000808180688083E091CE03F091CF03808192
:102CC0008F7D808381E493E00E94610D84E293E034
:102CD0000E94610D83E093E00E94610D82ED92E01D
:102CE0000E94610D61E080916A040E94E60261E049
:102CF00080916A040E94B80280916C0490916D04E6
:102D00008F3F9807C9F061E00E94E60260E0809181
:102D10006C040E94B8026AE070E080E090E00E94DB
:102D2000470361E080916C040E94B8026AE070E0A1
:102D300080E090E00E9447031FB7F8948091F30170
:102D4000811127C0E4E2F4E08491E8E3F4E0949197
:102D5000E82FF0E0EE0FFF1FE851FC4FA591B49172
:102D6000EC91E92321F461E08AE00E94B80261E07D
:102D70008AE00E94E6028CB580618CBD8CB58064CF
:102D80008CBD61E08DE00E94E60261E08BE00E9474
:102D9000E6028091F3018F5F8093F3011FBF62E42D
:102DA0008AE594E00E94DD04823109F02EC140E8FA
:102DB00061E88AE594E00E94B20480EC9AECA9E80C
:102DC000B6E38093700490937104A0937204B0935F
:102DD000730444EE66E88AE594E00E94B20440EC95
:102DE00067E88AE594E00E94B20440E068E88AE57A
:102DF00094E00E94B20440E06EE88AE594E00E940C
:102E0000B20440E06FE88AE594E00E94B2046CE00E
:102E10008AE594E00E94DD04482F43606CE88AE56F
:102E200094E00E94B20444E066EA8AE594E00E94DD
:102E3000B20444E86DEC8AE594E00E94B2044BE2EF
:102E40006BE88AE594E00E94B2044FE869E88AE5FD
:102E500094E00E94B2040E94D70447E86DEC8AE532
:102E600094E00E94B20441E36BE88AE594E00E949A
:102E7000B2044FE869E88AE594E00E94B2046DE18B
:102E80008AE594E00E94DD048F70482F40676DE969
:102E90008AE594E00E94B2040E94A71443EC61EB1F
:102EA0008AE594E00E94B2044AE067EB8AE594E088
:102EB0000E94B2046EE18AE594E00E94DD048F7006
:102EC000482F406C6EE98AE594E00E94B2040E94AB
:102ED000A7146DE18AE594E00E94DD04817F482F0C
:102EE00042606DE98AE594E00E94B2040E94D70432
:102EF0008AEA91E00E94610D1AE0FF24F39403E056
:102F0000E091A704F091A804138615861486128612
:102F100011861086178216821582148213821092EF
:102F2000A5041092A60462E370E080E090E00E94A5
:102F30004703BE016E5D7F4F8091A7049091A80466
:102F40000E94770A882309F47BC067E0CE0182964D
:102F50000E94C10799A58913ECCF8091A5048F5FCA
:102F60008093A5048AA1883231F008F04FC08031E7
:102F700011F08232F1F68091A6048F5F8093A6044F
:102F800080919E04811128C08091A7049091A8048B
:102F90000E94440ABE016E5D7F4F8091A70490910C
:102FA000A8040E945F0840E064EB8091A704909120
:102FB000A8040E942B088091A7049091A8040E9465
:102FC000D807E82E8091A7049091A8040E94440A93
:102FD000E11002C0F0929E048AA1803111F1BE017D
:102FE0006F5F7F4FCE0182960E941F0B882359F09E
:102FF0008D819AA19B3311F487FD13C08F3399F013
:1030000060F48F31C9F080E00FC0FFCF8B3309F43B
:10301000B2CF823409F08DCFAECF8F3579F08F37B4
:1030200091F78CE001C08AE09091A104981708F014
:1030300080CF8093A1047DCF89E0F6CF8BE0F4CFE1
:103040008091A5048111ADC7015009F059CF1150ED
:1030500009F0E8C064E072E0CE01C8960E94FF0E5D
:103060006FE372E0CE018A960E94FF0EBE01665D9C
:103070007F4FCE01C8960E94EC0D882309F466C1EB
:103080008AE0482E94E4392E2CE7622E24E0722E3A
:1030900030E2C32ED12C48E8E42E44E0F42E56E86A
:1030A000A52E53E0B52E67E8862E63E0962E5524B4
:1030B000539474E9272E809194049091950400977D
:1030C00011F00E94C4288091960490919704009773
:1030D00039F0DC01ED91FC910280F381E02D09953E
:1030E0008091980490919904009739F0DC01ED915A
:1030F000FC910280F381E02D099586E090E00E942A
:1031000028288C01FC013082728261821382D58270
:10311000C482909395048093940410924B03109270
:103120004A03109299031092BB030E94B805B09213
:10313000F501A092F4019092F7018092F601D80176
:1031400013965C92C8010E948607882309F476C012
:1031500029828091940490919504FC012481358109
:10316000232B09F46BC02081509298032093BA035B
:10317000109299031092BB03BE016F5F7F4F0E94B4
:10318000E706882309F45AC061E070E080E090E02F
:103190000E94470386E090E00E942828FC0189E213
:1031A00091E09183808381E094E093838283F58230
:1031B000E482F0939904E093980486E090E00E9402
:1031C0002828FC018BE191E09183808380E094E0EA
:1031D00093838283F582E482F0939704E0939604CC
:1031E0006BE372E083EC94E00E94DA0E10929B0491
:1031F00010929A0410929D0410929C048AE092E02E
:103200000E94610D89E88AA38091940490919504AD
:10321000DC0114962D913C91232BD1F460E070E0F9
:10322000CB0159C068EC70E080E090E00E94470359
:1032300066CE01960E94330FC12CF3C64A9441100A
:103240007EC067E072E0CE0182960E94FF0E56C0FB
:10325000FC012081509298032093BA0310929903A5
:103260001092BB03BE016E5D7F4F0E94E70688236C
:10327000A9F26AE070E080E090E00E944703BE019E
:103280006F5F7F4F80919404909195040E941C0978
:10329000882321F2CE0101960E944D029B81891361
:1032A000BDCFCE0104960E944D029E818913B6CFF8
:1032B00069817A8176276727762790E080E0982FCA
:1032C000872F762F66272C81622B982F872F762FBA
:1032D00066272D81622B1BA21AA21DA21CA21FA26F
:1032E0001EA220E1AE014F5F5F4F0E946D21BE0123
:1032F0006F5F7F4FCE0182960E94290FBE016E5DE7
:103300007F4FCE01C8960E941C0ECE0182960E946D
:10331000E00DCE018A960E94E00D08AD19AD0115B1
:103320001105E1F0D8018C918823C1F0082E000C22
:10333000990B0E940A2AF80181938F01F3CF68EC60
:1033400070E080E090E00E944703B5CEBE01685C6B
:103350007F4FCE0182960E94600FD0CFBE01685C85
:103360007F4F89EC94E00E94D30ECE01C8960E9454
:10337000E00D82E992E00E94610D80E892E00E94F7
:10338000610D85E792E00E94770489EC94E00E9449
:103390006D0D8EE592E00E9477048CE390E00E9430
:1033A000290D8CE592E00E94610D85E492E00E9477
:1033B000770488E290E00E94290D82E492E00E9466
:1033C000610D88E199E20FB6F894A89580936000AA
:1033D0000FBE90936000A89565EE73E0CE01019654
:1033E0000E94FF0EBE016F5F7F4F89EC94E00E9448
:1033F000EC0D182FCE0101960E94E00D111163C053
:1034000061EE73E0CE0101960E94FF0EBE016F5F78
:103410007F4F83EC94E00E94EC0D182FCE010196B3
:103420000E94E00D112309F4BFC249E952E06DEB9F
:1034300072E088E894E00E94DF10C090AD02D09066
:10344000AE02E090AF02F090B002C0920501D092BF
:103450000601E0920701F09208014091D1025091DB
:10346000D2026091D3027091D4024093090150932B
:103470000A0160930B0170930C018091F80190E0B8
:103480009C01220F331F220F331FF901E75BFD4F11
:10349000C082D182E282F38227503E4FD9014D9300
:1034A0005D936D937C931397019664E170E00E94A5
:1034B000FA278093F80189E492E00E94910B89EF4A
:1034C00091E00E94910BA89561E08FE00E94B80204
:1034D00062E370E080E090E00E9447030AEE12E0B1
:1034E0008091040120E4829FC001112480937C001C
:1034F00080917A00806480937A0080917A0086FDC2
:10350000FCCF6091780070917900072E000C880B39
:10351000990B0E94F723D8016D937D938D939D9312
:103520008D0166E970E080E090E00E944703B3E01F
:103530000A331B07A9F660E08FE00E94B8028AEE0A
:1035400092E00E94910B4B015C010E94CC086B0140
:103550007C01C501B4010E94C726072E000C880B10
:10356000990B0E94F72320E030EC4FE754E40E94CF
:103570001B26A70196010E94562420E030E04AE76E
:1035800054E40E9456240E94C7269B01AC0124509B
:103590003B4041095109ACE3B0E00E943325C12C06
:1035A000D12C7601663DE6E07E0781059105ACF4FD
:1035B0006339FDE47F07FDEF8F07FFEF9F070CF4F2
:1035C00040C32AE239EF4FEF5FEF0E941425CA0192
:1035D000B9010E94F7236B017C012091E602309132
:1035E000E7024091E8025091E902C701B6010E944A
:1035F000AE2520E030E040E450E40E942427181675
:103600000CF026C381E08093E5021092E102109253
:10361000E2021092E3021092E402C092E602D0921B
:10362000E702E092E802F092E9026091E102709113
:10363000E2028091E3029091E4020E94F72320E0ED
:1036400030E040E752E40E941B2620E030E040ECEE
:1036500051E40E94AE252AE037ED43E25CE30E948C
:1036600056240E94952620E030E040E85FE30E9467
:10367000AF259B01AC0160E070E080E89FE30E9411
:103680001B2625E639E44FE05FE30E941B264B0131
:103690005C0120E030E040E651E4C701B6010E9441
:1036A000AE259B01AC01C501B4010E94562420E067
:1036B00030E040E651E40E94AF2560933D037093F3
:1036C0003E0380933F0390934003A89569EC74E018
:1036D000CE01C2960E94600F6FE673E0CE01C296E3
:1036E0000E947D0E40913D0350913E0360913F0347
:1036F0007091400322E0CE0101960E94D70FBE01D7
:103700006F5F7F4FCE01C2960E94D30ECE0101960D
:103710000E94E00D6DE673E0CE01C2960E947D0E20
:103720004091090150910A0160910B0170910C01C7
:1037300020E0CE0101960E94D70FBE016F5F7F4F40
:10374000CE01C2960E94D30ECE0101960E94E00DDA
:103750006BE673E0CE01C2960E947D0E409105019A
:1037600050910601609107017091080121E0CE019E
:1037700001960E94D70FBE016F5F7F4FCE01C296A8
:103780000E94D30ECE0101960E94E00D69E673E01F
:10379000CE01C2960E947D0E0E94CC08AB01BC01F6
:1037A00021E0CE0101960E94D70FBE016F5F7F4FCF
:1037B000CE01C2960E94D30ECE0101960E94E00D6A
:1037C00067E673E0CE01C2960E947D0EBE016E5C7C
:1037D0007F4FCE018A960E94600FCE018A960E948A
:1037E000FB081BA21AA21DA21CA21FA21EA24AE035
:1037F000BE016F5F7F4F0E944D21BE016F5F7F4F03
:10380000CE0182960E94290FBE016E5D7F4FCE01D0
:10381000C2960E94D30ECE0182960E94E00DCE0188
:103820008A960E94E00D0E94D70481E793E00E94EF
:103830007704CE01C2960E946D0D61E08AE594E0A6
:103840000E94DD0483708330E9F062E18AE594E050
:103850000E94DD0483FF06C048E062E98AE594E047
:103860000E94B2040E94D7040E94E00440E06DE888
:103870008AE594E00E94B20440E062EA8AE594E0BE
:103880000E94B2044EA95FA96AA97BA98AE594E0C7
:103890000E94400543E861E88AE594E00E94B20492
:1038A00062E18AE594E00E94DD0483FFF9CF48E0FD
:1038B00062E98AE594E00E94B20464E670E080E088
:1038C00090E00E94470340E861E88AE594E00E94A6
:1038D000B204CE01C2960E94E00DA8950E947A0320
:1038E0004B015C010E94BE2028E833E140E050E03B
:1038F0000E9414259B01AC0128573C4E4F4F5F4F4F
:1039000022962CAF3DAF4EAF5FAF22970E947A0355
:10391000681979098A099B0922962CAD3DAD4EADF7
:103920005FAD2297621773078407950708F01DC3E0
:1039300062E18AE594E00E94DD04182F0E94E00411
:10394000412F62E98AE594E00E94B20416FFA2C109
:1039500015FDA0C110927504109274048091760434
:103960009091770462E2892B09F463E18AE594E09F
:103970000E94DD04082F10E060E18AE594E00E94D7
:10398000DD04482F6DE88AE594E00E94B2040E94AD
:10399000D704012B09F093C16AE070E080E090E069
:1039A0000E944703A895B2CF20E030E040E85FEBEB
:1039B0002093090130930A0140930B0150930C01AD
:1039C0008091A7049091A8040E94440A40E06CEC06
:1039D0008091A7049091A8040E942B0840919E0416
:1039E00064E48091A7049091A8040E942B080E948F
:1039F0007A036B017C018091A2048823E1F080911D
:103A0000A304882309F446C080919E04811142C01A
:103A10008091A7049091A8040E94D807813059F0A2
:103A20000E947A036C197D098E099F096E3E7240CF
:103A30008105910568F38091A504811154C060E06F
:103A400070E08EEF92EC6093050170930601809315
:103A5000070190930801A895C0900501D090060138
:103A6000E0900701F090080120E030E04EEF52ECCA
:103A7000C701B6010E94F023882309F4A1CF20E0FA
:103A800030E04CE852E4C701B6010E94242787FFCA
:103A900097CF19CDE091A104E9508EEE92E0E3308A
:103AA00038F4F0E0EE0FFF1FED5CFE4F8081918156
:103AB0006C01F12CE12C80919F04882329F060E0B7
:103AC0008091A0040E94B802C701B6010E9447037A
:103AD00080919F04882309F4AECF61E08091A00417
:103AE0000E94B802A8CFCE0182960E94F70A8823CE
:103AF00009F4A5CFBE016F5F7F4FCE0182960E9471
:103B00001F0B882309F49BCF5A81C12CD12C76013D
:103B100057FF06C0C12CD12CF8EFEF2EFF24FA94EA
:103B20007AA149817B33D1F58D8187FF37C040FD74
:103B300086CF042F10E030E020E073E0000F111F6B
:103B4000221F331F7A95D1F7007E17702227332763
:103B5000452F50E070E060E0EBE0440F551F661F1A
:103B6000771FEA95D1F7042B152B262B372B0C2921
:103B70001D292E293F290138F4EE1F07FFEF2F07DB
:103B80003F070CF45CCFC901B8010E94F72320E085
:103B900030E040E05CE30E94562455CF052F10E052
:103BA000102F0027110F110F110FA8E04A9FC0011D
:103BB0001124082B192B012E000C220B330B0C297E
:103BC0001D292E293F29783269F4403531F45530CA
:103BD00091F68F818C3079F632CF4F3F61F65730B6
:103BE00051F62DCF703139F66885662321F270E0E9
:103BF0008F81FB01E81BF109CF019695982F88274B
:103C0000979587950E94FA27CB01770FAA0BBB0BDC
:103C100053E0000F111F221F331F5A95D1F7007870
:103C2000277033270052110921093109800F911F94
:103C3000A21FB31F97018601082B192B2A2B3B2BA0
:103C40009ACFC12CD12C98ECE92E92E4F92EC5CC58
:103C50008091E502882309F4E0CC80913B039091A8
:103C60003C03092E000CAA0BBB0B4091E1025091C2
:103C7000E2026091E3027091E402840F951FA61F97
:103C8000B71F8093E1029093E202A093E302B09306
:103C9000E402C3CC61E08AE594E00E94DD0486384A
:103CA00009F47ACE40E06DE88AE594E00E94B2041F
:103CB00046E861E88AE594E00E94B2046DCE6FE8C0
:103CC00071E0CE01C2960E947A0F8AE594E00E94CC
:103CD0003205892B89F08AE594E00E9417058983D3
:103CE0001A8241E050E0BE016F5F7F4FCE01C29665
:103CF0000E94A70EA895E9CF4091CD045091CE0423
:103D00008EA99FA98417950708F422C18AA99BA9A7
:103D1000009709F41DC16091C9047091CA0461152E
:103D2000710509F415C10E942B2A8C01892B09F019
:103D30000FC1BE016E5C7F4FCE0182960E94600F64
:103D400066E773E0CE0101960E94FF0E4EA15FA1CF
:103D50008D819E81481B590BBE016F5F7F4FCE0145
:103D600082960E94800D7C01CE0101960E94E00D9A
:103D70003FEFE31AF30A2EA13FA1A701BE016E5D3A
:103D80007F4FCE0101960E948B0F89819A81412C31
:103D9000512C3201009719F00E9416212B01CE01FF
:103DA00001960E94E00D970150E040E0BE016E5D7B
:103DB0007F4FCE0101960E948B0FBE016F5F7F4F38
:103DC000CE0182960E941C0ECE0101960E94E00D4B
:103DD000BE016E5D7F4FCE0101960E94600FCE0145
:103DE00001960E94FB087C01CE0101960E94E00D25
:103DF000CE0182960E94E00DE414F50409F0A8C0FB
:103E0000BE016E5C7F4FCE018A960E94600F6AE70A
:103E100073E0CE0101960E94FF0E8EA59FA5892B0F
:103E200061F0CAA4DBA469817A81C6010E94482A94
:103E30007C01EC18FD08892B19F4EE24EA94FE2C81
:103E4000CE0101960E94E00D68E773E0CE018296F4
:103E50000E94FF0E4EA55FA58EA19FA1481B590B86
:103E6000BE016E5D7F4FCE018A960E94800DA70134
:103E70004F5F5F4F9C01BE01665D7F4FCE01019693
:103E80000E948B0FBE016F5F7F4FCE018A960E940A
:103E90001C0ECE0101960E94E00DCE0182960E947A
:103EA000E00D8AA59BA5C12CD12C7601009719F0B5
:103EB0000E9416216B01D0923C03C0923B03CE01BD
:103EC0008A960E94E00D8AEB93E00E947704C60177
:103ED0000E94290D86EB93E00E94610DCE01C296EF
:103EE0000E94E00D0FB6F894A8958091600088615B
:103EF00080936000109260000FBE0E9494027C01CB
:103F000068E873E180E090E00E944703EA94EF28BC
:103F1000E9F580913B0390913C032FE0289F7001CD
:103F2000299FF00C11240E151F0584F530E020E0C8
:103F300050E040E068E070E08AE393E00E947E0891
:103F4000A8950E949402892B09F10F5F1F4FEBCFB8
:103F50008DE993E00E947704CE01C2960E946D0D18
:103F6000CE01C2960E94E00D17CD8CE793E00E942F
:103F7000610D80E090E0892B09F42DCA0E94F403C2
:103F8000882309F428CA0E94000025CA88E199E222
:103F90000FB6F894A895809360000FBE90936000D0
:103FA000E8CFCE018A960E94F70AD82E882309F41A
:103FB0004EC861E072E083EC94E00E94DA0E83ED7B
:103FC00091E00E94610D6FE871E0CE01C8960E94F9
:103FD0007A0F8E01065D1F4F7E0132E3E30EF11C66
:103FE000D8016D918D01CE01603108F022C9829611
:103FF0000E94330F6CEA71E0C7010E947A0F4EA154
:104000005FA16AA17BA1C7010E94A70E811103C015
:10401000C7010E94CE0DB701CE0101960E94600F2C
:10402000CD2CBE016F5F7F4FCE01C8960E94D30E8C
:10403000CE0101960E94E00DCC2039F0C7010E940C
:10404000E00DCE0182960E94E00D0E151F0541F68F
:104050000C9430188091940490919504009711F07D
:104060000E94C4288091960490919704009739F09B
:10407000DC01ED91FC910280F381E02D09958091A6
:10408000980490919904009739F0DC01ED91FC912E
:104090000280F381E02D099583EC94E00E94E00D0D
:1040A00089EC94E00C94E00DEF920F931F93CF9363
:1040B000DF93E80134E047FD34E1042E000C550B9A
:1040C00057FF03C0519541955109E32E022F242F2C
:1040D000AE010E94A921CE01DF91CF911F910F91D6
:1040E000EF9008958F929F92AF92BF92CF92DF92FE
:1040F000EF92FF92CF93DF93EC01688179818A81FF
:104100009B81611571058105910521F464E279EDCA
:104110008BE597E02DE133EF41E050E00E9414255C
:1041200049015A019B01AC01A7EAB1E40E94332581
:104130006B017C01ACEEB4EFA50194010E94412516
:10414000C60ED71EE81EF91EF7FE06C081E0C81A8B
:10415000D108E10880E8F80AC882D982EA82FB82A5
:10416000C701B6019F77DF91CF91FF90EF90DF906D
:10417000CF90BF90AF909F908F9008958F929F9215
:10418000AF92BF92CF92DF92EF92FF9260910D01BA
:1041900070910E0180910F019091100161157105D0
:1041A0008105910521F464E279ED8BE597E02DE13D
:1041B00033EF41E050E00E94142549015A019B0170
:1041C000AC01A7EAB1E40E9433256B017C01ACEE9F
:1041D000B4EFA50194010E944125C60ED71EE81E2A
:1041E000F91EF7FE06C081E0C81AD108E10880E890
:1041F000F80AC0920D01D0920E01E0920F01F092E8
:104200001001C701B6019F77FF90EF90DF90CF902C
:10421000BF90AF909F908F90089560930D01709321
:104220000E0180930F019093100108951F93FC01DC
:1042300099278827BC01E89411911032E9F31930CD
:1042400010F01E30C8F31B3251F01D3249F468944F
:1042500006C00E945821610F711D811D911D119191
:1042600010531A30B0F33EF4909580957095619597
:104270007F4F8F4F9F4F1F910895FB01DC010590E9
:104280000D920020E1F70895FC0105900020E9F768
:10429000809590958E0F9F1F0895BB274A3031F46B
:1042A000992322F4BDE2909581959F4F0C94902123
:1042B000592F482F372F262F660F771F881F991FDA
:1042C000660F771F881F991F620F731F841F951F2A
:1042D000660F771F881F991F0895BB27FA01A62F25
:1042E0006217710581059105330B30FB66F0AA2733
:1042F000660F771F881F991FAA1FA21710F0A21B15
:1043000063953850A9F7A05DAA3308F0A95DA19381
:1043100036F7B111B1931082CA010C94E023BB2788
:10432000FB015527AA27880F991FAA1FA41710F071
:10433000A41B83955051B9F7A05DAA3308F0A95D7D
:10434000A193009779F7B111B1931192CB010C941D
:10435000E023A9E0B0E0EFEAF1E20C944C256A0119
:10436000F22EB02E102FFBE3AF2EA01608F41BE3A5
:104370001F5F012F27E0AE014F5F5F4F0E940823B0
:10438000BC018981982F9970913009F43FC09BE25C
:10439000E1FC04C09E2D9170E0FC3AC05E2D50718E
:1043A000E82FE87083FF46C084E0911101C083E0EC
:1043B000EF2DE81B8F1508F0E0E0D6018E2F20E2EC
:1043C000552351F1992329F0D6019C93C6010196FA
:1043D0006C0196012D5F3F4FE2FE24C08EE4D601B2
:1043E0008C9391E411969C93119712968C93D9011A
:1043F0008E2F90E281111BC0E20FF32FF11D10826E
:104400008EEF9FEF2996ECE00C9468259DE2C6CFD5
:1044100090E2C4CF2D9381508111FCCFCE0ED11CE0
:10442000E0E0D0CF8EE6D6018C9391E6DBCF9D9372
:104430008150E0CF482F447082FF3DC084E091114D
:1044400001C083E08F1510F4EF2DE81BD6018E2FED
:1044500020E2552309F1992329F0D6019C93C60146
:1044600001966C0196012D5F3F4FE2FE1BC089E46F
:10447000D6018C938EE411968C93119786E4129654
:104480008C93D9018E2F90E2882309F4B5CF9D93A8
:104490008150FACF2D9381508111FCCFCE0ED11CCB
:1044A000E0E0D9CF89E6D6018C938EE611968C9305
:1044B000119786E6E4CF9B0177FF02C030E020E051
:1044C000A1E0B0E0911102C0B0E0A0E0F9013196A6
:1044D000AE0FBF1F8B2C912CBB2009F461C054017F
:1044E000EFEFAE1ABE0AAA0DBB1DFA161B0619F095
:1044F00014F04F2D4A1B511188C0E3FC59C07601BE
:10450000A42FB0E2A1114FC0C40ED11C992309F40D
:104510005BC040E0D6011196F60190836D015523F2
:1045200009F448C0012F060F9A81582F507184FF5B
:1045300003C0913309F4015010160CF047C0093044
:1045400008F008E0EEE2FE2E5B01A01AB10885013A
:104550009194819491082F3F320729F4D601FC925F
:10456000F60131966F016217730794F10217130772
:104570007CF5DB01A21BB30BAA24A394B12CAC0ED7
:10458000BD1EAA0DBB1D11968C9121503109D6017B
:10459000119628153905F4F0F60180836D01DBCF03
:1045A000B12CA12CA0CFF701B1937F01A150AACFCC
:1045B0009111B0CFD601942F50E302C05D9391507A
:1045C0009111FCCFC40ED11C40E0ACCF01E0BACFBA
:1045D00080E3DBCF6217730731F4963388F49533A9
:1045E00011F4552369F0F6018083FD01842F90E2D8
:1045F000811108C0A40FB11D1C9290E080E002CF91
:1046000081E3F1CF91938150F3CF911183CF8ACF82
:10461000283008F027E03327DA01990F311D87FD94
:10462000916000966105710539F432602E5F3D930B
:1046300030E32A95E1F708959F3F30F08038710507
:10464000610509F03C5F3C5F3D93913008F0806864
:10465000911DDF93CF931F930F93FF92EF92192F2A
:10466000987F9695E92F96959695E90FFF27E65145
:10467000FF4F99273327EE24FF24A701E701059078
:104680000894079428F4360FE71EF81E491F511DA1
:10469000660F771F881F991F0694A1F7059007944E
:1046A00028F4E70EF81E491F561FC11D770F881FFB
:1046B000991F661F0694A1F70590079428F4F80E39
:1046C000491F561FC71FD11D880F991F661F771FCF
:1046D0000694A1F70590079420F4490F561FC71FB1
:1046E000D81F990F661F771F881F0694A9F784911A
:1046F0001095177041F0D695C79557954795F79443
:10470000E7941A95C1F7E0E9F0E0689415901591E7
:1047100035916591959105907FE27395E118F10AC5
:10472000430B560BC90BD009C0F7E10CF11E431F18
:10473000561FC91FD01D7EF4703311F48A95E6CF41
:10474000E894015030F0080F0AF40027021708F42B
:10475000202F2395022F7A3328F079E37D932A9531
:10476000E9F710C07D932A9589F606949795679589
:10477000379517951794E118F10A430B560BC90B9F
:10478000D00998F023957E9173957A3308F070E301
:104790007C932013B8F77E9170617D9330F0839500
:1047A00071E37D9370E32A95E1F71124EF90FF9078
:1047B0000F911F91CF91DF91992787FD90950895D3
:1047C000DC01FC01672F71917723E1F7329704C078
:1047D0007C916D9370836291AE17BF07C8F3089503
:1047E0000E94322408F481E00895E89409C097FB00
:1047F0003EF490958095709561957F4F8F4F9F4FB8
:104800009923A9F0F92F96E9BB279395F6958795FB
:1048100077956795B795F111F8CFFAF4BB0F11F4BE
:1048200060FF1BC06F5F7F4F8F4F9F4F16C0882365
:1048300011F096E911C0772321F09EE8872F762F9B
:1048400005C0662371F096E8862F70E060E02AF0DC
:104850009A95660F771F881FDAF7880F96958795C8
:1048600097F90895990F0008550FAA0BE0E8FEEF9D
:1048700016161706E807F907C0F012161306E40724
:10488000F50798F0621B730B840B950B39F40A261D
:1048900061F0232B242B252B21F408950A2609F4FB
:1048A000A140A6958FEF811D811D08950E94692466
:1048B0000C94DA240E94CC2438F00E94D32420F0F7
:1048C000952311F00C94C3240C94C92411240C9446
:1048D0000E250E94EB2470F3959FC1F3950F50E0D5
:1048E000551F629FF001729FBB27F00DB11D639FA2
:1048F000AA27F00DB11DAA1F649F6627B00DA11D48
:10490000661F829F2227B00DA11D621F739FB00DED
:10491000A11D621F839FA00D611D221F749F33275D
:10492000A00D611D231F849F600D211D822F762FF6
:104930006A2F11249F5750409AF0F1F088234AF0D3
:10494000EE0FFF1FBB1F661F771F881F915050403F
:10495000A9F79E3F510580F00C94C3240C940E25BA
:104960005F3FE4F3983ED4F3869577956795B795C6
:10497000F795E7959F5FC1F7FE2B880F911D9695E0
:10498000879597F9089597F99F6780E870E060E050
:1049900008959FEF80EC089500240A9416161706D8
:1049A00018060906089500240A9412161306140620
:1049B00005060895092E0394000C11F4882352F083
:1049C000BB0F40F4BF2B11F460FF04C06F5F7F4F3B
:1049D0008F4F9F4F089557FD9058440F551F59F022
:1049E0005F3F71F04795880F97FB991F61F09F3FDC
:1049F00079F087950895121613061406551FF2CF05
:104A00004695F1DF08C0161617061806991FF1CF54
:104A100086957105610508940895E894BB2766277B
:104A20007727CB0197F90895052E97FB1EF4009484
:104A30000E942B2557FD07D00E947D2507FC03D03F
:104A40004EF40C942B2550954095309521953F4F71
:104A50004F4F5F4F089590958095709561957F4F6A
:104A60008F4F9F4F08950E949F25A59F900DB49F43
:104A7000900DA49F800D911D11240895B7FF0C94F3
:104A800033250E943325821B930B08952F923F926A
:104A90004F925F926F927F928F929F92AF92BF924E
:104AA000CF92DF92EF92FF920F931F93CF93DF93FA
:104AB000CDB7DEB7CA1BDB0B0FB6F894DEBF0FBE57
:104AC000CDBF09942A88398848885F846E847D84A4
:104AD0008C849B84AA84B984C884DF80EE80FD80A6
:104AE0000C811B81AA81B981CE0FD11D0FB6F8941C
:104AF000DEBF0FBECDBFED010895A1E21A2EAA1BA5
:104B0000BB1BFD010DC0AA1FBB1FEE1FFF1FA2177D
:104B1000B307E407F50720F0A21BB30BE40BF50B7A
:104B2000661F771F881F991F1A9469F76095709503
:104B3000809590959B01AC01BD01CF010895A29F86
:104B4000B001B39FC001A39F700D811D1124911D61
:104B5000B29F700D811D1124911D08955058BB27DF
:104B6000AA270E94C6250C94DA240E94CC2438F08F
:104B70000E94D32420F039F49F3F19F426F40C94BA
:104B8000C9240EF4E095E7FB0C94C324E92F0E949E
:104B9000EB2458F3BA17620773078407950720F0D0
:104BA00079F4A6F50C940D250EF4E0950B2EBA2F92
:104BB000A02D0B01B90190010C01CA01A001112423
:104BC000FF27591B99F0593F50F4503E68F11A16CF
:104BD000F040A22F232F342F4427585FF3CF469560
:104BE00037952795A795F0405395C9F77EF41F1682
:104BF000BA0B620B730B840BBAF09150A1F0FF0F4C
:104C0000BB1F661F771F881FC2F70EC0BA0F621F37
:104C1000731F841F48F4879577956795B795F79527
:104C20009E3F08F0B0CF9395880F08F09927EE0FBC
:104C30009795879508950E942F260C94DA240E9458
:104C4000D32458F00E94CC2440F029F45F3F29F08F
:104C50000C94C32451110C940E250C94C9240E9469
:104C6000EB2468F39923B1F3552391F3951B550B6E
:104C7000BB27AA2762177307840738F09F5F5F4F2F
:104C8000220F331F441FAA1FA9F335D00E2E3AF06E
:104C9000E0E832D091505040E695001CCAF72BD086
:104CA000FE2F29D0660F771F881FBB1F26173707D7
:104CB0004807AB07B0E809F0BB0B802DBF01FF2709
:104CC00093585F4F3AF09E3F510578F00C94C324FF
:104CD0000C940E255F3FE4F3983ED4F386957795C8
:104CE0006795B795F7959F5FC9F7880F911D9695C2
:104CF000879597F90895E1E0660F771F881FBB1F1E
:104D0000621773078407BA0720F0621B730B840BCA
:104D1000BA0BEE1F88F7E095089529F416F00C946D
:104D2000C3240C940D250C94C9240E94F324A8F3E9
:104D30009638A0F707F80F92E8942BE33AEA48EB8D
:104D40005FE70E946C240F920F920F924DB75EB7EF
:104D50000F920E946B27E8E6F0E00E94FD264F913B
:104D60005F91EF91FF91E595EE1FFF1F49F0FE5710
:104D7000E0684427EE0F441FFA95E1F74195550B83
:104D80000E9435270F9007FE0C94292708950E9452
:104D9000CE266894B1110C940E2508950E94F32438
:104DA00088F09F5798F0B92F9927B751B0F0E1F0EC
:104DB000660F771F881F991F1AF0BA95C9F714C09C
:104DC000B13091F00E940D25B1E008950C940D25AD
:104DD000672F782F8827B85F39F0B93FCCF38695D5
:104DE00077956795B395D9F73EF490958095709532
:104DF00061957F4F8F4F9F4F0895DF93CF931F9300
:104E00000F93FF92EF92DF927B018C01689406C0B2
:104E1000DA2EEF010E946924FE01E894A591259104
:104E2000359145915591A6F3EF010E94C625FE01EB
:104E30009701A801DA9469F7DF90EF90FF900F9146
:104E40001F91CF91DF9108950E94322408F48FEFD3
:104E500008959B01AC0160E070E080E89FE30C9452
:104E60001B260C94C3240C94E5270E94F324D8F34A
:104E70009923C9F3940F511DA3F39150504094F01E
:104E800059F0882332F0660F771F881F91505040E9
:104E9000C1F79E3F51052CF7880F911D9695879578
:104EA00097F908955F3FACF0983E9CF0BB2786953C
:104EB00077956795B79508F4B1609395C1F7BB0FE7
:104EC00058F711F460FFE8CF6F5F7F4F8F4F9F4F10
:104ED000E3CF0C940E25FA01DC01AA0FBB1F9B0146
:104EE000AC01BF5728F4222733274427507820C02D
:104EF000B75190F4AB2F0024469537952795011CA8
:104F0000A395D2F3002071F0220F331F441FB395F5
:104F1000DAF30ED00C94AE2561307105A0E88A0753
:104F2000B94630F49B01AC01662777278827907833
:104F3000309621F02083318342835383089519F4FE
:104F400016F40C94C9240C94E5270E94F324B8F3BA
:104F50009923C9F3B6F39F57550B87FF0E94F32798
:104F60000024A0E640EA900180585695979528F4D1
:104F7000805C660F771F881F20F0261737074807C9
:104F800030F4621B730B840B202931294A2BA69520
:104F900017940794202531254A2758F7660F771F65
:104FA000881F20F026173707480730F4620B730B71
:104FB000840B200D311D411DA09581F7B901842F6F
:104FC0009158880F9695879508959F3F31F091509D
:104FD00020F4879577956795B795880F911D9695DD
:104FE000879597F9089591505040660F771F881F55
:104FF000D2F7089597FB072E16F4009407D077FD9B
:1050000009D00E940E2807FC05D03EF490958195AA
:105010009F4F0895709561957F4F0895AA1BBB1B04
:1050200051E107C0AA1FBB1FA617B70710F0A61BA8
:10503000B70B881F991F5A95A9F780959095BC01C9
:10504000CD010895EE0FFF1F0590F491E02D099416
:105050000F931F93CF93DF938230910510F482E07A
:1050600090E0E091D104F091D20430E020E0B0E093
:10507000A0E0309799F42115310509F44AC0281BA6
:10508000390B24303105D8F58A819B816115710572
:1050900089F1FB0193838283FE0111C0408151811C
:1050A0000281138148175907E0F04817590799F40E
:1050B000109761F012960C93129713961C933296E8
:1050C000CF01DF91CF911F910F9108950093D104EB
:1050D0001093D204F4CF2115310551F04217530734
:1050E00038F0A901DB019A01BD01DF01F801C1CF50
:1050F000EF01F9CF9093D2048093D104CDCFFE017C
:10510000E20FF31F81939193225031093983288351
:10511000D7CF2091CF043091D004232B41F420919C
:105120001301309114013093D0042093CF042091C7
:105130001101309112012115310541F42DB73EB70F
:105140004091150150911601241B350BE091CF04BD
:10515000F091D004E217F307A0F42E1B3F0B2817A1
:10516000390778F0AC014E5F5F4F2417350748F0E0
:105170004E0F5F1F5093D0044093CF0481939193BF
:105180009FCFF0E0E0E09CCFCF93DF930097E9F072
:10519000FC01329713821282A091D104B091D20403
:1051A000ED0130E020E01097A1F420813181820FE1
:1051B000931F2091CF043091D0042817390709F0AC
:1051C00061C0F093D004E093CF04DF91CF910895B4
:1051D000EA01CE17DF07E8F54A815B819E014115A0
:1051E0005105B1F7E901FB83EA8349915991C40F55
:1051F000D51FEC17FD0761F4808191810296840F21
:10520000951FE90199838883828193819B838A8397
:10521000F0E0E0E012968D919C9113970097B9F51C
:105220002D913C911197CD010296820F931F2091F1
:10523000CF043091D0042817390739F6309751F54B
:105240001092D2041092D104B093D004A093CF0452
:10525000BCCFD383C28340815181840F951FC8176F
:10526000D90761F44E5F5F4F88819981480F591FBC
:10527000518340838A819B819383828321153105E9
:1052800009F0B0CFF093D204E093D1049ECFFD019A
:10529000DC01C0CF13821282D7CFB0E0A0E0E3E5FB
:1052A000F9E20C9448258C01009751F4CB010E943F
:1052B00028288C01C801CDB7DEB7E0E10C94642545
:1052C000FC01E60FF71F9C0122503109E217F3079A
:1052D00008F49DC0D901CD91DC911197C617D7076D
:1052E00098F0C530D10530F3CE01049786179707A3
:1052F00008F3C61BD70B2297C193D1936D937C9370
:10530000CF010E94C428D6CF5B01AC1ABD0A4C0164
:105310008C0E9D1EA091D104B091D204512C412C31
:10532000F12CE12C109731F58091CF049091D004AD
:105330008815990509F05CC04616570608F058C054
:105340008091110190911201009741F48DB79EB7A1
:105350004091150150911601841B950BE817F90730
:1053600008F055C0F093D004E093CF04F9017183A5
:105370006083A0CF8D919C91119712966C9012979B
:1053800013967C901397A815B90559F56C0142E066
:10539000C40ED11CCA14DB0420F1AC014A195B090C
:1053A000DA011296159780F06282738251834083EE
:1053B000D9016D937C93E114F10471F0D701139638
:1053C000FC93EE93129776CF22968C0F9D1FF901D6
:1053D00091838083F301EFCFF093D204E093D10463
:1053E00069CF4816590608F42C017D01D3019ACFE4
:1053F000CB010E9428287C01009749F0AE01B8013A
:105400000E94122AC8010E94C428870153CF10E0CD
:1054100000E050CF9111089581568A5108F48052CE
:1054200085580895FB01DC0102C001900D924150A6
:105430005040D8F70895FB01DC018D91019080194F
:105440000110D9F3990B0895FB01DC0101900D9235
:105450000020E1F70895FB01DC014150504030F09D
:105460008D910190801919F40020B9F7881B990BD0
:105470000895FB01DC014150504048F001900D922D
:105480000020C9F701C01D9241505040E0F7089537
:10549000FB0151915523A9F0BF01DC014D91451746
:1054A0004111E1F759F4CD010190002049F04D91EF
:1054B00040154111C9F3FB014111EFCF81E090E0AC
:1054C0000197089512E0C2E2D2E004C0FE010E94FA
:0E54D00022282196C332D107C9F7F894FFCFE6
:1054DE00890389030100C079C4000080BF01000068
:1054EE00000000D304800000000000BF07EA0DC0DA
:1054FE00076E12451000000000BF07E80DC00778C8
:10550E001294105E00BC007701781E00A02800F0F7
:10551E003C00405100127A00E4A20024F40048E856
:10552E000190D00320A107000000002A048A03B7CF
:10553E00039204E803C603DA03000000007B054073
:10554E00058307F00432051705F10400000000542E
:10555E000727078307F00420070D07FE060D0A0034
:10556E0053485434785F540053485434785F48009D
:0E557E004454412D534854342D3078003000F1
:00000001FF
