:020000040000FA
:100000000C9409020C94D5120C94AE120C9431028B
:100010000C9431020C9431020C9473140C94310240
:100020000C9431020C9431020C9431020C94310284
:100030000C9431020C9431020C9431020C94310274
:100040000C9464120C9431020C9422130C94FC1244
:100050000C9431020C9431020C9431020C94310254
:100060000C9454130C94310200407A10F35A00A0FF
:10007000724E18090010A5D4E80000E87648170071
:1000800000E40B54020000CA9A3B000000E1F505B1
:10009000000080969800000040420F000000A086FB
:1000A00001000000102700000000E803000000002D
:1000B0006400000000000A000000000001000000D1
:1000C00000002C76D888DC674F0823DFC1DFAE59EB
:1000D000E1B1B796E5E3E453C63AE651997696E87E
:1000E000E6C28426EB898C9B62ED407C6FFCEFBC02
:1000F0009C9F40F2BAA56FA5F490055A2AF75C932D
:100100006B6CF9676DC11BFCE0E40D47FEF520E662
:10011000B500D0ED902E0300943577050080841E45
:10012000080000204E0A000000C80C333333330FA0
:10013000986E12831141EF8D2114893BE65516CF3D
:10014000FEE6DB18D1844B381BF77C1D901DA4BB49
:10015000E424203284725E228100C9F124ECA1E5FE
:100160003D27005EBCE2613FDD83C29C7E20A3FD93
:100170001F41009D23BE46DB65F88C11AF32CA5784
:10018000E9742020E280A2204C6F526120696E69E0
:100190006369616C697A61646F20636F7272656311
:1001A00074616D656E74652E2E2E002020E280A293
:1001B0002053656E736F7220445320696E696369C2
:1001C000616C697A61646F20636F727265637461D8
:1001D0006D656E74652E2E2E004453003030003055
:1001E00030002020E280A22053656E736F7220538E
:1001F0004854347820696E696369616C697A616416
:100200006F20636F7272656374616D656E74652EC5
:100210002E2E0053485400303000250A002020E2E2
:1002200080A2205375656C6F20432E2043616D7052
:100230006F3A200025002020E280A2205375656CD3
:100240006F20536174757261646F3A20002020E260
:1002500080A22049443A20007E20436F6E66696781
:100260007572616369C3B36E3A002020E280A220F8
:1002700053656E736F722064652068756D65646187
:10028000642064656C207375656C6F20696E6963AA
:1002900069616C697A61646F20636F7272656374FF
:1002A000616D656E74652E2E2E002020E280A220E6
:1002B00050726F746F636F6C6F3A204454412D53CA
:1002C0004854342D307849642C4D732C48722C548A
:1002D000C2B0432C5663632C4353007E2048756D97
:1002E0006564616420792074656D706572617475F0
:1002F000726120616D6269656E7465007E20536F66
:100300006E64612064652068756D65646164206455
:10031000656C207375656C6F000A0A4D6963726FB6
:10032000657374616369C3B36E20616772C3AD6343
:100330006F6C61205354482076372E332E30313184
:10034000314C002C002C002C002C002C00E286925A
:1003500020002C002C002C0020202020E29C972044
:100360005469656D706F2064652065737065726196
:100370002061676F7461646F002020E28692204DD7
:10038000656E73616A652069676E6F7261646F3A4A
:1003900020002020E29C9320436F6E6669726D619D
:1003A0006369C3B36E2072656369626964610053F7
:1003B00048540000000000240027002A000000002C
:1003C00000250028002B00000000080002010000AA
:1003D00003040700000000000000000000000023EC
:1003E0000026002900040404040404040402020298
:1003F0000202020303030303030102040810204066
:100400008001020408102001020408102000E914F1
:10041000221F11241FBECFEFD8E0DEBFCDBF11E0F9
:10042000A0E0B1E0E6E3F1E502C005900D92A63A46
:10043000B107D9F724E0A6EAB1E001C01D92A73CBC
:10044000B207E1F712E0C8E0D2E004C02197FE0154
:100450000E944E26C730D107C9F70E94B3150C94ED
:100460008E280C940000FC019081909528E030E0EB
:1004700081E397FF03C0990F982701C0990F21507E
:100480003109B9F78181892728E030E091E387FFBE
:1004900003C0880F892701C0880F21503109B9F79F
:1004A0000895833081F028F4813099F08230A9F0EA
:1004B00008958730A9F08830C9F08430B1F4809174
:1004C00080008F7D03C0809180008F7780938000B3
:1004D000089584B58F7784BD089584B58F7DFBCF53
:1004E0008091B0008F778093B00008958091B00024
:1004F0008F7DF9CFCF93DF93EAECF3E08491ECEFBB
:10050000F3E0D491E8EEF3E0C491CC23A1F08111A3
:100510000E945102EC2FF0E0EE0FFF1FE552FC4F5E
:10052000A591B491EC91ED2381E090E009F480E095
:10053000DF91CF91089580E090E0FACF1F93CF93A1
:10054000DF93282F30E0F901E953FC4F8491F90142
:10055000E750FC4FD491F901EB51FC4FC491CC23EF
:10056000A9F0162F81110E945102EC2FF0E0EE0F3E
:10057000FF1FE354FC4FA591B4918FB7F894EC9111
:10058000111108C0D095DE23DC938FBFDF91CF918E
:100590001F910895DE2BF8CFCF93DF9390E0FC01FD
:1005A000E750FC4F24918B519C4FFC018491882390
:1005B000C9F090E0880F991FFC01ED54FC4FA59104
:1005C000B491FC01E354FC4FC591D49161110DC06D
:1005D0009FB7F8948C91209582238C93888128234F
:1005E00028839FBFDF91CF910895623051F49FB768
:1005F000F8943C91822F809583238C93E8812E2B55
:10060000EFCF8FB7F894EC912E2B2C938FBFEACFBE
:100610003FB7F89480913A0390913B03A0913C033B
:10062000B0913D0326B5A89B05C02F3F19F0019658
:10063000A11DB11D3FBFBA2FA92F982F8827BC013C
:10064000CD01620F711D811D911D43E0660F771F63
:10065000881F991F4A95D1F708958F929F92AF9264
:10066000BF92CF92DF92EF92FF926B017C010E94CA
:1006700008034B015C01C114D104E104F104B9F099
:100680000E940803681979098A099B09683E73402A
:100690008105910580F321E0C21AD108E108F10833
:1006A00088EE880E83E0981EA11CB11CE4CFFF9059
:1006B000EF90DF90CF90BF90AF909F908F90089574
:1006C0002FB7F89460913603709137038091380307
:1006D000909139032FBF08950895089508950895BE
:1006E000AF92BF92CF92DF92EF92FF920F931F9340
:1006F000CF93DF936C017B018B01040F151FEB017E
:100700005E01AE18BF08C017D10759F06991D60134
:10071000ED91FC910190F081E02DC6010995892BA6
:1007200079F7C501DF91CF911F910F91FF90EF9065
:10073000DF90CF90BF90AF900895FC01538D448D12
:10074000252F30E0842F90E0821B930B541710F07C
:10075000CF96089501970895FC01918D828D981789
:1007600061F0A28DAE0FBF2FB11D5D968C91928D61
:100770009F5F9F73928F90E008958FEF9FEF089592
:10078000FC01918D828D981731F0828DE80FF11D5B
:10079000858D90E008958FEF9FEF0895FC01918D76
:1007A000228D892F90E0805C9F4F821B91098F736F
:1007B0009927089580EB93E00E94CE0321E0892BD6
:1007C00009F420E0822F089580E090E0892B29F041
:1007D0000E94DA0381110C9400000895FC01A48D9D
:1007E000A80FB92FB11DA35ABF4F2C91848D90E053
:1007F00001968F739927848FA689B7892C93A08936
:10080000B1898C91837080648C93938D848D9813BF
:1008100006C00288F389E02D80818F7D8083089552
:10082000EF92FF920F931F93CF93DF93EC0181E040
:10083000888F9B8D8C8D98131AC0E889F9898081E7
:1008400085FF15C09FB7F894EE89FF896083E8891A
:10085000F98980818370806480839FBF81E090E00C
:10086000DF91CF911F910F91FF90EF900895F62E99
:100870000B8D10E00F5F1F4F0F731127E02E8C8D33
:100880008E110CC00FB607FCFACFE889F989808178
:1008900085FFF5CFCE010E94EE03F1CFEB8DEC0F7B
:1008A000FD2FF11DE35AFF4FF0829FB7F8940B8F95
:1008B000EA89FB8980818062CFCF0F931F93CF930A
:1008C000DF938C01D0E0C0E0F801EC0FFD1F6491D4
:1008D000662341F080EB93E00E941004892B11F015
:1008E0002196F2CFCE01DF91CF911F910F91089504
:1008F000CF93DF93EC01888D8823B9F0AA89BB8957
:10090000E889F9898C9185FD03C0808186FD0DC041
:100910000FB607FCF7CF8C9185FFF2CF808185FF62
:10092000EDCFCE010E94EE03E9CFDF91CF91089584
:100930000F931F93CF93DF93EC01062F142F60E0EA
:1009400088890E949E029C858D859CBD8DBD0EBDB3
:1009500000000DB407FEFDCF8EB51EBD00000DB426
:1009600007FEFDCF1EB561E088890E949E02812F9F
:10097000DF91CF911F910F91089541E861E88EE4D6
:1009800094E00C94980440E00C94980410926B044A
:1009900010926A046DE18EE494E00E94C304482F33
:1009A0004E7F6DE98EE494E00C94980408950F93C3
:1009B0001F93CF93DF93EC01E881F9810084F185E7
:1009C000E02D0995892BB1F06DE0CE010E94C304A2
:1009D000082F60E0CE010E94C304182F402F6DE85D
:1009E000CE010E949804812F90E0DF91CF911F915A
:1009F0000F9108958FEF9FEFF8CFCF93DF93EC0126
:100A0000E881F9810084F185E02D0995892B69F051
:100A10008A8D9B8D01969B8F8A8F60E0CE010E940C
:100A2000C30490E0DF91CF9108958FEF9FEFFACF4D
:100A3000CF93DF93EC0163E10E94C30490E02A8D21
:100A40003B8D821B930BDF91CF910895AF92BF92A4
:100A5000CF92DF92FF920F931F93CF93DF936C019E
:100A60005B01EA0162E20E94C304F82E90E09C015F
:100A70002C0F3D1F2F3F310529F020F0CFEFD0E0A4
:100A8000C81BD90B8501AC0EBD1E0A151B0541F014
:100A9000F80141918F0160E8C6010E949804F5CFEA
:100AA0004C2F4F0D62EAC6010E949804CE01DF91DF
:100AB000CF911F910F91FF90DF90CF90BF90AF909B
:100AC0000895CF93DF931F92CDB7DEB76983DC0122
:100AD000ED91FC910280F381E02D41E050E0BE01F8
:100AE0006F5F7F4F09950F90DF91CF91089520910F
:100AF000C801260F3327331F21323105ECF4209132
:100B00008603FC0190E080E0243069F082E00895E3
:100B1000A091C8012191AC0148555E4FA40FB52F9B
:100B2000B11D2C930196861798F38091C801680F28
:100B30006093C80180E0089581E0089510928603D3
:100B400081E0809385031092600361E082E10E945E
:100B50009E0261E083E10E949E02E9EBF0E0808169
:100B60008E7F808380818D7F808380E28093B80038
:100B700085E48093BC000895CF93DF9391E0909338
:100B8000A7018823B9F0C091B800D091BA00809134
:100B9000BC008A7B8093BC0060E082E10E949E02E0
:100BA00060E083E10E949E020E949E05D093BA00FD
:100BB000C093B800DF91CF9108958F929F92AF922A
:100BC000BF92CF92DF92EF92FF920F931F93CF933A
:100BD000DF93D091AF03D13208F0D7C0182FC09166
:100BE000AE030E9408036B017C0180918603811192
:100BF0006BC082E080938603109385038FEF809310
:100C0000840310928303D0938203AEE8B3E0E2E65C
:100C1000F3E080E0D81391C01092610380916103EA
:100C2000CC0FC82BC093610380916003813009F021
:100C300088C0109260030E9408036B017C018091C0
:100C400061038093BB008091880390918903A091F8
:100C50008A03B0918B03892B8A2B8B2BA1F00E94E6
:100C60000803009188031091890320918A03309131
:100C70008B036C197D098E099F0906171707280732
:100C8000390708F442C08091BC0083FDD8CF85ECC1
:100C90008093BC000E9408036B017C018091860355
:100CA000823009F450C0809184038F3F09F46FC0F3
:100CB00080918403803209F46CC080918403803376
:100CC00009F469C084E026C080918803909189036B
:100CD000A0918A03B0918B03892B8A2B8B2B09F46B
:100CE00084CF0E9408038090880390908903A0908D
:100CF0008A03B0908B036C197D098E099F098616B3
:100D00009706A806B90608F070CF809187030E9465
:100D1000BC0585E010928D031092AF0310928C03F6
:100D2000DF91CF911F910F91FF90EF90DF90CF90C7
:100D3000BF90AF909F908F9008959D9191938F5FFA
:100D400069CF85EEA5CF8091880390918903A0910A
:100D50008A03B0918B03892B8A2B8B2B09F49ECFAE
:100D60000E940803009188031091890320918A034F
:100D700030918B036C197D098E099F09061717079F
:100D80002807390708F08ACFC0CF81E0C3CF80E0C1
:100D9000C1CF82E0BFCF83E0BDCFDC0111968D9142
:100DA0009C91DC01ED91FC910280F381E02D41E00A
:100DB00050E00995019729F481E00E94DD0591E05A
:100DC000811190E0892F0895E0913F0380913E03C7
:100DD000E81730F4F0E0E05CFC4F808190E008958B
:100DE0008FEF9FEF089590913F0380913E032FEF87
:100DF0003FEF981748F4E92FF0E0E05CFC4F2081CA
:100E000030E09F5F90933F03C901089580913E03B6
:100E100090913F03891B990B0895CF92DF92EF9237
:100E2000FF920F931F93CF93DF937C01CB018A0135
:100E300020918C03222389F0EB016B01C40ED51E97
:100E4000CC15DD0569F06991D701ED91FC91019018
:100E5000F081E02DC7010995F3CF642F0E9477053B
:100E6000C801DF91CF911F910F91FF90EF90DF901C
:100E7000CF900895CF93DF931F92CDB7DEB76983EC
:100E800020918C032223F9F02091AF03203258F0F7
:100E900021E030E0FC013383228390E080E00F907A
:100EA000DF91CF91089580918D03E82FF0E0E25714
:100EB000FC4F998190838F5F80938D038093AF0364
:100EC00081E090E0ECCF61E0CE0101960E947705D1
:100ED000F7CF90E080E00895CF93DF93EC018B8112
:100EE0008823A1F0888191E090938C038093AE03D6
:100EF00010928D031092AF0381E00E94DD0591E016
:100F0000811190E0892FDF91CF91089510923F03D6
:100F100010923E0310928D031092AF030E949E0523
:100F20008CE693E09093ED018093EC018DE693E0E5
:100F30009093EF018093EE0181E08B83CE010E94BC
:100F40006C07982F8111CECFDDCF08950895DC0175
:100F500080E0615090F09D919827E92FEF70F0E0CC
:100F6000EE59FE4F2491E92FE295EF70F0E0EE5834
:100F7000FE4FE491822F8E27ECCF0895DC012C9157
:100F80001196ED91FC91F8948181822B818392815D
:100F9000322F30959323928382E090E00197F1F70E
:100FA00081818323818380E190E00197F1F7908133
:100FB0007894E6E6F0E03197F1F7922381E009F4C6
:100FC00080E00895FC0190810180F281E02D292FBD
:100FD000209560FF14C0F8948281822382838181EE
:100FE000892B8183A0E1B0E01197F1F78281982BE2
:100FF000928378948AE690E00197F1F70895F89447
:101000008281822382838181892B8183AEE7B0E054
:101010001197F1F78281982B9283789486E090E083
:10102000EBCFDF92EF92FF920F931F93CF93DF935B
:10103000EC01D62EE42E08E010E0FF24F39461E0EA
:101040008D2D8F2109F460E0CE010E94E207FF0C94
:1010500001501109A1F7E11010C0F894E981FA815B
:1010600091818881809589238183E981FA819281A8
:1010700088818095892382837894DF91CF911F9115
:101080000F91FF90EF90DF900895EF92FF920F93F2
:101090001F93CF93DF938C017B0140E065E50E94B5
:1010A0001108E70188E0E80EF11C699140E0C801F1
:1010B0000E941108CE15DF05C1F7DF91CF911F9176
:1010C0000F91FF90EF9008954115510529F4EAE73B
:1010D000F0E080818F7780836A307105B9F0CB01B1
:1010E000880F991F880F991F807267706860682B3E
:1010F00088E10FB6F894A895809360000FBE6093C6
:101100006000E0E6F0E0808180648083232BD9F4E6
:1011100083B7817F846083BFF89483B7816083BF86
:1011200085B7806685BF8F7D85BF7894889583B7A6
:101130008E7F83BF7894452B29F4EAE7F0E0808125
:1011400080688083089583B7817F846083BFF8942B
:1011500083B7816083BF7894889583B78E7F83BF80
:101160007894E9CF8EE480937C0062E070E080E0C8
:1011700090E00E942D0380917A00806480937A0031
:1011800080917A0086FDFCCF8091780020917900D3
:1011900030E0322F2227032E000C440B550B282B56
:1011A00060E070E381E190E00E941724CA01B90178
:1011B0000E94FA2220E030E04AE754E40E941E2513
:1011C0000895DC0114966D917C91159730E020E034
:1011D00090E080E026173707A1F0ED91FC91119780
:1011E000309761F41092A601E6EAF1E04081840FA5
:1011F000911D47FD9A952F5F3F4FECCFE20FF31FF4
:10120000F5CF08952F923F924F925F926F927F9207
:101210008F929F92AF92BF92CF92DF92EF92FF9206
:101220000F931F93CF93DF936C011B01F12CE12CE3
:1012300086E0A82EB12CD60114968D919C91850143
:101240000E191F098017910708F48C01F601D0814F
:101250000E9408032B013C0180918603811172C01A
:10126000C02F013208F0C0E2F1E0F093860321E0E4
:10127000C501801B910BE816F90608F420E02093C5
:1012800085038FEF80938403109283038C0F8093E8
:101290008203A1E0A093610380916103DD0FD82B4D
:1012A000D093610380916003813009F090C0109267
:1012B00060030E9408032B013C018091610380932D
:1012C000BB008091880390918903A0918A03B0911B
:1012D0008B03892B8A2B8B2BA1F00E940803209172
:1012E00088033091890340918A0350918B036419DC
:1012F000750986099709261737074807590708F41B
:1013000042C08091BC0083FDD8CFB5ECB093BC0047
:101310000E9408032B013C0180918603813009F46F
:101320005AC0809183038C1710F4C0918303A2E606
:10133000B3E0E0E4F3E080E08C1751F19D919193EC
:101340008F5FFACF8091880390918903A0918A03DF
:10135000B0918B03892B8A2B8B2B09F47DCF0E94B4
:101360000803209188033091890340918A035091AA
:101370008B036419750986099709261737074807EB
:10138000590708F069CF809187030E94BC05C0E02F
:1013900010923F03C0933E03C017110609F058C0D6
:1013A00041018E0C9F1CE401CE0188199909801718
:1013B000910798F5D60111968D919C91DC01ED91E4
:1013C000FC910284F385E02D09958993EDCFE5EE3C
:1013D000E093BC009DCF8091880390918903A091F8
:1013E0008A03B0918B03892B8A2B8B2B09F494CF22
:1013F0000E940803209188033091890340918A0359
:1014000050918B03641975098609970926173707C8
:101410004807590708F080CFB6CFE00EF11EB6E0BE
:10142000EB16F10408F407CF81E0DF91CF911F9113
:101430000F91FF90EF90DF90CF90BF90AF909F9073
:101440008F907F906F905F904F903F902F90089576
:1014500080E0EBCFFC0190810180F281E02DF894D7
:101460008181292F20958223818378943DE7315013
:1014700011F180818923D9F3F894828182238283B8
:101480008181892B81837894ACEBB3E01197F1F7DC
:10149000F894818182238183A8E8B0E01197F1F765
:1014A0008081982381E009F080E07894E0E3F3E024
:1014B0003197F1F7089580E00895BF92CF92DF92BF
:1014C000EF92FF920F931F93CF93DF93EC01B62E11
:1014D000C72E8D85811105C0CE010E942A0A811177
:1014E0000EC01B861D861C8680E0DF91CF911F9168
:1014F0000F91FF90EF90DF90CF90BF90089540E064
:1015000060EFCE010E94110801E0E12CD12C11E026
:10151000CE010E94BE07F82ECE010E94BE0791E0C8
:10152000F91218C0813099F51134D8F2DB86D11048
:1015300002C081E08D878B81882399F22396EB2D61
:10154000FC2DCF01089629912193E817F907D9F7C7
:1015500081E0CBCFEE2DF0E0F8120FC08B8518178D
:10156000A0F4DE01AE0FBF1F13968C91802379F497
:10157000F12C193008F41C87D12EEC0FFD1F83814C
:10158000902F9095892383830AC08113F1CFFE01A8
:10159000EE0DF11D8381802B8383FF24F3946F2D47
:1015A000CE010E94E2071F5F000F11F4E39401E0F7
:1015B00087E08E1508F0ACCFB7CFCF93DF93EC0167
:1015C000E0919B04F0919C04138615861486128684
:1015D0001186108617821682158214821382BC012E
:1015E00080919B0490919C040E945D0A982F88230F
:1015F00041F067E0CE010E94A70791E02F812813F8
:1016000090E0892FDF91CF9108956F927F928F9212
:101610009F92AF92BF92CF92DF92EF92FF920F9381
:101620001F93CF93DF938C01EB0180919B049091EA
:101630009C040E942A0A882309F43FC0B8018091C3
:101640009B0490919C040E94450840E06EEB8091C1
:101650009B0490919C040E9411087E016E0189E018
:10166000C80ED11C8E01A0909B04B0909C0488E011
:10167000882E912C712C66246394C5010E94BE07AC
:1016800081117628660CE1E08E1A9108B1F7F80115
:1016900071928F01CE16DF0631F780919B049091F5
:1016A0009C040E942A0A813041F4F70181917F0154
:1016B000811105C0E017F107C1F790E008C068E0AC
:1016C000CE010E94A70791E028852813F6CF892F25
:1016D000DF91CF911F910F91FF90EF90DF90CF900E
:1016E000BF90AF909F908F907F906F9008952F92B2
:1016F0003F924F925F926F927F928F929F92AF92A2
:10170000BF92CF92DF92EF92FF920F931F93CF93EE
:10171000DF93CDB7DEB72A970FB6F894DEBF0FBEC2
:10172000CDBF8C012DB73EB73A8729876C0130E5D4
:10173000C30ED11C7C0160E070E0CB01F701219168
:101740003191419151917F010E94B224CE14DF0466
:10175000A9F720E030E040EA51E40E941E252B0169
:101760003C011A830983812C912C5401E981FA816F
:101770006191719181919191FA83E983A301920121
:101780000E94B1249B01AC010E9459239B01AC0132
:10179000C501B4010E94B2244B015C0129813A8148
:1017A000E216F30619F720E030E040EA51E40E9427
:1017B0001E250E94D1252AE939E949E95EE30E9404
:1017C000F32287FF7CC0F80180809180A280B380E3
:1017D0001C830B8318861F82EB81FC81C190D19002
:1017E000E190F190FC83EB831E830D83312C212C3F
:1017F000ED81FE816191719181919191FE83ED83E3
:10180000A70196010E94B1242B013C0120E030E0A9
:10181000A9010E94C625181674F42DEC3CEC4CEC82
:101820005DE3C301B2010E94F32287FF0EC0FFEF08
:101830002F1A3F0A0AC02DEC3CEC4CEC5DEBC301C7
:10184000B2010E94C625181694F329813A818D8130
:101850009E812817390761F6EF81F885E215F305B7
:1018600024F438862F824601570129813A818B81E1
:101870009C812817390709F0AFCFB401C501E9856C
:10188000FA850FB6F894FEBF0FBEEDBF2A960FB6CD
:10189000F894DEBF0FBECDBFDF91CF911F910F91A6
:1018A000FF90EF90DF90CF90BF90AF909F908F9080
:1018B0007F906F905F904F903F902F900895EDB77D
:1018C000FEB7FA83E9832DB73EB7205531090FB62D
:1018D000F8943EBF0FBE2DBF8DB79EB701961C0179
:1018E00080E5F801D10101900D928A95E1F783E13D
:1018F000E82EF12C8101D12CC12CCE14DF0414F57B
:10190000F80181909190A190B1908F01FFEFCF1AD3
:10191000DF0AF8014080518062807380A301920148
:10192000C501B4010E94C62518163CF7F80134978A
:101930004082518262827382F80180829182A28207
:10194000B382DBCFF1E0EF1AF108A1F6F10120A597
:1019500031A542A553A564A175A186A197A10E94B6
:10196000B22420E030E040E05FE30E9459234B01C5
:101970005C0129813A810FB6F8943EBF0FBE2DBF9E
:101980007CCF8F929F92AF92BF920F931F93CF9372
:10199000DF93CDB7DEB7A1970FB6F894DEBF0FBEC9
:1019A000CDBF19A2423008F44AE08E010F5D1F4FEF
:1019B000842E912CB12CA12CA50194010E9480248D
:1019C000E62FB901CA01EA3044F5E05DD801EE9393
:1019D0008D01232B242B252B79F790E080E01097A5
:1019E00069F0FD0101900020E9F73197AF014A1B32
:1019F0005B0BBD0180EB93E00E947003A1960FB6D4
:101A0000F894DEBF0FBECDBFDF91CF911F910F9134
:101A1000BF90AF909F908F900895E95CD7CFCF9201
:101A2000DF92EF92FF92CF93DF936C01990FEE0854
:101A3000FF08F7FE19C06DE280EB93E00E941004EE
:101A4000EC0166277727CB016C197D098E099F0968
:101A50004AE00E94C10C8C0F9D1FDF91CF91FF9037
:101A6000EF90DF90CF9008954AE0C701B601DF9173
:101A7000CF91FF90EF90DF90CF900C94C10C42E09B
:101A800050E065E871E080EB93E00C947003CF9335
:101A9000DF930E945D04EC010E943F0D8C0F9D1F9F
:101AA000DF91CF910895CF93DF93FC01448155815D
:101AB0006081718180EB93E00E947003EC010E94D1
:101AC0003F0D8C0F9D1FDF91CF910895AF92BF9274
:101AD000CF92DF92EF92FF920F931F93CF93DF93FA
:101AE0006B01EA01FB01448155814115510561F10A
:101AF000FC01248135812115310531F12417350789
:101B000018F1C217D30710F0E9012197FC010081F9
:101B10001181C801AA24AA94BB24BA947801EC0EBE
:101B2000FD1EE816F906A0F0F601608171810E94A1
:101B30007428009769F09C01201B310BC217D30752
:101B400008F059010196EDCFAA24AA94BB24BA94B7
:101B5000C501DF91CF911F910F91FF90EF90DF9022
:101B6000CF90BF90AF900895CF93DF93EC01888121
:101B70009981009711F00E94F026198218821D8227
:101B80001C821B821A82DF91CF910895FC01808113
:101B90009181009711F00C94F02608950C94F02692
:101BA0000C94F026CF93DF93EC01A881B981EB016F
:101BB000E881F9811097F1F03097B1F4EC018C8154
:101BC0009D81892BC9F08C9190E00BC0DB011496AC
:101BD0008D919C91892B81F0808190E091958195E8
:101BE0009109DF91CF910895BF01CD01DF91CF9190
:101BF0000C944728309751F790E080E0F2CF0F9394
:101C00001F93CF93DF938C01EB01FC0180819181C5
:101C10000097E1F06881798161157105A9F0428131
:101C200053812C813D814217530770F00E94502848
:101C30008C819D81F801958384831D821C82DF91B4
:101C4000CF911F910F9108950E94F026888199816C
:101C5000F801918380838A819B81938382838C8125
:101C60009D8195838483198218821B821A82E5CF15
:101C70000F931F93CF93DF93EC0188819981009795
:101C800059F02A813B812617370730F081E0DF9138
:101C9000CF911F910F9108958B016F5F7F4F0E942D
:101CA0007927009759F0998388831B830A832C81B5
:101CB0003D81232B59F7FC011082E8CF80E0E7CF6C
:101CC000EF92FF920F931F93CF93DF93EC017B0171
:101CD000CB010E943C200097A9F00C811D81080FC8
:101CE000191FB801CE010E94380E882361F02881A7
:101CF00039818C819D81B701820F931F0E9435200D
:101D00001D830C8381E0DF91CF911F910F91FF9094
:101D1000EF900895EF92FF920F931F93CF93DF936D
:101D20006115710541F480E0DF91CF911F910F9112
:101D3000FF90EF90089541155105B1F07B01EC0142
:101D40000C811D81040F151FB8010E94380E8823D5
:101D500051F3288139818C819D81B701820F931FB6
:101D60000E9450281D830C8381E0DECFFB0144815B
:101D70005581608171810C948A0EEF92FF920F93CE
:101D80001F93CF93DF93EC018B01CB010E943C208A
:101D90007C01BC01CE010E94380E81110BC0CE0126
:101DA0000E94B40DCE01DF91CF911F910F91FF9052
:101DB000EF900895FD82EC82B801888199810E949C
:101DC0003520F0CFFC01118210821382128215821D
:101DD00014820C94BD0EEF92FF920F931F93CF933A
:101DE000DF93EC017B018A01BA010E94380E811158
:101DF0000BC0CE010E94B40DCE01DF91CF911F9197
:101E00000F91FF90EF9008951D830C83B701888197
:101E100099810E945028F0CFFB0101900020E9F742
:101E20003197AF01461B570B0C94EB0EFB01DC0105
:101E300011961C921E9213961C921E921297159642
:101E40001C921E9214978617970749F06081718142
:101E50006115710521F0448155810C94EB0E0895B4
:101E6000FC01118210821382128215821482FB01FE
:101E700001900020E9F73197AF01461B570B0C94F6
:101E8000EB0EAF92BF92CF92DF92EF92FF920F9341
:101E90001F93CF93DF936C015B017A0189012417B3
:101EA000350720F48F2D7901042F182F67E871E092
:101EB000C6010E94300FD5011496CD91DC91EC162D
:101EC000FD06E0F40C171D0708F4E801D501ED91BB
:101ED000FC911197EC0FFD1F108110826D917C9188
:101EE0006E0D7F1DC60161157105A1F00E940C0FDA
:101EF000F50180819181C80FD91F1883C601DF9138
:101F0000CF911F910F91FF90EF90DF90CF90BF90F6
:101F1000AF9008950E94B40DEBCFEF92FF920F9314
:101F20001F93CF93DF93CDB7DEB7E3970FB6F89447
:101F3000DEBF0FBECDBF7C01CB01BA01F70111821C
:101F40001082138212821582148242E0420F8E01A7
:101F50000F5F1F4F0E944C1F009789F0BC01C70103
:101F60000E940C0FE3960FB6F894DEBF0FBECDBFF4
:101F7000DF91CF911F910F91FF90EF900895C701CE
:101F80000E94B40DEFCF0F931F93CF93DF93CDB784
:101F9000DEB729970FB6F894DEBF0FBECDBF8C0118
:101FA000862FF80111821082138212821582148208
:101FB00050E0BE016F5F7F4F90E00E948720BE011E
:101FC0006F5F7F4FC8010E940C0F29960FB6F894DF
:101FD000DEBF0FBECDBFDF91CF911F910F9108954E
:101FE00085ED8093BC008091880390918903A09136
:101FF0008A03B0918B030796A11DB11D23E0B6950E
:10200000A795979587952A95D1F72091BC0024FD37
:1020100003C010928603089540918803509189036C
:1020200060918A0370918B03452B462B472B69F3F4
:102030000097A105B10541F025E12A95F1F70000CF
:102040000197A109B109E1CF809187030C94BC05E8
:102050000F931F93CF93DF938C01EB0188E2FB0179
:1020600011928A95E9F74BE050E068E871E0CE0103
:102070000E9465281B8681E090E0A0E0B0E08C879C
:102080009D87AE87BF87F80182819381092E000C5E
:10209000AA0BBB0B888B998BAA8BBB8B8DE090E036
:1020A000A0E0B0E08C8B9D8BAE8BBF8B1CA21DA2E1
:1020B0001EA21FA280E090E0A0E2B2EC8C8F9D8F68
:1020C000AE8FBF8F80E090E0AAEAB2E4888F998F4C
:1020D000AA8FBB8F8AE999E9A9E9BEE388A399A3EE
:1020E000AAA3BBA3DF91CF911F910F9108950F93E6
:1020F0001F93CF93DF938C01EB0188E2FB011192D8
:102100008A95E9F74BE050E060E971E0CE010E946A
:1021100065281B8681E090E0A0E0B0E08C879D8779
:10212000AE87BF87F80182819381092E000CAA0B2C
:10213000BB0B888B998BAA8BBB8B8CE090E0A0E0CB
:10214000B0E08C8B9D8BAE8BBF8B1CA21DA21EA200
:102150001FA21C8E1D8E1E8E1F8E80E090E0A8ECAC
:10216000B2E4888F998FAA8FBB8F80E090E0A0E0C7
:10217000B0E488A399A3AAA3BBA3DF91CF911F9139
:102180000F9108952F923F924F925F926F927F929C
:102190008F929F92AF92BF92CF92DF92EF92FF9277
:1021A0000F931F93CF93DF9300D000D000D01F92E6
:1021B000CDB7DEB77C016B011A010E9460032B01D1
:1021C0003C018DEF8F83D70154968D919C9155974B
:1021D000009701F552962D913C912130310561F423
:1021E00026EF2F8305E010E08430910571F484E23E
:1021F0008F830EE610E028C00AE010E0223031059F
:1022000021F420EE2F8302E010E08530910589F45F
:102210008EE117C08130910529F429E32F830CE466
:1022200014E0F3CF8230910541F422E32F830EE6D0
:1022300010E0069749F485E1DBCF8330910541F545
:102240008FE28F830CE414E0F70184859585DC012F
:1022500014962D913C91232BF1F410E0812F2796B9
:102260000FB6F894DEBF0FBECDBFDF91CF911F91A7
:102270000F91FF90EF90DF90CF90BF90AF909F9025
:102280008F907F906F905F904F903F902F90089528
:102290000AE010E0A9CFFC01208131E030938C03EB
:1022A0002093AE0310928D031092AF03BE01695FBD
:1022B0007F4F0E94CD06882381F2B80190E080E034
:1022C0000E942D03BE016F5F7F4FD7011C968D9139
:1022D0009C910E940209182F882309F4BECF0B811C
:1022E000CE0101960E9433020813B7CF0E81CE01B2
:1022F00004960E9433020813B0CF6C81862F90E0C1
:10230000982F88276D81680F792F711D90E080E0EC
:102310000E94F8224B015C016981862F90E0982F82
:1023200088276A81680F792F711D90E080E00E94F4
:10233000F82220E030E04FE253E40E94592320E0ED
:102340003FEF4FE757E40E941E2520E030E044E3D2
:1023500052E40E94B124F7016083718382839383E6
:1023600020E030E04AEF52E4C501B4010E94592355
:1023700020E03FEF4FE757E40E941E2520E030E0C9
:1023800040EC50E40E94B1244B015C0120E030E0BD
:10239000A9010E94C62518160CF07FC020E030E08D
:1023A00048EC52E4C501B4010E94F32287FD06C047
:1023B000812C912C88ECA82E82E4B82ED70114969B
:1023C0008D929D92AD92BC9217972114310481F1A8
:1023D000F101349680E2DF011D928A95E9F784E2EB
:1023E00090E0A0E0B0E0F10180839183A283B38309
:1023F000D7011A968D919C91B0E0A0E084839583DB
:10240000A683B7838DE090E0A0E0B0E0808791875D
:10241000A287B387408A518A628A738AF7018081D2
:102420009181A281B381F101848B958BA68BB78BAF
:10243000C114D10409F412CFF601349680E2DF0111
:102440001D928A95E9F784E290E0A0E0B0E0F60101
:1024500080839183A283B383D70118968D919C9139
:10246000B0E0A0E084839583A683B7838CE090E0FE
:10247000A0E0B0E080879187A287B387408A518A25
:10248000628A738AF70184819581A681B781F601FA
:10249000848B958BA68BB78BE1CE812C912C54012C
:1024A0008DCFAB0170E060E0FC01848195810E94DA
:1024B000C21081E0089550E040E0FC0184819581E4
:1024C0000E94C21081E008951F920F920FB60F92E2
:1024D00011242F933F938F939F93AF93BF9380913A
:1024E000360390913703A0913803B09139033091AE
:1024F000350326E0230F2D3758F50296A11DB11D97
:10250000209335038093360390933703A0933803C9
:10251000B093390380913A0390913B03A0913C031F
:10252000B0913D030196A11DB11D80933A03909394
:102530003B03A0933C03B0933D03BF91AF919F91A8
:102540008F913F912F910F900FBE0F901F90189574
:1025500029E8230F0396A11DB11DD2CF1F920F9220
:102560000FB60F9211242F933F934F935F936F9366
:102570007F938F939F93AF93BF93EF93FF93E091DC
:102580000201F09103010995FF91EF91BF91AF9185
:102590009F918F917F916F915F914F913F912F917B
:1025A0000F900FBE0F901F9018951F920F920FB6AD
:1025B0000F9211242F933F934F935F936F937F93C9
:1025C0008F939F93AF93BF93EF93FF93E09100019D
:1025D000F09101010995FF91EF91BF91AF919F910A
:1025E0008F917F916F915F914F913F912F910F90BC
:1025F0000FBE0F901F9018951F920F920FB60F925B
:1026000011242F933F934F935F936F937F938F93F7
:102610009F93AF93BF93EF93FF9380EB93E00E9460
:10262000EE03FF91EF91BF91AF919F918F917F91B9
:102630006F915F914F913F912F910F900FBE0F902F
:102640001F9018951F920F920FB60F9211242F937F
:102650008F939F93EF93FF93E091C003F091C10399
:102660008081E091C603F091C70382FD1BC0908179
:102670008091C9038F5F8F732091CA03821741F045
:10268000E091C903F0E0E055FC4F958F8093C903BA
:10269000FF91EF919F918F912F910F900FBE0F900F
:1026A0001F9018958081F4CF1F920F920FB60F9252
:1026B00011242F933F934F935F936F937F938F9347
:1026C0009F93AF93BF93EF93FF938091B900887F5F
:1026D000803609F44AC0F0F5883209F4A7C018F52D
:1026E000803109F49BC0B8F4882309F4F9C088301C
:1026F00009F494C0FF91EF91BF91AF919F918F9199
:102700007F916F915F914F913F912F910F900FBEED
:102710000F901F901895883109F488C0803251F7C6
:102720008093840314C0803409F49DC040F4803346
:10273000B9F38833F9F68093840385ECB0C0803513
:1027400009F485C0883509F496C0883499F60E944A
:10275000F00FD0CF883909F48CC038F5883729F0CC
:1027600050F4883611F0803729F683E08093860391
:102770001092EA0157C0883809F47BC0803919F0FB
:10278000803809F0B7CF8091EA01803208F071C03B
:10279000E091EA0181E08E0F8093EA018091BB0015
:1027A000F0E0E653FE4F80833DC0803B39F0E0F41B
:1027B000803A09F479C0883A09F09CCF84E080938C
:1027C00086031092C9011092C801E091EC01F091CA
:1027D000ED0109958091C80181110FC081E08093BE
:1027E000C8011092A80109C0803C09F4A6CF883C1A
:1027F00009F4A3CF883B09F07DCFE091C90181E0C6
:102800008E0F8093C901F0E0E855FE4F80818093E0
:10281000BB009091C9018091C80129C080916103DA
:102820008093BB0085EC8093BC0064CF90918303C0
:1028300080918203981758F5E091830381E08E0F11
:1028400080938303F0E0EE59FC4F8081E9CFE09163
:10285000830381E08E0F809383038091BB00F0E0BF
:10286000EE59FC4F808390918303809182039817E7
:10287000C8F285E8D8CFE091830381E08E0F809382
:1028800083038091BB00F0E0EE59FC4F8083809180
:10289000850381115CCF81E08093600384EA80939B
:1028A000BC001092860326CF85EC8093BC0010926A
:1028B00086038091EA01803230F4E091EA01F0E091
:1028C000E653FE4F10826091EA0170E0E091EE0164
:1028D000F091EF018AEC91E009951092EA010ACF9C
:1028E0001092840334CF1F920F920FB60F921124CF
:1028F0008F930FB6F894A8958091600088618093BB
:102900006000109260000FBE8F910F900FBE0F906D
:102910001F901895CF92DF92EF92FF92CF93DF93A3
:102920006DE18EE494E00E94C30490E034E095955C
:1029300087953A95E1F78A3091050CF042C0FC0189
:10294000EE0FFF1FE80FF91FEF5CFE4FC080D18034
:10295000E2800E2C000CFF086EE18EE494E00E94F1
:10296000C304D82F66E28EE494E00E94C304C82F0B
:10297000D295DF7021E030E040E050E004C0220F4B
:10298000331F441F551FDA95D2F7C701B6010E94C5
:10299000172468EE73E080E090E00E941724213154
:1029A00031054105510594F04C2F486066EA8EE4EC
:1029B00094E0DF91CF91FF90EF90DF90CF900C9457
:1029C0009804CC24CA94DC2C7601C6CF4C2F477FC8
:1029D000EDCFCF93E0EBF3E01382128288EE93E029
:1029E000A0E0B0E084839583A683B78323E531E03C
:1029F0003183208325EC30E03587248724EC30E0D8
:102A00003787268720EC30E0318B208B21EC30E0BB
:102A1000338B228B22EC30E0358B248B26EC30E09C
:102A2000378B268B118E128E138E148EEEE4F4E00B
:102A30001382128225E631E03183208320E524874A
:102A4000C1E0C5872DE434E0378726872AE030E0EF
:102A5000318B208B29E030E0338B228B22E030E079
:102A6000358B248B168A178A108E118E138E128E38
:102A7000158E148E178E168E11A210A21482158236
:102A800016821782E0E7F4E0138212828483958332
:102A9000A683B78387E791E09183808368E971E03B
:102AA0008DEB94E00E94300F67E871E087EB94E0D3
:102AB0000E94300F60E084E00E94CC02EDEFF3E072
:102AC000E491A9EAB4E0EC93E9EEF3E0E491F0E0FC
:102AD000EE0FFF1FE552FC4F8591949112969C9347
:102AE0008E9311971B961C921B971D961C921D97F7
:102AF0001C961C921C971A961C921A9719961C9257
:102B0000199718961C92189717961C921797169655
:102B10001C92169715961C92159714961C92149752
:102B200013961C921397E2E9F4E017821086108244
:102B300089E08383C483C583C6831182168A158A7C
:102B40008FEF838B148AB287A187ECE7F4E01586B8
:102B5000148617861686118A108A138A128A158A95
:102B6000148ACF910895CF93DF93CDB7DEB7C154C8
:102B7000D1090FB6F894DEBF0FBECDBF789484B5EF
:102B8000826084BD84B5816084BD85B5826085BD69
:102B900085B5816085BD80916E00816080936E00F7
:102BA00010928100809181008260809381008091E9
:102BB000810081608093810080918000816080939A
:102BC00080008091B10084608093B1008091B0005A
:102BD00081608093B00080917A00846080937A0055
:102BE00080917A00826080937A0080917A008E7F53
:102BF00080937A0080917A00806880937A001092A6
:102C0000C10062E083E00E94CC0261E08FE00E949C
:102C1000CC0281E08093040160E08FE00E949E027C
:102C2000E091C003F091C10382E08083E091BC0396
:102C3000F091BD031082E091BE03F091BF0383E3E6
:102C400080831092C803E091C403F091C50386E02D
:102C50008083E091C203F091C3038081806180830F
:102C6000E091C203F091C303808188608083E0918A
:102C7000C203F091C303808180688083E091C20326
:102C8000F091C30380818F7D808389E193E00E946E
:102C9000470D8CEF92E00E94470D8BED92E00E9471
:102CA000470D8AEA92E00E94470D61E080915E0440
:102CB0000E94CC0261E080915E040E949E0280919D
:102CC0006004909161048F3F9807C9F061E00E9411
:102CD000CC0260E0809160040E949E026AE070E095
:102CE00080E090E00E942D0361E0809160040E94EA
:102CF0009E026AE070E080E090E00E942D031FB722
:102D0000F8948091EB01811127C0EFEEF3E08491FC
:102D1000E3E0F4E09491E82FF0E0EE0FFF1FED54B4
:102D2000FC4FA591B491EC91E92321F461E08AE094
:102D30000E949E0261E08AE00E94CC028CB5806114
:102D40008CBD8CB580648CBD61E08DE00E94CC02AE
:102D500061E08BE00E94CC028091EB018F5F809359
:102D6000EB011FBF62E48EE494E00E94C304823151
:102D700009F02EC140E861E88EE494E00E949804D6
:102D800080EC9AECA9E8B6E3809364049093650420
:102D9000A0936604B093670444EE66E88EE494E082
:102DA0000E94980440EC67E88EE494E00E94980446
:102DB00040E068E88EE494E00E94980440E06EE809
:102DC0008EE494E00E94980440E06FE88EE494E082
:102DD0000E9498046CE08EE494E00E94C304482FA3
:102DE00043606CE88EE494E00E94980444E066EA54
:102DF0008EE494E00E94980444E86DEC8EE494E044
:102E00000E9498044BE26BE88EE494E00E949804E0
:102E10004FE869E88EE494E00E9498040E94BD04A3
:102E200047E86DEC8EE494E00E94980441E36BE87F
:102E30008EE494E00E9498044FE869E88EE494E000
:102E40000E9498046DE18EE494E00E94C3048F70A8
:102E5000482F40676DE98EE494E00E9498040E9438
:102E60008A1443EC61EB8EE494E00E9498044AE0FB
:102E700067EB8EE494E00E9498046EE18EE494E0A7
:102E80000E94C3048F70482F406C6EE98EE494E07A
:102E90000E9498040E948A146DE18EE494E00E94DE
:102EA000C304817F482F42606DE98EE494E00E9464
:102EB00098040E94BD0482E891E00E94470D1AE048
:102EC000FF24F39403E0E0919B04F0919C041386AB
:102ED0001586148612861186108617821682158230
:102EE000148213821092990410929A0462E370E0A3
:102EF00080E090E00E942D03BE016E5D7F4F8091C7
:102F00009B0490919C040E945D0A882309F47BC075
:102F100067E0CE0182960E94A70799A58913ECCF9E
:102F2000809199048F5F809399048AA1883231F04F
:102F300008F04FC0803111F08232F1F680919A048E
:102F40008F5F80939A0480919204811128C08091B0
:102F50009B0490919C040E942A0ABE016E5D7F4FE3
:102F600080919B0490919C040E94450840E064EB92
:102F700080919B0490919C040E94110880919B0475
:102F800090919C040E94BE07E82E80919B04909132
:102F90009C040E942A0AE11002C0F09292048AA1C5
:102FA000803111F1BE016F5F7F4FCE0182960E948A
:102FB000050B882359F08D819AA19B3311F487FD6D
:102FC00013C08F3399F060F48F31C9F080E00FC0E7
:102FD000FFCF8B3309F4B2CF823409F08DCFAECF5F
:102FE0008F3579F08F3791F78CE001C08AE09091AE
:102FF0009504981708F080CF809395047DCF89E0E1
:10300000F6CF8BE0F4CF809199048111C2C60150B4
:1030100009F059CF115009F0F0C06CED71E0CE010C
:10302000C8960E94E20E67E172E0CE018A960E9485
:10303000E20E2CAD3DAD8EA59FA52817390709F0EE
:1030400070C1BE01665D7F4FCE01C8960E94D20D51
:10305000892B09F066C13AE0432E44E4342E50E750
:10306000652E54E0752E60E2C62ED12C7CE7E72E4B
:1030700074E0F72EECE6AE2EE3E0BE2EFDE68F2EDA
:10308000F3E09F2E55245394A4E92A2E80918804BE
:1030900090918904009711F00E94F02680918A0493
:1030A00090918B04009739F0DC01ED91FC91028046
:1030B000F381E02D099580918C0490918D04009707
:1030C00039F0DC01ED91FC910280F381E02D09954E
:1030D00086E090E00E9454268C01FC0130827282CE
:1030E00061821382D582C48290938904809388047C
:1030F00010923F0310923E0310928D031092AF0383
:103100000E949E05B092ED01A092EC019092EF0119
:103110008092EE01D80113965C92C8010E946C0760
:10312000882309F476C029828091880490918904CB
:10313000FC0124813581232B09F46BC0208150923E
:103140008C032093AE0310928D031092AF03BE0147
:103150006F5F7F4F0E94CD06882309F45AC061E05B
:1031600070E080E090E00E942D0386E090E00E94F5
:103170005426FC0181E291E09183808381E094E018
:1031800093838283F582E482F0938D04E0938C0430
:1031900086E090E00E945426FC0183E191E0918357
:1031A000808380E094E093838283F582E482F093CD
:1031B0008B04E0938A0463E172E087EB94E00E9461
:1031C000BD0E10928F0410928E04109291041092F2
:1031D000900482EE91E00E94470D89E88AA38091D5
:1031E000880490918904DC0114962D913C91232B45
:1031F000D1F460E070E0CB0159C068EC70E080E091
:1032000090E00E942D035ECE01960E94C30FC12C58
:1032100001C64A9441107EC06FED71E0CE018296E6
:103220000E94E20E56C0FC01208150928C03209334
:10323000AE0310928D031092AF03BE016E5D7F4FFF
:103240000E94CD068823A9F26AE070E080E090E059
:103250000E942D03BE016F5F7F4F80918804909183
:1032600089040E940209882321F2CE0101960E945E
:1032700033029B818913BDCFCE0104960E94330295
:103280009E818913B6CF69817A8176276727762751
:1032900090E080E0982F872F762F66272C81622B75
:1032A000982F872F762F66272D81622B1BA21AA2BB
:1032B0001DA21CA21FA21EA220E1AE014F5F5F4F04
:1032C0000E946520BE016F5F7F4FCE0182960E94F3
:1032D0000C0FBE016E5D7F4FCE01C8960E94FF0DA0
:1032E000CE0182960E94C60DCE018A960E94C60D1E
:1032F00008AD19AD01151105E1F0D8018C918823B5
:10330000C1F0082E000C990B0E943628F801819319
:103310008F01F3CF68EC70E080E090E00E942D0315
:10332000B5CEBE01685C7F4FCE0182960E94160F1B
:10333000D0CFBE01685C7F4F8DEB94E00E94B60E4B
:10334000CE01C8960E94C60D8AE692E00E94470D03
:1033500088E592E00E94470D8DE492E00E945D04B2
:103360008DEB94E00E94530D86E392E00E945D0491
:103370008CE390E00E940F0D84E392E00E94470DE1
:103380008DE192E00E945D0488E290E00E940F0DC2
:103390008AE192E00E94470D6FEA73E0CE01019648
:1033A0000E94E20E2091BB043091BC048D819E816D
:1033B0002817390751F4BE016F5F7F4F87EB94E008
:1033C0000E94D20D11E0892B09F010E0CE01019688
:1033D0000E94C60D112309F43AC241E952E065EB9F
:1033E00072E08CE794E00E94C210C090A502D090D9
:1033F000A602E090A702F090A802C0922903D09202
:103400002A03E0922B03F0922C034091C9025091C1
:10341000CA026091CB027091CC0240932D0350936D
:103420002E0360932F03709330038091F00190E09E
:103430009C01220F331F220F331FF901EF5BFD4F59
:10344000C082D182E282F3822F503E4FD9014D9348
:103450005D936D937C931397019664E170E00E94F5
:1034600026268093F00181E492E00E94770B81EFA1
:1034700091E00E94770B61E08FE00E949E0262E380
:1034800070E080E090E00E942D0309ED12E099E2E7
:10349000E92E93E0F92E80910401E0E48E9FC001B3
:1034A000112480937C0080917A00806480937A005C
:1034B00080917A0086FDFCCF609178007091790050
:1034C000072E000C880B990B0E94FA22D8016D93ED
:1034D0007D938D939D938D0166E970E080E090E08F
:1034E0000E942D03E016F106B1F660E08FE00E9425
:1034F0009E0289ED92E00E94770B4B015C010E94D5
:10350000B2086B017C01C501B4010E949025072E11
:10351000000C880B990B0E94FA2220E030EC4FE758
:1035200054E40E941E25A70196010E94592320E021
:1035300030E04AE754E40E9459230E9490259B0101
:10354000AC0124503B4041095109ACE3B0E00E947A
:10355000362420E0663DB6E07B07810591057CF4CA
:1035600024E66339EDE47E07EDEF8E07EFEF9E076B
:1035700034F02AE239EF4FEF5FEF0E9417242093D7
:1035800034036DEB74E0CE01C2960E94160F6BE41B
:1035900073E0CE01C2960E94600E4AE0609134034F
:1035A000CE0101960E94C30FBE016F5F7F4FCE0117
:1035B000C2960E94B60ECE0101960E94C60D69E425
:1035C00073E0CE01C2960E94600E40912D0350918F
:1035D0002E0360912F037091300320E0CE010196FD
:1035E0000E948D0FBE016F5F7F4FCE01C2960E9479
:1035F000B60ECE0101960E94C60D67E473E0CE01BF
:10360000C2960E94600E4091290350912A03609156
:103610002B0370912C0321E0CE0101960E948D0FA7
:10362000BE016F5F7F4FCE01C2960E94B60ECE01E3
:1036300001960E94C60D65E473E0CE01C2960E9419
:10364000600E0E94B208AB01BC0121E0CE010196E0
:103650000E948D0FBE016F5F7F4FCE01C2960E9408
:10366000B60ECE0101960E94C60D63E473E0CE0152
:10367000C2960E94600EBE016E5C7F4FCE018A969C
:103680000E94160FCE018A960E94E1081BA21AA280
:103690001DA21CA21FA21EA24AE0BE016F5F7F4FA7
:1036A0000E944520BE016F5F7F4FCE0182960E942F
:1036B0000C0FBE016E5D7F4FCE01C2960E94B60E0A
:1036C000CE0182960E94C60DCE018A960E94C60D3A
:1036D0000E94BD048DE493E00E945D04CE01C29679
:1036E0000E94530D61E08EE494E00E94C304837055
:1036F0008330E9F062E18EE494E00E94C30483FF2A
:1037000006C048E062E98EE494E00E9498040E94BA
:10371000BD040E94C60440E06DE88EE494E00E947F
:10372000980440E062EA8EE494E00E9498044EA976
:103730005FA96AA97BA98EE494E00E94260543E86C
:1037400061E88EE494E00E94980462E18EE494E0E3
:103750000E94C30483FFF9CF48E062E98EE494E05D
:103760000E94980464E670E080E090E00E942D03DF
:1037700040E861E88EE494E00E949804CE01C2968D
:103780000E94C60D0E9460034B015C010E94B61F9F
:1037900028E833E140E050E00E9417249B01AC018F
:1037A00028573C4E4F4F5F4F22962CAF3DAF4EAF48
:1037B0005FAF22970E946003681979098A099B0903
:1037C00022962CAD3DAD4EAD5FAD229762177307CB
:1037D0008407950708F0CCC262E18EE494E00E9471
:1037E000C304182F0E94C604412F62E98EE494E0BE
:1037F0000E94980416FF65C115FD63C1109269040B
:103800001092680480916A0490916B0462E2892BA3
:1038100009F463E18EE494E00E94C304082F10E0F1
:1038200060E18EE494E00E94C304482F6DE88EE4CA
:1038300094E00E9498040E94BD04012B09F056C137
:103840006AE070E080E090E00E942D03B3CF20E0BA
:1038500030E040E85FEB20932D0330932E0340933C
:103860002F035093300380919B0490919C040E94FD
:103870002A0A40E06CEC80919B0490919C040E9489
:1038800011084091920464E480919B0490919C04FF
:103890000E9411080E9460036B017C0180919604D4
:1038A0008823E1F080919704882309F43FC0809138
:1038B000920481113BC080919B0490919C040E94D2
:1038C000BE07813059F00E9460036C197D098E0992
:1038D0009F096E3E72408105910568F380919904BD
:1038E00081114DC0C12CD12CAEEFEA2EA2ECFA2EE4
:1038F000C0922903D0922A03E0922B03F0922C036A
:1039000020E030E04EEF52ECC701B6010E94F322F6
:10391000882309F4A8CF20E030E04CE852E4C70146
:10392000B6010E94C62587FF9ECFA5CDE0919504E4
:10393000E9508EEE92E0E33038F4F0E0EE0FFF1F36
:10394000E55DFE4F808191816C01F12CE12C80912D
:103950009304882329F060E0809194040E949E02E1
:10396000C701B6010E942D0380919304882309F4B6
:10397000B5CF61E0809194040E949E02AFCFCE014A
:1039800082960E94DD0A882309F4ACCFBE016F5FE6
:103990007F4FCE0182960E94050B882309F4A2CFA7
:1039A0009A81C12CD12C760197FF06C0C12CD12C55
:1039B000F8EFEF2EFF24FA944AA109814B33E9F581
:1039C0008D8187FF3AC000FD8DCF10E030E020E010
:1039D00073E0000F111F221F331F7A95D1F7007E6D
:1039E000177022273327892F90E0B0E0A0E0EBE0AA
:1039F000880F991FAA1FBB1FEA95D1F7802B912B27
:103A0000A22BB32B8C019D010C291D292E293F29A6
:103A10000138B4EE1B07BFEF2B073B070CF462CF56
:103A2000C901B8010E94FA2220E030E040E05CE3E6
:103A30000E9459236B017C015BCF892F90E0982F66
:103A40008827990F990F990F58E0059F800111243D
:103A5000082B192B012E000C220B330B0C291D29CE
:103A60002E293F294031A1F66885662389F270E04E
:103A70008F81DB01A81BB109CD019695982F88276E
:103A8000979587950E942626CB01770FAA0BBB0B33
:103A900053E0000F111F221F331F5A95D1F70078F2
:103AA000277033270052110921093109800F911F16
:103AB000A21FB31F97018601082B192B2A2B3B2B22
:103AC000A7CF61E08EE494E00E94C304863809F435
:103AD000B7CE40E06DE88EE494E00E94980446E89A
:103AE00061E88EE494E00E949804AACE67E871E051
:103AF000CE01C2960E94300F8EE494E00E94180519
:103B0000892B81F08EE494E00E94FD0489831A825F
:103B100041E050E0BE016F5F7F4FCE01C2960E9430
:103B20008A0EEACF4091C1045091C2048EA99FA988
:103B30008417950708F40FC18AA99BA9009709F477
:103B40000AC16091BD047091BE046115710509F44C
:103B500002C10E9457288C01892B09F0FCC0BE01CC
:103B60006E5C7F4FCE0182960E94160F62E573E075
:103B7000CE0101960E94E20E4EA15FA18D819E8131
:103B8000481B590BBE016F5F7F4FCE0182960E948A
:103B9000660D7C01CE0101960E94C60D3FEFE31A2F
:103BA000F30A2EA13FA1A701BE016E5D7F4FCE019A
:103BB00001960E94410F89819A81412C512C32013A
:103BC000009719F00E940E202B01CE0101960E9451
:103BD000C60D970150E040E0BE016E5D7F4FCE0103
:103BE00001960E94410FBE016F5F7F4FCE0182960A
:103BF0000E94FF0DCE0101960E94C60DBE016E5DB2
:103C00007F4FCE0101960E94160FCE0101960E94B1
:103C1000E1087C01CE0101960E94C60DCE0182967C
:103C20000E94C60DE414F50409F095C0BE016E5C57
:103C30007F4FCE018A960E94160F66E573E0CE0193
:103C400001960E94E20E8EA59FA5892B61F0CAA461
:103C5000DBA469817A81C6010E9474287C01EC187A
:103C6000FD08892B19F4EE24EA94FE2CCE0101966E
:103C70000E94C60D64E573E0CE0182960E94E20EBA
:103C80004EA55FA58EA19FA1481B590BBE016E5D7D
:103C90007F4FCE018A960E94660DA7014F5F5F4F4E
:103CA0009C01BE01665D7F4FCE0101960E94410FCF
:103CB000BE016F5F7F4FCE018A960E94FF0DCE013D
:103CC00001960E94C60DCE0182960E94C60D8AA55D
:103CD0009BA50097E1F10E940E207093330360933F
:103CE0003203CE018A960E94C60D82E993E00E94BB
:103CF000470DCE01C2960E94C60D0E947A027C0139
:103D000068E873E180E090E00E942D03EA94EF28D8
:103D100099F580913203909133032FE0289F700131
:103D2000299FF00C11240E151F0534F530E020E01A
:103D300050E040E068E070E081E393E00E946408B6
:103D40000E947A02892BC1F00F5F1F4FECCF60E019
:103D500070E0CB01C2CF89E793E00E945D04CE0101
:103D6000C2960E94530DCE01C2960E94C60D68CD28
:103D700088E593E00E94470D80E090E0892B09F4EC
:103D80000BCB0E94DA03882309F406CB0E940000C3
:103D900003CBCE018A960E94DD0AD82E882309F42F
:103DA00039C969ED71E087EB94E00E94BD0E8BEAA2
:103DB00091E00E94470D67E871E0CE01C8960E942D
:103DC000300F8E01065D1F4F7E0132E3E30EF11CC2
:103DD000D8016D918D0140E1CE01603108F014CA27
:103DE00082960E94C30F64EA71E0C7010E94300FFF
:103DF0004EA15FA16AA17BA1C7010E948A0E811119
:103E000003C0C7010E94B40DB701CE0101960E9404
:103E1000160FCD2CBE016F5F7F4FCE01C8960E945A
:103E2000B60ECE0101960E94C60DCC2039F0C70116
:103E30000E94C60DCE0182960E94C60DE016F106C4
:103E400039F6F1C88091880490918904009711F0A7
:103E50000E94F02680918A0490918B04009739F09B
:103E6000DC01ED91FC910280F381E02D09958091B8
:103E70008C0490918D04009739F0DC01ED91FC9158
:103E80000280F381E02D099587EB94E00E94C60D36
:103E90008DEB94E00C94C60DEF920F931F93CF938C
:103EA000DF93E80134E047FD34E1042E000C550BAC
:103EB00057FF03C0519541955109E32E022F242F3E
:103EC000AE010E94AC20CE01DF91CF911F910F91E6
:103ED000EF9008958F929F92AF92BF92CF92DF9210
:103EE000EF92FF92CF93DF93EC01688179818A8111
:103EF0009B81611571058105910521F464E279EDDD
:103F00008BE597E02DE133EF41E050E00E9417246C
:103F100049015A019B01AC01A7EAB1E40E94362491
:103F20006B017C01ACEEB4EFA50194010E94442426
:103F3000C60ED71EE81EF91EF7FE06C081E0C81A9D
:103F4000D108E10880E8F80AC882D982EA82FB82B7
:103F5000C701B6019F77DF91CF91FF90EF90DF907F
:103F6000CF90BF90AF909F908F9008958F929F9227
:103F7000AF92BF92CF92DF92EF92FF9260910501D4
:103F800070910601809107019091080161157105FA
:103F90008105910521F464E279ED8BE597E02DE14F
:103FA00033EF41E050E00E94172449015A019B0180
:103FB000AC01A7EAB1E40E9436246B017C01ACEEAF
:103FC000B4EFA50194010E944424C60ED71EE81E3A
:103FD000F91EF7FE06C081E0C81AD108E10880E8A2
:103FE000F80AC0920501D0920601E0920701F09212
:103FF0000801C701B6019F77FF90EF90DF90CF9047
:10400000BF90AF909F908F9008956093050170933B
:104010000601809307019093080108951F93FC0106
:1040200099278827BC01E89411911032E9F31930DF
:1040300010F01E30C8F31B3251F01D3249F4689461
:1040400006C00E945020610F711D811D911D1191AC
:1040500010531A30B0F33EF49095809570956195A9
:104060007F4F8F4F9F4F1F910895FB01DC010590FB
:104070000D920020E1F70895FC0105900020E9F77A
:10408000809590958E0F9F1F0895BB274A3031F47D
:10409000992322F4BDE2909581959F4F0C94932033
:1040A000592F482F372F262F660F771F881F991FEC
:1040B000660F771F881F991F620F731F841F951F3C
:1040C000660F771F881F991F0895BB27FA01A62F37
:1040D0006217710581059105330B30FB66F0AA2745
:1040E000660F771F881F991FAA1FA21710F0A21B27
:1040F00063953850A9F7A05DAA3308F0A95DA19394
:1041000036F7B111B1931082CA010C94E322453203
:10411000510520F4423010F00C949220FB011082E3
:10412000CB010895BB27FB015527AA27880F991FAC
:10413000AA1FA41710F0A41B83955051B9F7A05DD6
:10414000AA3308F0A95DA193009779F7B111B19353
:104150001192CB010C94E322A9E0B0E0E2EBF0E293
:104160000C944F246A01F22EB02E102FFBE3AF2ED9
:10417000A01608F41BE31F5F012F27E0AE014F5F7D
:104180005F4F0E940B22BC018981982F997091305A
:1041900009F43FC09BE2E1FC04C09E2D9170E0FC5D
:1041A0003AC05E2D5071E82FE87083FF46C084E06E
:1041B000911101C083E0EF2DE81B8F1508F0E0E0BE
:1041C000D6018E2F20E2552351F1992329F0D601F3
:1041D0009C93C60101966C0196012D5F3F4FE2FE54
:1041E00024C08EE4D6018C9391E411969C93119790
:1041F00012968C93D9018E2F90E281111BC0E20F91
:10420000F32FF11D10828EEF9FEF2996ECE00C94B6
:104210006B249DE2C6CF90E2C4CF2D9381508111D3
:10422000FCCFCE0ED11CE0E0D0CF8EE6D6018C9331
:1042300091E6DBCF9D938150E0CF482F447082FF01
:104240003DC084E0911101C083E08F1510F4EF2D83
:10425000E81BD6018E2F20E2552309F1992329F07E
:10426000D6019C93C60101966C0196012D5F3F4FCC
:10427000E2FE1BC089E4D6018C938EE411968C93E8
:10428000119786E412968C93D9018E2F90E28823A1
:1042900009F4B5CF9D938150FACF2D9381508111B0
:1042A000FCCFCE0ED11CE0E0D9CF89E6D6018C93AD
:1042B0008EE611968C93119786E6E4CF9B0177FFEB
:1042C00002C030E020E0A1E0B0E0911102C0B0E017
:1042D000A0E0F9013196AE0FBF1F8B2C912CBB20B3
:1042E00009F461C05401EFEFAE1ABE0AAA0DBB1D5E
:1042F000FA161B0619F014F04F2D4A1B511188C0F5
:10430000E3FC59C07601A42FB0E2A1114FC0C40E46
:10431000D11C992309F45BC040E0D6011196F60147
:1043200090836D01552309F448C0012F060F9A812F
:10433000582F507184FF03C0913309F401501016B7
:104340000CF047C0093008F008E0EEE2FE2E5B01F9
:10435000A01AB10885019194819491082F3F3207EA
:1043600029F4D601FC92F60131966F0162177307AA
:1043700094F1021713077CF5DB01A21BB30BAA24EF
:10438000A394B12CAC0EBD1EAA0DBB1D11968C9131
:1043900021503109D601119628153905F4F0F6019E
:1043A00080836D01DBCFB12CA12CA0CFF701B1939D
:1043B0007F01A150AACF9111B0CFD601942F50E325
:1043C00002C05D9391509111FCCFC40ED11C40E00E
:1043D000ACCF01E0BACF80E3DBCF6217730731F4D3
:1043E000963388F4953311F4552369F0F6018083F0
:1043F000FD01842F90E2811108C0A40FB11D1C9211
:1044000090E080E002CF81E3F1CF91938150F3CF30
:10441000911183CF8ACF283008F027E03327DA01C3
:10442000990F311D87FD916000966105710539F482
:1044300032602E5F3D9330E32A95E1F708959F3F68
:1044400030F080387105610509F03C5F3C5F3D93B9
:10445000913008F08068911DDF93CF931F930F93E5
:10446000FF92EF92192F987F9695E92F9695969542
:10447000E90FFF27EE53FF4F99273327EE24FF2440
:10448000A701E70105900894079428F4360FE71E6A
:10449000F81E491F511D660F771F881F991F06942C
:1044A000A1F70590079428F4E70EF81E491F561F40
:1044B000C11D770F881F991F661F0694A1F70590ED
:1044C000079428F4F80E491F561FC71FD11D880FE7
:1044D000991F661F771F0694A1F70590079420F493
:1044E000490F561FC71FD81F990F661F771F881FB8
:1044F0000694A9F784911095177041F0D695C79549
:1045000057954795F794E7941A95C1F7E8E6F0E0D8
:1045100068941590159135916591959105907FE27C
:104520007395E118F10A430B560BC90BD009C0F77C
:10453000E10CF11E431F561FC91FD01D7EF47033BE
:1045400011F48A95E6CFE894015030F0080F0AF490
:104550000027021708F4202F2395022F7A3328F022
:1045600079E37D932A95E9F710C07D932A9589F622
:10457000069497956795379517951794E118F10A62
:10458000430B560BC90BD00998F023957E91739578
:104590007A3308F070E37C932013B8F77E91706152
:1045A0007D9330F0839571E37D9370E32A95E1F775
:1045B0001124EF90FF900F911F91CF91DF919927D8
:1045C00087FD90950895DC01FC01672F7191772399
:1045D000E1F7329704C07C916D9370836291AE17BE
:1045E000BF07C8F308950E94352308F481E00895B9
:1045F000E89409C097FB3EF490958095709561957D
:104600007F4F8F4F9F4F9923A9F0F92F96E9BB2732
:104610009395F695879577956795B795F111F8CFAE
:10462000FAF4BB0F11F460FF1BC06F5F7F4F8F4F19
:104630009F4F16C0882311F096E911C0772321F00F
:104640009EE8872F762F05C0662371F096E8862FA7
:1046500070E060E02AF09A95660F771F881FDAF7FE
:10466000880F9695879597F90895990F0008550F2B
:10467000AA0BE0E8FEEF16161706E807F907C0F0E8
:1046800012161306E407F50798F0621B730B840BF0
:10469000950B39F40A2661F0232B242B252B21F4CA
:1046A00008950A2609F4A140A6958FEF811D811D6A
:1046B00008950E946C230C94DD230E94CF2338F0D0
:1046C0000E94D62320F0952311F00C94C6230C945D
:1046D000CC2311240C9411240E94EE2370F3959F97
:1046E000C1F3950F50E0551F629FF001729FBB27E9
:1046F000F00DB11D639FAA27F00DB11DAA1F649F85
:104700006627B00DA11D661F829F2227B00DA11D37
:10471000621F739FB00DA11D621F839FA00D611DBD
:10472000221F749F3327A00D611D231F849F600DDE
:10473000211D822F762F6A2F11249F5750409AF007
:10474000F1F088234AF0EE0FFF1FBB1F661F771F93
:10475000881F91505040A9F79E3F510580F00C945E
:10476000C6230C9411245F3FE4F3983ED4F386955E
:1047700077956795B795F795E7959F5FC1F7FE2BFE
:10478000880F911D9695879597F9089597F99F67DA
:1047900080E870E060E008959FEF80EC08950024C9
:1047A0000A941616170618060906089500240A9496
:1047B00012161306140605060895092E0394000C1C
:1047C00011F4882352F0BB0F40F4BF2B11F460FFAB
:1047D00004C06F5F7F4F8F4F9F4F089557FD9058D4
:1047E000440F551F59F05F3F71F04795880F97FBB5
:1047F000991F61F09F3F79F087950895121613066F
:104800001406551FF2CF4695F1DF08C0161617069D
:104810001806991FF1CF86957105610508940895D2
:10482000E894BB2766277727CB0197F90895052ED3
:1048300097FB1EF400940E942E2457FD07D00E947F
:10484000802407FC03D04EF40C942E245095409500
:10485000309521953F4F4F4F5F4F0895909580952C
:10486000709561957F4F8F4F9F4F08950E94A224AE
:10487000A59F900DB49F900DA49F800D911D1124B4
:104880000895B7FF0C9436240E943624821B930BA4
:1048900008952F923F924F925F926F927F928F92E4
:1048A0009F92AF92BF92CF92DF92EF92FF920F93BF
:1048B0001F93CF93DF93CDB7DEB7CA1BDB0B0FB6C9
:1048C000F894DEBF0FBECDBF09942A883988488886
:1048D0005F846E847D848C849B84AA84B984C8841C
:1048E000DF80EE80FD800C811B81AA81B981CE0F13
:1048F000D11D0FB6F894DEBF0FBECDBFED010895F8
:10490000A1E21A2EAA1BBB1BFD010DC0AA1FBB1FD3
:10491000EE1FFF1FA217B307E407F50720F0A21B45
:10492000B30BE40BF50B661F771F881F991F1A94B2
:1049300069F760957095809590959B01AC01BD01DC
:10494000CF010895A29FB001B39FC001A39F700D36
:10495000811D1124911DB29F700D811D1124911D87
:1049600008955058BB27AA270E94C9240C94DD2320
:104970000E94CF2338F00E94D62320F039F49F3FC5
:1049800019F426F40C94CC230EF4E095E7FB0C9478
:10499000C623E92F0E94EE2358F3BA176207730764
:1049A0008407950720F079F4A6F50C9410240EF4F2
:1049B000E0950B2EBA2FA02D0B01B90190010C012F
:1049C000CA01A0011124FF27591B99F0593F50F447
:1049D000503E68F11A16F040A22F232F342F44279F
:1049E000585FF3CF469537952795A795F040539597
:1049F000C9F77EF41F16BA0B620B730B840BBAF067
:104A00009150A1F0FF0FBB1F661F771F881FC2F7D1
:104A10000EC0BA0F621F731F841F48F487957795E5
:104A20006795B795F7959E3F08F0B0CF9395880F9F
:104A300008F09927EE0F9795879508950E943225E3
:104A40000C94DD230E94D62358F00E94CF2340F01F
:104A500029F45F3F29F00C94C62351110C941124C2
:104A60000C94CC230E94EE2368F39923B1F35523D1
:104A700091F3951B550BBB27AA2762177307840771
:104A800038F09F5F5F4F220F331F441FAA1FA9F307
:104A900035D00E2E3AF0E0E832D091505040E695F5
:104AA000001CCAF72BD0FE2F29D0660F771F881F56
:104AB000BB1F261737074807AB07B0E809F0BB0B49
:104AC000802DBF01FF2793585F4F3AF09E3F51055D
:104AD00078F00C94C6230C9411245F3FE4F3983EC5
:104AE000D4F3869577956795B795F7959F5FC9F746
:104AF000880F911D9695879597F90895E1E0660FC7
:104B0000771F881FBB1F621773078407BA0720F03F
:104B1000621B730B840BBA0BEE1F88F7E0950895A8
:104B20000E9497256894B1110C94112408950E9455
:104B3000F62388F09F5798F0B92F9927B751B0F016
:104B4000E1F0660F771F881F991F1AF0BA95C9F711
:104B500014C0B13091F00E941024B1E008950C947B
:104B60001024672F782F8827B85F39F0B93FCCF32E
:104B7000869577956795B395D9F73EF4909580958E
:104B8000709561957F4F8F4F9F4F08950E943523F9
:104B900008F48FEF089519F416F40C94CC230C94B8
:104BA00011260E94F623B8F39923C9F3B6F39F5751
:104BB000550B87FF0E941F260024A0E640EA9001C3
:104BC00080585695979528F4805C660F771F881F4C
:104BD00020F026173707480730F4621B730B840B4D
:104BE000202931294A2BA695179407942025312591
:104BF0004A2758F7660F771F881F20F026173707B8
:104C0000480730F4620B730B840B200D311D411DDE
:104C1000A09581F7B901842F9158880F96958795B3
:104C200008959F3F31F0915020F4879577956795CF
:104C3000B795880F911D9695879597F9089591508E
:104C40005040660F771F881FD2F7089597FB072EF5
:104C500016F4009407D077FD09D00E943A2607FC8D
:104C600005D03EF4909581959F4F0895709561957C
:104C70007F4F0895AA1BBB1B51E107C0AA1FBB1F92
:104C8000A617B70710F0A61BB70B881F991F5A95D8
:104C9000A9F780959095BC01CD010895EE0FFF1FF7
:104CA0000590F491E02D09940F931F93CF93DF9318
:104CB0008230910510F482E090E0E091C504F0911B
:104CC000C60430E020E0B0E0A0E0309799F4211570
:104CD000310509F44AC0281B390B24303105D8F5B9
:104CE0008A819B816115710589F1FB019383828320
:104CF000FE0111C04081518102811381481759077B
:104D0000E0F04817590799F4109761F012960C9348
:104D1000129713961C933296CF01DF91CF911F917A
:104D20000F9108950093C5041093C604F4CF211584
:104D3000310551F04217530738F0A901DB019A0100
:104D4000BD01DF01F801C1CFEF01F9CF9093C60497
:104D50008093C504CDCFFE01E20FF31F81939193A1
:104D60002250310939832883D7CF2091C304309151
:104D7000C404232B41F420910B0130910C0130939A
:104D8000C4042093C3042091090130910A01211524
:104D9000310541F42DB73EB740910D0150910E0100
:104DA000241B350BE091C304F091C404E217F30710
:104DB000A0F42E1B3F0B2817390778F0AC014E5F8B
:104DC0005F4F2417350748F04E0F5F1F5093C40400
:104DD0004093C304819391939FCFF0E0E0E09CCF98
:104DE000CF93DF930097E9F0FC0132971382128290
:104DF000A091C504B091C604ED0130E020E0109709
:104E0000A1F420813181820F931F2091C30430913E
:104E1000C4042817390709F061C0F093C404E09373
:104E2000C304DF91CF910895EA01CE17DF07E8F5BB
:104E30004A815B819E0141155105B1F7E901FB8370
:104E4000EA8349915991C40FD51FEC17FD0761F40E
:104E5000808191810296840F951FE901998388834F
:104E6000828193819B838A83F0E0E0E012968D91AA
:104E70009C9113970097B9F52D913C911197CD0115
:104E80000296820F931F2091C3043091C404281707
:104E9000390739F6309751F51092C6041092C504BF
:104EA000B093C404A093C304BCCFD383C283408116
:104EB0005181840F951FC817D90761F44E5F5F4F6A
:104EC00088819981480F591F518340838A819B8132
:104ED000938382832115310509F0B0CFF093C60486
:104EE000E093C5049ECFFD01DC01C0CF1382128286
:104EF000D7CFB0E0A0E0EFE7F7E20C944B248C01B1
:104F0000009751F4CB010E9454268C01C801CDB703
:104F1000DEB7E0E10C946724FC01E60FF71F9C016B
:104F200022503109E217F30708F49DC0D901CD9151
:104F3000DC911197C617D70798F0C530D10530F32B
:104F4000CE0104978617970708F3C61BD70B229745
:104F5000C193D1936D937C93CF010E94F026D6CF5D
:104F60005B01AC1ABD0A4C018C0E9D1EA091C504BC
:104F7000B091C604512C412CF12CE12C109731F545
:104F80008091C3049091C4048815990509F05CC010
:104F90004616570608F058C08091090190910A0101
:104FA000009741F48DB79EB740910D0150910E01CD
:104FB000841B950BE817F90708F055C0F093C4045B
:104FC000E093C304F90171836083A0CF8D919C911C
:104FD000119712966C90129713967C901397A815C0
:104FE000B90559F56C0142E0C40ED11CCA14DB04AA
:104FF00020F1AC014A195B09DA011296159780F08D
:105000006282738251834083D9016D937C93E11452
:10501000F10471F0D7011396FC93EE93129776CFBB
:1050200022968C0F9D1FF90191838083F301EFCFAE
:10503000F093C604E093C50469CF4816590608F4F6
:105040002C017D01D3019ACFCB010E9454267C0113
:10505000009749F0AE01B8010E943E28C8010E94A5
:10506000F026870153CF10E000E050CF9111089552
:1050700081568A5108F4805285580895FB01DC015D
:1050800002C001900D9241505040D8F70895FB01A5
:10509000DC018D91019080190110D9F3990B0895CD
:1050A000FB01DC0101900D920020E1F70895FB0166
:1050B000DC014150504030F08D910190801919F47D
:1050C0000020B9F7881B990B0895FB01DC014150C2
:1050D000504048F001900D920020C9F701C01D9288
:1050E00041505040E0F70895FB0151915523A9F03C
:1050F000BF01DC014D9145174111E1F759F4CD0194
:105100000190002049F04D9140154111C9F3FB0178
:105110004111EFCF81E090E00197089512E0C8E0DF
:10512000D2E004C0FE010E944E262196C930D1076C
:10513000C9F7F894FFCF6F036F030101000000006F
:1051400000C704800000000000A507D00DA607518D
:1051500012281000000000A507CE0DA6075B1277ED
:10516000105E00BC007701781E00A02800F03C0013
:10517000405100127A00E4A20024F40048E80190B3
:10518000D00320A10700000000100470039D0378E5
:1051900004CE03AC03C003000000006105260569CE
:1051A00007D6041805FD04D704000000003A070DD7
:1051B000076907D6040607F306E4060D0A005348FC
:1051C0005434785F540053485434785F4800445452
:0C51D000412D534854342D30780030003D
:107800000C94343C0C94513C0C94513C0C94513CE1
:107810000C94513C0C94513C0C94513C0C94513CB4
:107820000C94513C0C94513C0C94513C0C94513CA4
:107830000C94513C0C94513C0C94513C0C94513C94
:107840000C94513C0C94513C0C94513C0C94513C84
:107850000C94513C0C94513C0C94513C0C94513C74
:107860000C94513C0C94513C11241FBECFEFD8E036
:10787000DEBFCDBF11E0A0E0B1E0EAE8FFE702C063
:1078800005900D92A230B107D9F712E0A2E0B1E065
:1078900001C01D92AD30B107E1F70E942D3D0C945F
:1078A000C33F0C94003C982F95959595959595958B
:1078B000905D8F708A307CF0282F295A8091C0000B
:1078C00085FFFCCF9093C6008091C00085FFFCCF60
:1078D0002093C6000895282F205DF0CF982F809127
:1078E000C00085FFFCCF9093C6000895EF92FF92F1
:1078F0000F931F93EE24FF2487018091C00087FD22
:1079000017C00894E11CF11C011D111D81E2E8164D
:1079100081EAF80687E0080780E0180770F3E09135
:107920000401F091050109958091C00087FFE9CF1E
:107930008091C6001F910F91FF90EF9008950E94D3
:10794000763C982F8091C00085FFFCCF9093C600B5
:1079500091362CF490330CF09053892F089597555D
:10796000892F08951F930E949F3C182F0E949F3CCF
:107970001295107F810F1F9108951F93182F882350
:1079800021F00E94763C1150E1F71F9108951F935A
:10799000182F0E94763C803249F0809103018F5F5E
:1079A000809303018530C1F01F9108958091C0003C
:1079B00085FFFCCF84E18093C6008091C00085FFE5
:1079C000FCCF1093C6008091C00085FFFCCF80E102
:1079D0008093C6001F910895E0910401F091050184
:1079E00009951F9108950E94763C803241F0809164
:1079F00003018F5F80930301853081F008958091AA
:107A0000C00085FFFCCF84E18093C6008091C00058
:107A100085FFFCCF80E18093C6000895E0910401CA
:107A2000F09105010995089548EC50E08823A1F0F4
:107A30002D9A28EE33E0FA013197F1F721503040CA
:107A4000D1F72D9828EE33E0FA013197F1F7215064
:107A50003040D1F7815061F708953F924F925F9285
:107A60006F927F928F929F92AF92BF92CF92DF924E
:107A7000EF92FF920F931F93CF93DF93000082E06A
:107A80008093C00080E18093C4001092C50088E11B
:107A90008093C10086E08093C2005098589A259A3E
:107AA00081E00E94143D24E1F22E9EE1E92E85E959
:107AB000D82E0FE0C02E10E1B12EAA24A394B1E479
:107AC0009B2EA6E58A2EF2E57F2EE0E26E2E79E46B
:107AD000572E63E5462E50E5352E0E94763C8033C6
:107AE000B1F18133B9F1803409F46FC0813409F404
:107AF00076C0823409F485C0853409F488C08035A5
:107B000031F1823521F1813511F1853509F485C0D6
:107B1000863509F48DC0843609F496C0843709F49B
:107B200003C1853709F472C1863709F466C08091B4
:107B300003018F5F80930301853079F6E0910401A2
:107B4000F091050109950E94763C803351F60E9420
:107B5000F33CC3CF0E94763C803249F78091C0004D
:107B600085FFFCCFF092C6008091C00085FFFCCF5E
:107B70009092C6008091C00085FFFCCF8092C60025
:107B80008091C00085FFFCCF7092C6008091C0003C
:107B900085FFFCCF6092C6008091C00085FFFCCFBE
:107BA0005092C6008091C00085FFFCCF4092C60075
:107BB0008091C00085FFFCCF3092C6008091C0004C
:107BC00085FFFCCFB092C60088CF0E94763C8638F5
:107BD00008F4BDCF0E94763C0E94F33C7ECF0E9409
:107BE000763C803809F49CC0813809F40BC1823896
:107BF00009F430C1883909F48FC080E00E94C73C85
:107C00006CCF84E10E94BD3C0E94F33C66CF85E0CE
:107C10000E94BD3C0E94F33C60CF0E94763C809362
:107C200006010E94763C809307010E94F33C55CFE9
:107C30000E94763C803309F411C183E00E94BD3C70
:107C400080E00E94C73C49CF0E94763C80930902A5
:107C50000E94763C8093080280910C028E7F809374
:107C60000C020E94763C853409F409C18091080217
:107C700090910902892B89F000E010E00E94763C87
:107C8000F801E85FFE4F80830F5F1F4F809108026D
:107C9000909109020817190788F30E94763C8032F8
:107CA00009F045CF80910C0280FFF5C0609106017C
:107CB00070910701660F771F7093070160930601AB
:107CC000A0910802B09109021097C9F0E8E0F1E034
:107CD0009B01AD014E0F5F1FF999FECF32BD21BD53
:107CE000819180BDFA9AF99A2F5F3F4FE417F5070B
:107CF00099F76A0F7B1F70930701609306018091CB
:107D0000C00085FFFCCFF092C6008091C00085FFC7
:107D1000FCCFB092C600E1CE83E00E94C73CDDCE2E
:107D200082E00E94C73CD9CE0E94763C8093090233
:107D30000E94763C80930802809106019091070191
:107D4000880F991F90930701809306010E94763C4B
:107D5000853409F49AC080910C028E7F80930C02C6
:107D60000E94763C803209F0B8CE8091C00085FF39
:107D7000FCCFF092C600A0910802B09109021097C2
:107D8000C1F180910C02082F0170182F1695117007
:107D9000E0910601F0910701AF014F5F5F4FBA011B
:107DA00020E030E00023B1F4112339F49491809164
:107DB000C00085FFFCCF9093C6002F5F3F4FCB01E3
:107DC0000196FA012A173B0780F4BC014F5F5F4F11
:107DD000002351F3F999FECFF2BDE1BDF89A90B5B9
:107DE0008091C00085FFFCCFE6CF709307016093C0
:107DF00006018091C00085FDE5CE8091C00085FF21
:107E0000F8CFE0CE81E00E94C73C67CE0E94763C6E
:107E1000803209F08CCE8091C00085FFFCCFF092BB
:107E2000C6008091C00085FFFCCFE092C600809123
:107E3000C00085FFFCCFD092C6008091C00085FFB6
:107E4000FCCFC092C6008091C00085FFFCCFB092ED
:107E5000C60043CE80E10E94C73C3FCE0E94763CE4
:107E60000E94763C182F0E94763C112309F483C0AF
:107E7000113009F484C08FE00E94C73C2ECE80915F
:107E80000C02816080930C02F1CE80910C02816023
:107E900080930C0265CF809107018823880F880B9F
:107EA0008A2180930B028091060190910701880F2F
:107EB000991F90930701809306018091080280FF2B
:107EC00009C08091080290910902019690930902DD
:107ED00080930802F894F999FECF1127E0910601EA
:107EE000F0910701C8E0D1E0809108029091090269
:107EF000103091F40091570001700130D9F303E084
:107F000000935700E8950091570001700130D9F3B4
:107F100001E100935700E8950990199000915700EE
:107F200001700130D9F301E000935700E8951395F3
:107F3000103498F011270091570001700130D9F3E7
:107F400005E000935700E89500915700017001305B
:107F5000D9F301E100935700E8953296029709F0B2
:107F6000C7CF103011F00296E5CF11248091C000E8
:107F700085FFC5CEC8CE8EE10E94C73CAECD85E957
:0C7F80000E94C73CAACDF894FFCF8000FF
:00000001FF
