:100000000C94CD010C9488120C9461120C94F5019F
:100010000C94F5010C94F5010C9426140C94F50144
:100020000C94F5010C94F5010C94F5010C94F50178
:100030000C94F5010C94F5010C94F5010C94F50168
:100040000C9417120C94F5010C94D5120C94AF1269
:100050000C94F5010C94F5010C94F5010C94F50148
:100060000C9407130C94F50100407A10F35A00A089
:10007000724E18090010A5D4E80000E87648170071
:1000800000E40B54020000CA9A3B000000E1F505B1
:10009000000080969800000040420F000000A086FB
:1000A00001000000102700000000E803000000002D
:1000B0006400000000000A000000000001000000D1
:1000C00000002C76D888DC674F0823DFC1DFAE59EB
:1000D000E1B1B796E5E3E453C63AE651997696E87E
:1000E000E6C28426EB898C9B62ED407C6FFCEFBC02
:1000F0009C9F40F2BAA56FA5F490055A2AF75C932D
:100100006B6CF9676DC11BFCE0E40D47FEF520E662
:10011000B500D0ED902E0300943577050080841E45
:10012000080000204E0A000000C80C333333330FA0
:10013000986E12831141EF8D2114893BE65516CF3D
:10014000FEE6DB18D1844B381BF77C1D901DA4BB49
:10015000E424203284725E228100C9F124ECA1E5FE
:100160003D27005EBCE2613FDD83C29C7E20A3FD93
:100170001F41009D23BE46DB65F88C11AF32CA5784
:10018000E9742020E280A22053656E736F722044D0
:10019000533A2000445300300030002020E280A277
:1001A0002053656E736F7220534854343A200053C5
:1001B00048540030002020E280A2204C6F52612081
:1001C000696E696369616C697A61646F20636F72DB
:1001D00072656374616D656E74652E2E2E0020202D
:1001E000E280A22053656E736F722064652068758B
:1001F0006D656461642064656C207375656C6F2047
:10020000696E696369616C697A61646F20636F729A
:1002100072656374616D656E74652E2E2E002020EC
:10022000E280A22050726F746F636F6C6F3A20444B
:1002300054412D574D2D307849642C4D732C487204
:100240002C542C5663632C4353007E2048756D65F7
:1002500064616420792074656D7065726174757273
:100260006120616D6269656E7465007E20536F6EFA
:1002700064612064652068756D65646164206465EF
:100280006C207375656C6F000A0A536F6E64612091
:100290004D732C20487220792054656D70202D20DC
:1002A000497272C3B36D6574726F20574D207632F8
:1002B0002E3230323630343036002C002C002C00F8
:1002C0002C002C00644200200054783A20002C00BE
:1002D0002C002C006D732061676F7461646F0020C7
:1002E000202020E29C97205469656D706F20646522
:1002F0002065737065726120002020E28692204D97
:10030000656E73616A652069676E6F7261646F3ACA
:1003100020006D696E002020E29C9320436F6E6682
:1003200069726D616369C3B36E20726563696269E6
:100330006461202D2000534854003000000000006C
:10034000240027002A0000000000250028002B00C0
:100350000000000800020100000304070000000084
:100360000000000000000000230026002900040413
:10037000040404040404020202020202030303034D
:100380000303010204081020408001020408102029
:100390000102040810209C14F02011241FBECFEF8E
:1003A000D8E0DEBFCDBF11E0A0E0B1E0EEECF4E5B7
:1003B00002C005900D92A03BB107D9F724E0A0EB55
:1003C000B1E001C01D92A038B207E1F711E0CCEC1A
:1003D000D1E004C02197FE010E941A28CB3CD1072E
:1003E000C9F70E946C150C945A2A0C940000809155
:1003F0000F0120E4829FC001112480937C00809132
:100400007A00806480937A0080917A0086FDFCCF28
:1004100080917800909179000895FC0190819095E9
:1004200028E030E081E397FF03C0990F982701C0CF
:10043000990F21503109B9F78181892728E030E0EF
:1004400091E387FF03C0880F892701C0880F2150DF
:100450003109B9F70895833081F028F4813099F09B
:100460008230A9F008958730A9F08830C9F084302F
:10047000B1F4809180008F7D03C0809180008F77E0
:1004800080938000089584B58F7784BD089584B5E6
:100490008F7DFBCF8091B0008F778093B00008955F
:1004A0008091B0008F7DF9CF1F93CF93DF93282FDA
:1004B00030E0F901E05BFC4F8491F901EE57FC4F0D
:1004C000D491F901E259FC4FC491CC23A9F0162F25
:1004D00081110E942B02EC2FF0E0EE0FFF1FEA5B70
:1004E000FC4FA591B4918FB7F894EC91111108C00D
:1004F000D095DE23DC938FBFDF91CF911F910895BC
:10050000DE2BF8CFCF93DF9390E0FC01EE57FC4F4A
:10051000249182599C4FFC0184918823C9F090E07A
:10052000880F991FFC01E45CFC4FA591B491FC017C
:10053000EA5BFC4FC591D49161110DC09FB7F8944F
:100540008C91209582238C938881282328839FBFB8
:10055000DF91CF910895623051F49FB7F8943C91A8
:10056000822F809583238C93E8812E2BEFCF8FB73A
:10057000F894EC912E2B2C938FBFEACF3FB7F894D1
:100580008091ED029091EE02A091EF02B091F00205
:1005900026B5A89B05C02F3F19F00196A11DB11DDE
:1005A0003FBFBA2FA92F982F8827BC01CD01620F1A
:1005B000711D811D911D43E0660F771F881F991FD4
:1005C0004A95D1F708958F929F92AF92BF92CF92A2
:1005D000DF92EF92FF926B017C010E94BE024B0101
:1005E0005C01C114D104E104F104B9F00E94BE021F
:1005F000681979098A099B09683E7340810591054C
:1006000080F321E0C21AD108E108F10888EE880ED3
:1006100083E0981EA11CB11CE4CFFF90EF90DF9007
:10062000CF90BF90AF909F908F9008952FB7F89480
:100630006091E9027091EA028091EB029091EC02E4
:100640002FBF08950895089508950895AF92BF9219
:10065000CF92DF92EF92FF920F931F93CF93DF938E
:100660006C017B018B01040F151FEB015E01AE18BD
:10067000BF08C017D10759F06991D601ED91FC91DF
:100680000190F081E02DC6010995892B79F7C5010C
:10069000DF91CF911F910F91FF90EF90DF90CF905E
:1006A000BF90AF900895FC01538D448D252F30E00D
:1006B000842F90E0821B930B541710F0CF9608956F
:1006C00001970895FC01918D828D981761F0A28D9C
:1006D000AE0FBF2FB11D5D968C91928D9F5F9F7362
:1006E000928F90E008958FEF9FEF0895FC01918D18
:1006F000828D981731F0828DE80FF11D858D90E085
:1007000008958FEF9FEF0895FC01918D228D892F21
:1007100090E0805C9F4F821B91098F739927089509
:1007200083E693E00E94840321E0892B09F420E012
:10073000822F089580E090E0892B29F00E94900399
:1007400081110C9400000895FC01A48DA80FB92F0D
:10075000B11DA35ABF4F2C91848D90E001968F73E9
:100760009927848FA689B7892C93A089B1898C9108
:10077000837080648C93938D848D981306C0028857
:10078000F389E02D80818F7D80830895EF92FF9221
:100790000F931F93CF93DF93EC0181E0888F9B8DA4
:1007A0008C8D98131AC0E889F989808185FF15C05E
:1007B0009FB7F894EE89FF896083E889F989808181
:1007C0008370806480839FBF81E090E0DF91CF9150
:1007D0001F910F91FF90EF900895F62E0B8D10E072
:1007E0000F5F1F4F0F731127E02E8C8D8E110CC0E1
:1007F0000FB607FCFACFE889F989808185FFF5CF2C
:10080000CE010E94A403F1CFEB8DEC0FFD2FF11D63
:10081000E35AFF4FF0829FB7F8940B8FEA89FB8968
:1008200080818062CFCF0F931F93CF93DF938C0192
:10083000D0E0C0E0F801EC0FFD1F6491662341F0A9
:1008400083E693E00E94C603892B11F02196F2CF34
:10085000CE01DF91CF911F910F910895CF93DF9338
:10086000EC01888D8823B9F0AA89BB89E889F989C8
:100870008C9185FD03C0808186FD0DC00FB607FCFD
:10088000F7CF8C9185FFF2CF808185FFEDCFCE0130
:100890000E94A403E9CFDF91CF9108950F931F9396
:1008A000CF93DF93EC01062F142F60E088890E941C
:1008B00054029C858D859CBD8DBD0EBD00000DB480
:1008C00007FEFDCF8EB51EBD00000DB407FEFDCFA7
:1008D0001EB561E088890E945402812FDF91CF917B
:1008E0001F910F91089541E861E881E094E00C9434
:1008F0004E04CF93DF93EC0182319105DCF04597F4
:1009000014F0C4E1D0E0239747E86DEC81E094E077
:100910000E944E0441E36BE881E094E00E944E04A3
:100920004C2F4250406869E881E094E0DF91CF911C
:100930000C944E04029714F4C2E0D0E044E86DEC4D
:1009400081E094E00E944E044BE2E5CF40E00C943D
:100950004E0410921E0410921D046DE181E094E09B
:100960000E94A604482F4E7F6DE981E094E00C942C
:100970004E0408950F931F93CF93DF93EC01E8810A
:10098000F9810084F185E02D0995892BB1F06DE0A6
:10099000CE010E94A604082F60E0CE010E94A604AA
:1009A000182F402F6DE8CE010E944E04812F90E059
:1009B000DF91CF911F910F9108958FEF9FEFF8CFA7
:1009C000CF93DF93EC01E881F9810084F185E02D7C
:1009D0000995892B69F08A8D9B8D01969B8F8A8F53
:1009E00060E0CE010E94A60490E0DF91CF910895CF
:1009F0008FEF9FEFFACFCF93DF93EC0163E10E947B
:100A0000A60490E02A8D3B8D821B930BDF91CF9142
:100A10000895AF92BF92CF92DF92FF920F931F93F0
:100A2000CF93DF936C015B01EA0162E20E94A604AE
:100A3000F82E90E09C012C0F3D1F2F3F310529F02F
:100A400020F0CFEFD0E0C81BD90B8501AC0EBD1E46
:100A50000A151B0541F0F80141918F0160E8C601BC
:100A60000E944E04F5CF4C2F4F0D62EAC6010E9442
:100A70004E04CE01DF91CF911F910F91FF90DF9037
:100A8000CF90BF90AF900895CF93DF931F92CDB7D3
:100A9000DEB76983DC01ED91FC910280F381E02DEA
:100AA00041E050E0BE016F5F7F4F09950F90DF91ED
:100AB000CF9108952091D201260F3327331F213281
:100AC0003105ECF420913903FC0190E080E0243002
:100AD00069F082E00895A091D2012191AC014E54B9
:100AE0005E4FA40FB52FB11D2C930196861798F376
:100AF0008091D201680F6093D20180E0089581E077
:100B000008951092390381E0809338031092130303
:100B100061E082E10E94540261E083E10E9454029C
:100B2000E9EBF0E080818E7F808380818D7F808300
:100B300080E28093B80085E48093BC000895CF9351
:100B4000DF9391E09093B1018823B9F0C091B80090
:100B5000D091BA008091BC008A7B8093BC0060E099
:100B600082E10E94540260E083E10E9454020E94EC
:100B70008105D093BA00C093B800DF91CF9108955A
:100B80008F929F92AF92BF92CF92DF92EF92FF929D
:100B90000F931F93CF93DF93D0916203D13208F06C
:100BA000D7C0182FC09161030E94BE026B017C0167
:100BB0008091390381116BC082E0809339031093D7
:100BC00038038FEF8093370310923603D0933503A9
:100BD000A1E4B3E0E5E1F3E080E0D81391C0109226
:100BE000140380911403CC0FC82BC093140380917D
:100BF0001303813009F088C0109213030E94BE02D3
:100C00006B017C01809114038093BB0080913B03B6
:100C100090913C03A0913D03B0913E03892B8A2B18
:100C20008B2BA1F00E94BE0200913B0310913C036C
:100C300020913D0330913E036C197D098E099F0977
:100C4000061717072807390708F442C08091BC002F
:100C500083FDD8CF85EC8093BC000E94BE026B015F
:100C60007C0180913903823009F450C080913703B0
:100C70008F3F09F46FC080913703803209F46CC054
:100C800080913703803309F469C084E026C08091E5
:100C90003B0390913C03A0913D03B0913E03892B0F
:100CA0008A2B8B2B09F484CF0E94BE0280903B03D9
:100CB00090903C03A0903D03B0903E036C197D09D9
:100CC0008E099F0986169706A806B90608F070CF08
:100CD00080913A030E949F0585E010924003109294
:100CE000620310923F03DF91CF911F910F91FF900C
:100CF000EF90DF90CF90BF90AF909F908F9008952E
:100D00009D9191938F5F69CF85EEA5CF80913B0335
:100D100090913C03A0913D03B0913E03892B8A2B17
:100D20008B2B09F49ECF0E94BE0200913B031091D1
:100D30003C0320913D0330913E036C197D098E09DF
:100D40009F09061717072807390708F08ACFC0CF71
:100D500081E0C3CF80E0C1CF82E0BFCF83E0BDCFD1
:100D6000DC0111968D919C91DC01ED91FC9102804A
:100D7000F381E02D41E050E00995019729F481E0ED
:100D80000E94C00591E0811190E0892F0895E091C3
:100D9000F2028091F102E81730F4F0E0ED50FD4FDF
:100DA000808190E008958FEF9FEF08959091F20277
:100DB0008091F1022FEF3FEF981748F4E92FF0E010
:100DC000ED50FD4F208130E09F5F9093F202C9010A
:100DD00008958091F1029091F202891B990B089578
:100DE000CF92DF92EF92FF920F931F93CF93DF93F7
:100DF0007C01CB018A0120913F03222389F0EB0182
:100E00006B01C40ED51ECC15DD0569F06991D701C3
:100E1000ED91FC910190F081E02DC7010995F3CF90
:100E2000642F0E945A05C801DF91CF911F910F9145
:100E3000FF90EF90DF90CF900895CF93DF931F92B4
:100E4000CDB7DEB7698320913F032223F9F02091CB
:100E50006203203258F021E030E0FC01338322832A
:100E600090E080E00F90DF91CF9108958091400352
:100E7000E82FF0E0EF5BFC4F998190838F5F8093C8
:100E800040038093620381E090E0ECCF61E0CE010B
:100E900001960E945A05F7CF90E080E00895CF9325
:100EA000DF93EC018B818823A1F0888191E09093FE
:100EB0003F0380936103109240031092620381E02C
:100EC0000E94C00591E0811190E0892FDF91CF91C0
:100ED00008951092F2021092F102109240031092C3
:100EE00062030E94810582E293E09093F601809371
:100EF000F50183E293E09093F8018093F70181E09C
:100F00008B83CE010E944F07982F8111CECFDDCF6A
:100F100008950895DC0180E0615090F09D9198273C
:100F2000E92FEF70F0E0EE59FE4F2491E92FE295A2
:100F3000EF70F0E0EE58FE4FE491822F8E27ECCF59
:100F40000895DC012C911196ED91FC91F89481812A
:100F5000822B81839281322F30959323928382E07A
:100F600090E00197F1F781818323818380E190E014
:100F70000197F1F790817894E6E6F0E03197F1F788
:100F8000922381E009F480E00895FC0190810180C2
:100F9000F281E02D292F209560FF14C0F894828102
:100FA000822382838181892B8183A0E1B0E0119724
:100FB000F1F78281982B928378948AE690E00197EA
:100FC000F1F70895F8948281822382838181892BAD
:100FD0008183AEE7B0E01197F1F78281982B92837D
:100FE000789486E090E0EBCFDF92EF92FF920F9340
:100FF0001F93CF93DF93EC01D62EE42E08E010E090
:10100000FF24F39461E08D2D8F2109F460E0CE017F
:101010000E94C507FF0C01501109A1F7E11010C093
:10102000F894E981FA81918188818095892381836F
:10103000E981FA81928188818095892382837894DD
:10104000DF91CF911F910F91FF90EF90DF90089566
:10105000EF92FF920F931F93CF93DF938C017B014D
:1010600040E065E50E94F407E70188E0E80EF11C26
:10107000699140E0C8010E94F407CE15DF05C1F771
:10108000DF91CF911F910F91FF90EF90089541153F
:10109000510529F4EAE7F0E080818F7780836A3098
:1010A0007105B9F0CB01880F991F880F991F8072C5
:1010B00067706860682B88E10FB6F894A8958093F4
:1010C00060000FBE60936000E0E6F0E08081806425
:1010D0008083232BD9F483B7817F846083BFF89406
:1010E00083B7816083BF85B7806685BF8F7D85BFED
:1010F0007894889583B78E7F83BF7894452B29F4A5
:10110000EAE7F0E0808180688083089583B7817F7B
:10111000846083BFF89483B7816083BF7894889597
:1011200083B78E7F83BF7894E9CF8EE480937C0071
:1011300062E070E080E090E00E94E30280917A003B
:10114000806480937A0080917A0086FDFCCF809144
:1011500078002091790030E0322F2227032E000CF6
:10116000440B550B282B60E070E381E190E00E9476
:10117000DE25CA01B9010E94C12420E030E04AE71F
:1011800054E40E94E5260895DC0114966D917C914B
:10119000159730E020E090E080E026173707A1F0B7
:1011A000ED91FC911197309761F41092B001E0EB52
:1011B000F1E04081840F911D47FD9A952F5F3F4FCD
:1011C000ECCFE20FF31FF5CF08952F923F924F928D
:1011D0005F926F927F928F929F92AF92BF92CF92C7
:1011E000DF92EF92FF920F931F93CF93DF936C01E7
:1011F0001B01F12CE12C86E0A82EB12CD60114960F
:101200008D919C9185010E191F098017910708F493
:101210008C01F601D0810E94BE022B013C0180911D
:101220003903811172C0C02F013208F0C0E2F1E031
:10123000F093390321E0C501801B910BE816F906F4
:1012400008F420E0209338038FEF80933703109247
:1012500036038C0F80933503A1E0A0931403809193
:101260001403DD0FD82BD093140380911303813026
:1012700009F090C0109213030E94BE022B013C01A2
:10128000809114038093BB0080913B0390913C03B9
:10129000A0913D03B0913E03892B8A2B8B2BA1F0AB
:1012A0000E94BE0220913B0330913C0340913D03DC
:1012B00050913E0364197509860997092617370767
:1012C0004807590708F442C08091BC0083FDD8CF7D
:1012D000B5ECB093BC000E94BE022B013C01809192
:1012E0003903813009F45AC0809136038C1710F409
:1012F000C0913603A5E1B3E0E3EFF2E080E08C17A4
:1013000051F19D9191938F5FFACF80913B03909122
:101310003C03A0913D03B0913E03892B8A2B8B2B7C
:1013200009F47DCF0E94BE0220913B0330913C0323
:1013300040913D0350913E03641975098609970950
:10134000261737074807590708F069CF80913A03F5
:101350000E949F05C0E01092F202C093F102C017F4
:10136000110609F058C041018E0C9F1CE401CE010A
:10137000881999098017910798F5D60111968D91D2
:101380009C91DC01ED91FC910284F385E02D09959F
:101390008993EDCFE5EEE093BC009DCF80913B03B8
:1013A00090913C03A0913D03B0913E03892B8A2B81
:1013B0008B2B09F494CF0E94BE0220913B03309105
:1013C0003C0340913D0350913E0364197509860921
:1013D0009709261737074807590708F080CFB6CF77
:1013E000E00EF11EB6E0EB16F10408F407CF81E041
:1013F000DF91CF911F910F91FF90EF90DF90CF90F1
:10140000BF90AF909F908F907F906F905F904F9024
:101410003F902F90089580E0EBCFFC0190810180F8
:10142000F281E02DF8948181292F209582238183F8
:1014300078943DE7315011F180818923D9F3F894F4
:101440008281822382838181892B81837894ACEB92
:10145000B3E01197F1F7F894818182238183A8E8A2
:10146000B0E01197F1F78081982381E009F080E0E6
:101470007894E0E3F3E03197F1F7089580E0089580
:10148000BF92CF92DF92EF92FF920F931F93CF9371
:10149000DF93EC01B62EC72E8D85811105C0CE01DC
:1014A0000E940D0A81110EC01B861D861C8680E0DD
:1014B000DF91CF911F910F91FF90EF90DF90CF9030
:1014C000BF90089540E060EFCE010E94F40701E074
:1014D000E12CD12C11E0CE010E94A107F82ECE0103
:1014E0000E94A10791E0F91218C0813099F51134DA
:1014F000D8F2DB86D11002C081E08D878B818823F2
:1015000099F22396EB2DFC2DCF010896299121937A
:10151000E817F907D9F781E0CBCFEE2DF0E0F8120C
:101520000FC08B851817A0F4DE01AE0FBF1F1396F6
:101530008C91802379F4F12C193008F41C87D12E7A
:10154000EC0FFD1F8381902F9095892383830AC020
:101550008113F1CFFE01EE0DF11D8381802B83837A
:10156000FF24F3946F2DCE010E94C5071F5F000F6B
:1015700011F4E39401E087E08E1508F0ACCFB7CF0B
:10158000CF93DF93EC01E0914E04F0914F0413866A
:101590001586148612861186108617821682158289
:1015A00014821382BC0180914E0490914F040E94DA
:1015B000400A982F882341F067E0CE010E948A07F5
:1015C00091E02F81281390E0892FDF91CF9108952A
:1015D0006F927F928F929F92AF92BF92CF92DF9243
:1015E000EF92FF920F931F93CF93DF938C01EB0148
:1015F00080914E0490914F040E940D0A882309F4B3
:101600003FC0B80180914E0490914F040E94280879
:1016100040E06EEB80914E0490914F040E94F407DD
:101620007E016E0189E0C80ED11C8E01A0904E048F
:10163000B0904F0488E0882E912C712C662463941E
:10164000C5010E94A10781117628660CE1E08E1A7F
:101650009108B1F7F80171928F01CE16DF0631F7CC
:1016600080914E0490914F040E940D0A813041F404
:10167000F70181917F01811105C0E017F107C1F7E2
:1016800090E008C068E0CE010E948A0791E02885BA
:101690002813F6CF892FDF91CF911F910F91FF90E3
:1016A000EF90DF90CF90BF90AF909F908F907F9002
:1016B0006F9008952F923F924F925F926F927F9218
:1016C0008F929F92AF92BF92CF92DF92EF92FF9252
:1016D0000F931F93CF93DF93CDB7DEB72A970FB643
:1016E000F894DEBF0FBECDBF8C012DB73EB73A8751
:1016F00029876C0130E5C30ED11C7C0160E070E0ED
:10170000CB01F70121913191419151917F010E94CB
:101710007926CE14DF04A9F720E030E040EA51E456
:101720000E94E5262B013C011A830983812C912C10
:101730005401E981FA816191719181919191FA83CA
:10174000E983A30192010E9478269B01AC010E94CB
:1017500020259B01AC01C501B4010E9479264B01F3
:101760005C0129813A81E216F30619F720E030E0A6
:1017700040EA51E40E94E5260E9498272AE939E9C7
:1017800049E95EE30E94BA2487FF7CC0F8018080AB
:101790009180A280B3801C830B8318861F82EB810B
:1017A000FC81C190D190E190F190FC83EB831E838A
:1017B0000D83312C212CED81FE81619171918191FC
:1017C0009191FE83ED83A70196010E9478262B015B
:1017D0003C0120E030E0A9010E948D27181674F426
:1017E0002DEC3CEC4CEC5DE3C301B2010E94BA2449
:1017F00087FF0EC0FFEF2F1A3F0A0AC02DEC3CEC0A
:101800004CEC5DEBC301B2010E948D27181694F3D6
:1018100029813A818D819E812817390761F6EF81F0
:10182000F885E215F30524F438862F824601570126
:1018300029813A818B819C812817390709F0AFCF24
:10184000B401C501E985FA850FB6F894FEBF0FBE55
:10185000EDBF2A960FB6F894DEBF0FBECDBFDF9165
:10186000CF911F910F91FF90EF90DF90CF90BF909D
:10187000AF909F908F907F906F905F904F903F9030
:101880002F900895EDB7FEB7FA83E9832DB73EB7E1
:10189000205531090FB6F8943EBF0FBE2DBF8DB74E
:1018A0009EB701961C0180E5F801D10101900D92CF
:1018B0008A95E1F783E1E82EF12C8101D12CC12C2E
:1018C000CE14DF0414F5F80181909190A190B190AD
:1018D0008F01FFEFCF1ADF0AF8014080518062804C
:1018E0007380A3019201C501B4010E948D271816CF
:1018F0003CF7F80134974082518262827382F8018A
:1019000080829182A282B382DBCFF1E0EF1AF108EC
:10191000A1F6F10120A531A542A553A564A175A1A9
:1019200086A197A10E94792620E030E040E05FE3A5
:101930000E9420254B015C0129813A810FB6F89461
:101940003EBF0FBE2DBF7CCF8F929F92AF92BF92B2
:101950000F931F93CF93DF93CDB7DEB7A1970FB649
:10196000F894DEBF0FBECDBF19A2423008F44AE0A2
:101970008E010F5D1F4F842E912CB12CA12CA5013F
:1019800094010E944726E62FB901CA01EA3044F5C6
:10199000E05DD801EE938D01232B242B252B79F7C5
:1019A00090E080E0109769F0FD0101900020E9F7D8
:1019B0003197AF014A1B5B0BBD0183E693E00E94A8
:1019C0002603A1960FB6F894DEBF0FBECDBFDF9100
:1019D000CF911F910F91BF90AF909F908F900895DE
:1019E000E95CD7CF42E050E060E971E083E693E044
:1019F0000C942603CF93DF930E941304EC010E9402
:101A0000F20C8C0F9D1FDF91CF910895CF93DF9340
:101A1000FC01448155816081718183E693E00E94DD
:101A20002603EC010E94F20C8C0F9D1FDF91CF91D9
:101A30000895AF92BF92CF92DF92EF92FF920F93F1
:101A40001F93CF93DF936B01EA01FB014481558122
:101A50004115510561F1FC012481358121153105C4
:101A600031F12417350718F1C217D30710F0E90137
:101A70002197FC0100811181C801AA24AA94BB24EA
:101A8000BA947801EC0EFD1EE816F906A0F0F601F6
:101A9000608171810E94402A009769F09C01201B9F
:101AA000310BC217D30708F059010196EDCFAA24D4
:101AB000AA94BB24BA94C501DF91CF911F910F91D5
:101AC000FF90EF90DF90CF90BF90AF900895CF93AD
:101AD000DF93EC0188819981009711F00E94BC2866
:101AE000198218821D821C821B821A82DF91CF917B
:101AF0000895FC0180819181009711F00C94BC281D
:101B000008950C94BC280C94BC28CF93DF93EC016F
:101B1000A881B981EB01E881F9811097F1F0309744
:101B2000B1F4EC018C819D81892BC9F08C9190E0FE
:101B30000BC0DB0114968D919C91892B81F08081E3
:101B400090E0919581959109DF91CF910895BF0122
:101B5000CD01DF91CF910C94132A309751F790E08B
:101B600080E0F2CF0F931F93CF93DF938C01EB01B3
:101B7000FC01808191810097E1F068817981611594
:101B80007105A9F0428153812C813D814217530791
:101B900070F00E941C2A8C819D81F80195838483BA
:101BA0001D821C82DF91CF911F910F9108950E9499
:101BB000BC2888819981F801918380838A819B81E7
:101BC000938382838C819D8195838483198218827B
:101BD0001B821A82E5CF0F931F93CF93DF93EC0103
:101BE00088819981009759F02A813B812617370710
:101BF00030F081E0DF91CF911F910F9108958B011B
:101C00006F5F7F4F0E944529009759F09983888321
:101C10001B830A832C813D81232B59F7FC01108201
:101C2000E8CF80E0E7CFEF92FF920F931F93CF931F
:101C3000DF93EC017B01CB010E940E220097A9F0FB
:101C40000C811D81080F191FB801CE010E94EB0DF8
:101C5000882361F0288139818C819D81B701820FB1
:101C6000931F0E9407221D830C8381E0DF91CF9197
:101C70001F910F91FF90EF900895EF92FF920F93B5
:101C80001F93CF93DF936115710541F480E0DF91DD
:101C9000CF911F910F91FF90EF900895411551053D
:101CA000B1F07B01EC010C811D81040F151FB801FF
:101CB0000E94EB0D882351F3288139818C819D810D
:101CC000B701820F931F0E941C2A1D830C8381E0A1
:101CD000DECFFB0144815581608171810C943D0E02
:101CE000EF92FF920F931F93CF93DF93EC018B0141
:101CF000CB010E940E227C01BC01CE010E94EB0DA3
:101D000081110BC0CE010E94670DCE01DF91CF91F2
:101D10001F910F91FF90EF900895FD82EC82B80122
:101D2000888199810E940722F0CFFC0111821082E4
:101D300013821282158214820C94700EEF92FF921D
:101D40000F931F93CF93DF93EC017B018A01BA01BC
:101D50000E94EB0D81110BC0CE010E94670DCE01D8
:101D6000DF91CF911F910F91FF90EF9008951D8308
:101D70000C83B701888199810E941C2AF0CFFB0156
:101D800001900020E9F73197AF01461B570B0C94E7
:101D90009E0E0F931F93CF93DF93CDB7DEB7299796
:101DA0000FB6F894DEBF0FBECDBF8C01862FF801B1
:101DB00011821082138212821582148240E1BE01C8
:101DC0006F5F7F4F90E00E945922BE016F5F7F4F8F
:101DD000C8010E94BF0E29960FB6F894DEBF0FBE51
:101DE000CDBFDF91CF911F910F910895FB01DC01D1
:101DF00011961C921E9213961C921E921297159683
:101E00001C921E9214978617970749F06081718182
:101E10006115710521F0448155810C949E0E089541
:101E2000FC01118210821382128215821482FB013E
:101E300001900020E9F73197AF01461B570B0C9436
:101E40009E0EAF92BF92CF92DF92EF92FF920F93CE
:101E50001F93CF93DF936C015B017A0189012417F3
:101E6000350720F48F2D7901042F182F62E971E0D6
:101E7000C6010E94100FD5011496CD91DC91EC168D
:101E8000FD06E0F40C171D0708F4E801D501ED91FB
:101E9000FC911197EC0FFD1F108110826D917C91C8
:101EA0006E0D7F1DC60161157105A1F00E94BF0E68
:101EB000F50180819181C80FD91F1883C601DF9178
:101EC000CF911F910F91FF90EF90DF90CF90BF9037
:101ED000AF9008950E94670DEBCFEF92FF920F93A2
:101EE0001F93CF93DF93CDB7DEB7E3970FB6F89488
:101EF000DEBF0FBECDBF7C01CB01BA01F70111825D
:101F00001082138212821582148242E0420F8E01E7
:101F10000F5F1F4F0E941E21009789F0BC01C7016F
:101F20000E94BF0EE3960FB6F894DEBF0FBECDBF82
:101F3000DF91CF911F910F91FF90EF900895C7010E
:101F40000E94670DEFCF85ED8093BC0080913B032D
:101F500090913C03A0913D03B0913E030796A11DD3
:101F6000B11D23E0B695A795979587952A95D1F74A
:101F70002091BC0024FD03C01092390308954091C4
:101F80003B0350913C0360913D0370913E03452B10
:101F9000462B472B69F30097A105B10541F025E1D8
:101FA0002A95F1F700000197A109B109E1CF8091CD
:101FB0003A030C949F050F931F93CF93DF938C01EB
:101FC000EB0188E2FB0111928A95E9F74BE050E0C2
:101FD00063E971E0CE010E94312A1B8681E090E026
:101FE000A0E0B0E08C879D87AE87BF87F801828133
:101FF0009381092E000CAA0BBB0B888B998BAA8BA3
:10200000BB8B8DE090E0A0E0B0E08C8B9D8BAE8B25
:10201000BF8B1CA21DA21EA21FA280E090E0A0E226
:10202000B2EC8C8F9D8FAE8FBF8F80E090E0AAEADC
:10203000B2E4888F998FAA8FBB8F8AE999E9A9E9C1
:10204000BEE388A399A3AAA3BBA3DF91CF911F915D
:102050000F9108950F931F93CF93DF938C01EB01A2
:1020600088E2FB0111928A95E9F74BE050E06BE9B9
:1020700071E0CE010E94312A1B8681E090E0A0E051
:10208000B0E08C879D87AE87BF87F80182819381FE
:10209000092E000CAA0BBB0B888B998BAA8BBB8BD0
:1020A0008CE090E0A0E0B0E08C8B9D8BAE8BBF8B82
:1020B0001CA21DA21EA21FA21C8E1D8E1E8E1F8E74
:1020C00080E090E0A8ECB2E4888F998FAA8FBB8F54
:1020D00080E090E0A0E0B0E488A399A3AAA3BBA30A
:1020E000DF91CF911F910F9108952F923F924F92C0
:1020F0005F926F927F928F929F92AF92BF92CF9298
:10210000DF92EF92FF920F931F93CF93DF9300D054
:1021100000D000D01F92CDB7DEB77C016B011A0151
:102120000E9416032B013C018DEF8F83D70154963B
:102130008D919C915597009701F552962D913C9168
:102140002130310561F426EF2F8305E010E0843063
:10215000910571F484E28F830EE610E028C00AE056
:1021600010E02230310521F420EE2F8302E010E050
:102170008530910589F48EE117C08130910529F4ED
:1021800029E32F830CE414E0F3CF8230910541F46E
:1021900022E32F830EE610E0069749F485E1DBCFBA
:1021A0008330910541F58FE28F830CE414E0F70151
:1021B00084859585DC0114962D913C91232BF1F4B7
:1021C00010E0812F27960FB6F894DEBF0FBECDBF6B
:1021D000DF91CF911F910F91FF90EF90DF90CF9003
:1021E000BF90AF909F908F907F906F905F904F9037
:1021F0003F902F9008950AE010E0A9CFFC012081C4
:1022000031E030933F03209361031092400310921A
:102210006203BE01695F7F4F0E94B006882381F28E
:10222000B80190E080E00E94E302BE016F5F7F4F43
:10223000D7011C968D919C910E94E508182F882348
:1022400009F4BECF0B81CE0101960E940D02081346
:10225000B7CF0E81CE0104960E940D020813B0CFB5
:102260006C81862F90E0982F88276D81680F792FD9
:10227000711D90E080E00E94BF244B015C016981E8
:10228000862F90E0982F88276A81680F792F711D1B
:1022900090E080E00E94BF2420E030E04FE253E471
:1022A0000E94202520E03FEF4FE757E40E94E526FB
:1022B00020E030E044E352E40E947826F701608396
:1022C00071838283938320E030E04AEF52E4C501BA
:1022D000B4010E94202520E03FEF4FE757E40E9421
:1022E000E52620E030E040EC50E40E9478264B01E7
:1022F0005C0120E030E0A9010E948D2718160CF047
:102300007FC020E030E048EC52E4C501B4010E94F7
:10231000BA2487FD06C0812C912C88ECA82E82E47B
:10232000B82ED70114968D929D92AD92BC921797BC
:102330002114310481F1F101349680E2DF011D9214
:102340008A95E9F784E290E0A0E0B0E0F1018083B3
:102350009183A283B383D7011A968D919C91B0E0AB
:10236000A0E084839583A683B7838DE090E0A0E00E
:10237000B0E080879187A287B387408A518A628ABA
:10238000738AF70180819181A281B381F101848BED
:10239000958BA68BB78BC114D10409F412CFF6012B
:1023A000349680E2DF011D928A95E9F784E290E09D
:1023B000A0E0B0E0F60180839183A283B383D701CC
:1023C00018968D919C91B0E0A0E084839583A683BC
:1023D000B7838CE090E0A0E0B0E080879187A2878F
:1023E000B387408A518A628A738AF7018481958112
:1023F000A681B781F601848B958BA68BB78BE1CE36
:10240000812C912C54018DCFAB0170E060E0FC0178
:10241000848195810E94751081E0089550E040E02C
:10242000FC01848195810E94751081E008951F92BE
:102430000F920FB60F9211242F933F938F939F9378
:10244000AF93BF938091E9029091EA02A091EB02D1
:10245000B091EC023091E80226E0230F2D3758F5B9
:102460000296A11DB11D2093E8028093E90290938A
:10247000EA02A093EB02B093EC028091ED029091FE
:10248000EE02A091EF02B091F0020196A11DB11DE4
:102490008093ED029093EE02A093EF02B093F002CE
:1024A000BF91AF919F918F913F912F910F900FBE50
:1024B0000F901F90189529E8230F0396A11DB11DB9
:1024C000D2CF1F920F920FB60F9211242F933F93EA
:1024D0004F935F936F937F938F939F93AF93BF932C
:1024E000EF93FF93E0910201F09103010995FF91B1
:1024F000EF91BF91AF919F918F917F916F915F917C
:102500004F913F912F910F900FBE0F901F901895F4
:102510001F920F920FB60F9211242F933F934F9358
:102520005F936F937F938F939F93AF93BF93EF933B
:10253000FF93E0910001F09101010995FF91EF9166
:10254000BF91AF919F918F917F916F915F914F91CB
:102550003F912F910F900FBE0F901F9018951F92D3
:102560000F920FB60F9211242F933F934F935F93C7
:102570006F937F938F939F93AF93BF93EF93FF934B
:1025800083E693E00E94A403FF91EF91BF91AF9186
:102590009F918F917F916F915F914F913F912F917B
:1025A0000F900FBE0F901F9018951F920F920FB6AD
:1025B0000F9211242F938F939F93EF93FF93E091AA
:1025C0007303F09174038081E0917903F0917A03B1
:1025D00082FD1BC0908180917C038F5F8F7320915F
:1025E0007D03821741F0E0917C03F0E0ED59FC4F50
:1025F000958F80937C03FF91EF919F918F912F9105
:102600000F900FBE0F901F9018958081F4CF1F92EE
:102610000F920FB60F9211242F933F934F935F9316
:102620006F937F938F939F93AF93BF93EF93FF939A
:102630008091B900887F803609F44AC0F0F588326D
:1026400009F4A7C018F5803109F49BC0B8F48823B9
:1026500009F4F9C0883009F494C0FF91EF91BF915B
:10266000AF919F918F917F916F915F914F913F912A
:102670002F910F900FBE0F901F901895883109F47D
:1026800088C0803251F78093370314C0803409F436
:102690009DC040F48033B9F38833F9F68093370353
:1026A00085ECB0C0803509F485C0883509F496C042
:1026B000883499F60E94A30FD0CF883909F48CC0D2
:1026C00038F5883729F050F4883611F0803729F62C
:1026D00083E0809339031092F40157C0883809F4DD
:1026E0007BC0803919F0803809F0B7CF8091F401B0
:1026F000803208F071C0E091F40181E08E0F809388
:10270000F4018091BB00F0E0EC52FE4F80833DC0AD
:10271000803B39F0E0F4803A09F479C0883A09F056
:102720009CCF84E0809339031092D3011092D201A0
:10273000E091F501F091F60109958091D2018111A6
:102740000FC081E08093D2011092B20109C0803C99
:1027500009F4A6CF883C09F4A3CF883B09F07DCFCC
:10276000E091D30181E08E0F8093D301F0E0EE542D
:10277000FE4F80818093BB009091D3018091D20164
:1027800029C0809114038093BB0085EC8093BC002A
:1027900064CF9091360380913503981758F5E091F6
:1027A000360381E08E0F80933603F0E0EB5EFC4F42
:1027B0008081E9CFE091360381E08E0F809336036C
:1027C0008091BB00F0E0EB5EFC4F8083909136037C
:1027D000809135039817C8F285E8D8CFE091360389
:1027E00081E08E0F809336038091BB00F0E0EB5EBA
:1027F000FC4F80838091380381115CCF81E080930E
:10280000130384EA8093BC001092390326CF85EC31
:102810008093BC00109239038091F401803230F42F
:10282000E091F401F0E0EC52FE4F10826091F4016F
:1028300070E0E091F701F091F80184ED91E00995E5
:102840001092F4010ACF1092370334CF1F920F92E7
:102850000FB60F9211248F930FB6F894A89580911C
:102860006000886180936000109260000FBE8F91BD
:102870000F900FBE0F901F901895CF92DF92EF929E
:10288000FF92CF93DF936DE181E094E00E94A60474
:1028900090E034E0959587953A95E1F78A30910577
:1028A0000CF042C0FC01EE0FFF1FE80FF91FE45CC3
:1028B000FE4FC080D180E2800E2C000CFF086EE13C
:1028C00081E094E00E94A604D82F66E281E094E0C3
:1028D0000E94A604C82FD295DF7021E030E040E0CE
:1028E00050E004C0220F331F441F551FDA95D2F762
:1028F000C701B6010E94DE2568EE73E080E090E03B
:102900000E94DE25213131054105510594F04C2FFF
:10291000486066EA81E094E0DF91CF91FF90EF900C
:10292000DF90CF900C944E04CC24CA94DC2C76011A
:10293000C6CF4C2F477FEDCFCF93E3E6F3E0138272
:10294000128288EE93E0A0E0B0E084839583A683B2
:10295000B7832EE531E03183208325EC30E03587E5
:10296000248724EC30E03787268720EC30E0318B59
:10297000208B21EC30E0338B228B22EC30E0358B46
:10298000248B26EC30E0378B268B118E128E138E23
:10299000148EE1E0F4E01382128220E731E031830B
:1029A000208320E52487C1E0C58720E034E0378715
:1029B00026872AE030E0318B208B29E030E0338B12
:1029C000228B22E030E0358B248B168A178A108EFA
:1029D000118E138E128E158E148E178E168E11A2D6
:1029E00010A21482158216821782E3E2F4E01382A9
:1029F000128284839583A683B78382E891E09183D2
:102A0000808363EA71E086E794E00E94100F66E736
:102A100074E080E794E00E94F60E62E971E08AE6D5
:102A200094E00E94100F60E083E00E948202E5E8DB
:102A3000F3E0E491ACE5B4E0EC93E1E7F3E0E4919A
:102A4000F0E0EE0FFF1FEC59FC4F85919491129628
:102A50009C938E9311971B961C921B971D961C920C
:102A60001D971C961C921C971A961C921A971996E1
:102A70001C92199718961C92189717961C921797E4
:102A800016961C92169715961C92159714961C92E2
:102A9000149713961C921397E5E4F4E017821086BE
:102AA000108289E08383C483C583C6831182168A1A
:102AB000158A8FEF838B148AB287A187EFE2F4E047
:102AC0001586148617861686118A108A138A128A2A
:102AD000158A148ACF910895CF93DF93CDB7DEB7CF
:102AE000C154D1090FB6F894DEBF0FBECDBF7894A4
:102AF00084B5826084BD84B5816084BD85B5826003
:102B000085BD85B5816085BD80916E0081608093B3
:102B10006E0010928100809181008260809381001C
:102B2000809181008160809381008091800081602C
:102B3000809380008091B10084608093B100809187
:102B4000B00081608093B00080917A0084608093AF
:102B50007A0080917A00826080937A0080917A0076
:102B60008E7F80937A0080917A00806880937A00CB
:102B70001092C10062E083E00E94820281E08093B3
:102B80000F01E0917303F091740382E08083E09180
:102B90006F03F09170031082E0917103F091720362
:102BA00083E0808310927B03E0917703F0917803B8
:102BB00086E08083E0917503F091760380818061E7
:102BC0008083E0917503F091760380818860808333
:102BD000E0917503F0917603808180688083E091B5
:102BE0007503F091760380818F7D808388E892E081
:102BF0000E94FA0C8BE692E00E94FA0C8AE492E0C2
:102C00000E94FA0C8EE192E00E94FA0C8EED91E0A7
:102C10000E94FA0C61E08FE00E94820261E084E091
:102C20000E94820260E08FE00E94540260E084E033
:102C30000E94540264E670E080E090E00E94E302AB
:102C40001AE0FF24F39403E0E0914E04F0914F0466
:102C500013861586148612861186108617821682B0
:102C600015821482138210924C0410924D0462E378
:102C700070E080E090E00E94E302BE016E5D7F4F55
:102C800080914E0490914F040E94400A882309F4D9
:102C90007AC067E0CE0182960E948A0799A58913BF
:102CA000ECCF80914C048F5F80934C048AA18832D2
:102CB00031F008F04EC0803111F08232F1F680918F
:102CC0004D048F5F80934D0480914504811128C08D
:102CD00080914E0490914F040E940D0ABE016E5DDA
:102CE0007F4F80914E0490914F040E94280840E04D
:102CF00064EB80914E0490914F040E94F407809100
:102D00004E0490914F040E94A107E82E80914E043A
:102D100090914F040E940D0AE11002C0F092450408
:102D20008AA1803109F1BE016F5F7F4FCE0182968B
:102D30000E94E80A882359F08D819AA19B3311F4EF
:102D400087FD12C08F3391F058F48F31C1F080E0CD
:102D50000EC08B3309F4B3CF823409F08ECFAFCFDE
:102D60008F3579F08F3799F78CE001C08AE0909128
:102D70004804981708F081CF809348047ECF89E0FB
:102D8000F6CF8BE0F4CF80914C0481110C94952008
:102D9000015009F059CF115009F0F0C067E971E016
:102DA000CE01C8960E94950E63EB71E0CE018A9623
:102DB0000E94950E2CAD3DAD8EA59FA52817390715
:102DC00009F071C1BE01665D7F4FCE01C8960E94B9
:102DD000850D892B09F067C18AE0482E94E4392ECD
:102DE00023E2622E24E0722E30E2C32ED12C0FE2B9
:102DF00014E042E2A42E43E0B42E53E2852E53E0C9
:102E0000952E5524539464E9262E80913B0490918D
:102E10003C04009711F00E94BC2880913D049091E1
:102E20003E04009739F0DC01ED91FC910280F381C2
:102E3000E02D099580913F0490914004009739F06E
:102E4000DC01ED91FC910280F381E02D099586E093
:102E500090E00E9420287C01FC0130827282618215
:102E60001382D582C48290933C0480933B041092D9
:102E7000F2021092F10210924003109262030E943B
:102E80008105B092F601A092F5019092F80180922E
:102E9000F701D70113965C92C7010E944F07882360
:102EA00009F479C0298280913B0490913C04FC0193
:102EB00024813581232B09F46EC0208150923F0379
:102EC000209361031092400310926203BE016F5F72
:102ED0007F4F0E94B006882309F45DC061E070E076
:102EE00080E090E00E94E30286E090E00E942028CB
:102EF000FC018CE291E09183808381E094E09383F4
:102F0000828315830483F0934004E0933F0486E0BA
:102F100090E00E942028FC018EE191E09183808363
:102F200080E094E09383828315830483F0933E04CE
:102F3000E0933D046FEA71E08AE694E00E94700E2F
:102F400081E090E090934204809341041092440405
:102F5000109243048BE991E00E94130489E88AA34C
:102F600080913B0490913C04DC0114962D913C919E
:102F7000232BD9F460E070E0CB015AC068EC70E01C
:102F800080E090E00E94E3025ECE01960E94C90EAE
:102F9000C12C0C94D7204A9441107EC069E971E09D
:102FA000CE0182960E94950E56C0FC01208150925F
:102FB0003F03209361031092400310926203BE010D
:102FC0006E5D7F4F0E94B0068823A1F26AE070E038
:102FD00080E090E00E94E302BE016F5F7F4F80912E
:102FE0003B0490913C040E94E508882319F2CE012D
:102FF00001960E940D029B818913BCCFCE010496DD
:103000000E940D029E818913B5CF69817A8176274E
:103010006727762790E080E0982F872F762F662706
:103020002C81622B982F872F762F66272D81622B7C
:103030001BA21AA21DA21CA21FA21EA220E1AE0169
:103040004F5F5F4F0E943722BE016F5F7F4FCE01FF
:1030500082960E94BF0EBE016E5D7F4FCE01C89664
:103060000E94B20DCE0182960E94790DCE018A9601
:103070000E94790D08AD19AD01151105E1F0D801D7
:103080008C918823C1F0082E000C990B0E94022A13
:10309000F80181938F01F3CF68EC70E080E090E05D
:1030A0000E94E302B2CEBE01685C7F4FCE018296E1
:1030B0000E94F60ED0CFBE01685C7F4F80E794E09F
:1030C0000E94690E80E794E00E94060DCE01C8962A
:1030D0000E94790D61E0809111040E94820261E0FA
:1030E000809111040E945402809113049091140461
:1030F0008F3F9807C9F061E00E94820260E08091F2
:1031000013040E9454026AE070E080E090E00E94A4
:10311000E30261E0809113040E9454026AE070E0CF
:1031200080E090E00E94E3021FB7F8948091F901DB
:10313000811127C0E8E7F3E08491ECE8F3E0949193
:10314000E82FF0E0EE0FFF1FE45CFC4FA591B49177
:10315000EC91E92321F461E08AE00E94540261E0ED
:103160008AE00E9482028CB580618CBD8CB580643F
:103170008CBD61E08DE00E94820261E08BE00E94E4
:1031800082028091F9018F5F8093F9011FBF62E491
:1031900081E094E00E94A604823109F025C240E853
:1031A00061E881E094E00E944E0480EC9AECA9E88A
:1031B000B6E38093170490931804A0931904B09376
:1031C0001A0444EE66E881E094E00E944E0440EC6C
:1031D00067E881E094E00E944E0440E068E881E006
:1031E00094E00E944E0440E06EE881E094E00E948A
:1031F0004E0440E06FE881E094E00E944E046CE0F1
:1032000081E094E00E94A604482F43606CE881E0CE
:1032100094E00E944E0444E066EA81E094E00E945B
:103220004E0481E190E00E9479040E947304809131
:103230000E0190E00E9479046DE181E094E00E942B
:10324000A6048F70482F40676DE981E094E00E94EA
:103250004E040E943D1443EC61EB81E094E00E9437
:103260004E044AE067EB81E094E00E944E046EE178
:1032700081E094E00E94A6048F70482F406C6EE9B4
:1032800081E094E00E944E040E943D146DE181E0D3
:1032900094E00E94A604817F482F42606DE981E09E
:1032A00094E00E944E040E94730485EB91E00E941A
:1032B000FA0C0E94F20C88E199E20FB6F894A895F6
:1032C000809360000FBE90936000A89566E774E05D
:1032D000CE0101960E94F60E6AE373E0CE010196DC
:1032E0000E94130E811104C0CE0101960E94670D49
:1032F0008091740490917504892B71F0E0907004B2
:10330000F090710469817A81C7010E94402A8C0182
:103310000E191F09892B11F40FEF1FEFCE01019633
:103320000E94790D012B09F46EC066E373E0CE01B3
:1033300001960E94950E20916E0430916F048D814C
:103340009E812817390751F4BE016F5F7F4F8AE6CF
:1033500094E00E94850D11E0892B09F010E0CE0168
:1033600001960E94790D112309F43FC14BE952E007
:103370006FEB72E08FE294E00E9475100091AF0253
:103380001091B0022091B1023091B2020093040179
:103390001093050120930601309307014091D30259
:1033A0005091D4026091D5027091D60240930801E9
:1033B0005093090160930A0170930B018091FA0107
:1033C00090E0FC01EE0FFF1FEE0FFF1FDF01A55B7A
:1033D000BD4F0D931D932D933C931397E550FE4FD6
:1033E0004083518362837383019664E170E00E949D
:1033F000F2278093FA018BE492E00E945A0B8BEF44
:1034000091E00E945A0BA89561E08FE00E9454025F
:1034100000EB10E0C8010197F1F70E94F7015C0191
:1034200060E08FE00E94540264E670E080E090E08B
:103430000E94E30261E084E00E945402C801019707
:10344000F1F70E94F7018C0160E084E00E945402D1
:103450000E9495086B017C01B501BB0C880B990B90
:103460000E94C12420E030E040E85AE30E94202579
:10347000A70196010E9420254B015C01B801110FA4
:10348000880B990B0E94C12420E030E040E85AE309
:103490000E942025A70196010E9420252B013C01B6
:1034A000A5019401C701B6010E94782620E030E40E
:1034B0004CE156E40E942025A50194010E94E526D6
:1034C0004B015C0120E030E44CE156E4C301B20161
:1034D0000E94202522966CAF7DAF8EAF9FAF2297C2
:1034E000A3019201C701B6010E9478269B01AC019D
:1034F00022966CAD7DAD8EAD9FAD22970E94E526E4
:103500009B01AC01C501B4010E94792620E030E0A6
:1035100040E05FE30E9420250E9457278B01072E81
:10352000000C880B990B0E94C1246B017C014B019C
:103530005C01E894B7F82FEF3FEF4FE75FE7C50175
:10354000B4010E94D82781110BC02FEF3FEF4FE746
:103550005FE7C501B4010E94BA2418160CF406C432
:1035600020E030E04AE754E4C701B6010E94E526B6
:103570006B017C0101342FE112070CF4D3C123EE5F
:1035800035EA47EA50E40E9420259B01AC0167E739
:103590007EEB8FE090EC0E9478264B015C0126EEDA
:1035A0003CE54AE85DE3C701B6010E942025A7017A
:1035B00096010E9420259B01AC01C501B4010E9427
:1035C00078262DEC3CEC4CE85FE30E9420256B0153
:1035D0007C0120E030E0A9010E948D2718160CF034
:1035E000EAC1C701B601EAC1FFCF80E090E0A0E8E0
:1035F000BFEB8093080190930901A0930A01B09357
:103600000B0143E0F42E80914E0490914F040E94F0
:103610000D0A40E06CEC80914E0490914F040E94A2
:10362000F4074091450464E480914E0490914F0466
:103630000E94F4070E9416034B015C01809149042B
:103640008823E1F080914A04882309F490C0809196
:10365000450481118CC080914E0490914F040E94CA
:10366000A107813059F00E941603681979098A0967
:103670009B096E3E72408105910568F380914C0470
:1036800081119EC0812C912C2EEFA22E22ECB22E05
:10369000A89520E030E04EEF52ECC501B4010E9445
:1036A000BA248823F1F020E030E04AEA52E4C50170
:1036B000B4010E94BA248823A1F020E030E040EF5A
:1036C00051ECC501B4010E94BA24181654F420E04C
:1036D00030E04CE852E4C501B4010E948D2787FD1B
:1036E0001FC5FA94F1108FCF20E030EC49E754EC7D
:1036F000C501B4010E94BA24882341F120E030E0E2
:103700004EEF52ECC501B4010E94BA248823F1F0B7
:1037100020E030E04AEA52E4C501B4010E94BA2434
:103720008823A1F020E030E040EF51ECC501B40166
:103730000E948D27181654F420E030E04CE852E443
:10374000C501B4010E94BA2487FD08C0809004011D
:1037500090900501A0900601B090070180920401AD
:1037600090920501A0920601B09207014CCEE09123
:103770004804E9508EEE92E0E33038F4F0E0EE0FCA
:10378000FF1FEA5CFE4F808191814C01B12CA12C7E
:1037900080914604882329F060E0809147040E94CC
:1037A0005402C501B4010E94E302809146048823BB
:1037B00009F464CF61E0809147040E9454025ECF17
:1037C000CE0182960E94C00A882309F45BCFBE0115
:1037D0006F5F7F4FCE0182960E94E80A882309F42A
:1037E00051CF4A81812C912C540147FF06C0812C76
:1037F000912C98EFA92EBB24BA947AA159817B33DE
:10380000D9F58D8187FF38C050FD3CCF052F10E0E2
:1038100030E020E0B3E0000F111F221F331FBA95E4
:10382000D1F7007E17702227332750E070E060E068
:103830008BE0440F551F661F771F8A95D1F7042B25
:10384000152B262B372B082919292A293B29013822
:10385000F4EE1F07FFEF2F073F070CF413CFC9014A
:10386000B8010E94C12420E030E040E05CE30E9407
:1038700020254B015C010CCF042F10E0102F0027F6
:10388000110F110F110FB8E05B9FC0011124802BA5
:10389000912B092E000CAA0BBB0B8C019D01082952
:1038A00019292A293B29783269F4503531F44530F9
:1038B00071F68F818C3059F6E5CE5F3F41F6473087
:1038C00031F6E0CE703119F66885662309F4BFCF72
:1038D00070E08F81FB01E81BF109CF019695982FCD
:1038E0008827979587950E94F227CB01770FAA0B1F
:1038F000BB0BF3E0000F111F221F331FFA95D1F706
:103900000078277033270052110921093109800FEF
:10391000911FA21FB31F95018401082B192B2A2B7D
:103920003B2B95CF093E43E014075CF12BEC31EAC9
:103930004DE450EC0E9420252BED39EF42E850E495
:103940000E9478264B015C0129E237E74FE15CE3F6
:10395000C701B6010E9420259B01AC0160E070E028
:1039600080E89FE30E94782626E032E144E95EE3A6
:103970000E9478269B01AC01C501B4010E94E52696
:1039800020CE073252E015070CF4EAC12DE73FE3E1
:1039900049EB51E40E94202528EA36EC4BE451E43F
:1039A0000E9478266B017C0120E030E0A9010E9492
:1039B000BA2487FF16CEC701B60190580E94572738
:1039C000072E000C880B990B0E94C1246093E4021F
:1039D0007093E5028093E6029093E70210910E0146
:1039E0001B3088F00E94950820E030E040E450E46D
:1039F0000E948D2718163CF4125010930E01812F4F
:103A000090E00E94790415E048E1C42E59E0D52EDB
:103A1000A89560E774E0CE01C2960E94F60E62ECB3
:103A200072E0CE01C2960E94130E4091E4025091C2
:103A3000E5026091E6027091E70222E0CE01019674
:103A40000E946D0FBE016F5F7F4FCE01C2960E9434
:103A5000690ECE0101960E94790D60EC72E0CE01F4
:103A6000C2960E94130E4091080150910901609185
:103A70000A0170910B0120E0CE0101960E946D0FAA
:103A8000BE016F5F7F4FCE01C2960E94690ECE01CC
:103A900001960E94790D6EEB72E0CE01C2960E94F3
:103AA000130E40910401509105016091060170913F
:103AB000070121E0CE0101960E946D0FBE016F5FEC
:103AC0007F4FCE01C2960E94690ECE0101960E94E0
:103AD000790D6CEB72E0CE01C2960E94130E0E942B
:103AE0009508AB01BC0121E0CE0101960E946D0F4B
:103AF000BE016F5F7F4FCE01C2960E94690ECE015C
:103B000001960E94790D6AEB72E0CE01C2960E9486
:103B1000130EBE016E5C7F4FCE018A960E94F60E98
:103B2000CE018A960E94C4081BA21AA21DA21CA242
:103B30001FA21EA24AE0BE016F5F7F4F0E941722A4
:103B4000BE016F5F7F4FCE0182960E94BF0EBE0105
:103B50006E5D7F4FCE01C2960E94690ECE018296A5
:103B60000E94790DCE018A960E94790D0E947304FD
:103B700089EC92E00E9413044EA95FA96AA97BA96F
:103B800083E693E00E94260387EC92E00E941304F0
:103B900060910E0170E090E080E04AE00E94A40C89
:103BA00084EC92E00E94FA0C61E081E094E00E94D3
:103BB000A60483708330E9F062E181E094E00E9422
:103BC000A60483FF06C048E062E981E094E00E9419
:103BD0004E040E9473040E94A90440E06DE881E055
:103BE00094E00E944E0440E062EA81E094E00E948A
:103BF0004E044EA95FA96AA97BA981E094E00E94C6
:103C0000090543E861E881E094E00E944E0462E126
:103C100081E094E00E94A60483FFF9CF48E062E9C6
:103C200081E094E00E944E0464E670E080E090E061
:103C30000E94E30240E861E881E094E00E944E04C3
:103C4000CE01C2960E94790DA8950E9416034B01E1
:103C50005C0181149104A104B10411F00E94D721E8
:103C60000E94882128E833E140E050E00E94DE25F0
:103C70002B013C01A0ED4A0EA7E05A1E611C711CED
:103C80000E941603681979098A099B09641575054C
:103C90008605970508F011C262E181E094E00E9478
:103CA000A604082F0E94A904402F62E981E094E055
:103CB0000E944E0406FF5DC005FD5BC010921C040F
:103CC00010921B0480911D0490911E0462E2892BC6
:103CD00009F463E181E094E00E94A604E82EF12C4F
:103CE00060E181E094E00E94A604482F6DE881E045
:103CF00094E00E944E040E947304EF2809F04EC025
:103D000080917A008F7780937A008091640081603F
:103D1000809364000FB6F894A895C09260000FBE1F
:103D2000D09260008091600080648093600083B7CF
:103D3000817F83BFF89483B7816083BF789488952F
:103D400083B78E7F83BF7894809164008E7F809349
:103D5000640080917A00806880937A00A89590CF63
:103D600060EF70E00D3211400CF42ACE70E060E09C
:103D700027CE61E081E094E00E94A604863809F431
:103D8000BFCF40E06DE881E094E00E944E0446E839
:103D900061E881E094E00E944E04B2CF62E971E0F4
:103DA000CE01C2960E94100F81E094E00E94FB04B5
:103DB000892B89F081E094E00E94E00489831A82D3
:103DC00041E050E0BE016F5F7F4FCE01C2960E947E
:103DD0003D0EA895E9CF40917404509175048EA9C9
:103DE0009FA98417950708F45BC18AA99BA900972E
:103DF00009F456C1609170047091710461157105E8
:103E000009F44EC10E94232A892B09F049C1BE0141
:103E10006E5C7F4FCE0182960E94F60E6EEC72E0D1
:103E2000CE0101960E94950E4EA15FA18D819E81CB
:103E3000481B590BBE016F5F7F4FCE0182960E94D7
:103E4000190D7C01CE0101960E94790DBFEFEB1A8E
:103E5000FB0A2EA13FA1A701BE016E5D7F4FCE01DF
:103E600001960E94210F89819A81009709F411C15E
:103E70000E94E02122966CAF7DAF8EAF9FAF22975C
:103E8000CE0101960E94790D970150E040E0BE01FD
:103E90006E5D7F4FCE0101960E94210FBE016F5FC4
:103EA0007F4FCE0182960E94B20DCE0101960E94F4
:103EB000790DBE016E5D7F4FCE0101960E94F60E18
:103EC000CE0101960E94C4087C01CE0101960E9499
:103ED000790DCE0182960E94790DEEADFFADEE1602
:103EE000FF0609F0DDC0BE016E5C7F4FCE018A96F1
:103EF0000E94F60E62ED72E0CE0101960E94950ED0
:103F00008EA59FA5892B61F0EAA4FBA469817A8123
:103F1000C7010E94402A8C010E191F09892B11F438
:103F20000FEF1FEFCE0101960E94790D60ED72E058
:103F3000CE0182960E94950E4EA55FA58EA19FA1EF
:103F4000481B590BBE016E5D7F4FCE018A960E94C1
:103F5000190DA8014F5F5F4F9C01BE01665D7F4F49
:103F6000CE0101960E94210FBE016F5F7F4FCE01EF
:103F70008A960E94B20DCE0101960E94790DCE0163
:103F800082960E94790D8AA59BA5C12CD12C760121
:103F9000009719F00E94E0216B01D0920D01C092B0
:103FA0000C01CE018A960E94790D86E193E00E9471
:103FB00013040D2C000CEE08FF084AE0C701B601FF
:103FC000F7FE0DC06DE283E693E00E94C60366270C
:103FD0007727CB016C197D098E099F094AE00E9461
:103FE000A40C82E193E00E94FA0CCE01C2960E94DA
:103FF000790D83E693E00E942E0460910C0170918C
:104000000D01072E000C880B990B0E94C12420E0A3
:1040100030E040EF50E40E9420250E9457277B01AA
:1040200010E000E093E5C92E93E0D92E25E8A22EFA
:1040300023E0B22E31E7832E33E0932E0E151F05B9
:104040000CF061C0A89530E020E050E040E069E06D
:1040500070E083EE92E00E944708A895F6018491F3
:10406000F5016490F4017490772009F44CC081113B
:104070000E942B02E72DF0E0EE0FFF1FEC59FC4FE2
:10408000A591B4918C91682209F43DC00F5F1F4F38
:10409000D5CF22961CAE1DAE1EAE1FAE2297F0CE1F
:1040A00089EF92E00E941304CE01C2960E94060D91
:1040B000CE01C2960E94790D23CE8FED92E00E9430
:1040C00013044AE0C301B2010E94A40C84ED92E003
:1040D0000E94FA0C80910E01843130F48E5F80933F
:1040E0000E0190E00E947904115009F482CF0E94E1
:1040F000950820E030E040E450E40E948D27181637
:104100000CF486CC76CF80E090E0892B09F4DDC8F2
:104110000E949003882309F4D8C80E940000D5C8E3
:1041200020E030EC49E754ECF7CACE018A960E94B1
:10413000C00AD82E882311F40C94CB1664E971E0E0
:104140008AE694E00E94700E82E891E00E941304D7
:1041500062E971E0CE01C8960E94100F8E01065DE3
:104160001F4F7E0122E3E20EF11CD8016D918D01FB
:10417000CE01603110F00C94C51782960E94C90ED2
:104180006DEA71E0C7010E94100F4EA15FA16AA104
:104190007BA1C7010E943D0E811103C0C7010E948F
:1041A000670DB701CE0101960E94F60ECD2CBE011F
:1041B0006F5F7F4FCE01C8960E94690ECE010196B7
:1041C0000E94790DCC2039F0C7010E94790DCE01F3
:1041D00082960E94790DE016F10639F60C94D416F9
:1041E00080913B0490913C04009711F00E94BC2800
:1041F00080913D0490913E04009739F0DC01ED91EF
:10420000FC910280F381E02D099580913F0490910B
:104210004004009739F0DC01ED91FC910280F381BC
:10422000E02D09958AE694E00E94790D80E794E0FC
:104230000E94790D86E794E00C94790DEF920F932C
:104240001F93CF93DF93E80134E047FD34E1042E60
:10425000000C550B57FF03C0519541955109E32EB2
:10426000022F242FAE010E947322CE01DF91CF9145
:104270001F910F91EF9008958F929F92AF92BF92EE
:10428000CF92DF92EF92FF92CF93DF93EC016881A0
:1042900079818A819B81611571058105910521F4E0
:1042A00064E279ED8BE597E02DE133EF41E050E0FA
:1042B0000E94DE2549015A019B01AC01A7EAB1E445
:1042C0000E94FD256B017C01ACEEB4EFA5019401C9
:1042D0000E940B26C60ED71EE81EF91EF7FE06C06A
:1042E00081E0C81AD108E10880E8F80AC882D982BA
:1042F000EA82FB82C701B6019F77DF91CF91FF90E1
:10430000EF90DF90CF90BF90AF909F908F900895E7
:104310008F929F92AF92BF92CF92DF92EF92FF92D5
:10432000609110017091110180911201909113011F
:10433000611571058105910521F464E279ED8BE544
:1043400097E02DE133EF41E050E00E94DE25490186
:104350005A019B01AC01A7EAB1E40E94FD256B0163
:104360007C01ACEEB4EFA50194010E940B26C60EB1
:10437000D71EE81EF91EF7FE06C081E0C81AD10854
:10438000E10880E8F80AC0921001D0921101E09291
:104390001201F0921301C701B6019F77FF90EF90D1
:1043A000DF90CF90BF90AF909F908F9008956093D3
:1043B00010017093110180931201909313010895DD
:1043C0001F93FC0199278827BC01E89411911032B2
:1043D000E9F3193010F01E30C8F31B3251F01D32D2
:1043E00049F4689406C00E942222610F711D811D4C
:1043F000911D119110531A30B0F33EF490958095B1
:10440000709561957F4F8F4F9F4F1F910895FB01CE
:10441000DC0105900D920020E1F70895FC01059064
:104420000020E9F7809590958E0F9F1F0895BB2778
:104430004A3031F4992322F4BDE2909581959F4F43
:104440000C945A22592F482F372F262F660F771F8B
:10445000881F991F660F771F881F991F620F731F90
:10446000841F951F660F771F881F991F0895BB270C
:10447000FA01A62F6217710581059105330B30FBF8
:1044800066F0AA27660F771F881F991FAA1FA21719
:1044900010F0A21B63953850A9F7A05DAA3308F06D
:1044A000A95DA19336F7B111B1931082CA010C94A2
:1044B000AA24BB27FB015527AA27880F991FAA1FEB
:1044C000A41710F0A41B83955051B9F7A05DAA332F
:1044D00008F0A95DA193009779F7B111B1931192FA
:1044E000CB010C94AA24A9E0B0E0E9E7F2E20C9435
:1044F00016266A01F22EB02E102FFBE3AF2EA01667
:1045000008F41BE31F5F012F27E0AE014F5F5F4FF1
:104510000E94D223BC018981982F9970913009F4AF
:104520003FC09BE2E1FC04C09E2D9170E0FC3AC0CC
:104530005E2D5071E82FE87083FF46C084E0911132
:1045400001C083E0EF2DE81B8F1508F0E0E0D601F5
:104550008E2F20E2552351F1992329F0D6019C9307
:10456000C60101966C0196012D5F3F4FE2FE24C00B
:104570008EE4D6018C9391E411969C931197129638
:104580008C93D9018E2F90E281111BC0E20FF32F83
:10459000F11D10828EEF9FEF2996ECE00C943226ED
:1045A0009DE2C6CF90E2C4CF2D9381508111FCCF04
:1045B000CE0ED11CE0E0D0CF8EE6D6018C9391E6F2
:1045C000DBCF9D938150E0CF482F447082FF3DC0E8
:1045D00084E0911101C083E08F1510F4EF2DE81BEA
:1045E000D6018E2F20E2552309F1992329F0D60117
:1045F0009C93C60101966C0196012D5F3F4FE2FE30
:104600001BC089E4D6018C938EE411968C9311978C
:1046100086E412968C93D9018E2F90E2882309F4B8
:10462000B5CF9D938150FACF2D9381508111FCCF4E
:10463000CE0ED11CE0E0D9CF89E6D6018C938EE670
:1046400011968C93119786E6E4CF9B0177FF02C009
:1046500030E020E0A1E0B0E0911102C0B0E0A0E0C5
:10466000F9013196AE0FBF1F8B2C912CBB2009F4A2
:1046700061C05401EFEFAE1ABE0AAA0DBB1DFA16B7
:104680001B0619F014F04F2D4A1B511188C0E3FC92
:1046900059C07601A42FB0E2A1114FC0C40ED11CA5
:1046A000992309F45BC040E0D6011196F60190838E
:1046B0006D01552309F448C0012F060F9A81582F28
:1046C000507184FF03C0913309F4015010160CF0AF
:1046D00047C0093008F008E0EEE2FE2E5B01A01AA8
:1046E000B10885019194819491082F3F320729F4F4
:1046F000D601FC92F60131966F016217730794F1AF
:10470000021713077CF5DB01A21BB30BAA24A394A9
:10471000B12CAC0EBD1EAA0DBB1D11968C91215063
:104720003109D601119628153905F4F0F601808378
:104730006D01DBCFB12CA12CA0CFF701B1937F018C
:10474000A150AACF9111B0CFD601942F50E302C04F
:104750005D9391509111FCCFC40ED11C40E0ACCFC1
:1047600001E0BACF80E3DBCF6217730731F49633F1
:1047700088F4953311F4552369F0F6018083FD0127
:10478000842F90E2811108C0A40FB11D1C9290E00B
:1047900080E002CF81E3F1CF91938150F3CF91116B
:1047A00083CF8ACF283008F027E03327DA01990F2A
:1047B000311D87FD916000966105710539F4326005
:1047C0002E5F3D9330E32A95E1F708959F3F30F047
:1047D00080387105610509F03C5F3C5F3D93913085
:1047E00008F08068911DDF93CF931F930F93FF9282
:1047F000EF92192F987F9695E92F96959695E90F48
:10480000FF27EE53FF4F99273327EE24FF24A701FC
:10481000E70105900894079428F4360FE71EF81E68
:10482000491F511D660F771F881F991F0694A1F716
:104830000590079428F4E70EF81E491F561FC11D66
:10484000770F881F991F661F0694A1F7059007949C
:1048500028F4F80E491F561FC71FD11D880F991F36
:10486000661F771F0694A1F70590079420F4490F5F
:10487000561FC71FD81F990F661F771F881F0694E2
:10488000A9F784911095177041F0D695C795579563
:104890004795F794E7941A95C1F7E8E6F0E0689435
:1048A0001590159135916591959105907FE27395DD
:1048B000E118F10A430B560BC90BD009C0F7E10C04
:1048C000F11E431F561FC91FD01D7EF4703311F413
:1048D0008A95E6CFE894015030F0080F0AF40027DB
:1048E000021708F4202F2395022F7A3328F079E35A
:1048F0007D932A95E9F710C07D932A9589F6069451
:1049000097956795379517951794E118F10A430B1A
:10491000560BC90BD00998F023957E9173957A3385
:1049200008F070E37C932013B8F77E9170617D935B
:1049300030F0839571E37D9370E32A95E1F71124BC
:10494000EF90FF900F911F91CF91DF91992787FDF5
:1049500090950895DC01FC01672F71917723E1F7B1
:10496000329704C07C916D9370836291AE17BF073C
:10497000C8F308950E94FC2408F481E00895E894A7
:1049800009C097FB3EF490958095709561957F4F97
:104990008F4F9F4F9923A9F0F92F96E9BB27939545
:1049A000F695879577956795B795F111F8CFFAF455
:1049B000BB0F11F460FF1BC06F5F7F4F8F4F9F4F86
:1049C00016C0882311F096E911C0772321F09EE8E4
:1049D000872F762F05C0662371F096E8862F70E04A
:1049E00060E02AF09A95660F771F881FDAF7880F24
:1049F0009695879597F90895990F0008550FAA0B7A
:104A0000E0E8FEEF16161706E807F907C0F01216E1
:104A10001306E407F50798F0621B730B840B950BE4
:104A200039F40A2661F0232B242B252B21F4089539
:104A30000A2609F4A140A6958FEF811D811D0895D6
:104A40000E9433250C94A4250E94962538F00E94DC
:104A50009D2520F0952311F00C948D250C94932521
:104A600011240C94D8250E94B52570F3959FC1F3AD
:104A7000950F50E0551F629FF001729FBB27F00D0C
:104A8000B11D639FAA27F00DB11DAA1F649F662761
:104A9000B00DA11D661F829F2227B00DA11D621FB0
:104AA000739FB00DA11D621F839FA00D611D221F6A
:104AB000749F3327A00D611D231F849F600D211D4E
:104AC000822F762F6A2F11249F5750409AF0F1F0D1
:104AD00088234AF0EE0FFF1FBB1F661F771F881F3A
:104AE00091505040A9F79E3F510580F00C948D25C0
:104AF0000C94D8255F3FE4F3983ED4F386957795E0
:104B00006795B795F795E7959F5FC1F7FE2B880FDF
:104B1000911D9695879597F9089597F99F6780E875
:104B200070E060E008959FEF80EC089500240A94FF
:104B30001616170618060906089500240A94121678
:104B40001306140605060895092E0394000C11F4AB
:104B5000882352F0BB0F40F4BF2B11F460FF04C058
:104B60006F5F7F4F8F4F9F4F089557FD9058440FB1
:104B7000551F59F05F3F71F04795880F97FB991FBC
:104B800061F09F3F79F08795089512161306140679
:104B9000551FF2CF4695F1DF08C016161706180606
:104BA000991FF1CF86957105610508940895E894E1
:104BB000BB2766277727CB0197F90895052E97FB2A
:104BC0001EF400940E94F52557FD07D00E94472649
:104BD00007FC03D04EF40C94F52550954095309584
:104BE00021953F4F4F4F5F4F089590958095709559
:104BF00061957F4F8F4F9F4F08950E946926A59F13
:104C0000900DB49F900DA49F800D911D11240895C7
:104C1000B7FF0C94FD250E94FD25821B930B089580
:104C20002F923F924F925F926F927F928F929F92BC
:104C3000AF92BF92CF92DF92EF92FF920F931F93AA
:104C4000CF93DF93CDB7DEB7CA1BDB0B0FB6F8945B
:104C5000DEBF0FBECDBF09942A88398848885F849B
:104C60006E847D848C849B84AA84B984C884DF800C
:104C7000EE80FD800C811B81AA81B981CE0FD11DF0
:104C80000FB6F894DEBF0FBECDBFED010895A1E2CF
:104C90001A2EAA1BBB1BFD010DC0AA1FBB1FEE1FB6
:104CA000FF1FA217B307E407F50720F0A21BB30B01
:104CB000E40BF50B661F771F881F991F1A9469F77D
:104CC00060957095809590959B01AC01BD01CF01D9
:104CD0000895A29FB001B39FC001A39F700D811DD5
:104CE0001124911DB29F700D811D1124911D0895F5
:104CF0005058BB27AA270E9490260C94A4250E94F6
:104D0000962538F00E949D2520F039F49F3F19F434
:104D100026F40C9493250EF4E095E7FB0C948D2576
:104D2000E92F0E94B52558F3BA1762077307840765
:104D3000950720F079F4A6F50C94D7250EF4E095AC
:104D40000B2EBA2FA02D0B01B90190010C01CA0145
:104D5000A0011124FF27591B99F0593F50F4503EF0
:104D600068F11A16F040A22F232F342F4427585FE2
:104D7000F3CF469537952795A795F0405395C9F7FA
:104D80007EF41F16BA0B620B730B840BBAF09150B2
:104D9000A1F0FF0FBB1F661F771F881FC2F70EC051
:104DA000BA0F621F731F841F48F487957795679524
:104DB000B795F7959E3F08F0B0CF9395880F08F010
:104DC0009927EE0F9795879508950E94F9260C94E0
:104DD000A4250E949D2558F00E94962540F029F4B4
:104DE0005F3F29F00C948D2551110C94D8250C941B
:104DF00093250E94B52568F39923B1F3552391F3C8
:104E0000951B550BBB27AA2762177307840738F039
:104E10009F5F5F4F220F331F441FAA1FA9F335D096
:104E20000E2E3AF0E0E832D091505040E695001C4A
:104E3000CAF72BD0FE2F29D0660F771F881FBB1F04
:104E4000261737074807AB07B0E809F0BB0B802DE2
:104E5000BF01FF2793585F4F3AF09E3F510578F00E
:104E60000C948D250C94D8255F3FE4F3983ED4F341
:104E7000869577956795B795F7959F5FC9F7880FE2
:104E8000911D9695879597F90895E1E0660F771F34
:104E9000881FBB1F621773078407BA0720F0621BC5
:104EA000730B840BBA0BEE1F88F7E09508950E94F0
:104EB0005E276894B1110C94D82508950E94BD25F1
:104EC00088F09F5798F0B92F9927B751B0F0E1F0CB
:104ED000660F771F881F991F1AF0BA95C9F714C07B
:104EE000B13091F00E94D725B1E008950C94D725F8
:104EF000672F782F8827B85F39F0B93FCCF38695B4
:104F000077956795B395D9F73EF490958095709510
:104F100061957F4F8F4F9F4F08950E94FC2408F4A6
:104F20008FEF089519F416F40C9493250C94DD2753
:104F30000E94BD25B8F39923C9F3B6F39F57550BCB
:104F400087FF0E94EB270024A0E640EA90018058EA
:104F50005695979528F4805C660F771F881F20F080
:104F600026173707480730F4621B730B840B202980
:104F700031294A2BA69517940794202531254A27D5
:104F800058F7660F771F881F20F026173707480746
:104F900030F4620B730B840B200D311D411DA09565
:104FA00081F7B901842F9158880F969587950895B8
:104FB0000E94FC24880B990B08959F3F31F091507B
:104FC00020F4879577956795B795880F911D9695ED
:104FD000879597F9089591505040660F771F881F65
:104FE000D2F7089597FB072E16F4009407D077FDAB
:104FF00009D00E94062807FC05D03EF490958195C3
:105000009F4F0895709561957F4F0895AA1BBB1B14
:1050100051E107C0AA1FBB1FA617B70710F0A61BB8
:10502000B70B881F991F5A95A9F780959095BC01D9
:10503000CD010895EE0FFF1F0590F491E02D099426
:105040000F931F93CF93DF938230910510F482E08A
:1050500090E0E0917E04F0917F0430E020E0B0E049
:10506000A0E0309799F42115310509F44AC0281BB6
:10507000390B24303105D8F58A819B816115710582
:1050800089F1FB0193838283FE0111C0408151812C
:105090000281138148175907E0F04817590799F41E
:1050A000109761F012960C93129713961C933296F8
:1050B000CF01DF91CF911F910F91089500937E044E
:1050C00010937F04F4CF2115310551F04217530797
:1050D00038F0A901DB019A01BD01DF01F801C1CF60
:1050E000EF01F9CF90937F0480937E04CDCFFE0132
:1050F000E20FF31F81939193225031093983288362
:10510000D7CF20917C0430917D04232B41F4209152
:1051100016013091170130937D0420937C04209177
:105120001401309115012115310541F42DB73EB719
:105130004091180150911901241B350BE0917C041A
:10514000F0917D04E217F307A0F42E1B3F0B281704
:10515000390778F0AC014E5F5F4F2417350748F0F0
:105160004E0F5F1F50937D0440937C048193919375
:105170009FCFF0E0E0E09CCFCF93DF930097E9F082
:10518000FC01329713821282A0917E04B0917F04B9
:10519000ED0130E020E01097A1F420813181820FF1
:1051A000931F20917C0430917D042817390709F062
:1051B00061C0F0937D04E0937C04DF91CF9108956A
:1051C000EA01CE17DF07E8F54A815B819E014115B0
:1051D0005105B1F7E901FB83EA8349915991C40F65
:1051E000D51FEC17FD0761F4808191810296840F31
:1051F000951FE90199838883828193819B838A83A8
:10520000F0E0E0E012968D919C9113970097B9F52C
:105210002D913C911197CD010296820F931F209101
:105220007C0430917D042817390739F6309751F501
:1052300010927F0410927E04B0937D04A0937C04AE
:10524000BCCFD383C28340815181840F951FC8177F
:10525000D90761F44E5F5F4F88819981480F591FCC
:10526000518340838A819B819383828321153105F9
:1052700009F0B0CFF0937F04E0937E049ECFFD0150
:10528000DC01C0CF13821282D7CFB0E0A0E0EBE404
:10529000F9E20C9412268C01009751F4CB010E9484
:1052A00020288C01C801CDB7DEB7E0E10C942E2692
:1052B000FC01E60FF71F9C0122503109E217F307AA
:1052C00008F49DC0D901CD91DC911197C617D7077D
:1052D00098F0C530D10530F3CE01049786179707B3
:1052E00008F3C61BD70B2297C193D1936D937C9380
:1052F000CF010E94BC28D6CF5B01AC1ABD0A4C017D
:105300008C0E9D1EA0917E04B0917F04512C412CE7
:10531000F12CE12C109731F580917C0490917D0463
:105320008815990509F05CC04616570608F058C064
:105330008091140190911501009741F48DB79EB7AB
:105340004091180150911901841B950BE817F9073A
:1053500008F055C0F0937D04E0937C04F90171835B
:105360006083A0CF8D919C91119712966C901297AB
:1053700013967C901397A815B90559F56C0142E076
:10538000C40ED11CCA14DB0420F1AC014A195B091C
:10539000DA011296159780F06282738251834083FE
:1053A000D9016D937C93E114F10471F0D701139648
:1053B000FC93EE93129776CF22968C0F9D1FF901E6
:1053C00091838083F301EFCFF0937F04E0937E0419
:1053D00069CF4816590608F42C017D01D3019ACFF4
:1053E000CB010E9420287C01009749F0AE01B80152
:1053F0000E940A2AC8010E94BC28870153CF10E0EE
:1054000000E050CF9111089581568A5108F48052DE
:1054100085580895FB01DC0102C001900D924150B6
:105420005040D8F70895FB01DC018D91019080195F
:105430000110D9F3990B0895FB01DC0101900D9245
:105440000020E1F70895FB01DC014150504030F0AD
:105450008D910190801919F40020B9F7881B990BE0
:105460000895FB01DC014150504048F001900D923D
:105470000020C9F701C01D9241505040E0F7089547
:10548000FB0151915523A9F0BF01DC014D91451756
:105490004111E1F759F4CD010190002049F04D91FF
:1054A00040154111C9F3FB014111EFCF81E090E0BC
:1054B0000197089511E0CCECD1E004C0FE010E94F8
:0E54C0001A282196CD3CD107C9F7F894FFCFEA
:1054CE002503250300C079C4000080BF05000A0132
:1054DE00010000000000800480000000000088072A
:1054EE00830D89070412DB0F000000008807810D71
:1054FE0089070E122A105E00BC007701781E00A0EC
:10550E002800F03C00405100127A00E4A20024F47E
:10551E000048E80190D00320A10700000000C60358
:10552E00260353032E048403620376030000000057
:10553E00440509054C07B904FB04E004BA04000055
:10554E0000001D07F0064C07B904E906D606C7068B
:10555E000D0A0053485434785F540053485434783D
:10556E005F48004454412D574D2D307800300000D7
:00000001FF
