:100000000C94CE010C94A4120C947D120C94F60165
:100010000C94F6010C94F6010C9442140C94F60125
:100020000C94F6010C94F6010C94F6010C94F60174
:100030000C94F6010C94F6010C94F6010C94F60164
:100040000C9433120C94F6010C94F1120C94CB1214
:100050000C94F6010C94F6010C94F6010C94F60144
:100060000C9423130C94F60100407A10F35A00A06C
:10007000724E18090010A5D4E80000E87648170071
:1000800000E40B54020000CA9A3B000000E1F505B1
:10009000000080969800000040420F000000A086FB
:1000A00001000000102700000000E803000000002D
:1000B0006400000000000A000000000001000000D1
:1000C00000002C76D888DC674F0823DFC1DFAE59EB
:1000D000E1B1B796E5E3E453C63AE651997696E87E
:1000E000E6C28426EB898C9B62ED407C6FFCEFBC02
:1000F0009C9F40F2BAA56FA5F490055A2AF75C932D
:100100006B6CF9676DC11BFCE0E40D47FEF520E662
:10011000B500D0ED902E0300943577050080841E45
:10012000080000204E0A000000C80C333333330FA0
:10013000986E12831141EF8D2114893BE65516CF3D
:10014000FEE6DB18D1844B381BF77C1D901DA4BB49
:10015000E424203284725E228100C9F124ECA1E5FE
:100160003D27005EBCE2613FDD83C29C7E20A3FD93
:100170001F41009D23BE46DB65F88C11AF32CA5784
:10018000E9742020E280A22053656E736F722044D0
:10019000533A2000445300300030002020E280A277
:1001A0002053656E736F7220534854343A200053C5
:1001B00048540030002020E280A2204C6F52612081
:1001C000696E696369616C697A61646F20636F72DB
:1001D00072656374616D656E74652E2E2E0020202D
:1001E000E280A22053656E736F722064652068758B
:1001F0006D656461642064656C207375656C6F2047
:10020000696E696369616C697A61646F20636F729A
:1002100072656374616D656E74652E2E2E002020EC
:10022000E280A22050726F746F636F6C6F3A20444B
:1002300054412D574D2D307849642C4D732C487204
:100240002C542C5663632C4353007E2048756D65F7
:1002500064616420792074656D7065726174757273
:100260006120616D6269656E7465007E20536F6EFA
:1002700064612064652068756D65646164206465EF
:100280006C207375656C6F000A0A536F6E64612091
:100290004D732C20487220792054656D70202D20DC
:1002A000497272C3B36D6574726F20574D207632F8
:1002B0002E3230323630363038002C002C002C00F4
:1002C0002C002C00644200200054783A20002C00BE
:1002D0002C002C002C006D732061676F7461646FBB
:1002E0000020202020E29C97205469656D706F20CB
:1002F00064652065737065726120002020E286923B
:10030000204D656E73616A652069676E6F72616406
:100310006F3A20006D696E002020E29C9320436FAD
:100320006E6669726D616369C3B36E2072656369DD
:1003300062696461202D20005348540030000000A1
:100340000000240027002A000000000025002800EB
:100350002B00000000080002010000030407000059
:10036000000000000000000000002300260029001B
:10037000040404040404040402020202020203034B
:100380000303030301020408102040800102040853
:100390001020010204081020B814F92011241FBEF7
:1003A000CFEFD8E0DEBFCDBF11E0A0E0B1E0E0EEDE
:1003B000F4E502C005900D92A03BB107D9F724E007
:1003C000A0EBB1E001C01D92A038B207E1F711E047
:1003D000CDECD1E004C02197FE010E942328CC3C43
:1003E000D107C9F70E9488150C94632A0C94000069
:1003F00080910F0120E4829FC001112480937C0032
:1004000080917A00806480937A0080917A0086FDE2
:10041000FCCF80917800909179000895FC01908143
:10042000909528E030E081E397FF03C0990F98276B
:1004300001C0990F21503109B9F78181892728E03E
:1004400030E091E387FF03C0880F892701C0880F40
:1004500021503109B9F70895833081F028F48130B3
:1004600099F08230A9F008958730A9F08830C9F05A
:100470008430B1F4809180008F7D03C08091800032
:100480008F7780938000089584B58F7784BD089519
:1004900084B58F7DFBCF8091B0008F778093B000C3
:1004A00008958091B0008F7DF9CF1F93CF93DF9394
:1004B000282F30E0F901EE5AFC4F8491F901EC57F6
:1004C000FC4FD491F901E059FC4FC491CC23A9F021
:1004D000162F81110E942C02EC2FF0E0EE0FFF1F6F
:1004E000E85BFC4FA591B4918FB7F894EC91111192
:1004F00008C0D095DE23DC938FBFDF91CF911F9191
:100500000895DE2BF8CFCF93DF9390E0FC01EC57FA
:10051000FC4F249180599C4FFC0184918823C9F0A1
:1005200090E0880F991FFC01E25CFC4FA591B4910B
:10053000FC01E85BFC4FC591D49161110DC09FB7E0
:10054000F8948C91209582238C938881282328838A
:100550009FBFDF91CF910895623051F49FB7F89417
:100560003C91822F809583238C93E8812E2BEFCFB3
:100570008FB7F894EC912E2B2C938FBFEACF3FB717
:10058000F8948091ED029091EE02A091EF02B0916B
:10059000F00226B5A89B05C02F3F19F00196A11DBA
:1005A000B11D3FBFBA2FA92F982F8827BC01CD01BD
:1005B000620F711D811D911D43E0660F771F881F1B
:1005C000991F4A95D1F708958F929F92AF92BF924B
:1005D000CF92DF92EF92FF926B017C010E94BF02EB
:1005E0004B015C01C114D104E104F104B9F00E9493
:1005F000BF02681979098A099B09683E7340810521
:10060000910580F321E0C21AD108E108F10888EED3
:10061000880E83E0981EA11CB11CE4CFFF90EF90E0
:10062000DF90CF90BF90AF909F908F9008952FB79D
:10063000F8946091E9027091EA028091EB02909146
:10064000EC022FBF08950895089508950895AF927C
:10065000BF92CF92DF92EF92FF920F931F93CF93AF
:10066000DF936C017B018B01040F151FEB015E0111
:10067000AE18BF08C017D10759F06991D601ED91A6
:10068000FC910190F081E02DC6010995892B79F745
:10069000C501DF91CF911F910F91FF90EF90DF90F7
:1006A000CF90BF90AF900895FC01538D448D252FBE
:1006B00030E0842F90E0821B930B541710F0CF96FC
:1006C000089501970895FC01918D828D981761F02E
:1006D000A28DAE0FBF2FB11D5D968C91928D9F5F45
:1006E0009F73928F90E008958FEF9FEF0895FC0124
:1006F000918D828D981731F0828DE80FF11D858DD7
:1007000090E008958FEF9FEF0895FC01918D228D69
:10071000892F90E0805C9F4F821B91098F739927EE
:10072000089583E693E00E94850321E0892B09F474
:1007300020E0822F089580E090E0892B29F00E942C
:10074000910381110C9400000895FC01A48DA80F61
:10075000B92FB11DA35ABF4F2C91848D90E0019603
:100760008F739927848FA689B7892C93A089B18923
:100770008C91837080648C93938D848D981306C0C4
:100780000288F389E02D80818F7D80830895EF9228
:10079000FF920F931F93CF93DF93EC0181E0888F3B
:1007A0009B8D8C8D98131AC0E889F989808185FF0B
:1007B00015C09FB7F894EE89FF896083E889F989AD
:1007C00080818370806480839FBF81E090E0DF91AF
:1007D000CF911F910F91FF90EF900895F62E0B8D02
:1007E00010E00F5F1F4F0F731127E02E8C8D8E11BD
:1007F0000CC00FB607FCFACFE889F989808185FF24
:10080000F5CFCE010E94A503F1CFEB8DEC0FFD2FAC
:10081000F11DE35AFF4FF0829FB7F8940B8FEA89DE
:10082000FB8980818062CFCF0F931F93CF93DF939B
:100830008C01D0E0C0E0F801EC0FFD1F649166234D
:1008400041F083E693E00E94C703892B11F02196C3
:10085000F2CFCE01DF91CF911F910F910895CF93E9
:10086000DF93EC01888D8823B9F0AA89BB89E889D8
:10087000F9898C9185FD03C0808186FD0DC00FB67E
:1008800007FCF7CF8C9185FFF2CF808185FFEDCFFC
:10089000CE010E94A503E9CFDF91CF9108950F9378
:1008A0001F93CF93DF93EC01062F142F60E088890C
:1008B0000E9455029C858D859CBD8DBD0EBD00009E
:1008C0000DB407FEFDCF8EB51EBD00000DB407FEB2
:1008D000FDCF1EB561E088890E945502812FDF910E
:1008E000CF911F910F91089541E861E881E094E074
:1008F0000C944F04CF93DF93EC0182319105DCF02F
:10090000459714F0C4E1D0E0239747E86DEC81E00F
:1009100094E00E944F0441E36BE881E094E00E9480
:100920004F044C2F4250406869E881E094E0DF9129
:10093000CF910C944F04029714F4C2E0D0E044E845
:100940006DEC81E094E00E944F044BE2E5CF40E083
:100950000C944F0410921E0410921D046DE181E06E
:1009600094E00E94A704482F4E7F6DE981E094E057
:100970000C944F0408950F931F93CF93DF93EC01D2
:10098000E881F9810084F185E02D0995892BB1F08A
:100990006DE0CE010E94A704082F60E0CE010E9406
:1009A000A704182F402F6DE8CE010E944F04812F1D
:1009B00090E0DF91CF911F910F9108958FEF9FEFFE
:1009C000F8CFCF93DF93EC01E881F9810084F185C2
:1009D000E02D0995892B69F08A8D9B8D01969B8F5F
:1009E0008A8F60E0CE010E94A70490E0DF91CF9152
:1009F00008958FEF9FEFFACFCF93DF93EC0163E180
:100A00000E94A70490E02A8D3B8D821B930BDF91FF
:100A1000CF910895AF92BF92CF92DF92FF920F9342
:100A20001F93CF93DF936C015B01EA0162E20E94A6
:100A3000A704F82E90E09C012C0F3D1F2F3F31059D
:100A400029F020F0CFEFD0E0C81BD90B8501AC0E08
:100A5000BD1E0A151B0541F0F80141918F0160E8A8
:100A6000C6010E944F04F5CF4C2F4F0D62EAC6011C
:100A70000E944F04CE01DF91CF911F910F91FF9003
:100A8000DF90CF90BF90AF900895CF93DF931F92E8
:100A9000CDB7DEB76983DC01ED91FC910280F38173
:100AA000E02D41E050E0BE016F5F7F4F09950F9050
:100AB000DF91CF9108952091D201260F3327331F64
:100AC00021323105ECF420913903FC0190E080E003
:100AD000243069F082E00895A091D2012191AC0107
:100AE0004E545E4FA40FB52FB11D2C93019686175F
:100AF00098F38091D201680F6093D20180E008954D
:100B000081E008951092390381E0809338031092B8
:100B1000130361E082E10E94550261E083E10E94DB
:100B20005502E9EBF0E080818E7F808380818D7FAC
:100B3000808380E28093B80085E48093BC000895B0
:100B4000CF93DF9391E09093B1018823B9F0C091E6
:100B5000B800D091BA008091BC008A7B8093BC0021
:100B600060E082E10E94550260E083E10E9455024C
:100B70000E948205D093BA00C093B800DF91CF9154
:100B800008958F929F92AF92BF92CF92DF92EF9291
:100B9000FF920F931F93CF93DF93D0916203D132D3
:100BA00008F0D7C0182FC09161030E94BF026B01EB
:100BB0007C018091390381116BC082E080933903FD
:100BC000109338038FEF8093370310923603D0933E
:100BD0003503A1E4B3E0E5E1F3E080E0D81391C090
:100BE0001092140380911403CC0FC82BC0931403EC
:100BF00080911303813009F088C0109213030E9482
:100C0000BF026B017C01809114038093BB00809133
:100C10003B0390913C03A0913D03B0913E03892B8F
:100C20008A2B8B2BA1F00E94BF0200913B031091F5
:100C30003C0320913D0330913E036C197D098E09E0
:100C40009F09061717072807390708F442C0809143
:100C5000BC0083FDD8CF85EC8093BC000E94BF020E
:100C60006B017C0180913903823009F450C080917E
:100C700037038F3F09F46FC080913703803209F446
:100C80006CC080913703803309F469C084E026C0CA
:100C900080913B0390913C03A0913D03B0913E03B2
:100CA000892B8A2B8B2B09F484CF0E94BF02809062
:100CB0003B0390903C03A0903D03B0903E036C1921
:100CC0007D098E099F0986169706A806B90608F0C1
:100CD00070CF80913A030E94A00585E010924003F6
:100CE0001092620310923F03DF91CF911F910F91F9
:100CF000FF90EF90DF90CF90BF90AF909F908F903C
:100D000008959D9191938F5F69CF85EEA5CF8091D6
:100D10003B0390913C03A0913D03B0913E03892B8E
:100D20008A2B8B2B09F49ECF0E94BF0200913B03BC
:100D300010913C0320913D0330913E036C197D09D5
:100D40008E099F09061717072807390708F08ACF69
:100D5000C0CF81E0C3CF80E0C1CF82E0BFCF83E0CE
:100D6000BDCFDC0111968D919C91DC01ED91FC9140
:100D70000280F381E02D41E050E00995019729F4CC
:100D800081E00E94C10591E0811190E0892F0895D2
:100D9000E091F2028091F102E81730F4F0E0ED50BA
:100DA000FD4F808190E008958FEF9FEF089590911F
:100DB000F2028091F1022FEF3FEF981748F4E92FEC
:100DC000F0E0ED50FD4F208130E09F5F9093F20204
:100DD000C90108958091F1029091F202891B990B4B
:100DE0000895CF92DF92EF92FF920F931F93CF93CC
:100DF000DF937C01CB018A0120913F03222389F0FC
:100E0000EB016B01C40ED51ECC15DD0569F06991AF
:100E1000D701ED91FC910190F081E02DC70109957A
:100E2000F3CF642F0E945B05C801DF91CF911F9122
:100E30000F91FF90EF90DF90CF900895CF93DF93C5
:100E40001F92CDB7DEB7698320913F032223F9F0CB
:100E500020916203203258F021E030E0FC0133831E
:100E6000228390E080E00F90DF91CF9108958091F0
:100E70004003E82FF0E0EF5BFC4F998190838F5F98
:100E8000809340038093620381E090E0ECCF61E0C7
:100E9000CE0101960E945B05F7CF90E080E00895B7
:100EA000CF93DF93EC018B818823A1F0888191E0BF
:100EB00090933F038093610310924003109262036A
:100EC00081E00E94C10591E0811190E0892FDF91BE
:100ED000CF9108951092F2021092F1021092400305
:100EE000109262030E94820583E293E09093F601E0
:100EF0008093F50184E293E09093F8018093F701E9
:100F000081E08B83CE010E945007982F8111CECFB4
:100F1000DDCF08950895DC0180E0615090F09D914F
:100F20009827E92FEF70F0E0EE59FE4F2491E92F5A
:100F3000E295EF70F0E0EE58FE4FE491822F8E279D
:100F4000ECCF0895DC012C911196ED91FC91F89471
:100F50008181822B81839281322F309593239283DA
:100F600082E090E00197F1F781818323818380E122
:100F700090E00197F1F790817894E6E6F0E0319700
:100F8000F1F7922381E009F480E00895FC0190815B
:100F90000180F281E02D292F209560FF14C0F89484
:100FA0008281822382838181892B8183A0E1B0E0C9
:100FB0001197F1F78281982B928378948AE690E0DA
:100FC0000197F1F70895F8948281822382838181C9
:100FD000892B8183AEE7B0E01197F1F78281982BDE
:100FE0009283789486E090E0EBCFDF92EF92FF92CD
:100FF0000F931F93CF93DF93EC01D62EE42E08E0DE
:1010000010E0FF24F39461E08D2D8F2109F460E05E
:10101000CE010E94C607FF0C01501109A1F7E11093
:1010200010C0F894E981FA819181888180958923A3
:101030008183E981FA8192818881809589238283E5
:101040007894DF91CF911F910F91FF90EF90DF90F7
:101050000895EF92FF920F931F93CF93DF938C012C
:101060007B0140E065E50E94F507E70188E0E80EB6
:10107000F11C699140E0C8010E94F507CE15DF051B
:10108000C1F7DF91CF911F910F91FF90EF900895DD
:101090004115510529F4EAE7F0E080818F778083DC
:1010A0006A307105B9F0CB01880F991F880F991F1D
:1010B000807267706860682B88E10FB6F894A89515
:1010C000809360000FBE60936000E0E6F0E08081F6
:1010D00080648083232BD9F483B7817F846083BFAE
:1010E000F89483B7816083BF85B7806685BF8F7DA5
:1010F00085BF7894889583B78E7F83BF7894452B7E
:1011000029F4EAE7F0E0808180688083089583B75E
:10111000817F846083BFF89483B7816083BF7894B4
:10112000889583B78E7F83BF7894E9CF8EE48093D0
:101130007C0062E070E080E090E00E94E402809138
:101140007A00806480937A0080917A0086FDFCCFDB
:10115000809178002091790030E0322F2227032EF1
:10116000000C440B550B282B60E070E381E190E00C
:101170000E94E725CA01B9010E94CA2420E030E09C
:101180004AE754E40E94EE260895DC0114966D911E
:101190007C91159730E020E090E080E0261737073B
:1011A000A1F0ED91FC911197309761F41092B0018C
:1011B000E0EBF1E04081840F911D47FD9A952F5F90
:1011C0003F4FECCFE20FF31FF5CF08952F923F92E0
:1011D0004F925F926F927F928F929F92AF92BF9247
:1011E000CF92DF92EF92FF920F931F93CF93DF93F3
:1011F0006C011B01F12CE12C86E0A82EB12CD6014C
:1012000014968D919C9185010E191F0980179107E5
:1012100008F48C01F601D0810E94BF022B013C0131
:1012200080913903811172C0C02F013208F0C0E2F1
:10123000F1E0F093390321E0C501801B910BE81622
:10124000F90608F420E0209338038FEF80933703EA
:10125000109236038C0F80933503A1E0A093140302
:1012600080911403DD0FD82BD093140380911303C6
:10127000813009F090C0109213030E94BF022B012D
:101280003C01809114038093BB0080913B039091BB
:101290003C03A0913D03B0913E03892B8A2B8B2BFD
:1012A000A1F00E94BF0220913B0330913C0340918A
:1012B0003D0350913E036419750986099709261765
:1012C00037074807590708F442C08091BC0083FDE6
:1012D000D8CFB5ECB093BC000E94BF022B013C01FB
:1012E00080913903813009F45AC0809136038C17FC
:1012F00010F4C0913603A5E1B3E0E3EFF2E080E043
:101300008C1751F19D9191938F5FFACF80913B03A0
:1013100090913C03A0913D03B0913E03892B8A2B11
:101320008B2B09F47DCF0E94BF0220913B033091AB
:101330003C0340913D0350913E03641975098609B1
:101340009709261737074807590708F069CF809192
:101350003A030E94A005C0E01092F202C093F1028D
:10136000C017110609F058C041018E0C9F1CE40102
:10137000CE01881999098017910798F5D601119621
:101380008D919C91DC01ED91FC910284F385E02D1F
:1013900009958993EDCFE5EEE093BC009DCF809158
:1013A0003B0390913C03A0913D03B0913E03892BF8
:1013B0008A2B8B2B09F494CF0E94BF0220913B0310
:1013C00030913C0340913D0350913E0364197509EF
:1013D00086099709261737074807590708F080CF6D
:1013E000B6CFE00EF11EB6E0EB16F10408F407CF1D
:1013F00081E0DF91CF911F910F91FF90EF90DF90EF
:10140000CF90BF90AF909F908F907F906F905F90A4
:101410004F903F902F90089580E0EBCFFC0190819A
:101420000180F281E02DF8948181292F209582237B
:10143000818378943DE7315011F180818923D9F37C
:10144000F8948281822382838181892B818378949D
:10145000ACEBB3E01197F1F7F8948181822381839B
:10146000A8E8B0E01197F1F78081982381E009F0B6
:1014700080E07894E0E3F3E03197F1F7089580E0BD
:101480000895BF92CF92DF92EF92FF920F931F9336
:10149000CF93DF93EC01B62EC72E8D85811105C049
:1014A000CE010E940E0A81110EC01B861D861C866D
:1014B00080E0DF91CF911F910F91FF90EF90DF902F
:1014C000CF90BF90089540E060EFCE010E94F507F5
:1014D00001E0E12CD12C11E0CE010E94A207F82EF0
:1014E000CE010E94A20791E0F91218C0813099F54F
:1014F0001134D8F2DB86D11002C081E08D878B8158
:10150000882399F22396EB2DFC2DCF010896299183
:101510002193E817F907D9F781E0CBCFEE2DF0E062
:10152000F8120FC08B851817A0F4DE01AE0FBF1F95
:1015300013968C91802379F4F12C193008F41C87D0
:10154000D12EEC0FFD1F8381902F909589238383EB
:101550000AC08113F1CFFE01EE0DF11D8381802BB6
:101560008383FF24F3946F2DCE010E94C6071F5F73
:10157000000F11F4E39401E087E08E1508F0ACCF82
:10158000B7CFCF93DF93EC01E0914E04F0914F047D
:101590001386158614861286118610861782168287
:1015A000158214821382BC0180914E0490914F04E5
:1015B0000E94410A982F882341F067E0CE010E94E3
:1015C0008B0791E02F81281390E0892FDF91CF9135
:1015D00008956F927F928F929F92AF92BF92CF9217
:1015E000DF92EF92FF920F931F93CF93DF938C01C3
:1015F000EB0180914E0490914F040E940E0A8823C3
:1016000009F43FC0B80180914E0490914F040E94AC
:10161000290840E06EEB80914E0490914F040E94A7
:10162000F5077E016E0189E0C80ED11C8E01A090E5
:101630004E04B0904F0488E0882E912C712C6624C3
:101640006394C5010E94A20781117628660CE1E02F
:101650008E1A9108B1F7F80171928F01CE16DF064C
:1016600031F780914E0490914F040E940E0A813010
:1016700041F4F70181917F01811105C0E017F10765
:10168000C1F790E008C068E0CE010E948B0791E0AE
:1016900028852813F6CF892FDF91CF911F910F91C5
:1016A000FF90EF90DF90CF90BF90AF909F908F9082
:1016B0007F906F9008952F923F924F925F926F921A
:1016C0007F928F929F92AF92BF92CF92DF92EF92D2
:1016D000FF920F931F93CF93DF93CDB7DEB72A9777
:1016E0000FB6F894DEBF0FBECDBF8C012DB73EB74D
:1016F0003A8729876C0130E5C30ED11C7C0160E07C
:1017000070E0CB01F70121913191419151917F011D
:101710000E948226CE14DF04A9F720E030E040EAE0
:1017200051E40E94EE262B013C011A830983812C8F
:10173000912C5401E981FA8161917191819191918A
:10174000FA83E983A30192010E9481269B01AC01E7
:101750000E9429259B01AC01C501B4010E9482268B
:101760004B015C0129813A81E216F30619F720E06A
:1017700030E040EA51E40E94EE260E94A1272AE9C7
:1017800039E949E95EE30E94C32487FF7CC0F80180
:1017900080809180A280B3801C830B8318861F8277
:1017A000EB81FC81C190D190E190F190FC83EB83BF
:1017B0001E830D83312C212CED81FE81619171916D
:1017C00081919191FE83ED83A70196010E9481266C
:1017D0002B013C0120E030E0A9010E949627181659
:1017E00074F42DEC3CEC4CEC5DE3C301B2010E94BF
:1017F000C32487FF0EC0FFEF2F1A3F0A0AC02DEC4B
:101800003CEC4CEC5DEBC301B2010E94962718162C
:1018100094F329813A818D819E812817390761F6D9
:10182000EF81F885E215F30524F438862F8246010E
:10183000570129813A818B819C812817390709F04A
:10184000AFCFB401C501E985FA850FB6F894FEBFA4
:101850000FBEEDBF2A960FB6F894DEBF0FBECDBF08
:10186000DF91CF911F910F91FF90EF90DF90CF907C
:10187000BF90AF909F908F907F906F905F904F90B0
:101880003F902F900895EDB7FEB7FA83E9832DB707
:101890003EB7205531090FB6F8943EBF0FBE2DBF9D
:1018A0008DB79EB701961C0180E5F801D10101902A
:1018B0000D928A95E1F783E1E82EF12C8101D12C7C
:1018C000C12CCE14DF0414F5F80181909190A19001
:1018D000B1908F01FFEFCF1ADF0AF80140805180ED
:1018E00062807380A3019201C501B4010E94962712
:1018F00018163CF7F8013497408251826282738255
:10190000F80180829182A282B382DBCFF1E0EF1AEC
:10191000F108A1F6F10120A531A542A553A564A1C6
:1019200075A186A197A10E94822620E030E040E0C8
:101930005FE30E9429254B015C0129813A810FB6A2
:10194000F8943EBF0FBE2DBF7CCF8F929F92AF9277
:10195000BF920F931F93CF93DF93CDB7DEB7A197BD
:101960000FB6F894DEBF0FBECDBF19A2423008F407
:101970004AE08E010F5D1F4F842E912CB12CA12CBB
:10198000A50194010E945026E62FB901CA01EA3050
:1019900044F5E05DD801EE938D01232B242B252BFC
:1019A00079F790E080E0109769F0FD010190002048
:1019B000E9F73197AF014A1B5B0BBD0183E693E06A
:1019C0000E942703A1960FB6F894DEBF0FBECDBFCD
:1019D000DF91CF911F910F91BF90AF909F908F900B
:1019E0000895E95CD7CF42E050E060E971E083E61A
:1019F00093E00C942703CF93DF930E941404EC012F
:101A00000E94F30C8C0F9D1FDF91CF910895CF930F
:101A1000DF93FC01448155816081718183E693E00D
:101A20000E942703EC010E94F30C8C0F9D1FDF9195
:101A3000CF910895CF93DF93EC018881998100972E
:101A400011F00E94C528198218821D821C821B82F7
:101A50001A82DF91CF910895FC01808191810097D6
:101A600011F00C94C52808950C94C5280C94C52831
:101A7000AF92BF92CF92DF92EF92FF920F931F939C
:101A8000CF93DF936B01EA01FB014481558141153E
:101A9000510561F1FC01248135812115310531F1B8
:101AA0002417350718F1C217D30710F0E901219761
:101AB000FC0100811181C801AA24AA94BB24BA9414
:101AC0007801EC0EFD1EE816F906A0F0F601608123
:101AD00071810E94492A009769F09C01201B310BFB
:101AE000C217D30708F059010196EDCFAA24AA9492
:101AF000BB24BA94C501DF91CF911F910F91FF9044
:101B0000EF90DF90CF90BF90AF900895CF93DF9389
:101B1000DC0114962D913C911597232B79F0FB0154
:101B2000CD91DC9160817181CE010E94492A00979C
:101B300029F08C1B9D0BDF91CF9108958FEF9FEFC4
:101B4000FACFCF93DF93EC01A881B981EB01E88153
:101B5000F9811097F1F03097B1F4EC018C819D81FF
:101B6000892BC9F08C9190E00BC0DB0114968D910C
:101B70009C91892B81F0808190E0919581959109CC
:101B8000DF91CF910895BF01CD01DF91CF910C94EA
:101B90001C2A309751F790E080E0F2CF0F931F930B
:101BA000CF93DF938C01EB01FC0180819181009741
:101BB000E1F06881798161157105A9F04281538155
:101BC0002C813D814217530770F00E94252A8C8199
:101BD0009D81F801958384831D821C82DF91CF91C2
:101BE0001F910F9108950E94C52888819981F8015D
:101BF000918380838A819B81938382838C819D8161
:101C000095838483198218821B821A82E5CF0F93F1
:101C10001F93CF93DF93EC0188819981009759F04E
:101C20002A813B812617370730F081E0DF91CF9181
:101C30001F910F9108958B016F5F7F4F0E944E2976
:101C4000009759F0998388831B830A832C813D81F7
:101C5000232B59F7FC011082E8CF80E0E7CFEF9209
:101C6000FF920F931F93CF93DF93EC017B01CB0186
:101C70000E9417220097A9F00C811D81080F191FDF
:101C8000B801CE010E94070E882361F028813981B6
:101C90008C819D81B701820F931F0E9410221D83AA
:101CA0000C8381E0DF91CF911F910F91FF90EF9016
:101CB0000895EF92FF920F931F93CF93DF936115D7
:101CC000710541F480E0DF91CF911F910F91FF905A
:101CD000EF90089541155105B1F07B01EC010C81A5
:101CE0001D81040F151FB8010E94070E882351F3B0
:101CF000288139818C819D81B701820F931F0E94B9
:101D0000252A1D830C8381E0DECFFB0144815581B0
:101D1000608171810C94590EEF92FF920F931F9383
:101D2000CF93DF93EC018B01CB010E9417227C0142
:101D3000BC01CE010E94070E81110BC0CE010E9492
:101D40001A0DCE01DF91CF911F910F91FF90EF906F
:101D50000895FD82EC82B801888199810E94102249
:101D6000F0CFFC011182108213821282158214823C
:101D70000C948C0EEF92FF920F931F93CF93DF93EF
:101D8000EC017B018A01BA010E94070E81110BC090
:101D9000CE010E941A0DCE01DF91CF911F910F91BC
:101DA000FF90EF9008951D830C83B701888199817E
:101DB0000E94252AF0CFFB0101900020E9F731971E
:101DC000AF01461B570B0C94BA0E0F931F93CF9382
:101DD000DF93CDB7DEB729970FB6F894DEBF0FBEFD
:101DE000CDBF8C01862FF8011182108213821282DE
:101DF0001582148240E1BE016F5F7F4F90E00E9428
:101E00006222BE016F5F7F4FC8010E94DB0E2996E0
:101E10000FB6F894DEBF0FBECDBFDF91CF911F91FB
:101E20000F910895FB01DC0111961C921E921396EE
:101E30001C921E92129715961C921E92149786174A
:101E4000970749F0608171816115710521F0448126
:101E500055810C94BA0E0895FC01118210821382F0
:101E6000128215821482FB0101900020E9F731975C
:101E7000AF01461B570B0C94BA0EAF92BF92CF9294
:101E8000DF92EF92FF920F931F93CF93DF936C013A
:101E90005B017A0189012417350720F48F2D790120
:101EA000042F182F62E971E0C6010E942C0FD501A2
:101EB0001496CD91DC91EC16FD06E0F40C171D078D
:101EC00008F4E801D501ED91FC911197EC0FFD1F8D
:101ED000108110826D917C916E0D7F1DC601611580
:101EE0007105A1F00E94DB0EF50180819181C80F80
:101EF000D91F1883C601DF91CF911F910F91FF90D9
:101F0000EF90DF90CF90BF90AF9008950E941A0D90
:101F1000EBCFEF92FF920F931F93CF93DF93CDB749
:101F2000DEB7E3970FB6F894DEBF0FBECDBF7C01DE
:101F3000CB01BA01F701118210821382128215823D
:101F4000148242E0420F8E010F5F1F4F0E94272133
:101F5000009789F0BC01C7010E94DB0EE3960FB623
:101F6000F894DEBF0FBECDBFDF91CF911F910F91CF
:101F7000FF90EF900895C7010E941A0DEFCF85EDF5
:101F80008093BC0080913B0390913C03A0913D0362
:101F9000B0913E030796A11DB11D23E0B695A7950C
:101FA000979587952A95D1F72091BC0024FD03C011
:101FB00010923903089540913B0350913C03609186
:101FC0003D0370913E03452B462B472B69F3009749
:101FD000A105B10541F025E12A95F1F7000001972F
:101FE000A109B109E1CF80913A030C94A0050F93A8
:101FF0001F93CF93DF938C01EB0188E2FB011192D9
:102000008A95E9F74BE050E063E971E0CE010E9468
:102010003A2A1B8681E090E0A0E0B0E08C879D87A3
:10202000AE87BF87F80182819381092E000CAA0B2D
:10203000BB0B888B998BAA8BBB8B8DE090E0A0E0CB
:10204000B0E08C8B9D8BAE8BBF8B1CA21DA21EA201
:102050001FA280E090E0A0E2B2EC8C8F9D8FAE8F4B
:10206000BF8F80E090E0AAEAB2E4888F998FAA8FB0
:10207000BB8F8AE999E9A9E9BEE388A399A3AAA33A
:10208000BBA3DF91CF911F910F9108950F931F93E1
:10209000CF93DF938C01EB0188E2FB0111928A95CB
:1020A000E9F74BE050E06BE971E0CE010E943A2A7B
:1020B0001B8681E090E0A0E0B0E08C879D87AE8732
:1020C000BF87F80182819381092E000CAA0BBB0BFC
:1020D000888B998BAA8BBB8B8CE090E0A0E0B0E062
:1020E0008C8B9D8BAE8BBF8B1CA21DA21EA21FA230
:1020F0001C8E1D8E1E8E1F8E80E090E0A8ECB2E438
:10210000888F998FAA8FBB8F80E090E0A0E0B0E429
:1021100088A399A3AAA3BBA3DF91CF911F910F918D
:1021200008952F923F924F925F926F927F928F927B
:102130009F92AF92BF92CF92DF92EF92FF920F9356
:102140001F93CF93DF9300D000D000D01F92CDB764
:10215000DEB77C016B011A010E9417032B013C01C1
:102160008DEF8F83D70154968D919C915597009751
:1021700001F552962D913C912130310561F426EF05
:102180002F8305E010E08430910571F484E28F83A1
:102190000EE610E028C00AE010E02230310521F4FC
:1021A00020EE2F8302E010E08530910589F48EE166
:1021B00017C08130910529F429E32F830CE414E042
:1021C000F3CF8230910541F422E32F830EE610E035
:1021D000069749F485E1DBCF8330910541F58FE225
:1021E0008F830CE414E0F70184859585DC01149657
:1021F0002D913C91232BF1F410E0812F27960FB6FF
:10220000F894DEBF0FBECDBFDF91CF911F910F912C
:10221000FF90EF90DF90CF90BF90AF909F908F9006
:102220007F906F905F904F903F902F9008950AE0BD
:1022300010E0A9CFFC01208131E030933F032093CF
:1022400061031092400310926203BE01695F7F4FE9
:102250000E94B106882381F2B80190E080E00E94DC
:10226000E402BE016F5F7F4FD7011C968D919C9158
:102270000E94E608182F882309F4BECF0B81CE01F7
:1022800001960E940E020813B7CF0E81CE0104966C
:102290000E940E020813B0CF6C81862F90E0982F19
:1022A00088276D81680F792F711D90E080E00E9472
:1022B000C8244B015C016981862F90E0982F882704
:1022C0006A81680F792F711D90E080E00E94C82418
:1022D00020E030E04FE253E40E94292520E03FEF68
:1022E0004FE757E40E94EE2620E030E044E352E45A
:1022F0000E948126F701608371838283938320E0AB
:1023000030E04AEF52E4C501B4010E94292520E0E3
:102310003FEF4FE757E40E94EE2620E030E040EC2C
:1023200050E40E9481264B015C0120E030E0A901CD
:102330000E94962718160CF07FC020E030E048EC91
:1023400052E4C501B4010E94C32487FD06C0812C5C
:10235000912C88ECA82E82E4B82ED70114968D9289
:102360009D92AD92BC9217972114310481F1F10135
:10237000349680E2DF011D928A95E9F784E290E0CD
:10238000A0E0B0E0F10180839183A283B383D70101
:102390001A968D919C91B0E0A0E084839583A683EA
:1023A000B7838DE090E0A0E0B0E080879187A287BE
:1023B000B387408A518A628A738AF701808191814A
:1023C000A281B381F101848B958BA68BB78BC1144D
:1023D000D10409F412CFF601349680E2DF011D9298
:1023E0008A95E9F784E290E0A0E0B0E0F60180830E
:1023F0009183A283B383D70118968D919C91B0E00D
:10240000A0E084839583A683B7838CE090E0A0E06E
:10241000B0E080879187A287B387408A518A628A19
:10242000738AF70184819581A681B781F601848B37
:10243000958BA68BB78BE1CE812C912C54018DCF3F
:10244000AB0170E060E0FC01848195810E949110F5
:1024500081E0089550E040E0FC01848195810E9474
:10246000911081E008951F920F920FB60F921124E0
:102470002F933F938F939F93AF93BF938091E902E4
:102480009091EA02A091EB02B091EC023091E80247
:1024900026E0230F2D3758F50296A11DB11D20937C
:1024A000E8028093E9029093EA02A093EB02B093D2
:1024B000EC028091ED029091EE02A091EF02B091BA
:1024C000F0020196A11DB11D8093ED029093EE02E2
:1024D000A093EF02B093F002BF91AF919F918F91C3
:1024E0003F912F910F900FBE0F901F90189529E8E4
:1024F000230F0396A11DB11DD2CF1F920F920FB6CD
:102500000F9211242F933F934F935F936F937F9379
:102510008F939F93AF93BF93EF93FF93E09102014B
:10252000F09103010995FF91EF91BF91AF919F91B8
:102530008F917F916F915F914F913F912F910F906C
:102540000FBE0F901F9018951F920F920FB60F920B
:1025500011242F933F934F935F936F937F938F93A8
:102560009F93AF93BF93EF93FF93E0910001F0919E
:1025700001010995FF91EF91BF91AF919F918F91CB
:102580007F916F915F914F913F912F910F900FBE6F
:102590000F901F9018951F920F920FB60F92112453
:1025A0002F933F934F935F936F937F938F939F935B
:1025B000AF93BF93EF93FF9383E693E00E94A5034D
:1025C000FF91EF91BF91AF919F918F917F916F910B
:1025D0005F914F913F912F910F900FBE0F901F90E1
:1025E00018951F920F920FB60F9211242F938F936D
:1025F0009F93EF93FF93E0917303F09174038081B5
:10260000E0917903F0917A0382FD1BC09081809163
:102610007C038F5F8F7320917D03821741F0E091DF
:102620007C03F0E0ED59FC4F958F80937C03FF9184
:10263000EF919F918F912F910F900FBE0F901F9050
:1026400018958081F4CF1F920F920FB60F9211242C
:102650002F933F934F935F936F937F938F939F93AA
:10266000AF93BF93EF93FF938091B900887F80363B
:1026700009F44AC0F0F5883209F4A7C018F5803192
:1026800009F49BC0B8F4882309F4F9C0883009F430
:1026900094C0FF91EF91BF91AF919F918F917F91E6
:1026A0006F915F914F913F912F910F900FBE0F90BF
:1026B0001F901895883109F488C0803251F78093B3
:1026C000370314C0803409F49DC040F48033B9F35B
:1026D0008833F9F68093370385ECB0C0803509F470
:1026E00085C0883509F496C0883499F60E94BF0FDA
:1026F000D0CF883909F48CC038F5883729F050F4E8
:10270000883611F0803729F683E0809339031092E0
:10271000F40157C0883809F47BC0803919F080383B
:1027200009F0B7CF8091F401803208F071C0E091D8
:10273000F40181E08E0F8093F4018091BB00F0E002
:10274000EC52FE4F80833DC0803B39F0E0F4803A8C
:1027500009F479C0883A09F09CCF84E0809339036A
:102760001092D3011092D201E091F501F091F6019F
:1027700009958091D20181110FC081E08093D2012F
:102780001092B20109C0803C09F4A6CF883C09F43C
:10279000A3CF883B09F07DCFE091D30181E08E0F7C
:1027A0008093D301F0E0EE54FE4F80818093BB0014
:1027B0009091D3018091D20129C08091140380931C
:1027C000BB0085EC8093BC0064CF90913603809170
:1027D0003503981758F5E091360381E08E0F80930A
:1027E0003603F0E0EB5EFC4F8081E9CFE0913603E9
:1027F00081E08E0F809336038091BB00F0E0EB5EAA
:10280000FC4F808390913603809135039817C8F26E
:1028100085E8D8CFE091360381E08E0F80933603B0
:102820008091BB00F0E0EB5EFC4F80838091380329
:1028300081115CCF81E08093130384EA8093BC0014
:102840001092390326CF85EC8093BC001092390397
:102850008091F401803230F4E091F401F0E0EC5228
:10286000FE4F10826091F40170E0E091F701F09169
:10287000F80184ED91E009951092F4010ACF1092CD
:10288000370334CF1F920F920FB60F9211248F93FC
:102890000FB6F894A89580916000886180936000DD
:1028A000109260000FBE8F910F900FBE0F901F907F
:1028B0001895CF92DF92EF92FF92CF93DF936DE165
:1028C00081E094E00E94A70490E034E0959587951C
:1028D0003A95E1F78A3091050CF042C0FC01EE0F09
:1028E000FF1FE80FF91FE45CFE4FC080D180E2803B
:1028F0000E2C000CFF086EE181E094E00E94A7041A
:10290000D82F66E281E094E00E94A704C82FD295F8
:10291000DF7021E030E040E050E004C0220F331FC0
:10292000441F551FDA95D2F7C701B6010E94E7256B
:1029300068EE73E080E090E00E94E72521313105E8
:102940004105510594F04C2F486066EA81E094E01F
:10295000DF91CF91FF90EF90DF90CF900C944F04D8
:10296000CC24CA94DC2C7601C6CF4C2F477FEDCF08
:10297000CF93E3E6F3E01382128288EE93E0A0E0C7
:10298000B0E084839583A683B7832EE531E031835D
:10299000208325EC30E03587248724EC30E037872E
:1029A000268720EC30E0318B208B21EC30E0338B1C
:1029B000228B22EC30E0358B248B26EC30E0378BF9
:1029C000268B118E128E138E148EE1E0F4E01382AA
:1029D000128220E731E03183208320E52487C1E0A3
:1029E000C58720E034E0378726872AE030E0318B46
:1029F000208B29E030E0338B228B22E030E0358BD6
:102A0000248B168A178A108E118E138E128E158EB5
:102A1000148E178E168E11A210A2148215821682A1
:102A20001782E3E2F4E01382128284839583A68303
:102A3000B78382E891E09183808363EA71E086E75F
:102A400094E00E942C0F66E774E080E794E00E9417
:102A5000120F62E971E08AE694E00E942C0F60E0B8
:102A600083E00E948302E7E8F3E0E491ACE5B4E0A0
:102A7000EC93E3E7F3E0E491F0E0EE0FFF1FEA5997
:102A8000FC4F8591949112969C938E9311971B966F
:102A90001C921B971D961C921D971C961C921C97AE
:102AA0001A961C921A9719961C92199718961C92AE
:102AB000189717961C92179716961C9216971596AC
:102AC0001C92159714961C92149713961C921397A8
:102AD000E5E4F4E017821086108289E08383C483E2
:102AE000C583C6831182168A158A8FEF838B148A59
:102AF000B287A187EFE2F4E0158614861786168662
:102B0000118A108A138A128A158A148ACF9108951D
:102B1000CF93DF93CDB7DEB7C154D1090FB6F89488
:102B2000DEBF0FBECDBF789484B5826084BD84B50E
:102B3000816084BD85B5826085BD85B5816085BDB8
:102B400080916E00816080936E0010928100809170
:102B500081008260809381008091810081608093F8
:102B60008100809180008160809380008091B1001D
:102B700084608093B1008091B00081608093B00048
:102B800080917A00846080937A0080917A008260DC
:102B900080937A0080917A008E7F80937A00809172
:102BA0007A00806880937A001092C10062E083E02E
:102BB0000E94830281E080930F01E0917303F09102
:102BC000740382E08083E0916F03F09170031082C0
:102BD000E0917103F091720383E0808310927B0394
:102BE000E0917703F091780386E08083E0917503AC
:102BF000F0917603808180618083E0917503F0918C
:102C00007603808188608083E0917503F09176037C
:102C1000808180688083E0917503F09176038081E4
:102C20008F7D808388E892E00E94FB0C8BE692E027
:102C30000E94FB0C8AE492E00E94FB0C8EE192E081
:102C40000E94FB0C8EED91E00E94FB0C61E08FE096
:102C50000E94830261E084E00E94830260E08FE0D2
:102C60000E94550260E084E00E94550264E670E034
:102C700080E090E00E94E4021AE0FF24F39403E075
:102C8000E0914E04F0914F04138615861486128647
:102C90001186108617821682158214821382109272
:102CA0004C0410924D0462E370E080E090E00E94DA
:102CB000E402BE016E5D7F4F80914E0490914F04FF
:102CC0000E94410A882309F47AC067E0CE01829607
:102CD0000E948B0799A58913ECCF80914C048F5FDC
:102CE00080934C048AA1883231F008F04EC08031C4
:102CF00011F08232F1F680914D048F5F80934D0484
:102D000080914504811128C080914E0490914F0418
:102D10000E940E0ABE016E5D7F4F80914E0490911D
:102D20004F040E94290840E064EB80914E0490918A
:102D30004F040E94F50780914E0490914F040E9429
:102D4000A207E82E80914E0490914F040E940E0A33
:102D5000E11002C0F09245048AA1803109F1BE0160
:102D60006F5F7F4FCE0182960E94E90A882359F057
:102D70008D819AA19B3311F487FD12C08F3391F09E
:102D800058F48F31C1F080E00EC08B3309F4B3CF1B
:102D9000823409F08ECFAFCF8F3579F08F3799F726
:102DA0008CE001C08AE090914804981708F081CF28
:102DB000809348047ECF89E0F6CF8BE0F4CF8091FA
:102DC0004C0481110C949E20015009F059CF1150F0
:102DD00009F0F2C067E971E0CE01C8960E94B10E19
:102DE00063EB71E0CE018A960E94B10E2CAD3DAD31
:102DF0008EA59FA52817390709F073C1BE01665D2E
:102E00007F4FCE01C8960E94A10D892B09F069C1A0
:102E10000AE0402E84E4382E93E2692E94E0792E65
:102E200020E2C22ED12C3FE2E32E34E0F32E43E227
:102E3000A42E43E0B42E54E2852E53E0952E552463
:102E4000539464E9262E80913B0490913C040097B2
:102E500011F00E94C52880913D0490913E04009796
:102E600039F0DC01ED91FC910280F381E02D0995B0
:102E700080913F0490914004009739F0DC01ED917E
:102E8000FC910280F381E02D099586E090E00E949C
:102E900029288C01FC013082728261821382D582E2
:102EA000C48290933C0480933B041092F2021092EF
:102EB000F10210924003109262030E948205B092C8
:102EC000F601A092F5019092F8018092F701D801E5
:102ED00013965C92C8010E945007882309F479C0B8
:102EE000298280913B0490913C04FC01248135812E
:102EF000232B09F46EC0208150923F03209361037D
:102F00001092400310926203BE016F5F7F4F0E94D8
:102F1000B106882309F45DC061E070E080E090E0D4
:102F20000E94E40286E090E00E942928FC018CE2E5
:102F300091E09183808381E094E093838283F582A2
:102F4000E482F0934004E0933F0486E090E00E9426
:102F50002928FC018EE191E09183808380E094E058
:102F600093838283F582E482F0933E04E0933D04F0
:102F70006FEA71E08AE694E00E948C0E81E090E0B6
:102F800090934204809341041092440410924304AD
:102F90008BE991E00E94140489E88AA380913B04A4
:102FA00090913C04DC0114962D913C91232BD9F493
:102FB00060E070E0CB015AC068EC70E080E090E027
:102FC0000E94E4025CCE01960E94E50EC12C0C9496
:102FD000E0204A9441107EC069E971E0CE018296FA
:102FE0000E94B10E56C0FC01208150923F032093F5
:102FF00061031092400310926203BE016E5D7F4F29
:103000000E94B1068823A1F26AE070E080E090E0BF
:103010000E94E402BE016F5F7F4F80913B0490915C
:103020003C040E94E608882319F2CE0101960E9412
:103030000E029B818913BCCFCE0104960E940E0222
:103040009E818913B5CF69817A8176276727762794
:1030500090E080E0982F872F762F66272C81622BB7
:10306000982F872F762F66272D81622B1BA21AA2FD
:103070001DA21CA21FA21EA220E1AE014F5F5F4F46
:103080000E944022BE016F5F7F4FCE0182960E9458
:10309000DB0EBE016E5D7F4FCE01C8960E94CE0D45
:1030A000CE0182960E942C0DCE018A960E942C0D94
:1030B00008AD19AD01151105E1F0D8018C918823F7
:1030C000C1F0082E000C990B0E940B2AF801819385
:1030D0008F01F3CF68EC70E080E090E00E94E402A2
:1030E000B2CEBE01685C7F4FCE0182960E94120F65
:1030F000D0CFBE01685C7F4F80E794E00E94850ED0
:1031000080E794E00E94070DCE01C8960E942C0D26
:1031100061E0809111040E94830261E080911104BA
:103120000E94550280911304909114048F3F9807D8
:10313000C9F061E00E94830260E0809113040E9464
:1031400055026AE070E080E090E00E94E40261E0F5
:10315000809113040E9455026AE070E080E090E0E4
:103160000E94E4021FB7F8948091F901811127C0F1
:10317000EAE7F3E08491EEE8F3E09491E82FF0E0E1
:10318000EE0FFF1FE25CFC4FA591B491EC91E92397
:1031900021F461E08AE00E94550261E08AE00E9429
:1031A00083028CB580618CBD8CB580648CBD61E080
:1031B0008DE00E94830261E08BE00E948302809197
:1031C000F9018F5F8093F9011FBF62E481E094E011
:1031D0000E94A704823109F018C240E861E881E04A
:1031E00094E00E944F0480EC9AECA9E8B6E3809347
:1031F000170490931804A0931904B0931A0444EE92
:1032000066E881E094E00E944F0440EC67E881E0CA
:1032100094E00E944F0440E068E881E094E00E945E
:103220004F0440E06EE881E094E00E944F0440E0EB
:103230006FE881E094E00E944F046CE081E094E04C
:103240000E94A704482F43606CE881E094E00E944C
:103250004F0444E066EA81E094E00E944F0481E17B
:1032600090E00E947A040E94740480910E0190E024
:103270000E947A046DE181E094E00E94A7048F70BF
:10328000482F40676DE981E094E00E944F040E945E
:10329000591443EC61EB81E094E00E944F044AE052
:1032A00067EB81E094E00E944F046EE181E094E0DE
:1032B0000E94A7048F70482F406C6EE981E094E073
:1032C0000E944F040E9459146DE181E094E00E9435
:1032D000A704817F482F42606DE981E094E00E945D
:1032E0004F040E94740485EB91E00E94FB0C0E9445
:1032F000F30C88E199E20FB6F894A89580936000EA
:103300000FBE90936000A89566E774E0CE01019629
:103310000E94120F6CE373E0CE0101960E942F0E03
:10332000811104C0CE0101960E941A0DBE016F5F8B
:103330007F4F80E794E00E94860D8C01CE010196BC
:103340000E942C0D012B09F46FC068E373E0CE01DD
:1033500001960E94B10E20916E0430916F048D8110
:103360009E812817390751F4BE016F5F7F4F8AE6AF
:1033700094E00E94A10D11E0892B09F010E0CE012C
:1033800001960E942C0D112309F440C14BE952E033
:103390006FEB72E08FE294E00E949110C090AF0258
:1033A000D090B002E090B102F090B202C09204015D
:1033B000D0920501E0920601F09207014091D302FC
:1033C0005091D4026091D5027091D60240930801C9
:1033D0005093090160930A0170930B018091FA01E7
:1033E00090E09C01220F331F220F331FF901E55B90
:1033F000FD4FC082D182E282F38225503E4FD90137
:103400004D935D936D937C931397019664E170E007
:103410000E94FB278093FA018BE492E00E945B0BF1
:103420008BEF91E00E945B0BA89561E08FE00E941A
:10343000550200EB10E0C8010197F1F70E94F80176
:103440005C0160E08FE00E94550264E670E080E07D
:1034500090E00E94E40261E084E00E945502C8010D
:103460000197F1F70E94F8018C0160E084E00E946E
:1034700055020E9496086B017C01B501BB0C880BBC
:10348000990B0E94CA2420E030E040E85AE30E94F1
:103490002925A70196010E9429254B015C01B8014D
:1034A000110F880B990B0E94CA2420E030E040E8FD
:1034B0005AE30E942925A70196010E9429252B0184
:1034C0003C01A5019401C701B6010E94812620E0BC
:1034D00030E44CE156E40E942925A50194010E94A4
:1034E000EE264B015C0120E030E44CE156E4C301E0
:1034F000B2010E94292522966CAF7DAF8EAF9FAF9F
:103500002297A3019201C701B6010E9481269B0167
:10351000AC0122966CAD7DAD8EAD9FAD22970E9421
:10352000EE269B01AC01C501B4010E94822620E079
:1035300030E040E05FE30E9429250E9460278B0174
:10354000072E000C880B990B0E94CA246B017C018A
:103550004B015C01E894B7F82FEF3FEF4FE75FE7CF
:10356000C501B4010E94E12781110BC02FEF3FEF8D
:103570004FE75FE7C501B4010E94C32418160CF49D
:1035800006C420E030E04AE754E4C701B6010E94D7
:10359000EE266B017C0101342FE112070CF4D3C13C
:1035A00023EE35EA47EA50E40E9429259B01AC014D
:1035B00067E77EEB8FE090EC0E9481264B015C0177
:1035C00026EE3CE54AE85DE3C701B6010E942925E5
:1035D000A70196010E9429259B01AC01C501B401F8
:1035E0000E9481262DEC3CEC4CE85FE30E942925EB
:1035F0006B017C0120E030E0A9010E94962718169B
:103600000CF0EAC1C701B601EAC1FFCF80E090E04B
:10361000A0E8BFEB8093080190930901A0930A01F1
:10362000B0930B01E3E0BE2E80914E0490914F04C5
:103630000E940E0A40E06CEC80914E0490914F0481
:103640000E94F5074091450464E480914E049091F6
:103650004F040E94F5070E9417036B017C018091C3
:1036600049048823E1F080914A04882309F490C03A
:103670008091450481118CC080914E0490914F043B
:103680000E94A207813059F00E9417036C197D092E
:103690008E099F096E3E72408105910568F3809105
:1036A0004C0481119EC0C12CD12C6EEFE62E62EC31
:1036B000F62EA89520E030E04EEF52ECC701B6019F
:1036C0000E94C3248823F1F020E030E04AEA52E46B
:1036D000C701B6010E94C3248823A1F020E030E096
:1036E00040EF51ECC701B6010E94C324181654F4F0
:1036F00020E030E04CE852E4C701B6010E94962772
:1037000087FD17C5BA94B1108FCF20E030EC49E7A0
:1037100054ECC701B6010E94C324882341F120E084
:1037200030E04EEF52ECC701B6010E94C32488235B
:10373000F1F020E030E04AEA52E4C701B6010E940D
:10374000C3248823A1F020E030E040EF51ECC70112
:10375000B6010E949627181654F420E030E04CE899
:1037600052E4C701B6010E94C32487FD08C0C0907F
:103770000401D0900501E0900601F0900701C0928D
:103780000401D0920501E0920601F09207014CCEAF
:10379000E0914804E9508EEE92E0E33038F4F0E036
:1037A000EE0FFF1FEA5CFE4F808191816C01F12CCE
:1037B000E12C80914604882329F060E08091470441
:1037C0000E945502C701B6010E94E402809146049E
:1037D000882309F464CF61E0809147040E94550278
:1037E0005ECFCE0182960E94C10A882309F45BCF86
:1037F000BE016F5F7F4FCE0182960E94E90A882347
:1038000009F451CF9A81C12CD12C760197FF06C0C3
:10381000C12CD12C58EFE52EFF24FA944AA18981BE
:103820004B33F1F52D8127FF3BC080FD3CCF082FA6
:1038300010E030E020E0B3E0000F111F221F331F23
:10384000BA95D1F7007E177022273327892F90E091
:10385000B0E0A0E04BE0880F991FAA1FBB1F4A955C
:10386000D1F7802B912BA22BB32B8C019D010C291E
:103870001D292E293F290138F4EE1F07FFEF2F07DE
:103880003F070CF410CFC901B8010E94CA2420E000
:1038900030E040E05CE30E9429256B017C0109CF08
:1038A000092F10E0102F0027110F110F110FB8E092
:1038B0008B9FB0011124062B172B012E000C220B1D
:1038C000330B0C291D292E293F29483269F48035F4
:1038D00031F4953081F68F818C3069F6E4CE8F3FDC
:1038E00051F6973041F6DFCE403129F668856623E0
:1038F00011F270E08F81FB01E81BF109CF01969571
:10390000982F8827979587950E94FB27CB01770FE3
:10391000AA0BBB0BF3E0000F111F221F331FFA95F8
:10392000D1F7007827703327005211092109310996
:10393000800F911FA21FB31F97018601082B192B1F
:103940002A2B3B2B98CF093E43E014075CF12BEC6C
:1039500031EA4DE450EC0E9429252BED39EF42E885
:1039600050E40E9481264B015C0129E237E74FE1D8
:103970005CE3C701B6010E9429259B01AC0160E010
:1039800070E080E89FE30E94812626E032E144E96E
:103990005EE30E9481269B01AC01C501B4010E9437
:1039A000EE2620CE073252E015070CF4EAC12DE7CF
:1039B0003FE349EB51E40E94292528EA36EC4BE429
:1039C00051E40E9481266B017C0120E030E0A901D6
:1039D0000E94C32487FF16CEC701B60190580E94EB
:1039E0006027072E000C880B990B0E94CA24609355
:1039F000E4027093E5028093E6029093E70210914F
:103A00000E011B3088F00E94960820E030E040E470
:103A100050E40E94962718163CF4125010930E01A1
:103A2000812F90E00E947A0446E0342E59E0252E42
:103A3000A89560E774E0CE01C2960E94120F62EC76
:103A400072E0CE01C2960E942F0E4091E402509186
:103A5000E5026091E6027091E70222E0CE01019654
:103A60000E94890FBE016F5F7F4FCE01C2960E94F8
:103A7000850ECE0101960E942C0D60EC72E0CE0105
:103A8000C2960E942F0E4091080150910901609149
:103A90000A0170910B0120E0CE0101960E94890F6E
:103AA000BE016F5F7F4FCE01C2960E94850ECE0190
:103AB00001960E942C0D6EEB72E0CE01C2960E9420
:103AC0002F0E409104015091050160910601709103
:103AD000070121E0CE0101960E94890FBE016F5FB0
:103AE0007F4FCE01C2960E94850ECE0101960E94A4
:103AF0002C0D6CEB72E0CE01C2960E942F0E0E943C
:103B00009608AB01BC0121E0CE0101960E94890F0D
:103B1000BE016F5F7F4FCE01C2960E94850ECE011F
:103B200001960E942C0D6AEB72E0CE01C2960E94B3
:103B30002F0EBE016E5C7F4FCE018A960E94120F3F
:103B4000CE018A960E94C5081BA21AA21DA21CA221
:103B50001FA21EA24AE0BE016F5F7F4F0E9420227B
:103B6000BE016F5F7F4FCE0182960E94DB0EBE01C9
:103B70006E5D7F4FCE01C2960E94850ECE01829669
:103B80000E942C0DCE018A960E942C0D0E94740476
:103B900089EC92E00E9414044EA95FA96AA97BA94E
:103BA00083E693E00E94270387EC92E00E941404CE
:103BB00060910E0170E090E080E04AE00E94A50C68
:103BC00084EC92E00E94FB0C61E081E094E00E94B2
:103BD000A70483708330E9F062E181E094E00E9401
:103BE000A70483FF06C048E062E981E094E00E94F8
:103BF0004F040E9474040E94AA0440E06DE881E032
:103C000094E00E944F0440E062EA81E094E00E9468
:103C10004F044EA95FA96AA97BA981E094E00E94A4
:103C20000A0543E861E881E094E00E944F0462E104
:103C300081E094E00E94A70483FFF9CF48E062E9A5
:103C400081E094E00E944F0464E670E080E090E040
:103C50000E94E40240E861E881E094E00E944F04A1
:103C6000CE01C2960E942C0DA8950E9417036B01ED
:103C70007C01C114D104E104F10411F00E94E0219F
:103C80000E94912120E137E240E050E00E94E725C8
:103C90004B015C01A8E88A0EA3E19A1EA11CB11C8D
:103CA0000E9417036C197D098E099F096815790513
:103CB0008A059B0508F015C262E181E094E00E944C
:103CC000A704182F0E94AA04412F62E981E094E022
:103CD0000E944F0416FF5EC015FD5CC010921C04CC
:103CE00010921B0480911D0490911E0462E2892BA6
:103CF00009F463E181E094E00E94A704082F10E03A
:103D000060E181E094E00E94A704482F6DE881E023
:103D100094E00E944F040E947404012B09F04FC0EC
:103D200080917A008F7780937A008091640081601F
:103D300080936400F8E10FB6F894A895F0936000C2
:103D40000FBE2092600080916000806480936000CC
:103D500083B7817F83BFF89483B7816083BF7894F2
:103D6000889583B78E7F83BF7894809164008E7F1F
:103D70008093640080917A00806880937A00A8958F
:103D80008FCF60EF70E00D3211400CF42ACE70E05E
:103D900060E027CE61E081E094E00E94A7048638CD
:103DA00009F4BECF40E06DE881E094E00E944F044A
:103DB00046E861E881E094E00E944F04B1CF62E9F7
:103DC00071E0CE01C2960E942C0F81E094E00E9427
:103DD000FC04892B89F081E094E00E94E10489834E
:103DE0001A8241E050E0BE016F5F7F4FCE01C29664
:103DF0000E94590EA895E9CF409174045091750422
:103E00008EA99FA98417950708F45EC18AA99BA96A
:103E1000009709F459C160917004709171046115A3
:103E2000710509F451C10E942C2A892B09F04CC15B
:103E3000BE016E5C7F4FCE0182960E94120F6EEC27
:103E400072E0CE0101960E94B10E4EA15FA18D815C
:103E50009E81481B590BBE016F5F7F4FCE0182963A
:103E60000E94380D8C01CE0101960E942C0D0F5F2F
:103E70001F4F2EA13FA1A801BE016E5D7F4FCE0155
:103E800001960E943D0F89819A81412C512C32016B
:103E9000009719F00E94E9212B01CE0101960E94A2
:103EA0002C0D980150E040E0BE016E5D7F4FCE01C9
:103EB00001960E943D0FBE016F5F7F4FCE0182963B
:103EC0000E94CE0DCE0101960E942C0DBE016E5DAA
:103ED0007F4FCE0101960E94120FCE0101960E94E3
:103EE000C5088C01CE0101960E942C0DCE01829650
:103EF0000E942C0D0415150509F0E6C0BE016E5C8C
:103F00007F4FCE018A960E94120F64ED72E0CE01BF
:103F100001960E94B10EBE016F5F7F4FCE018A965F
:103F20000E94860D8C01CE0101960E942C0D62ED3F
:103F300072E0CE0182960E94B10E4EA55FA58EA1C1
:103F40009FA1481B590BBE016E5D7F4FCE018A9623
:103F50000E94380DA8014F5F5F4F9C01BE01665D56
:103F60007F4FCE0101960E943D0FBE016F5F7F4FD4
:103F7000CE018A960E94CE0DCE0101960E942C0D94
:103F8000CE0182960E942C0D60ED72E0CE0101966A
:103F90000E94B10EBE016F5F7F4FCE018A960E94D4
:103FA000860D0FEF1FEF019641F48AA59BA50097A0
:103FB00009F486C00E94E9218B01CE0101960E947E
:103FC0002C0DCE018A960E942C0D0F3F100709F48C
:103FD00083C010930D0100930C0188E193E00E94CF
:103FE00014046801110FEE08FF084AE0C701B6018A
:103FF000F7FE0DC06DE283E693E00E94C7036627DB
:104000007727CB016C197D098E099F094AE00E9430
:10401000A50C84E193E00E94FB0CCE01C2960E94A5
:104020002C0D83E693E00E942F0460910C017091A7
:104030000D01072E000C880B990B0E94CA2420E06A
:1040400030E040EF50E40E9429250E9460277B0168
:1040500010E000E095E5C92E93E0D92E27E8A22EC6
:1040600023E0B22E33E7832E33E0932E0E151F0587
:104070000CF052C0A89530E020E050E040E069E04C
:1040800070E083EE92E00E944808A895F6018491C2
:10409000F5017490F4016490662009F43DC081112B
:1040A0000E942C02E62DF0E0EE0FFF1FEA59FC4FB4
:1040B000A591B4918C91782279F10F5F1F4FD6CFE3
:1040C00060E070E0CB0178CF8BEF92E00E941404A7
:1040D000CE01C2960E94070DCE01C2960E942C0D01
:1040E0001FCE81EE92E00E9414044AE0C501B401A3
:1040F0000E94A50C86ED92E00E94FB0C80910E01BF
:10410000843130F48E5F80930E0190E00E947A0437
:104110003A9431108DCC85CF80E090E0892B09F462
:10412000F2C80E949103882309F4EDC80E940000A0
:10413000EAC820E030EC49E754ECFFCACE018A9689
:104140000E94C10AD82E882311F40C94E71664E962
:1041500071E08AE694E00E948C0E82E891E00E9471
:10416000140462E971E0CE01C8960E942C0F8E0102
:10417000065D1F4F7E0122E3E20EF11CD8016D9116
:104180008D01CE01603110F00C94E31782960E94ED
:10419000E50E6DEA71E0C7010E942C0F4EA15FA1F0
:1041A0006AA17BA1C7010E94590E811103C0C701FA
:1041B0000E941A0DB701CE0101960E94120FCD2C5C
:1041C000BE016F5F7F4FCE01C8960E94850ECE0163
:1041D00001960E942C0DCC2039F0C7010E942C0DB5
:1041E000CE0182960E942C0D0E151F0539F60C94F7
:1041F000F01680913B0490913C04009711F00E94CE
:10420000C52880913D0490913E04009739F0DC016F
:10421000ED91FC910280F381E02D099580913F049E
:1042200090914004009739F0DC01ED91FC910280FF
:10423000F381E02D09958AE694E00E942C0D80E739
:1042400094E00E942C0D86E794E00C942C0DEF92E4
:104250000F931F93CF93DF93E80134E047FD34E1E0
:10426000042E000C550B57FF03C051954195510981
:10427000E32E022F242FAE010E947C22CE01DF917B
:10428000CF911F910F91EF9008958F929F92AF92CF
:10429000BF92CF92DF92EF92FF92CF93DF93EC0128
:1042A000688179818A819B816115710581059105FC
:1042B00021F464E279ED8BE597E02DE133EF41E005
:1042C00050E00E94E72549015A019B01AC01A7EA91
:1042D000B1E40E9406266B017C01ACEEB4EFA501AF
:1042E00094010E941426C60ED71EE81EF91EF7FE82
:1042F00006C081E0C81AD108E10880E8F80AC8823F
:10430000D982EA82FB82C701B6019F77DF91CF9104
:10431000FF90EF90DF90CF90BF90AF909F908F90E5
:1043200008958F929F92AF92BF92CF92DF92EF92B9
:10433000FF92609110017091110180911201909192
:104340001301611571058105910521F464E279ED90
:104350008BE597E02DE133EF41E050E00E94E72547
:1043600049015A019B01AC01A7EAB1E40E9406266B
:104370006B017C01ACEEB4EFA50194010E94142600
:10438000C60ED71EE81EF91EF7FE06C081E0C81A49
:10439000D108E10880E8F80AC0921001D09211011A
:1043A000E0921201F0921301C701B6019F77FF90CE
:1043B000EF90DF90CF90BF90AF909F908F90089537
:1043C0006093100170931101809312019093130177
:1043D00008951F93FC0199278827BC01E894119147
:1043E0001032E9F3193010F01E30C8F31B3251F0CF
:1043F0001D3249F4689406C00E942B22610F711D82
:10440000811D911D119110531A30B0F33EF4909517
:104410008095709561957F4F8F4F9F4F1F910895A5
:10442000FB01DC0105900D920020E1F70895FC01ED
:1044300005900020E9F7809590958E0F9F1F0895B5
:10444000BB274A3031F4992322F4BDE2909581953F
:104450009F4F0C946322592F482F372F262F660F1A
:10446000771F881F991F660F771F881F991F620F7C
:10447000731F841F951F660F771F881F991F08954C
:10448000BB27FA01A62F6217710581059105330B31
:1044900030FB66F0AA27660F771F881F991FAA1F97
:1044A000A21710F0A21B63953850A9F7A05DAA339C
:1044B00008F0A95DA19336F7B111B1931082CA013A
:1044C0000C94B324BB27FB015527AA27880F991FFB
:1044D000AA1FA41710F0A41B83955051B9F7A05D33
:1044E000AA3308F0A95DA193009779F7B111B193B0
:1044F0001192CB010C94B324A9E0B0E0E2E8F2E21F
:104500000C941F266A01F22EB02E102FFBE3AF2E63
:10451000A01608F41BE31F5F012F27E0AE014F5FD9
:104520005F4F0E94DB23BC018981982F99709130E5
:1045300009F43FC09BE2E1FC04C09E2D9170E0FCB9
:104540003AC05E2D5071E82FE87083FF46C084E0CA
:10455000911101C083E0EF2DE81B8F1508F0E0E01A
:10456000D6018E2F20E2552351F1992329F0D6014F
:104570009C93C60101966C0196012D5F3F4FE2FEB0
:1045800024C08EE4D6018C9391E411969C931197EC
:1045900012968C93D9018E2F90E281111BC0E20FED
:1045A000F32FF11D10828EEF9FEF2996ECE00C9413
:1045B0003B269DE2C6CF90E2C4CF2D93815081115E
:1045C000FCCFCE0ED11CE0E0D0CF8EE6D6018C938E
:1045D00091E6DBCF9D938150E0CF482F447082FF5E
:1045E0003DC084E0911101C083E08F1510F4EF2DE0
:1045F000E81BD6018E2F20E2552309F1992329F0DB
:10460000D6019C93C60101966C0196012D5F3F4F28
:10461000E2FE1BC089E4D6018C938EE411968C9344
:10462000119786E412968C93D9018E2F90E28823FD
:1046300009F4B5CF9D938150FACF2D93815081110C
:10464000FCCFCE0ED11CE0E0D9CF89E6D6018C9309
:104650008EE611968C93119786E6E4CF9B0177FF47
:1046600002C030E020E0A1E0B0E0911102C0B0E073
:10467000A0E0F9013196AE0FBF1F8B2C912CBB200F
:1046800009F461C05401EFEFAE1ABE0AAA0DBB1DBA
:10469000FA161B0619F014F04F2D4A1B511188C051
:1046A000E3FC59C07601A42FB0E2A1114FC0C40EA3
:1046B000D11C992309F45BC040E0D6011196F601A4
:1046C00090836D01552309F448C0012F060F9A818C
:1046D000582F507184FF03C0913309F40150101614
:1046E0000CF047C0093008F008E0EEE2FE2E5B0156
:1046F000A01AB10885019194819491082F3F320747
:1047000029F4D601FC92F60131966F016217730706
:1047100094F1021713077CF5DB01A21BB30BAA244B
:10472000A394B12CAC0EBD1EAA0DBB1D11968C918D
:1047300021503109D601119628153905F4F0F601FA
:1047400080836D01DBCFB12CA12CA0CFF701B193F9
:104750007F01A150AACF9111B0CFD601942F50E381
:1047600002C05D9391509111FCCFC40ED11C40E06A
:10477000ACCF01E0BACF80E3DBCF6217730731F42F
:10478000963388F4953311F4552369F0F60180834C
:10479000FD01842F90E2811108C0A40FB11D1C926D
:1047A00090E080E002CF81E3F1CF91938150F3CF8D
:1047B000911183CF8ACF283008F027E03327DA0120
:1047C000990F311D87FD916000966105710539F4DF
:1047D00032602E5F3D9330E32A95E1F708959F3FC5
:1047E00030F080387105610509F03C5F3C5F3D9316
:1047F000913008F08068911DDF93CF931F930F9342
:10480000FF92EF92192F987F9695E92F969596959E
:10481000E90FFF27EE53FF4F99273327EE24FF249C
:10482000A701E70105900894079428F4360FE71EC6
:10483000F81E491F511D660F771F881F991F069488
:10484000A1F70590079428F4E70EF81E491F561F9C
:10485000C11D770F881F991F661F0694A1F7059049
:10486000079428F4F80E491F561FC71FD11D880F43
:10487000991F661F771F0694A1F70590079420F4EF
:10488000490F561FC71FD81F990F661F771F881F14
:104890000694A9F784911095177041F0D695C795A5
:1048A00057954795F794E7941A95C1F7E8E6F0E035
:1048B00068941590159135916591959105907FE2D9
:1048C0007395E118F10A430B560BC90BD009C0F7D9
:1048D000E10CF11E431F561FC91FD01D7EF470331B
:1048E00011F48A95E6CFE894015030F0080F0AF4ED
:1048F0000027021708F4202F2395022F7A3328F07F
:1049000079E37D932A95E9F710C07D932A9589F67E
:10491000069497956795379517951794E118F10ABE
:10492000430B560BC90BD00998F023957E917395D4
:104930007A3308F070E37C932013B8F77E917061AE
:104940007D9330F0839571E37D9370E32A95E1F7D1
:104950001124EF90FF900F911F91CF91DF91992734
:1049600087FD90950895DC01FC01672F71917723F5
:10497000E1F7329704C07C916D9370836291AE171A
:10498000BF07C8F308950E94052508F481E0089543
:10499000E89409C097FB3EF49095809570956195D9
:1049A0007F4F8F4F9F4F9923A9F0F92F96E9BB278F
:1049B0009395F695879577956795B795F111F8CF0B
:1049C000FAF4BB0F11F460FF1BC06F5F7F4F8F4F76
:1049D0009F4F16C0882311F096E911C0772321F06C
:1049E0009EE8872F762F05C0662371F096E8862F04
:1049F00070E060E02AF09A95660F771F881FDAF75B
:104A0000880F9695879597F90895990F0008550F87
:104A1000AA0BE0E8FEEF16161706E807F907C0F044
:104A200012161306E407F50798F0621B730B840B4C
:104A3000950B39F40A2661F0232B242B252B21F426
:104A400008950A2609F4A140A6958FEF811D811DC6
:104A500008950E943C250C94AD250E949F2538F0B6
:104A60000E94A62520F0952311F00C9496250C9415
:104A70009C2511240C94E1250E94BE2570F3959F7E
:104A8000C1F3950F50E0551F629FF001729FBB2745
:104A9000F00DB11D639FAA27F00DB11DAA1F649FE1
:104AA0006627B00DA11D661F829F2227B00DA11D94
:104AB000621F739FB00DA11D621F839FA00D611D1A
:104AC000221F749F3327A00D611D231F849F600D3B
:104AD000211D822F762F6A2F11249F5750409AF064
:104AE000F1F088234AF0EE0FFF1FBB1F661F771FF0
:104AF000881F91505040A9F79E3F510580F00C94BB
:104B000096250C94E1255F3FE4F3983ED4F3869517
:104B100077956795B795F795E7959F5FC1F7FE2B5A
:104B2000880F911D9695879597F9089597F99F6736
:104B300080E870E060E008959FEF80EC0895002425
:104B40000A941616170618060906089500240A94F2
:104B500012161306140605060895092E0394000C78
:104B600011F4882352F0BB0F40F4BF2B11F460FF07
:104B700004C06F5F7F4F8F4F9F4F089557FD905830
:104B8000440F551F59F05F3F71F04795880F97FB11
:104B9000991F61F09F3F79F08795089512161306CB
:104BA0001406551FF2CF4695F1DF08C016161706FA
:104BB0001806991FF1CF869571056105089408952F
:104BC000E894BB2766277727CB0197F90895052E30
:104BD00097FB1EF400940E94FE2557FD07D00E940B
:104BE000502607FC03D04EF40C94FE2550954095BA
:104BF000309521953F4F4F4F5F4F08959095809589
:104C0000709561957F4F8F4F9F4F08950E94722638
:104C1000A59F900DB49F900DA49F800D911D112410
:104C20000895B7FF0C9406260E940626821B930B5C
:104C300008952F923F924F925F926F927F928F9240
:104C40009F92AF92BF92CF92DF92EF92FF920F931B
:104C50001F93CF93DF93CDB7DEB7CA1BDB0B0FB625
:104C6000F894DEBF0FBECDBF09942A8839884888E2
:104C70005F846E847D848C849B84AA84B984C88478
:104C8000DF80EE80FD800C811B81AA81B981CE0F6F
:104C9000D11D0FB6F894DEBF0FBECDBFED01089554
:104CA000A1E21A2EAA1BBB1BFD010DC0AA1FBB1F30
:104CB000EE1FFF1FA217B307E407F50720F0A21BA2
:104CC000B30BE40BF50B661F771F881F991F1A940F
:104CD00069F760957095809590959B01AC01BD0139
:104CE000CF010895A29FB001B39FC001A39F700D93
:104CF000811D1124911DB29F700D811D1124911DE4
:104D000008955058BB27AA270E9499260C94AD25D8
:104D10000E949F2538F00E94A62520F039F49F3F7D
:104D200019F426F40C949C250EF4E095E7FB0C9402
:104D30009625E92F0E94BE2558F3BA17620773071C
:104D40008407950720F079F4A6F50C94E0250EF47D
:104D5000E0950B2EBA2FA02D0B01B90190010C018B
:104D6000CA01A0011124FF27591B99F0593F50F4A3
:104D7000503E68F11A16F040A22F232F342F4427FB
:104D8000585FF3CF469537952795A795F0405395F3
:104D9000C9F77EF41F16BA0B620B730B840BBAF0C3
:104DA0009150A1F0FF0FBB1F661F771F881FC2F72E
:104DB0000EC0BA0F621F731F841F48F48795779542
:104DC0006795B795F7959E3F08F0B0CF9395880FFC
:104DD00008F09927EE0F9795879508950E9402276E
:104DE0000C94AD250E94A62558F00E949F2540F006
:104DF00029F45F3F29F00C94962551110C94E1257C
:104E00000C949C250E94BE2568F39923B1F3552389
:104E100091F3951B550BBB27AA27621773078407CD
:104E200038F09F5F5F4F220F331F441FAA1FA9F363
:104E300035D00E2E3AF0E0E832D091505040E69551
:104E4000001CCAF72BD0FE2F29D0660F771F881FB2
:104E5000BB1F261737074807AB07B0E809F0BB0BA5
:104E6000802DBF01FF2793585F4F3AF09E3F5105B9
:104E700078F00C9496250C94E1255F3FE4F3983E7E
:104E8000D4F3869577956795B795F7959F5FC9F7A2
:104E9000880F911D9695879597F90895E1E0660F23
:104EA000771F881FBB1F621773078407BA0720F09C
:104EB000621B730B840BBA0BEE1F88F7E095089505
:104EC0000E9467276894B1110C94E12508950E940F
:104ED000C62588F09F5798F0B92F9927B751B0F0A1
:104EE000E1F0660F771F881F991F1AF0BA95C9F76E
:104EF00014C0B13091F00E94E025B1E008950C9407
:104F0000E025672F782F8827B85F39F0B93FCCF3B9
:104F1000869577956795B395D9F73EF490958095EA
:104F2000709561957F4F8F4F9F4F08950E94052583
:104F300008F48FEF089519F416F40C949C250C9442
:104F4000E6270E94C625B8F39923C9F3B6F39F5705
:104F5000550B87FF0E94F4270024A0E640EA900149
:104F600080585695979528F4805C660F771F881FA8
:104F700020F026173707480730F4621B730B840BA9
:104F8000202931294A2BA6951794079420253125ED
:104F90004A2758F7660F771F881F20F02617370714
:104FA000480730F4620B730B840B200D311D411D3B
:104FB000A09581F7B901842F9158880F9695879510
:104FC00008950E940525880B990B08959F3F31F0A5
:104FD000915020F4879577956795B795880F911D27
:104FE0009695879597F9089591505040660F771FD1
:104FF000881FD2F7089597FB072E16F4009407D068
:1050000077FD09D00E940F2807FC05D03EF490954B
:1050100081959F4F0895709561957F4F0895AA1BC4
:10502000BB1B51E107C0AA1FBB1FA617B70710F093
:10503000A61BB70B881F991F5A95A9F780959095C5
:10504000BC01CD010895EE0FFF1F0590F491E02DF6
:1050500009940F931F93CF93DF938230910510F43F
:1050600082E090E0E0917E04F0917F0430E020E067
:10507000B0E0A0E0309799F42115310509F44AC059
:10508000281B390B24303105D8F58A819B816115A5
:10509000710589F1FB0193838283FE0111C0408178
:1050A00051810281138148175907E0F048175907C9
:1050B00099F4109761F012960C93129713961C9323
:1050C0003296CF01DF91CF911F910F9108950093F8
:1050D0007E0410937F04F4CF2115310551F042175F
:1050E000530738F0A901DB019A01BD01DF01F80186
:1050F000C1CFEF01F9CF90937F0480937E04CDCF91
:10510000FE01E20FF31F81939193225031093983FD
:105110002883D7CF20917C0430917D04232B41F448
:10512000209116013091170130937D0420937C0467
:1051300020911401309115012115310541F42DB74D
:105140003EB74091180150911901241B350BE09195
:105150007C04F0917D04E217F307A0F42E1B3F0BB3
:105160002817390778F0AC014E5F5F4F24173507D9
:1051700048F04E0F5F1F50937D0440937C04819351
:1051800091939FCFF0E0E0E09CCFCF93DF93009727
:10519000E9F0FC01329713821282A0917E04B09153
:1051A0007F04ED0130E020E01097A1F420813181EF
:1051B000820F931F20917C0430917D0428173907BA
:1051C00009F061C0F0937D04E0937C04DF91CF91FE
:1051D0000895EA01CE17DF07E8F54A815B819E0159
:1051E00041155105B1F7E901FB83EA8349915991D2
:1051F000C40FD51FEC17FD0761F4808191810296E1
:10520000840F951FE90199838883828193819B8311
:105210008A83F0E0E0E012968D919C9113970097BD
:10522000B9F52D913C911197CD010296820F931FF4
:1052300020917C0430917D042817390739F6309786
:1052400051F510927F0410927E04B0937D04A093D8
:105250007C04BCCFD383C28340815181840F951FCE
:10526000C817D90761F44E5F5F4F88819981480F55
:10527000591F518340838A819B81938382832115A7
:10528000310509F0B0CFF0937F04E0937E049ECF08
:10529000FD01DC01C0CF13821282D7CFB0E0A0E0C5
:1052A000E4E5F9E20C941B268C01009751F4CB0144
:1052B0000E9429288C01C801CDB7DEB7E0E10C942B
:1052C0003726FC01E60FF71F9C0122503109E21737
:1052D000F30708F49DC0D901CD91DC911197C61751
:1052E000D70798F0C530D10530F3CE010497861763
:1052F000970708F3C61BD70B2297C193D1936D93E1
:105300007C93CF010E94C528D6CF5B01AC1ABD0AA1
:105310004C018C0E9D1EA0917E04B0917F04512CF7
:10532000412CF12CE12C109731F580917C04909167
:105330007D048815990509F05CC04616570608F0EB
:1053400058C08091140190911501009741F48DB7D8
:105350009EB74091180150911901841B950BE817D5
:10536000F90708F055C0F0937D04E0937C04F9013F
:1053700071836083A0CF8D919C91119712966C9050
:10538000129713967C901397A815B90559F56C01DF
:1053900042E0C40ED11CCA14DB0420F1AC014A194E
:1053A0005B09DA011296159780F06282738251834D
:1053B0004083D9016D937C93E114F10471F0D7011E
:1053C0001396FC93EE93129776CF22968C0F9D1F27
:1053D000F90191838083F301EFCFF0937F04E09391
:1053E0007E0469CF4816590608F42C017D01D301CB
:1053F0009ACFCB010E9429287C01009749F0AE0189
:10540000B8010E94132AC8010E94C528870153CF02
:1054100010E000E050CF9111089581568A5108F4B0
:10542000805285580895FB01DC0102C001900D9265
:1054300041505040D8F70895FB01DC018D91019057
:1054400080190110D9F3990B0895FB01DC0101903B
:105450000D920020E1F70895FB01DC01415050401E
:1054600030F08D910190801919F40020B9F7881B54
:10547000990B0895FB01DC014150504048F0019028
:105480000D920020C9F701C01D9241505040E0F735
:105490000895FB0151915523A9F0BF01DC014D9105
:1054A00045174111E1F759F4CD010190002049F071
:1054B0004D9140154111C9F3FB014111EFCF81E03E
:1054C00090E00197089511E0CDECD1E004C0FE0119
:1054D0000E9423282196CE3CD107C9F7F894FFCF2C
:1054E0002603260300C079C4000080BF05000A011E
:1054F0000100000000008004800000000000890717
:10550000360D8A072012F70F000000008907340DBE
:105510008A072A1246105E00BC007701781E00A0A0
:105520002800F03C00405100127A00E4A20024F46C
:105530000048E80190D00320A10700000000C70345
:10554000270354032F04850363037703000000003F
:1055500045050A054D07BA04FC04E104BB0400003C
:1055600000001E07F1064D07BA04EA06D706C80672
:105570000D0A0053485434785F540053485434782B
:105580005F48004454412D574D2D307800300000C5
:00000001FF
