:020000040000FA
:100000000C9439020C94CF140C94A8140C944E1533
:100010000C944E150C944E150C9461020C946102D4
:100020000C9461020C9461020C9461020C946102C4
:100030000C9461020C9461020C9461020C946102B4
:100040000C945E140C9461020C941C150C94F61420
:100050000C9461020C9461020C9461020C94610294
:100060000C9461020C9461022B4353513A20002CF2
:10007000002B4353513A200041542B43535100006D
:10008000002C0000000041542B485454505245416C
:10009000443D302C333030004F6B00696E690041B5
:1000A000542B48545450414354494F4E3D30002244
:1000B0000026716F733D002673693D002672783DFE
:1000C000005D0026646174613D5B002F77732F73C0
:1000D000656E736F725F76362E7068703F69643D2F
:1000E0000041542B48545450504152413D225552E6
:1000F0004C222C22687474703A2F2F00004F4B0052
:100100000020000041542B4343494400000A0000F2
:100110000D000041542B434349440020636F6E207F
:100120006572726F7220E29C980020525353493AD4
:10013000200020636F7272656374616D656E746513
:1001400020E29C942049443A2000000041542B5363
:10015000415042523D312C310041542B53415042C9
:10016000523D332C312C22505744222C2277656289
:100170006770727332303032220041542B53415039
:1001800042523D332C312C2255534552222C22779A
:100190006562677072220041542B53415042523DB8
:1001A000332C312C2241504E222C22696E74657200
:1001B0006E65742E6974656C63656C2E636F6D2259
:1001C0000041542B53415042523D332C312C224399
:1001D0004F4E54595045222C224750525322004131
:1001E000542B43444E534346473D22382E382E3835
:1001F0002E38222C22382E382E342E342200415410
:100200002B53415042523D302C310041542B434638
:10021000554E3D310047534D20696E696369616CED
:10022000697A61646F002C002B4353513A200041DE
:10023000542B43535100636F6D6D4572726F723A68
:10024000200036303400363031004552524F5200D3
:100250002C002C0022002C0041542B4854545054A4
:1002600045524D002B48545450524541443A2000C9
:100270000A0041542B48545450504152413D2243AE
:100280004944222C310041542B48545450494E4982
:100290005400496E6963696F206465206C61206356
:1002A0006F6D756E6963616369C3B36E2E2E2E0028
:1002B000002020E29494E294802053656E736F7264
:1002C00065733A200044657363756272696D696590
:1002D0006E746F002020E2949CE294802046726548
:1002E0006375656E6369613A2000C2BB2056617216
:1002F0006961626C65733A20004D656D6F7269616A
:1003000020646973706F6E69626C653A20000A43FD
:100310006F6D756E6963616369C3B36E20636F6EE1
:1003200020656C207365727669646F7200307800A6
:100330003078007E204C6F526120696E696369617C
:100340006C697A61646F20636F7272656374616D4A
:10035000656E746520E29C94000A0A4C6F5261201D
:100360004761746577617920556E6976657273614E
:100370006C2076362E312E3235303830360020E281
:100380009C94204F6B002C002C002C002C0030780B
:10039000005D203C2D20000A20202020205B002C26
:1003A000003078002C000A2020202020E2869220B5
:1003B000000A2020202020E2869220C2AB20E29C6E
:1003C00098204572726F72206465206C6563747545
:1003D00072612E2E2E20C2BB000A2020202020E297
:1003E000869220C2AB20E29C9820446973706F73A0
:1003F000697469766F206E6F207265636F6E6F63CC
:1004000069646F2E2E2E20C2BB0044544100000AA6
:10041000002C0000000000240027002A000000003B
:1004200008000201000003040700000000000000B3
:100430000000000000230026002900000000002525
:100440000028002B00040404040404040402020233
:100450000202020303030303030102040810204005
:100460008001020408102001020408102000251653
:10047000FA1C11241FBECFEFD8E0DEBFCDBF11E0C4
:10048000A0E0B1E0EEE6F2E402C005900D92AC3CD3
:10049000B107D9F723E0ACECB1E001C01D92A23561
:1004A000B207E1F712E0C8E3D2E004C02197FE01F1
:1004B0000E94FE1FC733D107C9F70E9438170C945A
:1004C0002A210C9400008091490390914A03892BC2
:1004D00059F1E0911F02F091200283E0EF32F8071A
:1004E00019F1309739F0A389B4899C918589809559
:1004F00089238C9380914D038E7F80934D031092BE
:100500001E0210921D028FE293E0909320028093CE
:100510001F02E0914203F0914303808190914403D4
:10052000892B808381E0089580E0089590E0FC01AC
:10053000E35EFB4F2491FC01E75AFB4F3491FC0131
:10054000EB5BFB4FE491EE23C9F0222339F023301B
:1005500001F1A8F4213019F1223029F1F0E0EE0F79
:10056000FF1FE55CFB4FA591B4918FB7F894EC9118
:10057000611126C030953E233C938FBF08952730EC
:10058000A9F02830C9F0243049F7809180008F7D90
:1005900003C0809180008F7780938000DFCF84B587
:1005A0008F7784BDDBCF84B58F7DFBCF8091B0008A
:1005B0008F778093B000D2CF8091B0008F7DF9CF3C
:1005C0003E2BDACFCF93DF9390E0FC01E75AFB4F4D
:1005D00024918B5B9B4FFC0184918823D1F090E0A8
:1005E000880F991FFC01ED5EFB4FA591B491FC01B2
:1005F000E55CFB4FC591D49161110EC09FB7F89493
:100600008C91E22FE0958E238C932881E223E8835E
:100610009FBFDF91CF9108958FB7F894EC91E22BB3
:10062000EC938FBFF6CF3FB7F89480911902909169
:100630001A02A0911B02B0911C0226B5A89B05C00E
:100640002F3F19F00196A11DB11D3FBFBA2FA92F51
:10065000982F8827BC01CD01620F711D811D911D4E
:1006600043E0660F771F881F991F4A95D1F70895B9
:100670008F929F92AF92BF92CF92DF92EF92FF92B2
:100680006B017C010E9413034B015C01C114D10476
:10069000E104F104B9F00E941303681979098A0989
:1006A0009B09683E73408105910580F321E0C21AE1
:1006B000D108E108F10888EE880E83E0981EA11C9D
:1006C000B11CE4CFFF90EF90DF90CF90BF90AF9040
:1006D0009F908F9008952FB7F894609115027091B4
:1006E000160280911702909118022FBF0895089565
:1006F0000895DB0114964D915C9115976D917C9155
:10070000DC01ED91FC910280F381E02D0994AF9220
:10071000BF92CF92DF92EF92FF920F931F93CF93EE
:10072000DF936C017B018B01040F151FEB015E0150
:10073000AE18BF08C017D10759F06991D601ED91E5
:10074000FC910190F081E02DC6010995892B79F784
:10075000C501DF91CF911F910F91FF90EF90DF9036
:10076000CF90BF90AF900895FC01538D448D252FFD
:1007700030E0842F90E0821B930B541710F0CF963B
:10078000089501970895FC01918D828D981761F06D
:10079000A28DAE0FBF2FB11D5D968C91928D9F5F84
:1007A0009F73928F90E008958FEF9FEF0895FC0163
:1007B000918D828D981731F0828DE80FF11D858D16
:1007C00090E008958FEF9FEF0895FC01918D228DA9
:1007D000892F90E0805C9F4F821B91098F7399272E
:1007E000089581E292E00E94E50321E0892B09F45B
:1007F00020E0822F089580E090E0892B29F00E946C
:10080000F10381110C9400000895FC01A48DA80F40
:10081000B92FB11DA35ABF4F2C91848D90E0019642
:100820008F739927848FA689B7892C93A089B18962
:100830008C91837080648C93938D848D981306C003
:100840000288F389E02D80818F7D80830895EF9267
:10085000FF920F931F93CF93DF93EC0181E0888F7A
:100860009B8D8C8D98131AC0E889F989808185FF4A
:1008700015C09FB7F894EE89FF896083E889F989EC
:1008800080818370806480839FBF81E090E0DF91EE
:10089000CF911F910F91FF90EF900895F62E0B8D41
:1008A00010E00F5F1F4F0F731127E02E8C8D8E11FC
:1008B0000CC00FB607FCFACFE889F989808185FF63
:1008C000F5CFCE010E940504F1CFEB8DEC0FFD2F8B
:1008D000F11DE35AFF4FF0829FB7F8940B8FEA891E
:1008E000FB8980818062CFCF0F931F93CF93DF93DB
:1008F0008C01D0E0C0E0F801EC0FFD1F649166238D
:1009000041F081E292E00E942704892B11F02196A8
:10091000F2CFCE01DF91CF911F910F910895CF9328
:10092000DF93EC01888D8823B9F0AA89BB89E88917
:10093000F9898C9185FD03C0808186FD0DC00FB6BD
:1009400007FCF7CF8C9185FFF2CF808185FFEDCF3B
:10095000CE010E940504E9CFDF91CF9108950F9356
:100960001F93CF93DF93EC01062F142F60E088894B
:100970000E9496029C858D859CBD8DBD0EBD00009C
:100980000DB407FEFDCF8EB51EBD00000DB407FEF1
:10099000FDCF1EB561E088890E949602812FDF910C
:1009A000CF911F910F91089541E861E88FEB92E09C
:1009B0000C94AF0440E00C94AF041092DC0210924F
:1009C000DB026DE18FEB92E00E94DA04482F4E7F4C
:1009D0006DE98FEB92E00C94AF0408950F931F9391
:1009E000CF93DF93EC01E881F9810084F185E02D5C
:1009F0000995892BB1F06DE0CE010E94DA04082F31
:100A000060E0CE010E94DA04182F402F6DE8CE017D
:100A10000E94AF04812F90E0DF91CF911F910F9141
:100A200008958FEF9FEFF8CFCF93DF93EC01E8812C
:100A3000F9810084F185E02D0995892B69F08A8D73
:100A40009B8D01969B8F8A8F60E0CE010E94DA0415
:100A500090E0DF91CF9108958FEF9FEFFACFCF9382
:100A6000DF93EC0163E10E94DA0490E02A8D3B8D74
:100A7000821B930BDF91CF910895AF92BF92CF92DB
:100A8000DF92FF920F931F93CF93DF936C015B0173
:100A9000EA0162E20E94DA04F82E90E09C012C0F39
:100AA0003D1F2F3F310529F020F0CFEFD0E0C81BCC
:100AB000D90B8501AC0EBD1E0A151B0541F0F801CE
:100AC00041918F0160E8C6010E94AF04F5CF4C2F21
:100AD0004F0D62EAC6010E94AF04CE01DF91CF91B3
:100AE0001F910F91FF90DF90CF90BF90AF9008952E
:100AF000CF93DF931F92CDB7DEB76983DC01ED9111
:100B0000FC910280F381E02D41E050E0BE016F5F77
:100B10007F4F09950F90DF91CF91089520911F028B
:100B2000309120022817390771F490911D028091AD
:100B30001E02981741F0E0911D02F0E0E253FE4FD3
:100B4000808190E008958FEF9FEF0895EF92FF92DC
:100B50000F931F93CF93DF93DC015C96ED90FC9095
:100B60005D97E114F10479F481E090E013969C9391
:100B70008E93129790E080E0DF91CF911F910F91BB
:100B8000FF90EF9008955196ED91FC9152975096F9
:100B90008C915097982F90950FB75E962C915E97F9
:100BA000122F127021FD6095F8942081112319F104
:100BB000282B2083E7012197F1F728E0462F50E00A
:100BC000308160FF1AC0382B3083E7012197F1F79D
:100BD000BA0175956795215089F7112381F08081BD
:100BE000892380830FBF5C968D919C910197F1F7CB
:100BF00081E090E0C1CF2923DCCF3923E5CF90817C
:100C0000892BEFCF20911F0230912002281739073E
:100C100061F480911E0220911D0290E0805C9F4F44
:100C2000821B91098F739927089590E080E00895C1
:100C300020911F023091200228173907B9F49091B2
:100C40001D0280911E02981789F0E0911D02F0E0CC
:100C5000E253FE4F808120911D0230E02F5F3F4F15
:100C60002F73332720931D0290E008958FEF9FEF9D
:100C7000089590E080E0089561E08FE00E94960280
:100C800064EF71E080E090E00E94380360E08FE064
:100C90000E94960264EF71E080E090E00C943803CB
:100CA000DC0114966D917C91159730E020E090E086
:100CB00080E026173707A1F0ED91FC91119730974E
:100CC00061F410920F02EFE0F2E04081840F911D79
:100CD00047FD9A952F5F3F4FECCFE20FF31FF5CF03
:100CE000089561E08EE00E94E20261E08EE00E94E1
:100CF000960262E370E080E090E00E94380360E0DA
:100D00008EE00C94E20240E060EC8FEB92E00E94F7
:100D1000AF040E94DD0445E861E88FEB92E00C949B
:100D2000AF04DF92EF92FF920F931F93CF93DF9365
:100D3000FC01E480F580E114F10451F48FEF9FEFA2
:100D4000DF91CF911F910F91FF90EF90DF90089569
:100D5000EC010190F081E02DEE0DFF1DD08010829E
:100D60000881198162E270E0C8010E9405210E0D20
:100D70001F1DF801D082009709F328813981821B59
:100D8000930BDECFFC0124813581FB014481558129
:100D900024173507E1F4FC0180819181FB0160811A
:100DA00071810097D1F061157105A1F4232BC1F079
:100DB000FC01808190E008C0232B91F0FB01808131
:100DC00090E091958195910921E0892B09F020E02F
:100DD000822F08950E94E720F7CF6115710561F712
:100DE00021E0F6CFFB0101900020E9F73197AF0138
:100DF000461B570BDC01ED91FC910280F381E02D45
:100E000009948F929F92AF92BF920F931F93CF93AB
:100E1000DF93CDB7DEB7A1970FB6F894DEBF0FBE54
:100E2000CDBF19A2423008F44AE08E010F5D1F4F7A
:100E3000842E912CB12CA12CA50194010E94A21FFB
:100E4000E62FB901CA01EA3004F5E05DD801EE935E
:100E50008D01232B242B252B79F790E080E0109730
:100E600029F0BD0181E292E00E94F206A1960FB640
:100E7000F894DEBF0FBECDBFDF91CF911F910F91D0
:100E8000BF90AF909F908F900895E95CDFCFCF9295
:100E9000DF92EF92FF92CF93DF936B017C016DE2C3
:100EA00081E292E00E942704EC0166277727CB01BC
:100EB0006C197D098E099F094AE00E9401078C0F79
:100EC0009D1FDF91CF91FF90EF90DF90CF9008951D
:100ED000CF93DF930E947404EC0164E671E081E239
:100EE00092E00E94F2068C0F9D1FDF91CF91089532
:100EF000CF93DF93BC01990F880B990B97FF0EC01E
:100F00000E944707EC0164E671E081E292E00E94F2
:100F1000F2068C0F9D1FDF91CF9108954AE00E9449
:100F20000107F0CF0F931F93CF93DF93EC010E9443
:100F300079038C0164E671E0CE010E94F206800F15
:100F4000911FDF91CF911F910F910895FC01808136
:100F50009181009711F00C94551E60E070E0CB0178
:100F60000895AF92BF92CF92DF92EF92FF920F93CC
:100F70001F93CF93DF936B01EA01FB0144815581FD
:100F80004115510561F1FC0124813581211531059F
:100F900031F12417350718F1C217D30710F0E90112
:100FA0002197FC0100811181C801AA24AA94BB24C5
:100FB000BA947801EC0EFD1EE816F906A0F0F601D1
:100FC000608171810E941021009769F09C01201BB3
:100FD000310BC217D30708F059010196EDCFAA24AF
:100FE000AA94BB24BA94C501DF91CF911F910F91B0
:100FF000FF90EF90DF90CF90BF90AF900895CF9388
:10100000DF93FC01248135814217530788F4C081A6
:10101000D181FB0160817181CE01840F951F0E94F7
:101020001021009729F08C1B9D0BDF91CF91089523
:101030008FEF9FEFFACF50E040E00C94FF072F9224
:101040003F924F925F926F927F928F929F92AF9258
:10105000BF92CF92DF92EF92FF920F931F93CF93A5
:10106000DF93FC01448055804114510409F4CDC044
:10107000FB01648075806114710409F4C6C07A01B3
:101080006B01EC01FA01A480B580A618B7080881AD
:101090001981A114B104B9F4F60160817181C8010C
:1010A0000E9410218C01009709F4AFC0F701608104
:1010B0007181448155810E94C120F701848195810D
:1010C000080F191FE9CFB7FC10C0FB012080318049
:1010D0004201C801B1010E941021009709F448C0E3
:1010E000860D971D8A0C9B1CF5CF3801F601608197
:1010F0007181C8010E9410212C01009719F14C0147
:10110000801A910AA401B801C3010E94C120680C91
:10111000791CF7016081718144815581C3010E946E
:10112000C120F70184809580680C791CF601048148
:101130001581040D151D8C819D818A0D9B1D9D833C
:101140008C83D4CFB801C301DF91CF911F910F9150
:10115000FF90EF90DF90CF90BF90AF909F908F90D7
:101160007F906F905F904F903F902F900C94F02065
:101170004814590409F449C08A819B81881599054E
:1011800060F4B4016F5F7F4FC8010E940420009794
:10119000E1F1998388839B828A824C815D814150F1
:1011A000510957FD32C0B601CE010E94B1078C0132
:1011B00097FD2BC0F60124813581280F391F8881C6
:1011C0009981820F931F4C815D81421B530BBC019F
:1011D0008A0D9B1D0E94CA208C819D818A0D9B1DBA
:1011E0009D838C8328813981820F931FFC0110829B
:1011F00088819981F7016081718144815581800FD7
:10120000911F0E94C120A801CACFDF91CF911F91E9
:101210000F91FF90EF90DF90CF90BF90AF909F9095
:101220008F907F906F905F904F903F902F90089598
:101230000F931F93CF93DF93EC01888199810097DF
:1012400059F02A813B812617370730F081E0DF9182
:10125000CF911F910F9108958B016F5F7F4F0E9477
:101260000420009759F0998388831B830A832C817B
:101270003D81232B59F7FC011082E8CF80E0E7CFB6
:10128000EF92FF920F931F93CF93DF936115710538
:1012900041F480E0DF91CF911F910F91FF90EF908B
:1012A000089541155105B1F07B01EC010C811D81C0
:1012B000040F151FB8010E941809882351F32881D3
:1012C00039818C819D81B701820F931F0E94F0208C
:1012D0001D830C8381E0DECFFB0144815581608159
:1012E00071810C944009EF92FF920F931F93CF935B
:1012F000DF93EC017B01CB010E94831E0097A9F0D4
:101300000C811D81080F191FB801CE010E94180918
:10131000882361F0288139818C819D81B701820FFA
:10132000931F0E947C1E1D830C8381E0DF91CF916F
:101330001F910F91FF90EF9008950F931F93CF93FC
:10134000DF938C01EB01FC01808191810097E1F03A
:101350006881798161157105A9F0428153812C81E1
:101360003D814217530770F00E94F0208C819D81CF
:10137000F801958384831D821C82DF91CF911F9198
:101380000F9108950E94CC1D88819981F801918365
:1013900080838A819B81938382838C819D819583C5
:1013A0008483198218821B821A82E5CFCF93DF9340
:1013B000EC0188819981009711F00E94CC1D19825F
:1013C00018821D821C821B821A82DF91CF910895A0
:1013D000CF93DF93EC010E947309811103C0CE010A
:1013E0000E94D609CE01DF91CF910895CF93DF936C
:1013F000EC01FB0101900020E9F73197AF01461B9A
:10140000570B0E944009811103C0CE010E94D609EA
:10141000CE01DF91CF910895CF93DF93EC01FB01D3
:1014200044815581608171810E944009811103C00E
:10143000CE010E94D609CE01DF91CF910895EF929F
:10144000FF920F931F93CF93DF93EC017B018A01EF
:10145000BA010E94180981110BC0CE010E94D60961
:10146000CE01DF91CF911F910F91FF90EF900895E2
:101470001D830C83B701888199810E94F020F0CFF1
:10148000FB0101900020E9F73197AF01461B570B94
:101490000C941F0A0F931F93CF93DF93CDB7DEB742
:1014A00062970FB6F894DEBF0FBECDBF8C01CB01A3
:1014B000F8011182108213821282158214824AE08E
:1014C000BE016F5F7F4F0E948C1EBE016F5F7F4F1A
:1014D000C8010E94400A62960FB6F894DEBF0FBEA4
:1014E000CDBFDF91CF911F910F9108950F931F935F
:1014F000CF93DF93CDB7DEB729970FB6F894DEBF51
:101500000FBECDBF8C01862FF8011182108213828D
:101510001282158214824AE0BE016F5F7F4F90E015
:101520000E94AC1EBE016F5F7F4FC8010E94400A3F
:1015300029960FB6F894DEBF0FBECDBFDF91CF91D5
:101540001F910F910895CF93DF93EC01FB01861754
:10155000970749F0608171816115710541F04481FF
:1015600055810E941F0ACE01DF91CF9108950E94FC
:10157000D609F9CFFC0111821082138212821582E2
:1015800014820C94A30AFC0111821082138212822D
:1015900015821482FB0101900020E9F73197AF0119
:1015A000461B570B0C941F0AAF92BF92CF92DF924B
:1015B000EF92FF920F931F93CF93DF936C015B0128
:1015C0007A0189012417350720F48F2D7901042F22
:1015D000182F66E671E0C6010E94C30AD501149671
:1015E000CD91DC91EC16FD06E0F40C171D0708F414
:1015F000E801D501ED91FC911197EC0FFD1F1081D1
:1016000010826D917C916E0D7F1DC6016115710573
:10161000A1F00E94400AF50180819181C80FD91F75
:101620001883C601DF91CF911F910F91FF90EF902A
:10163000DF90CF90BF90AF9008950E94D609EBCF76
:101640007F928F929F92AF92BF92CF92DF92EF9252
:10165000FF920F931F93CF93DF9300D0CDB7DEB7E8
:101660008C017A01722E8FE293E00E949207B701FB
:10167000FF0C880B990B0E9438030E94710666E6E6
:1016800071E0C8010E94C30A0E946B034B015C0118
:1016900028E8820E23E1921EA11CB11C0E946B035C
:1016A0006B017C010E946B03681579058A059B0517
:1016B000C0F0772029F0B80181E292E00E94920701
:1016C000C8010F900F90DF91CF911F910F91FF9064
:1016D000EF90DF90CF90BF90AF909F908F907F90D2
:1016E00008958FE293E00E940206892B99F08FE221
:1016F00093E00E94180689831A8241E050E0BE01FF
:101700006F5F7F4FC8010E9440090E946B036B010D
:101710007C01E7CF0E947106F80184819581892BB5
:1017200009F20E946B036C197D098E099F09693CBF
:1017300071058105910508F4B5CFBBCFEF92FF92FB
:101740000F931F93CF93DF93EC018B0119821882C3
:101750001B821A821D821C82CB010E94831E7C0187
:10176000BC01CE010E941809811109C0CE01DF9190
:10177000CF911F910F91FF90EF900C94D609FD82AD
:10178000EC82B80188819981DF91CF911F910F91EF
:10179000FF90EF900C947C1EFC018081918100975A
:1017A00011F00C94CC1D0895AF92BF92CF92DF92AE
:1017B000EF92FF920F931F93CF93DF9300D000D04F
:1017C00000D0CDB7DEB75C01BC0181EE92E00E9493
:1017D0001B08019609F444C060E373E0CE01019652
:1017E0000E949E0BBE016F5F7F4F81EE92E00E94D0
:1017F0001B087C01CE0101960E94CC0B10E000E09A
:101800006DE273E0CE0101960E949E0BA7014F5F2F
:101810005F4FBE016F5F7F4F81EE92E00E94FF0736
:101820006C01CE0101960E94CC0B9601A70161EEDE
:1018300072E0CE0101960E94D40AB501CE01019654
:101840000E941B087C01CE0101960E94CC0BEF2068
:10185000E09441F40F5F1F4F76010A30110581F6C5
:101860000FEF1FEFC80126960FB6F894DEBF0FBE2C
:10187000CDBFDF91CF911F910F91FF90EF90DF903F
:10188000CF90BF90AF9008950F931F93CF93DF93A6
:10189000CDB7DEB768970FB6F894DEBF0FBECDBFE9
:1018A00068E770E0CE0101960E949E0B20E04FE0B9
:1018B00050E0BE016F5F7F4FCE0143960E94200B28
:1018C000CE0101960E94CC0B61E770E0CE0101963B
:1018D0000E949E0BBE016F5F7F4FCE0143960E9418
:1018E0001B088C01CE0101960E94CC0B0F3F100704
:1018F000B9F16FE670E0CE0107960E949E0BBE0123
:10190000695F7F4FCE0143960E941B088C0168E6F9
:1019100070E0CE0101960E949E0BBE016F5F7F4F6B
:10192000CE0143960E941B08AC014A5F5F4F9801AD
:10193000BE016D5E7F4FCE010D960E94D40ACE018E
:101940000D960E94A6078B01CE010D960E94CC0B2E
:10195000CE0101960E94CC0BCE0107960E94CC0BC3
:10196000CE0143960E94CC0BC80168960FB6F8943E
:10197000DEBF0FBECDBFDF91CF911F910F910895B4
:101980008F929F92BF92CF92DF92EF92FF920F932E
:101990001F93CF93DF93CDB7DEB768970FB6F89458
:1019A000DEBF0FBECDBF6C018B0161EE70E0CE01DA
:1019B00043960E949E0BB801CE0143960E946C098B
:1019C0006BEC70E0CE0143960E94730963E273E012
:1019D000CE0143960E946C0963EC70E0CE01439601
:1019E0000E94730965E870E0CE010D960E949E0B7F
:1019F00007EE12E0BB24B394F12CE12C67E671E012
:101A0000CE0107960E94C30ABE01695F7F4FC801DD
:101A10000E941B08019609F03BC1B801CE01019656
:101A20000E94BA0ABE016F5F7F4FC8010E949D09E4
:101A3000CE0101960E94CC0BCE0107960E94CC0BE2
:101A400063E870E0CE0101960E949E0BBE016F5FBD
:101A50007F4FC8010E94C206811101C0B12CCE0186
:101A600001960E94CC0B90E8892E90E0992E89E097
:101A7000E816F10421F081E8882E80E0982EB80164
:101A8000CE0101960E94BA0AB401CE0101960E94CD
:101A9000E809BC01CE010D960E946C09CE010196A9
:101AA0000E94CC0B2FEFE21AF20A0A5F1F4F8AE066
:101AB000E816F10409F0A2CFBB2009F4F0C06FE7EB
:101AC00070E0CE0101960E949E0BCE010D960E9401
:101AD000CC0BBE016F5F7F4FCE0107960E94BA0A02
:101AE00061EC70E0CE0107960E94E809BC01CE01CE
:101AF00043960E946C09CE0107960E94CC0BCE0142
:101B000001960E94CC0B6CEB70E0CE0143960E94D4
:101B100073098091090168E970E0882311F06BE98D
:101B200070E0CE0143960E94730967EB70E0CE012E
:101B300043960E9473096091CD01CE0101960E94E7
:101B4000760ABE016F5F7F4FCE0143960E946C09FB
:101B5000CE0101960E94CC0B61EB70E0CE01439662
:101B60000E94730960910101CE0101960E94760ADC
:101B7000BE016F5F7F4FCE0107960E94BA0A6FEADF
:101B800070E0CE0107960E94E809BC01CE014396A1
:101B90000E946C09CE0107960E94CC0BCE010196E3
:101BA0000E94CC0BBE016D5E7F4F81E292E00E94ED
:101BB0009207BE016D5E7F4FCE0101960E94BA0A68
:101BC00020E04FE050E0BE016F5F7F4FCE010796EF
:101BD0000E94200BCE0107960E94CC0BCE010196ED
:101BE0000E94CC0B6FE970E0CE0101960E949E0B23
:101BF00021E040E157E2BE016F5F7F4FCE010D96BD
:101C00000E94200BCE0101960E94CC0B6BE671E086
:101C1000CE0107960E94C30ABE01695F7F4FCE01C5
:101C20000D960E941B08019609F041C066E870E01D
:101C3000CE0101960E949E0B21E050E040E0BE01E3
:101C40006F5F7F4FC6010E94200BCE0101960E945C
:101C5000CC0BCE0107960E94CC0BCE010D960E94B4
:101C6000CC0BCE0143960E94CC0BC60168960FB6F2
:101C7000F894DEBF0FBECDBFDF91CF911F910F91C2
:101C8000FF90EF90DF90CF90BF909F908F9008953E
:101C900064E870E0CE0101960E949E0BC3CEBE01A7
:101CA000635F7F4FCE0101960E94BA0A0ECF66E6AF
:101CB00071E0C6010E94C30ACCCF4F925F926F922F
:101CC0007F928F929F92AF92BF92CF92DF92EF92CC
:101CD000FF920F931F93CF93DF93CDB7DEB76E972D
:101CE0000FB6F894DEBF0FBECDBF0E9471068EE026
:101CF00093E00E946807809100018E010F5F1F4FE3
:101D0000882309F462C20E94710685E192E00E9474
:101D1000740410924A0310924903109248031092DF
:101D2000470310924603109245038DEC90E0909388
:101D30004C0380934B0390913B03963108F047C0CE
:101D400025E530E030934603209345032BEC30E04B
:101D5000309348032093470320E930E030934A034F
:101D6000209349032091680084E0983048F031E0E6
:101D70009E3008F430E081E001C0880F3A95EAF720
:101D8000822B809368002DE630E0983050F02BE6EF
:101D900030E09E3030F02CE630E0963110F030E04C
:101DA00020E03093430320934203292F30E0983002
:101DB00008F0A2C181E001C0880F9A95EAF78093EC
:101DC000440380914B0390914C030197F1F70E94DB
:101DD00063020E9471060E9463020E9471066BE01A
:101DE00072E0C8010E949E0B20E04FE050E0B80175
:101DF000CE0107960E94200BCE0107960E94CC0BC5
:101E0000C8010E94CC0B6EEF71E0C8010E949E0BCE
:101E100020E04FE050E0B801CE0107960E94200B71
:101E2000CE0107960E94CC0BC8010E94CC0B6FED2F
:101E300071E0C8010E949E0B20E04FE050E0B80125
:101E4000CE0107960E94200BCE0107960E94CC0B74
:101E5000C8010E94CC0B61EC71E0C8010E949E0B8E
:101E600020E04FE050E0B801CE0107960E94200B21
:101E7000CE0107960E94CC0BC8010E94CC0B67E9EB
:101E800071E0C8010E949E0B20E04FE050E0B801D5
:101E9000CE0107960E94200BCE0107960E94CC0B24
:101EA000C8010E94CC0B6AE771E0C8010E949E0B3A
:101EB00020E04FE050E0B801CE0107960E94200BD1
:101EC000CE0107960E94CC0BC8010E94CC0B69E59D
:101ED00071E0C8010E949E0B20E04FE050E0B80185
:101EE000CE0107960E94200BCE0107960E94CC0BD4
:101EF000C8010E94CC0B6CE471E0C8010E949E0BEB
:101F000020E04FE050E0B801CE0107960E94200B80
:101F1000CE0107960E94CC0BC8010E94CC0B0E94F8
:101F200071062AE0822E912C6BE471E0C8010E94B8
:101F30009E0BB80183E293E00E94C206882329F039
:101F4000FF24F394181419040CF0F12CC8010E941A
:101F5000CC0BFF2009F417C163E171E0C8010E94B6
:101F60009E0B20E04FE050E0B801CE010D960E949C
:101F7000200BC8010E94CC0B62E171E0C8010E94F5
:101F80009E0B60E171E0CE0107960E949E0BA801B6
:101F9000BE01695F7F4FCE010D960E941F08CE01E2
:101FA00007960E94CC0BC8010E94CC0B6FE071E039
:101FB000C8010E949E0B6DE071E0CE0107960E9461
:101FC0009E0BA801BE01695F7F4FCE010D960E9456
:101FD0001F08CE0107960E94CC0BC8010E94CC0BB3
:101FE0006CE071E0C8010E949E0B64E071E0CE01DC
:101FF00007960E949E0BA801BE01695F7F4FCE012C
:102000000D960E941F08CE0107960E94CC0BC801B6
:102010000E94CC0B63E071E0C8010E949E0B61E05E
:1020200071E0CE0107960E949E0BA801BE01695F78
:102030007F4FCE010D960E941F08CE0107960E9489
:10204000CC0BC8010E94CC0B60E071E0C8010E947B
:102050009E0B6DEF70E0CE0107960E949E0BA801CB
:10206000BE01695F7F4FCE010D960E941F08CE0111
:1020700007960E94CC0BC8010E94CC0BAD84BE8495
:10208000A114B10439F0E988FA886501E114F1047A
:1020900009F040C029893A892150310948E050E0CF
:1020A000BE01635F7F4FC8010E94D40AB801CE0110
:1020B0000D960E949D09C8010E94CC0BBE01635F72
:1020C0007F4FC8010E94BA0AE981FA812D813E81C1
:1020D0002E0F3F1F2E173F0709F4C3C38191082E0F
:1020E000000C990BC0970A97A8F36CEF70E0CE0133
:1020F00007960E949E0BC2C39E3040F428503109BF
:1021000081E001C0880F2A95EAF759CE2E50310997
:10211000F7CF630136012FEF621A720AF601808150
:10212000082E000C990B0E94C61E892B91F7F1E036
:10213000EF1AF108EA0CFB1CF7018081082E000C55
:10214000990B0E94C61E892B39F0EC14FD0420F077
:10215000F1E0EF1AF108F0CF2FEFE21AF20AA7012F
:102160004C195D095A8B498BAC14BD0420F4B6019F
:10217000C5010E94C120ED85FE8589899A89E80FF5
:10218000F91F108287CF6AE471E0C8010E949E0B9C
:10219000B80183E293E00E94C206F82EC8010E94B3
:1021A000CC0BF11099C282E391E00E94740463E2C7
:1021B00073E081E292E00E9479038AE291E00E945A
:1021C00074040E94440C0E9478070E94440C80937F
:1021D000CD0160EB72E0C8010E949E0BB80183E262
:1021E00093E00E94C206F82EC8010E94CC0BF110A9
:1021F00006C382E992E00E9468076FE272E0C801BC
:102200000E949E0B20E04FE050E0B801CE010D96F9
:102210000E94200BC8010E94CC0B68E272E0C8014A
:102220000E949E0BB801CE010D960E941B087C01F6
:10223000C8010E94CC0B8FEFE816F80621F1E9885F
:10224000FA8866E272E0CE0107960E949E0BBE01FC
:10225000695F7F4FCE010D960E941B08AC014F5F56
:102260005F4F9701BE01635F7F4FC8010E94D40A90
:10227000C8010E94A6077B01C8010E94CC0BCE01B9
:1022800007960E94CC0BCE010D960E94CC0BE092DB
:10229000010166E872E0CE0107960E949E0B20E0E5
:1022A0004FE050E0BE01695F7F4FC8010E94200BE4
:1022B000C8010E94CC0BCE0107960E94CC0B62E7AE
:1022C00072E0CE0107960E949E0B20E04FE050E0A6
:1022D000BE01695F7F4FC8010E94200BC8010E94A8
:1022E000CC0BCE0107960E94CC0B62E871E0C801CE
:1022F0000E94C30AB801CE0149960E94C00CC801D1
:102300000E94CC0B8D8D9E8D892B29F0E98DFA8D45
:102310008081811118C061E971E0CE0107960E94A9
:10232000C30ABE01695F7F4FC8010E94C00CB8019B
:10233000CE0149960E949D09C8010E94CC0BCE0196
:1023400007960E94CC0BCE0149960E9491060196F9
:102350006C018D8D9E8D892B61F0E98CFA8C62E287
:1023600070E0C7010E94DC20AC014E195F09892B87
:1023700011F44FEF5FEF9601BE01675E7F4FC8011A
:102380000E94D40A6D807E80C8010E94CC0B60E759
:1023900072E0CE0107960E949E0B45E150E0BE011F
:1023A000695F7F4FCE0149960E94FF077C0164E67A
:1023B00072E0CE010D960E949E0BBE01635F7F4FBF
:1023C000CE0149960E941B08AC01455F5F4F970103
:1023D000BE01675E7F4FC8010E94D40AC8010E94F7
:1023E000A6076B012B01C8010E94CC0BCE010D96F4
:1023F0000E94CC0BCE0107960E94CC0BB601C801FF
:102400000E944A0AB301CE010D960E944A0ABE01FB
:10241000635F7F4FCE0107960E94BA0A60EA71E0BF
:10242000CE0107960E94F609B8010E940C0ABC0171
:1024300081E292E00E949207CE0107960E94CC0BA7
:10244000CE010D960E94CC0BC8010E94CC0B0E94BD
:10245000710668E572E0CE0107960E949E0B20E0AF
:102460004EE150E0BE01695F7F4FC8010E94200B22
:10247000C8010E94CC0BCE0107960E94CC0B6C14B5
:102480007D0409F0BFC06114710409F4BBC010924F
:10249000080161E08FE00E949602CE0149960E94F9
:1024A000910601967C018D8D9E8D892B61F0C98CE2
:1024B000DA8C62E270E0C6010E94DC20AC014C19AB
:1024C0005D09892B11F44FEF5FEF9701BE01675E45
:1024D0007F4FC8010E94D40AB801CE0149960E94DC
:1024E0009D09C8010E94CC0B66E572E0C8010E94FC
:1024F0009E0B64E572E0CE0107960E949E0BA80138
:10250000BE01695F7F4FCE0149960E941F08CE0130
:1025100007960E94CC0BC8010E94CC0B62E572E0CA
:10252000CE0107960E949E0B41E050E0BE01695F1C
:102530007F4FCE0149960E94FF079C0141E050E089
:10254000BE01675E7F4FC8010E94D40AC8010E9485
:10255000A6074B01C8010E94CC0BCE0107960E9432
:10256000CC0B8091060190910701892BE9F481142D
:102570009104D1F087EEE82E82E0F82E93E2C92E86
:1025800093E0D92E66E671E0C8010E94C30AB80143
:10259000C7010E949D09C8010E94CC0BE6E0EE0E27
:1025A000F11CCE14DF0471F79092070180920601AE
:1025B000ED8CFE8CF1E0EF1AF10860E572E0CE01DF
:1025C00007960E949E0B41E050E0BE01695F7F4F7D
:1025D000CE0149960E94FF07AC014F5F5F4F970104
:1025E000BE01675E7F4FC8010E94D40AB80181EE28
:1025F00092E00E949D09C8010E94CC0BCE01079673
:102600000E94CC0BBE01675E7F4FCE0143960E94B5
:10261000BA0A6AE472E0C8010E949E0BB801CE01BA
:1026200043960E941B08019609F05BC066E472E0C5
:10263000CE0107960E949E0BBE01695F7F4FCE01BF
:1026400043960E941B08019609F050C062E472E0B4
:10265000CE010D960E949E0BBE01635F7F4FCE019F
:1026600043960E941B08FF24F394019609F4F12C71
:1026700081E0EE24E394F0920001882321F0CE0162
:102680000D960E94CC0BEE2021F0CE0107960E9401
:10269000CC0BC8010E94CC0B8091CD01863050F14B
:1026A00080910101873030F5F11024C06414750465
:1026B00009F51092CC018091CC018130B1F51092D6
:1026C000CC0160E08EE00E94960268EE73E080E04C
:1026D00090E00E943803F9CF8BE191E00E946807F7
:1026E00074CD80E0E12CFF24F394C5CF80E0EE248C
:1026F000E394F9CF6091CC01FF24F394F60EF092AD
:10270000CC01FF20C1F286E392E00E9474046F2D99
:1027100070E090E080E04AE00E94010764E671E02A
:1027200081E292E00E94F206C6CFCE0143960E945B
:10273000CC0BCE0149960E94CC0B0E94710689EF0A
:1027400092E00E94740480914E0390914F03009791
:1027500011F482E593E09801281B390BC9010E940E
:1027600078078AEE92E00E94680784ED92E00E946A
:10277000740460910601709107016115710509F4F7
:102780006BC0CE0107960E944A0ABE01695F7F4F67
:10279000C8010E94BA0A6AEB71E0C8010E94F609FA
:1027A000BC0181E292E00E949207C8010E94CC0B1A
:1027B000CE0107960E94CC0B81EB92E00E9474043C
:1027C00061EE72E081E292E00E94920710920901AC
:1027D0006E960FB6F894DEBF0FBECDBFDF91CF91DE
:1027E0001F910F91FF90EF90DF90CF90BF90AF902F
:1027F0009F908F907F906F905F904F90089591E0A1
:10280000909300018091CC018F5F8093CC019093D5
:1028100008016091CD01C8010E94760A64EA71E066
:10282000CE0107960E94C30A63E273E0CE010796C9
:102830000E940C0A60EB71E00E94F609B8010E9448
:102840000C0ABC0181E292E00E949207CE01079639
:102850000E94CC0BC8016FCF85EC92E00E94680704
:10286000ABCF89899A890A97029708F03ECCBE01BE
:10287000635F7F4FCE0107960E94BA0AC8010E948B
:10288000CC0BCE010D960E94CC0BBE01695F7F4F31
:1028900083E293E00E949D09CE0107960E94CC0B33
:1028A0000E943C060E94710660E871E081E292E0BD
:1028B0000E94F20631E0831A910836CB1F920F92E4
:1028C0000FB60F9211242F933F938F939F93AF9343
:1028D000BF938091150290911602A0911702B091BA
:1028E00018023091140226E0230F2D3758F5029676
:1028F000A11DB11D2093140280931502909316021E
:10290000A0931702B09318028091190290911A02B5
:10291000A0911B02B0911C020196A11DB11D8093D4
:10292000190290931A02A0931B02B0931C02BF914C
:10293000AF919F918F913F912F910F900FBE0F906C
:102940001F90189529E8230F0396A11DB11DD2CF22
:102950001F920F920FB60F9211242F933F934F9314
:102960005F936F937F938F939F93AF93BF93EF93F7
:10297000FF93E0910401F09105010995FF91EF911A
:10298000BF91AF919F918F917F916F915F914F9187
:102990003F912F910F900FBE0F901F9018951F928F
:1029A0000F920FB60F9211242F933F934F935F9383
:1029B0006F937F938F939F93AF93BF93EF93FF9307
:1029C000E0910201F09103010995FF91EF91BF9110
:1029D000AF919F918F917F916F915F914F913F91B7
:1029E0002F910F900FBE0F901F9018951F920F926E
:1029F0000FB60F9211242F933F934F935F936F93D2
:102A00007F938F939F93AF93BF93EF93FF9381E255
:102A100092E00E940504FF91EF91BF91AF919F91C9
:102A20008F917F916F915F914F913F912F910F9077
:102A30000FBE0F901F9018951F920F920FB60F9216
:102A400011242F938F939F93EF93FF93E091310283
:102A5000F09132028081E0913702F091380282FDDC
:102A60001BC0908180913A028F5F8F7320913B024F
:102A7000821741F0E0913A02F0E0EF5DFD4F958F53
:102A800080933A02FF91EF919F918F912F910F9038
:102A90000FBE0F901F9018958081F4CF1F920F9258
:102AA0000FB60F9211242F933F934F935F936F9321
:102AB0007F938F939F93AF93BF93EF93FF93E09197
:102AC0001F02F0912002309749F0A685B7858585D1
:102AD000968D91FF14C09C918923A1F4FF91EF91F1
:102AE000BF91AF919F918F917F916F915F914F9126
:102AF0003F912F910F900FBE0F901F9018959C91B2
:102B0000892361F7A389B4899C918589809589235C
:102B10008C93868997890197F1F7608D718DA685D1
:102B2000B785558538E020E0CB010197F1F7822F7A
:102B300090E095958795282F4C91452309F02068C2
:102B4000315091F7868D81FD209580911E0290E095
:102B500001968F73992730911D02381799F0A09133
:102B60001E02B0E0A253BE4F2C9380931E02828DB2
:102B7000938D0197F1F7A389B4898C919589892B5D
:102B80008C93ACCF868D8160868FF1CFCF92DF9210
:102B9000EF92FF92CF93DF936DE18FEB92E00E9473
:102BA000DA0490E034E0959587953A95E1F78A301C
:102BB00091050CF042C0FC01EE0FFF1FE80FF91F5A
:102BC000E05FFE4FC080D180E2800E2C000CFF0839
:102BD0006EE18FEB92E00E94DA04D82F66E28FEB71
:102BE00092E00E94DA04C82FD295DF7021E030E035
:102BF00040E050E004C0220F331F441F551FDA95F8
:102C0000D2F7C701B6010E94C41F68EE73E080E0EE
:102C100090E00E94C41F213131054105510594F017
:102C20004C2F486066EA8FEB92E0DF91CF91FF90E6
:102C3000EF90DF90CF900C94AF04CC24CA94DC2C9E
:102C40007601C6CF4C2F477FEDCFCF93DF93109205
:102C500024021092230288EE93E0A0E0B0E080937B
:102C6000250290932602A0932702B093280222E324
:102C700031E0309322022093210225EC30E03093A2
:102C80002E0220932D0224EC30E03093300220936A
:102C90002F0220EC30E0309332022093310221ECFD
:102CA00030E0309334022093330222EC30E0309352
:102CB00036022093350226EC30E030933802209320
:102CC000370210923A0210923B0210923C0210928C
:102CD0003D021092C2021092C10224E431E030930E
:102CE000C0022093BF0220E52093CB0261E06093F5
:102CF000CC022EEB32E03093CE022093CD022AE0BC
:102D000030E03093D0022093CF0229E030E03093BE
:102D1000D2022093D10222E030E03093D4022093FB
:102D2000D3021092D5021092D6021092D7021092BE
:102D3000D8021092DA021092D9021092DC0210929C
:102D4000DB021092DE021092DD021092E00210927D
:102D5000DF021092C3021092C4021092C5021092B8
:102D6000C602109232031092310380933303909382
:102D70003403A0933503B093360386E591E0909336
:102D8000300380932F031092460310924503109254
:102D900048031092470310924A031092490310927D
:102DA0004C0310924B0380914D038E7F8D7F809357
:102DB0004D0386958170682783E00E94960261E04A
:102DC00083E00E94E202ECE5F4E0E491E0933F034B
:102DD000E8E4F4E0E491F0E0EE0FFF1FE55CFB4F68
:102DE00085919491909341038093400360E084E047
:102DF0000E94E20280914D0381FD04C061E084E005
:102E00000E94960284E080933B03EDE5F4E0E491B8
:102E1000E0933C03E9E4F4E0E491F0E0EE0FFF1FFF
:102E2000EF5CFB4F8591949190933E0380933D031B
:102E300066E671E089E293E00E94C30A66E671E00B
:102E400083E293E00E94C30AC7EED2E066E671E037
:102E5000CE010E94C30A269683E0C332D807B1F799
:102E600066E671E081EE92E0DF91CF910C94C30AA7
:102E7000CF93DF93CDB7DEB7E8970FB6F894DEBFF8
:102E80000FBECDBF789484B5826084BD84B5816067
:102E900084BD85B5826085BD85B5816085BD809125
:102EA0006E00816080936E0010928100809181009D
:102EB0008260809381008091810081608093810095
:102EC000809180008160809380008091B100846057
:102ED0008093B1008091B00081608093B0008091B8
:102EE0007A00846080937A0080917A008260809377
:102EF0007A0080917A008E7F80937A0080917A00A8
:102F0000806880937A001092C10061E08FE00E9497
:102F1000E2020E943C060E947106E0913102F091AB
:102F2000320282E08083E0912D02F0912E02108225
:102F3000E0912F02F091300283E3808310923902F6
:102F4000E0913502F091360286E08083E091330211
:102F5000F0913402808180618083E0913302F091AE
:102F60003402808188608083E0913302F0913402E2
:102F7000808180688083E0913302F0913402808107
:102F80008F7D808389E593E00E94680761E08091EE
:102F9000CF020E94E20261E08091CF020E9496027D
:102FA0008091D1029091D2028F3F9807C9F061E0E1
:102FB0000E94E20260E08091D1020E9496026AE0E3
:102FC00070E080E090E00E94380361E08091D102DF
:102FD0000E9496026AE070E080E090E00E94380370
:102FE0001FB7F89480910E02811127C0EFE4F4E03E
:102FF0008491E3E6F4E09491E82FF0E0EE0FFF1FF8
:10300000ED5EFB4FA591B491EC91E92321F461E0D1
:103010008AE00E94960261E08AE00E94E2028CB59A
:1030200080618CBD8CB580648CBD61E08DE00E94B8
:10303000E20261E08BE00E94E20280910E028F5F6B
:1030400080930E021FBF62E48FEB92E00E94DA04CD
:10305000823109F054C140E861E88FEB92E00E94B0
:10306000AF0480EC9AECA9E8B6E38093D502909384
:10307000D602A093D702B093D80244EE66E88FEB55
:1030800092E00E94AF0440EC67E88FEB92E00E9470
:10309000AF0440E068E88FEB92E00E94AF0440E0AC
:1030A0006EE88FEB92E00E94AF0440E06FE88FEB98
:1030B00092E00E94AF046CE08FEB92E00E94DA0491
:1030C000482F43606CE88FEB92E00E94AF0444E02D
:1030D00066EA8FEB92E00E94AF0444E86DEC8FEB60
:1030E00092E00E94AF044BE26BE88FEB92E00E940B
:1030F000AF044FE869E88FEB92E00E94AF040E94B2
:10310000D40447E86DEC8FEB92E00E94AF0441E3FA
:103110006BE88FEB92E00E94AF044FE869E88FEB19
:1031200092E00E94AF046DE18FEB92E00E94DA041E
:103130008F70482F40676DE98FEB92E00E94AF04DB
:103140000E94C61543EC61EB8FEB92E00E94AF0446
:103150004AE067EB8FEB92E00E94AF046EE18FEBE9
:1031600092E00E94DA048F70482F406C6EE98FEB7A
:1031700092E00E94AF040E94C6156DE18FEB92E0D1
:103180000E94DA04817F482F42606DE98FEB92E064
:103190000E94AF040E94830683E393E00E946807C5
:1031A0000E9471060E943C060E945D0E0E943C0631
:1031B00047EEE42E42E0F42E8E010F5F1F4F66E6CD
:1031C00071E0C8010E94C30AB801C7010E949D09AD
:1031D000C8010E94CC0B86E0E80EF11C23E2E21647
:1031E00023E0F20661F70E946B0360931002709374
:1031F0001102809312029093130235E0C32ED12C5A
:103200000E947106A0910601B091070190E3892EFA
:1032100095E7992EA12CB12C1A161B0644F4AA0F7F
:10322000BB1F20E335E70E94E31F4B015C010E94B6
:103230006B03409010025090110260901202709047
:1032400013026419750986099709681579058A05B5
:103250009B0508F092C3B0900901B1108EC362E1E2
:103260008FEB92E00E94DA04F82E0E94DD044F2DCD
:1032700062E98FEB92E00E94AF04F6FE41C08F2D11
:103280008072A82EF5FC3CC01092DA021092D9028E
:103290008091DB029091DC0262E2892B09F463E108
:1032A0008FEB92E00E94DA04E82EF12C60E18FEBC4
:1032B00092E00E94DA04482F6DE88FEB92E00E94C2
:1032C000AF040E94D404EF2879F580910801882387
:1032D00009F489C30E943C0662E370E080E090E05C
:1032E0000E94380380E090E0892B09F489CF0E9486
:1032F000F103882309F481CF0E9400007ECFFFCF25
:1033000061E08FEB92E00E94DA048638F1F240E04F
:103310006DE88FEB92E00E94AF0446E861E88FEB26
:1033200092E00E94AF04D1CF6EE074E0CE01C3966C
:103330000E949E0B8FEB92E00E942F05892B71F06B
:103340008FEB92E00E94140589831A8241E050E0DD
:10335000B801CE01C3960E944009ECCF6AE074E048
:10336000C8010E949E0B4D815E818FA998AD841784
:10337000950778F08BA99CA9009759F069817A810B
:103380006115710531F00E94F720FF24F394892B19
:1033900009F0F12CC8010E94CC0BBE016D5C7F4F7F
:1033A000F1100DC081E292E00E94790389ED93E073
:1033B0000E947404CE01C3960E94CC0B86CFCE012E
:1033C00009960E94BA0A64EA73E0C8010E949E0B43
:1033D0004D855E858D819E81481B590BB801CE01BC
:1033E00009960E94B1077C01C8010E94CC0B2FEF07
:1033F000E21AF20A2D853E85A701BE01675F7F4F65
:10340000C8010E94D40AC8010E94A6072B01C80166
:103410000E94CC0B970150E040E0BE01675F7F4FF8
:10342000C8010E94D40AB801CE0109960E949D09E4
:10343000C8010E94CC0BBE01675F7F4FC8010E948C
:10344000BA0AC8010E9450067C01C8010E94CC0B38
:10345000CE0109960E94CC0BE414F50419F081EB1F
:1034600093E0A6CF8091060190910701892B09F086
:10347000F0C0BE016D5C7F4FCE0145960E94BA0A36
:1034800061EA73E0C8010E949E0BB801CE01459627
:103490000E941B087C01C8010E94CC0B6FE973E0FD
:1034A000C8010E949E0BB801CE0145960E941B08E0
:1034B0004C01C8010E94CC0B9401A701BE016B5EB8
:1034C0007F4FCE010F960E94D40ABE01615F7F4FED
:1034D000CE0109960E94BA0A8D859E85039708F44D
:1034E00043C022E030E050E040E0BE01675F7F4F24
:1034F000C8010E94D40A8D819E81892B59F063EC0A
:1035000071E089819A810E94E720AA24A394892BE3
:1035100009F0A12CC8010E94CC0BAA2029F1ED854D
:10352000FE8569857A8522E030E02E173F07D0F4CA
:10353000DB01A20FB31F6115710521F410920F0278
:10354000AFE0B2E08C91482F082E000C550B405391
:1035500051094A30510518F08154863028F42F5F04
:103560003F4FE3CFBB24B394CE0109960E94CC0B0E
:10357000BB2009F461C0BE01615F7F4FC8010E949A
:10358000BA0AC8010E94D40B7C01C8010E94CC0B6E
:103590008FEFE816F80609F04FC0BE01615F7F4F5C
:1035A000CE0109960E94BA0ABE01675F7F4F81EE85
:1035B00092E00E941B08019601F566EC71E0C801DB
:1035C0000E94C30ABE01675F7F4FC8010E940C0AB8
:1035D000BC0181EE92E00E946C09C8010E94CC0BF4
:1035E000BE01675F7F4FC8010E94BA0AC8010E94EE
:1035F000D40B7C01C8010E94CC0BCE0109960E941D
:10360000CC0B8FEFE816F806B9F087E993E00E943B
:103610007404B701FF0C880B990B97FF16C00E942A
:10362000470781E993E00E947404BE01615F7F4F08
:1036300081E292E00E947903CE010F960E94CC0BAA
:10364000CE0145960E94CC0BB5CE4AE00E94010700
:10365000E8CF86EA93E00E947404BE016D5C7F4F60
:1036600081E292E00E9479036AE18FEB92E00E948E
:10367000DA04E82EF12C6091D5027091D602809187
:10368000D7029091D8020E94E61E2AEE36E54AEF54
:103690005DE40E94DF1E87FD6DC18DE990E0B701FA
:1036A000681B790BCE018D960E944A0ABE016D5CA3
:1036B0007F4FCE0187960E94BA0A6EE873E0C80178
:1036C0000E949E0BB801CE0187960E941B085C01E8
:1036D000C8010E94CC0B6CE873E0C8010E949E0BED
:1036E000B801CE0187960E941B087C01C8010E9488
:1036F000CC0B9701A501BE01695D7F4FCE0181967C
:103700000E94D40ABE016F5D7F4FC8010E94BA0AB1
:10371000C8010E94D40B5C01C8010E94CC0BB5010A
:10372000CE0109960E944A0A68EC71E0C8010E9425
:10373000C30ABE01675F7F4FC8010E940C0A6AEC92
:1037400071E00E94F609BE016F5D7F4F0E940C0A76
:10375000BC0181E292E00E947903C8010E94CC0B77
:10376000CE0109960E94CC0B2FEFA216B20609F4E7
:10377000F2C06AE873E0C8010E949E0B4BA55CA5ED
:103780008D819E81481B590BB801CE0187960E94FE
:10379000B107A7014F5F5F4F9C01BE01695D7F4F7D
:1037A000CE014B960E94D40AC8010E94CC0B26E0A1
:1037B0002A9DC0012B9D900D1124BE01655E7F4F97
:1037C00089519D4F0E94A30ABE016F5D7F4FCE01BC
:1037D00045960E94BA0A8091060190910701B601B0
:1037E0000E948E1F5B01BE016B5E7F4FCE0109966A
:1037F0000E94BA0A68E873E0CE0109960E94E809BF
:103800007C01C5011816190614F081E090E04AE029
:10381000B8010E948C1EF80101900020E9F7319751
:10382000AF01401B510BB801C7010E944009811133
:1038300003C0C7010E94D60966E873E0C7010E9471
:10384000E809BC01CE010F960E94BA0ACE01099682
:103850000E94CC0BBE01615F7F4FCE0109960E9492
:10386000BA0ACE0109960E945006BC01C8010E9406
:103870004A0AB801CE010F960E946C09C8010E9445
:10388000CC0BCE0109960E94CC0B64EF71E080E076
:1038900090E00E943803BE01615F7F4FC8010E9423
:1038A000BA0A0E94D40461E08FEB92E00E94DA042D
:1038B00083708330E9F062E18FEB92E00E94DA04DA
:1038C00083FF06C048E062E98FEB92E00E94AF04FC
:1038D0000E94D4040E94DD0440E06DE88FEB92E08A
:1038E0000E94AF0440E062EA8FEB92E00E94AF04D6
:1038F000B8018FEB92E00E94790343E861E88FEB17
:1039000092E00E94AF0462E18FEB92E00E94DA0441
:1039100083FFF9CF48E062E98FEB92E00E94AF04A9
:1039200064E670E080E090E00E9438038EE793E068
:103930000E9474040E948306C8010E94CC0BCE0131
:103940000F960E94CC0BCE0145960E94CC0BCE0167
:103950004B960E94CC0BCE0181960E94CC0BCE01DF
:1039600087960E94CC0BCE018D960E94CC0B0E94B4
:10397000710620CD84EA90E092CE64E671E081E2A7
:1039800092E00E94F20687EEA82E82E0B82EF12C7B
:10399000E12CB50181E292E00E94790389E0E8160A
:1039A000F10421F081E194E00E9474042FEFE21A07
:1039B000F20A86E0A80EB11C2AE0E216F10449F7EB
:1039C0008FE094E00E9474040E9471060E945D0ED4
:1039D0000E946B0360931002709311028093120295
:1039E0009093130272CC61E08FE00E9496021092D5
:1039F000080172CCCF93DF9381EE92E00E94CC0B52
:103A0000C3E2D3E02697CE010E94CC0B22E0C73E52
:103A1000D207C1F783E293E00E94CC0B89E293E0E6
:103A20000E94CC0B86E591E09093300380932F03A6
:103A300080911F02909120028F52934071F4E09187
:103A40004203F09143039081809144038095892340
:103A500080831092200210921F02DF91CF9108956F
:103A60000F931F93CF93DF938230910510F482E080
:103A700090E0E0915003F091510330E020E0B0E09D
:103A8000A0E0309799F42115310509F44AC0281BAC
:103A9000390B24303105D8F58A819B816115710578
:103AA00089F1FB0193838283FE0111C04081518122
:103AB0000281138148175907E0F04817590799F414
:103AC000109761F012960C93129713961C933296EE
:103AD000CF01DF91CF911F910F9108950093500373
:103AE00010935103F4CF2115310551F042175307BC
:103AF00038F0A901DB019A01BD01DF01F801C1CF56
:103B0000EF01F9CF9093510380935003CDCFFE0185
:103B1000E20FF31F81939193225031093983288357
:103B2000D7CF20914E0330914F03232B41F42091A6
:103B30000C0130910D0130934F0320934E032091DF
:103B40000A0130910B012115310541F42DB73EB723
:103B500040910E0150910F01241B350BE0914E0353
:103B6000F0914F03E217F307A0F42E1B3F0B281729
:103B7000390778F0AC014E5F5F4F2417350748F0E6
:103B80004E0F5F1F50934F0340934E0381939193C9
:103B90009FCFF0E0E0E09CCFCF93DF930097E9F078
:103BA000FC01329713821282A0915003B09151030D
:103BB000ED0130E020E01097A1F420813181820FE7
:103BC000931F20914E0330914F032817390709F0B6
:103BD00061C0F0934F03E0934E03DF91CF910895BE
:103BE000EA01CE17DF07E8F54A815B819E014115A6
:103BF0005105B1F7E901FB83EA8349915991C40F5B
:103C0000D51FEC17FD0761F4808191810296840F26
:103C1000951FE90199838883828193819B838A839D
:103C2000F0E0E0E012968D919C9113970097B9F522
:103C30002D913C911197CD010296820F931F2091F7
:103C40004E0330914F032817390739F6309751F555
:103C50001092510310925003B0934F03A0934E0360
:103C6000BCCFD383C28340815181840F951FC81775
:103C7000D90761F44E5F5F4F88819981480F591FC2
:103C8000518340838A819B819383828321153105EF
:103C900009F0B0CFF0935103E09350039ECFFD01A4
:103CA000DC01C0CF13821282D7CF1F93FC0199276A
:103CB0008827BC01E89411911032E9F3193010F013
:103CC0001E30C8F31B3251F01D3249F4689406C00F
:103CD0000E94971E610F711D811D911D119110533E
:103CE0001A30B0F33EF490958095709561957F4FB2
:103CF0008F4F9F4F1F910895FB01DC0105900D929E
:103D00000020E1F70895FC0105900020E9F7809577
:103D100090958E0F9F1F0895BB274A3031F4992349
:103D200022F4BDE2909581959F4F0C94AD1E592FC2
:103D3000482F372F262F660F771F881F991F660F72
:103D4000771F881F991F620F731F841F951F660FAF
:103D5000771F881F991F0895BB27FB015527AA27A6
:103D6000880F991FAA1FA41710F0A41B8395505108
:103D7000B9F7A05DAA3308F0A95DA193009779F780
:103D8000B111B1931192CB010C94CF1E91110C94EF
:103D9000451F803219F089508550C8F70895DC011D
:103DA000FC01672F71917723E1F7329704C07C9172
:103DB0006D9370836291AE17BF07C8F308950E9498
:103DC000211F08F481E00895E89409C097FB3EF4B0
:103DD00090958095709561957F4F8F4F9F4F992358
:103DE000A9F0F92F96E9BB279395F69587957795D6
:103DF0006795B795F111F8CFFAF4BB0F11F460FF96
:103E00001BC06F5F7F4F8F4F9F4F16C0882311F0ED
:103E100096E911C0772321F09EE8872F762F05C001
:103E2000662371F096E8862F70E060E02AF09A959C
:103E3000660F771F881FDAF7880F9695879597F991
:103E40000895990F0008550FAA0BE0E8FEEF16162B
:103E50001706E807F907C0F012161306E407F5077E
:103E600098F0621B730B840B950B39F40A2661F0F2
:103E7000232B242B252B21F408950A2609F4A14095
:103E8000A6958FEF811D811D089599278827089594
:103E90002F923F924F925F926F927F928F929F925A
:103EA000AF92BF92CF92DF92EF92FF920F931F9348
:103EB000CF93DF93CDB7DEB7CA1BDB0B0FB6F894F9
:103EC000DEBF0FBECDBF09942A88398848885F8439
:103ED0006E847D848C849B84AA84B984C884DF80AA
:103EE000EE80FD800C811B81AA81B981CE0FD11D8E
:103EF0000FB6F894DEBF0FBECDBFED010895A29FAF
:103F0000B001B39FC001A39F700D811D1124911DAD
:103F1000B29F700D811D1124911D089597FB072EEE
:103F200016F4009407D077FD09D00E94EA1F07FC21
:103F300005D03EF4909581959F4F089570956195B9
:103F40007F4F0895A1E21A2EAA1BBB1BFD010DC0D5
:103F5000AA1FBB1FEE1FFF1FA217B307E407F50739
:103F600020F0A21BB30BE40BF50B661F771F881F15
:103F7000991F1A9469F760957095809590959B01AB
:103F8000AC01BD01CF010895052E97FB1EF40094EE
:103F90000E94DB1F57FD07D00E94A21F07FC03D021
:103FA0004EF40C94DB1F50954095309521953F4F72
:103FB0004F4F5F4F089590958095709561957F4F15
:103FC0008F4F9F4F08950E947F1FB7FF0895821B58
:103FD000930B0895AA1BBB1B51E107C0AA1FBB1F6F
:103FE000A617B70710F0A61BB70B881F991F5A9585
:103FF000A9F780959095BC01CD010895EE0FFF1FA4
:104000000590F491E02D0994B0E0A0E0EAE0F0E240
:104010000C944A1F8C01009751F4CB010E94301D73
:104020008C01C801CDB7DEB7E0E10C94661FFC013E
:10403000E60FF71F9C0122503109E217F30708F43D
:104040009DC0D901CD91DC911197C617D70798F083
:10405000C530D10530F3CE0104978617970708F3D2
:10406000C61BD70B2297C193D1936D937C93CF013D
:104070000E94CC1DD6CF5B01AC1ABD0A4C018C0E40
:104080009D1EA0915003B0915103512C412CF12C55
:10409000E12C109731F580914E0390914F038815D4
:1040A000990509F05CC04616570608F058C0809183
:1040B0000A0190910B01009741F48DB79EB7409192
:1040C0000E0150910F01841B950BE817F90708F0BA
:1040D00055C0F0934F03E0934E03F9017183608361
:1040E000A0CF8D919C91119712966C901297139678
:1040F0007C901397A815B90559F56C0142E0C40EE0
:10410000D11CCA14DB0420F1AC014A195B09DA01A5
:104110001296159780F06282738251834083D90191
:104120006D937C93E114F10471F0D7011396FC9325
:10413000EE93129776CF22968C0F9D1FF9019183F3
:104140008083F301EFCFF0935103E093500369CFE5
:104150004816590608F42C017D01D3019ACFCB01F2
:104160000E94301D7C01009749F0AE01B8010E9409
:10417000C120C8010E94CC1D870153CF10E000E090
:1041800050CFFB01DC0102C001900D924150504024
:10419000D8F708956817790768F4FB01DC01E40F8C
:1041A000F51FA40FB51F02C002900E92415050405F
:1041B000D8F708950C94C120FC018191861721F055
:1041C0008823D9F7992708953197CF010895FB01E6
:1041D000DC018D91019080190110D9F3990B08959C
:1041E000FB01DC0101900D920020E1F70895FB0135
:1041F000DC014150504030F08D910190801919F44C
:104200000020B9F7881B990B0895FC0181E090E02C
:104210000190061609F4CF010020D1F70197089507
:10422000FB0151915523A9F0BF01DC014D914517C8
:104230004111E1F759F4CD010190002049F04D9171
:1042400040154111C9F3FB014111EFCF81E090E02E
:104250000197089512E0C8E3D2E004C0FE010E9475
:10426000FE1F2196C933D107C9F7F894FFCF016328
:104270007803780301000101000052038000781EDA
:1042800000A02800F03C00405100127A00E4A20097
:1042900024F40048E80190D00320A10700000000AA
:1042A00027048703B4038F04E503C303D703000087
:1042B000000078053D053906ED042F051405EE04D0
:1042C00000000000A60587033906ED040206180663
:1042D0008E050D0A00445441002B4854545041436C
:1042E00054494F4E3A20302C3630332C30002E00BB
:1042F000647461616D65726963612E636F6D003115
:1043000037322E3130322E3234362E323200202FD8
:10431000200054656CC3A9666F6E6F3A200020536D
:1043200065C3B1616C3A2000206D696E75746F735E
:0A433000003078002C005B005D00F7
:107800000C94343C0C94513C0C94513C0C94513CE1
:107810000C94513C0C94513C0C94513C0C94513CB4
:107820000C94513C0C94513C0C94513C0C94513CA4
:107830000C94513C0C94513C0C94513C0C94513C94
:107840000C94513C0C94513C0C94513C0C94513C84
:107850000C94513C0C94513C0C94513C0C94513C74
:107860000C94513C0C94513C11241FBECFEFD8E036
:10787000DEBFCDBF11E0A0E0B1E0EAE8FFE702C063
:1078800005900D92A230B107D9F712E0A2E0B1E065
:1078900001C01D92AD30B107E1F70E942D3D0C945F
:1078A000C33F0C94003C982F95959595959595958B
:1078B000905D8F708A307CF0282F295A8091C0000B
:1078C00085FFFCCF9093C6008091C00085FFFCCF60
:1078D0002093C6000895282F205DF0CF982F809127
:1078E000C00085FFFCCF9093C6000895EF92FF92F1
:1078F0000F931F93EE24FF2487018091C00087FD22
:1079000017C00894E11CF11C011D111D81E2E8164D
:1079100081EAF80687E0080780E0180770F3E09135
:107920000401F091050109958091C00087FFE9CF1E
:107930008091C6001F910F91FF90EF9008950E94D3
:10794000763C982F8091C00085FFFCCF9093C600B5
:1079500091362CF490330CF09053892F089597555D
:10796000892F08951F930E949F3C182F0E949F3CCF
:107970001295107F810F1F9108951F93182F882350
:1079800021F00E94763C1150E1F71F9108951F935A
:10799000182F0E94763C803249F0809103018F5F5E
:1079A000809303018530C1F01F9108958091C0003C
:1079B00085FFFCCF84E18093C6008091C00085FFE5
:1079C000FCCF1093C6008091C00085FFFCCF80E102
:1079D0008093C6001F910895E0910401F091050184
:1079E00009951F9108950E94763C803241F0809164
:1079F00003018F5F80930301853081F008958091AA
:107A0000C00085FFFCCF84E18093C6008091C00058
:107A100085FFFCCF80E18093C6000895E0910401CA
:107A2000F09105010995089548EC50E08823A1F0F4
:107A30002D9A28EE33E0FA013197F1F721503040CA
:107A4000D1F72D9828EE33E0FA013197F1F7215064
:107A50003040D1F7815061F708953F924F925F9285
:107A60006F927F928F929F92AF92BF92CF92DF924E
:107A7000EF92FF920F931F93CF93DF93000082E06A
:107A80008093C00080E18093C4001092C50088E11B
:107A90008093C10086E08093C2005098589A259A3E
:107AA00081E00E94143D24E1F22E9EE1E92E85E959
:107AB000D82E0FE0C02E10E1B12EAA24A394B1E479
:107AC0009B2EA6E58A2EF2E57F2EE0E26E2E79E46B
:107AD000572E63E5462E50E5352E0E94763C8033C6
:107AE000B1F18133B9F1803409F46FC0813409F404
:107AF00076C0823409F485C0853409F488C08035A5
:107B000031F1823521F1813511F1853509F485C0D6
:107B1000863509F48DC0843609F496C0843709F49B
:107B200003C1853709F472C1863709F466C08091B4
:107B300003018F5F80930301853079F6E0910401A2
:107B4000F091050109950E94763C803351F60E9420
:107B5000F33CC3CF0E94763C803249F78091C0004D
:107B600085FFFCCFF092C6008091C00085FFFCCF5E
:107B70009092C6008091C00085FFFCCF8092C60025
:107B80008091C00085FFFCCF7092C6008091C0003C
:107B900085FFFCCF6092C6008091C00085FFFCCFBE
:107BA0005092C6008091C00085FFFCCF4092C60075
:107BB0008091C00085FFFCCF3092C6008091C0004C
:107BC00085FFFCCFB092C60088CF0E94763C8638F5
:107BD00008F4BDCF0E94763C0E94F33C7ECF0E9409
:107BE000763C803809F49CC0813809F40BC1823896
:107BF00009F430C1883909F48FC080E00E94C73C85
:107C00006CCF84E10E94BD3C0E94F33C66CF85E0CE
:107C10000E94BD3C0E94F33C60CF0E94763C809362
:107C200006010E94763C809307010E94F33C55CFE9
:107C30000E94763C803309F411C183E00E94BD3C70
:107C400080E00E94C73C49CF0E94763C80930902A5
:107C50000E94763C8093080280910C028E7F809374
:107C60000C020E94763C853409F409C18091080217
:107C700090910902892B89F000E010E00E94763C87
:107C8000F801E85FFE4F80830F5F1F4F809108026D
:107C9000909109020817190788F30E94763C8032F8
:107CA00009F045CF80910C0280FFF5C0609106017C
:107CB00070910701660F771F7093070160930601AB
:107CC000A0910802B09109021097C9F0E8E0F1E034
:107CD0009B01AD014E0F5F1FF999FECF32BD21BD53
:107CE000819180BDFA9AF99A2F5F3F4FE417F5070B
:107CF00099F76A0F7B1F70930701609306018091CB
:107D0000C00085FFFCCFF092C6008091C00085FFC7
:107D1000FCCFB092C600E1CE83E00E94C73CDDCE2E
:107D200082E00E94C73CD9CE0E94763C8093090233
:107D30000E94763C80930802809106019091070191
:107D4000880F991F90930701809306010E94763C4B
:107D5000853409F49AC080910C028E7F80930C02C6
:107D60000E94763C803209F0B8CE8091C00085FF39
:107D7000FCCFF092C600A0910802B09109021097C2
:107D8000C1F180910C02082F0170182F1695117007
:107D9000E0910601F0910701AF014F5F5F4FBA011B
:107DA00020E030E00023B1F4112339F49491809164
:107DB000C00085FFFCCF9093C6002F5F3F4FCB01E3
:107DC0000196FA012A173B0780F4BC014F5F5F4F11
:107DD000002351F3F999FECFF2BDE1BDF89A90B5B9
:107DE0008091C00085FFFCCFE6CF709307016093C0
:107DF00006018091C00085FDE5CE8091C00085FF21
:107E0000F8CFE0CE81E00E94C73C67CE0E94763C6E
:107E1000803209F08CCE8091C00085FFFCCFF092BB
:107E2000C6008091C00085FFFCCFE092C600809123
:107E3000C00085FFFCCFD092C6008091C00085FFB6
:107E4000FCCFC092C6008091C00085FFFCCFB092ED
:107E5000C60043CE80E10E94C73C3FCE0E94763CE4
:107E60000E94763C182F0E94763C112309F483C0AF
:107E7000113009F484C08FE00E94C73C2ECE80915F
:107E80000C02816080930C02F1CE80910C02816023
:107E900080930C0265CF809107018823880F880B9F
:107EA0008A2180930B028091060190910701880F2F
:107EB000991F90930701809306018091080280FF2B
:107EC00009C08091080290910902019690930902DD
:107ED00080930802F894F999FECF1127E0910601EA
:107EE000F0910701C8E0D1E0809108029091090269
:107EF000103091F40091570001700130D9F303E084
:107F000000935700E8950091570001700130D9F3B4
:107F100001E100935700E8950990199000915700EE
:107F200001700130D9F301E000935700E8951395F3
:107F3000103498F011270091570001700130D9F3E7
:107F400005E000935700E89500915700017001305B
:107F5000D9F301E100935700E8953296029709F0B2
:107F6000C7CF103011F00296E5CF11248091C000E8
:107F700085FFC5CEC8CE8EE10E94C73CAECD85E957
:0C7F80000E94C73CAACDF894FFCF8000FF
:00000001FF
