:020000040000FA
:100000000C9420030C9448030C9448030C9485171B
:100010000C9485170C9485170C9448030C94480392
:100020000C9448030C9448030C9448030C94480324
:100030000C9448030C9448030C9448030C94480314
:100040000C94E3160C9448030C9453170C942D173E
:100050000C9448030C9448030C9448030C944803F4
:100060000C9448030C944803084AD73B3BCE016EDE
:1000700084BCBFFDC12F3D6C74319ABD56833DDAFF
:100080003D00C77F11BED9E4BB4C3E916BAAAABE0E
:10009000000000803F05A84CCDB2D44EB93836A937
:1000A000020C50B9918688083CA6AAAA2ABE000074
:1000B00000803F004E414E494E495459494E46CD6D
:1000C000CCCC3D0AD7233C17B7D13877CC2B32950F
:1000D00095E6241FB14F0A000020410000C84200ED
:1000E000401C4620BCBE4CCA1B0E5AAEC59D7400B7
:1000F000407A10F35A00A0724E18090010A5D4E8F7
:100100000000E87648170000E40B54020000CA9A89
:100110003B000000E1F505000080969800000040DB
:10012000420F000000A08601000000102700000020
:1001300000E803000000006400000000000A000066
:100140000000000100000000002C76D888DC674F1A
:100150000823DFC1DFAE59E1B1B796E5E3E453C64A
:100160003AE651997696E8E6C28426EB898C9B6242
:10017000ED407C6FFCEFBC9C9F40F2BAA56FA5F4EC
:1001800090055A2AF75C936B6CF9676DC11BFCE014
:10019000E40D47FEF520E6B500D0ED902E03009467
:1001A0003577050080841E080000204E0A000000FC
:1001B000C80C333333330F986E12831141EF8D2106
:1001C00014893BE65516CFFEE6DB18D1844B381B6D
:1001D000F77C1D901DA4BBE424203284725E228132
:1001E00000C9F124ECA1E53D2720202A20536571A8
:1001F0007572697479206572726F722E2E2E20745A
:10020000727920616761696E210020202A20536580
:10021000717572697479206572726F722E2E2E203C
:1002200074727920616761696E210020202A205054
:10023000726F626C656D6120646520636F6E6563CB
:100240007469766964616420636F6E20656C204711
:1002500050533A2072657669736520656C2063613E
:10026000626C6561646F0020207E20507265736946
:100270006F6E3A2000004F4B000020000041542BCD
:100280004343494400000A00000D000041542B4341
:100290004349440041542B53415042523D322C318A
:1002A0000041542B53415042523D312C31004154B6
:1002B0002B4346554E3D310041542B534150425241
:1002C0003D332C312C22505744222C227765626713
:1002D00070727332303032220041542B53415042FD
:1002E000523D332C312C2255534552222C22776516
:1002F00062677072220041542B53415042523D3389
:100300002C312C2241504E222C22696E7465726E63
:1003100065742E6974656C63656C2E636F6D220065
:1003200041542B53415042523D332C312C22434FE8
:100330004E54595045222C224750525322003E2001
:1003400053657475702047534D00C2BB0A002020CE
:100350002020C2AB00000A3E3E3E204454412D41C5
:100360006772C3AD636F6C613A2053657269652033
:10037000507636362076302E322E362E32353131CA
:10038000313420410A004F746865720043656E7411
:1003900072616C205069766F74006D7300202020AC
:1003A000202E204F46463A20006D7300202020204A
:1003B0002E204F4E3A2000250020207E2056656CCE
:1003C0006F636974793A200020207E20456E642096
:1003D00047756E3A2000C2B00020207E20506F7317
:1003E0006974696F6E3A200020207E204175746F19
:1003F00020526576657273653A200020207E204485
:100400006972656374696F6E3A200020207E205304
:1004100074617475733A20000A20207E205479702C
:10042000653A20000A3E2053657474696E67207631
:100430006172733A200041542B43535100636F6D36
:100440006D4572726F723A200041542B48545450DB
:100450005445524D004572004F6B0041542B485497
:100460005450524541440041542B48545450414348
:1004700054494F4E3D300041542B48545450494E3E
:1004800049540066616C736500747275650066613D
:100490006C73650074727565002673693D00267281
:1004A000783D002665723D00266C6F3D00266C612C
:1004B0003D0026706F3D002670723D002673703D32
:1004C000002661723D0026766F3D002664693D007E
:1004D0002673613D002673743D003E20536572769D
:1004E000657220636F6D6D756E69636174696F6E9F
:1004F00000646174613A2000646174613A2045725D
:10050000726F722100206C6F6E5F63656E74726132
:100510006C3A20006C61745F63656E7472616C3A52
:1005200020003E2053746F707065643A20506F73E2
:100530006974696F6E206572726F7221003E20537C
:10054000746F707065643A20496E7375666963698B
:10055000656E74207072657375726521003E20525D
:10056000756E6E696E673A207265766572736500A6
:100570003E2052756E6E696E673A20666F727761C3
:100580007264003E2053746F707065643A20536546
:10059000717572697479206572726F7221003E20E4
:1005A00053746F707065643A20566F6C7461676540
:1005B000206572726F7221003E2053746F707065F7
:1005C00064003A205365717572697479206572729E
:1005D0006F7221003E2053797374656D206F6666DB
:1005E000210000000000240027002A00000000086D
:1005F00000020100000304070000000000000000EA
:100600000000000023002600290000000000250053
:1006100028002B000404040404040404020202025F
:1006200002020303030303030102040810204080B5
:100630000102040810200102040810206218262379
:1006400011241FBECFEFD8E0DEBFCDBF11E0A0E088
:10065000B1E0E4E1FCE502C005900D92A43AB107D7
:10066000D9F723E0A4EAB1E001C01D92A73CB2078C
:10067000E1F713E0CFE1D3E004C02197FE010E942F
:10068000C52BCE31D107C9F70E943E190C94FD2D20
:100690000C9400000F931F93CF93DF93C0917903C5
:1006A000EAE7F3E0CD3211F0E9E7F3E08F0120E073
:1006B00030E0A901D801DD918D0180ED8D0F8A30E8
:1006C00090F4AAE0B0E00E9408292D2FDD0F330B33
:1006D000440B550B260F371F481F591F2053310954
:1006E00041095109E7CFA4E6B0E00E940829AB0117
:1006F000BC01DF01819190ED980F9A30D0F38E32DA
:1007000059F511968C91119790ED980F9A3020F52C
:10071000082E000C990BC0972AE0289F8001299F82
:10072000100D1124012E000C220B330B400F511F12
:10073000621F731F12968C9190ED980F9A3060F49F
:10074000082E000C990BC097092E000CAA0BBB0BAE
:10075000480F591F6A1F7B1FCD3239F47095609581
:10076000509541955F4F6F4F7F4FCB01BA01DF919D
:10077000CF911F910F9108954F925F926F927F9248
:100780008F929F92AF92BF92CF92DF92EF92FF92A1
:100790001F93CF93DF93C9E7D3E0FE01C12CD12C87
:1007A0007601119180ED810F8A30A8F4AAE0B0E0C3
:1007B000A70196010E940829C12E110FDD08EE083D
:1007C000FF08C60ED71EE81EF91E80E3C81AD1081E
:1007D000E108F108E6CFC701B60124E630E040E0C9
:1007E00050E00E9452299B01AC0160EA76E881E06A
:1007F00090E00E94B52B4B015C019E01899190ED28
:10080000980F9A30D0F38E3221F5E901219680E1DC
:10081000482E87E2582E612C712CA99180ED8A0F09
:100820008A30B8F40A2E000CBB0BD097A3019201BA
:100830000E941329860E971EA81EB91EC301B2017D
:100840002AE030E040E050E00E94522929013A01BC
:10085000E4CFC701B60124E630E040E050E00E945A
:10086000522960E472E48FE090E00E94B52B6B01A6
:100870007C01C501B4016D5F7F4F8F4F9F4F26E014
:1008800030E040E050E00E945229C701B601620FFB
:10089000731F841F951FDF91CF911F91FF90EF90E1
:1008A000DF90CF90BF90AF909F908F907F906F9090
:1008B0005F904F900895833081F028F4813099F053
:1008C0008230A9F008958730A9F08830C9F08430CB
:1008D000B1F4809180008F7D03C0809180008F777C
:1008E00080938000089584B58F7784BD089584B582
:1008F0008F7DFBCF8091B0008F778093B0000895FB
:100900008091B0008F7DF9CF1F93CF93DF93282F75
:1009100030E0F901E451FA4F8491F901E85DF94FB3
:10092000D491F901EC5EF94FC491CC23A9F0162FB4
:1009300081110E945B04EC2FF0E0EE0FFF1FE65FD9
:10094000F94FA591B4918FB7F894EC91111108C0AB
:10095000D095DE23DC938FBFDF91CF911F91089557
:10096000DE2BF8CFCF93DF9390E0FC01E85DF94FE9
:1009700024918C5E994FFC0184918823D1F090E002
:10098000880F991FFC01EE51FA4FA591B491FC011B
:10099000E65FF94FC591D49161110EC09FB7F894ED
:1009A0008C91E22FE0958E238C932881E223E883BB
:1009B0009FBFDF91CF9108958FB7F894EC91E22B10
:1009C000EC938FBFF6CF8E50806480937C00809133
:1009D0007A00806480937A0080917A0086FDFCCF53
:1009E000809178009091790008953FB7F8948091B4
:1009F000230290912402A0912502B091260226B5EF
:100A0000A89B05C02F3F19F00196A11DB11D3FBF46
:100A1000BA2FA92F982F8827BC01CD01620F711D15
:100A2000811D911D42E0660F771F881F991F4A950F
:100A3000D1F708958F929F92AF92BF92CF92DF929B
:100A4000EF92FF926B017C010E94F5044B015C0167
:100A5000C114D104E104F104B9F00E94F50468194D
:100A600079098A099B09683E73408105910580F3E5
:100A700021E0C21AD108E108F10888EE880E83E06F
:100A8000981EA11CB11CE4CFFF90EF90DF90CF9097
:100A9000BF90AF909F908F9008952FB7F89460917A
:100AA0001F027091200280912102909122022FBF9B
:100AB00008950895DB0114964D915C9115976D9101
:100AC0007C91DC01ED91FC910280F381E02D099491
:100AD000EF92FF920F931F93CF93DF938C017B01D3
:100AE000D0E0C0E0F701EC0FFD1F6491662361F0D8
:100AF000D801ED91FC910190F081E02DC80109959C
:100B0000892B11F02196EECFCE01DF91CF911F916D
:100B10000F91FF90EF900895AF92BF92CF92DF9226
:100B2000EF92FF920F931F93CF93DF936C017B01A2
:100B30008B01040F151FEB015E01AE18BF08C01733
:100B4000D10759F06991D601ED91FC910190F081A6
:100B5000E02DC6010995892B79F7C501DF91CF9169
:100B60001F910F91FF90EF90DF90CF90BF90AF90CB
:100B70000895FC01538D448D252F30E0842F90E0A3
:100B8000821B930B541710F0CF9608950197089588
:100B9000FC01918D828D981761F0A28DAE0FBF2F51
:100BA000B11D5D968C91928D9F5F9F73928F90E0A7
:100BB00008958FEF9FEF0895FC01918D828D981716
:100BC00031F0828DE80FF11D858D90E008958FEF53
:100BD0009FEF0895FC01918D228D892F90E0805C1C
:100BE0009F4F821B91098F739927089587E292E0A6
:100BF0000E94EA0521E0892B09F420E0822F089564
:100C000080E090E0892B29F00E94F60581110C9478
:100C100000000895FC01A48DA80FB92FB11DA35A9F
:100C2000BF4F2C91848D90E001968F739927848F0C
:100C3000A689B7892C93A089B1898C91837080642F
:100C40008C93938D848D981306C00288F389E02DD0
:100C500080818F7D80830895EF92FF920F931F9381
:100C6000CF93DF93EC0181E0888F9B8D8C8D98135F
:100C70001AC0E889F989808185FF15C09FB7F8946B
:100C8000EE89FF896083E889F989808183708064B7
:100C900080839FBF81E090E0DF91CF911F910F9102
:100CA000FF90EF900895F62E0B8D10E00F5F1F4F11
:100CB0000F731127E02E8C8D8E110CC00FB607FC20
:100CC000FACFE889F989808185FFF5CFCE010E94AE
:100CD0000A06F1CFEB8DEC0FFD2FF11DE35AFF4F0C
:100CE000F0829FB7F8940B8FEA89FB89808180623C
:100CF000CFCFCF93DF93EC01888D8823B9F0AA89F9
:100D0000BB89E889F9898C9185FD03C0808186FDC6
:100D10000DC00FB607FCF7CF8C9185FFF2CF808115
:100D200085FFEDCFCE010E940A06E9CFDF91CF917A
:100D300008952091E6013091E7012817390771F4F1
:100D40009091E5018091E401981741F0E091E5016F
:100D5000F0E0EC55FE4F808190E008958FEF9FEF1B
:100D600008950895EF92FF920F931F93CF93DF930F
:100D7000DC015C96ED90FC905D97E114F10479F450
:100D800081E090E013969C938E93129790E080E020
:100D9000DF91CF911F910F91FF90EF9008955196A1
:100DA000ED91FC91529750968C915097982F909579
:100DB0000FB75E962C915E97122F127021FD6095F1
:100DC000F8942081112319F1282B2083E701219722
:100DD000F1F728E0462F50E0308160FF1AC0382B31
:100DE0003083E7012197F1F7BA0175956795215096
:100DF00089F7112381F08081892380830FBF5C965E
:100E00008D919C910197F1F781E090E0C1CF29236A
:100E1000DCCF3923E5CF9081892BEFCF2091E601FC
:100E20003091E7012817390761F48091E40120919E
:100E3000E50190E0805C9F4F821B91098F73992799
:100E4000089590E080E008952091E6013091E70157
:100E500028173907B9F49091E5018091E4019817BA
:100E600089F0E091E501F0E0EC55FE4F80812091A2
:100E7000E50130E02F5F3F4F2F7333272093E501CB
:100E800090E008958FEF9FEF0895E091E601F091D3
:100E9000E701E817F90769F4A389B4899C9185896A
:100EA000809589238C931092E7011092E60181E0EE
:100EB000089580E00895CF93DF93EC018A8D9B8D98
:100EC000892B01F18091E6019091E7018C179D0734
:100ED000C9F0009711F00E9445078E8D8E7F8E8F8E
:100EE0001092E4011092E501D093E701C093E6016E
:100EF000EB89FC8980819D89892B808381E0DF914A
:100F0000CF91089580E0FBCFFC01138E128E118EDD
:100F1000108E178A168A8DE991E0958F848F8485CB
:100F20008631D8F52DEB30E0378B268B2BE931E07D
:100F3000318F208F2CE231E0338F228F9091680027
:100F4000883070F121E08E3008F420E081E001C0AB
:100F5000880F2A95EAF7892B8093680084852DE60F
:100F600030E0883050F02BE630E08E3030F02CE668
:100F700030E0863110F030E020E0348B238B282FD6
:100F800030E0883078F491E001C0990F8A95EAF753
:100F9000958B848D958D0197F1F7CF010C945B07AC
:100FA00084E0D9CF8E3040F42850310991E001C05F
:100FB000990F2A95EAF7ECCF2E503109F7CF90E040
:100FC00080E0089561E084E00E94840461E088E0AC
:100FD0000E94840461E087E00E94840461E086E06E
:100FE0000C948404A89561E081E10E94B20461E060
:100FF00081E10E94840462E370E080E090E00E945E
:101000001A0560E081E10C94B2048F929F92AF9236
:10101000BF92CF92DF92EF92FF927C010E944D052A
:101020004B015C0188EE93E0E89E6001E99ED00CE4
:10103000F89ED00C11240D2C000CEE08FF080E9425
:101040004D05681979098A099B096C157D058E057E
:101050009F0548F464E670E080E090E00E941A0585
:101060000E94F207ECCFFF90EF90DF90CF90BF90FF
:10107000AF909F908F9008952F923F924F925F92E2
:101080006F927F928F929F92AF92BF92CF92DF9298
:10109000EF92FF920F931F93CF93DF930E944D0522
:1010A0004B015C01212C312CE12CF12C00E010E0F3
:1010B000D0E0C0E00E944D05681979098A099B09B2
:1010C0006A3F71058105910508F047C08FE00E94D5
:1010D000E3046C0126E636E646E65FE3B201C301AF
:1010E0000E9428282B013C01B601DD0C880B990BCE
:1010F0000E94C9272AE038E240EA5BE30E942828E0
:1011000020E030E040E250E40E94832924EA30E706
:101110004DE35EE30E94672A2DEC3CEC4CEC5DE372
:101120000E942828A30192010E9484292B013C01DE
:1011300098014D2F5C2F0E94752B18161CF482010C
:10114000D62DC72D9101A701B201C3010E94C2276C
:1011500087FFB0CF12017301ADCF9101A701B80194
:101160008D2F9C2F0E94832920E030E040E05FE338
:101170000E942828C1E02DEC3CEC4CEC5DE30E9481
:10118000752B18160CF0C0E08C2FDF91CF911F91BA
:101190000F91FF90EF90DF90CF90BF90AF909F9016
:1011A0008F907F906F905F904F903F902F90089519
:1011B000CF93DF93FC01248135816217730788F494
:1011C0009B01C081D18162E270E0CE01820F931F4A
:1011D0000E94C82D009729F08C1B9D0BDF91CF91A9
:1011E00008958FEF9FEFFACFFB0101900020E9F700
:1011F0003197AF01461B570BDC01ED91FC9102804A
:10120000F381E02D09948F929F92AF92BF920F933A
:101210001F93CF93DF93CDB7DEB7A1970FB6F894A6
:10122000DEBF0FBECDBF19A2423008F44AE08E01E6
:101230000F5D1F4F842E912CB12CA12CA501940180
:101240000E945229E62FB901CA01EA3004F5E05D97
:10125000D801EE938D01232B242B252B79F790E0D9
:1012600080E0109729F0BD0187E292E00E94F40827
:10127000A1960FB6F894DEBF0FBECDBFDF91CF9120
:101280001F910F91BF90AF909F908F900895E95C50
:10129000DFCF4F925F926F927F928F929F92AF9229
:1012A000BF92CF92DF92EF92FF920F931F93CF9353
:1012B0006B017C01742EAC019B010E948E2B6EE2AF
:1012C00071E0811126C046015701E894B7F82FEF6D
:1012D0003FEF4FE75FE7C501B4010E948E2B8111FC
:1012E0000CC02FEF3FEF4FE75FE7C501B4010E944D
:1012F000C22762E371E0181664F02FEF3FEF4FE76B
:101300005FE4C701B6010E94752B1816ACF466E3C2
:1013100071E087E292E0CF911F910F91FF90EF90E3
:10132000DF90CF90BF90AF909F908F907F906F9005
:101330005F904F900C94F4082FEF3FEF4FE75FEC76
:10134000C701B6010E94C22787FDE1CF20E030E04F
:10135000A901C701B6010E94C22710E000E087FF83
:101360000AC06DE287E292E00E942C068C01F7FA37
:10137000F094F7F8F094C0E060E070E080E09FE364
:101380007C1641F020E030E040E251E40E94672A00
:10139000CF5FF6CFA70196010E9484292B013C0163
:1013A0000E94E02A4B015C014AE00E9403097C0193
:1013B000E00EF11ECC23C1F1C501B4010E94C72784
:1013C0009B01AC01C301B2010E9483294B015C0166
:1013D0006EE287E292E00E942C06E80EF91EC150F0
:1013E00018F120E030E040E251E4C501B4010E9470
:1013F00028282B013C010E94E02A4B01B12CA12C92
:101400004AE0C501B4010E940309E80EF91EC501B6
:10141000B4010E94C7279B01AC01C301B2010E9425
:1014200083294B015C01DBCFC701CF911F910F9145
:10143000FF90EF90DF90CF90BF90AF909F908F90F4
:101440007F906F905F904F9008950F931F93CF936D
:10145000DF93EC010E945A058C016AE371E0CE0132
:101460000E94F408800F911FDF91CF911F910F917F
:1014700008950F931F93CF93DF93EC010E946805AB
:101480008C016AE371E0CE010E94F408800F911F85
:10149000DF91CF911F910F9108950E943C08811117
:1014A0001EC06AE072E087E292E00E94390A64EFAF
:1014B00071E080E090E00E941A050E943C088111D2
:1014C0000EC069EE71E087E292E00E94390A64EF93
:1014D00071E080E090E00E941A050C943C0881E0E5
:1014E0000895FC0124813581232B39F421E0FB018F
:1014F0008081882349F020E007C0808191810E948B
:10150000D32D21E0892BB9F7822F0895FC0180812A
:101510009181009711F00C947A2360E070E0CB0188
:101520000895CF93DF93DC0114962D913C9115978C
:10153000232B79F0FB01CD91DC9160817181CE018B
:101540000E94E32D009729F08C1B9D0BDF91CF911A
:1015500008958FEF9FEFFACF2F923F924F925F92B5
:101560006F927F928F929F92AF92BF92CF92DF92B3
:10157000EF92FF920F931F93CF93DF9300D000D091
:10158000CDB7DEB7FC01448055804114510409F405
:1015900012C1FB01648075806114710409F40BC1F0
:1015A0007A016B019C838B83FA01A480B580A61815
:1015B000B708FC0100811181A114B104B9F4F6014E
:1015C00060817181C8010E94E32D8C01009709F4AC
:1015D000F2C0F70160817181448155810E94AD2D77
:1015E000F70184819581080F191FE9CFB7FC10C05E
:1015F000FB01208031804201C801B1010E94E32D2E
:10160000009709F44EC0860D971D8A0C9B1CF5CFE0
:101610003801F60160817181C8010E94E32D2C011F
:10162000009729F14C01801A910AA401B801C30165
:101630000E94AD2D680C791CF70160817181448195
:101640005581C3010E94AD2DF70184809580680CFF
:10165000791CF60104811581040D151DEB81FC81B7
:10166000848195818A0D9B1D95838483D2CFB80197
:10167000C3010F900F900F900F90DF91CF911F91AA
:101680000F91FF90EF90DF90CF90BF90AF909F9021
:101690008F907F906F905F904F903F902F900C9421
:1016A000DC2D4814590409F486C0EB81FC81828149
:1016B00093818815990578F4B4016F5F7F4FC80155
:1016C0000E94F02C009709F476C0EB81FC81918395
:1016D000808393828282EB81FC8104811581015099
:1016E000110917FD68C03801F601248035802114E6
:1016F000310409F460C0EB81FC8184809580811401
:10170000910409F458C08214930408F454C00815D5
:10171000190520F03401F1E06F1A7108EB81FC81AA
:1017200040805180C2010FEF1FEF9201260D371D3F
:101730003A832983E981FA81E817F90788F0F601ED
:10174000608171810E94E32D009751F09C01241962
:1017500035096216730608F4980101968901EACFEB
:1017600017FD29C0200E311EC201820D931DA40158
:1017700042195309BC018A0D9B1D0E94B62DEB81B5
:10178000FC81848195818A0D9B1D958384832081B2
:101790003181820F931FFC011082EB81FC818081DB
:1017A0009181F7016081718144815581800F911F82
:1017B0000E94AD2D94CF0F900F900F900F90DF915E
:1017C000CF911F910F91FF90EF90DF90CF90BF903E
:1017D000AF909F908F907F906F905F904F903F90D1
:1017E0002F9008950F931F93CF93DF93EC0188817F
:1017F0009981009759F02A813B812617370730F0ED
:1018000081E0DF91CF911F910F9108958B016F5F60
:101810007F4F0E94F02C009759F0998388831B8397
:101820000A832C813D81232B59F7FC011082E8CFDC
:1018300080E0E7CFEF92FF920F931F93CF93DF9358
:101840006115710541F480E0DF91CF911F910F91F7
:10185000FF90EF90089541155105B1F07B01EC0127
:101860000C811D81040F151FB8010E94F20B882303
:1018700051F3288139818C819D81B701820F931F9B
:101880000E94DC2D1D830C8381E0DECFFB014481AF
:101890005581608171810C941A0CEF92FF920F9325
:1018A0001F93CF93DF93EC017B01CB010E94CA23EE
:1018B0000097A9F00C811D81080F191FB801CE01F6
:1018C0000E94F20B882361F0288139818C819D81EF
:1018D000B701820F931F0E94C3231D830C8381E0F5
:1018E000DF91CF911F910F91FF90EF9008950F938B
:1018F0001F93CF93DF938C01EB01FC0180819181D9
:101900000097E1F06881798161157105A9F0428144
:1019100053812C813D814217530770F00E94DC2DCA
:101920008C819D81F801958384831D821C82DF91C7
:10193000CF911F910F9108950E94672C8881998102
:10194000F801918380838A819B81938382838C8138
:101950009D8195838483198218821B821A82E5CF28
:10196000CF93DF93EC0188819981009711F00E9459
:10197000672C198218821D821C821B821A82DF91B9
:10198000CF910895CF93DF93EC01FB014481558102
:10199000608171810E941A0C811103C0CE010E94E6
:1019A000B00CCE01DF91CF910895EF92FF920F938B
:1019B0001F93CF93DF93EC017B018A01BA010E9450
:1019C000F20B81110BC0CE010E94B00CCE01DF9151
:1019D000CF911F910F91FF90EF9008951D830C837D
:1019E000B701888199810E94DC2DF0CFFB01019025
:1019F0000020E9F73197AF01461B570B0C94D50C2B
:101A00000F931F93CF93DF93CDB7DEB761970FB6D8
:101A1000F894DEBF0FBECDBF8C01CB01F80111825F
:101A2000108213821282158214824AE0BE016F5F17
:101A30007F4F0E94F023BE016F5F7F4FC8010E945D
:101A4000F60C61960FB6F894DEBF0FBECDBFDF91E6
:101A5000CF911F910F9108950F931F93CF93DF9311
:101A6000CDB7DEB729970FB6F894DEBF0FBECDBF56
:101A70008C01862FF8011182108213821282158246
:101A800014824AE0BE016F5F7F4F90E00E94F02316
:101A9000BE016F5F7F4FC8010E94F60C29960FB6FA
:101AA000F894DEBF0FBECDBFDF91CF911F910F9194
:101AB0000895CF93DF93EC016115710531F00E9419
:101AC000F60CCE01DF91CF9108950E94B00CF9CFB2
:101AD000CF93DF93EC01FB018617970749F06081F4
:101AE00071816115710541F0448155810E94D50CC9
:101AF000CE01DF91CF9108950E94B00CF9CFFC0187
:101B00001182108213821282158214820C94680D45
:101B1000FC01118210821382128215821482FB0151
:101B200001900020E9F73197AF01461B570B0C9449
:101B3000D50CAF92BF92CF92DF92EF92FF920F93AC
:101B40001F93CF93DF935C016B017A018901241706
:101B5000350720F48F2D7901042F182F6CE371E0E5
:101B6000C5010E94880DD6011496CD91DC91EC162A
:101B7000FD06C8F40C171D0708F4E801D601ED9125
:101B8000FC911197EC0FFD1F108110826D917C91DB
:101B90006E0D7F1DC5010E94590DF6018081918156
:101BA000C80FD91F1883C501DF91CF911F910F91E5
:101BB000FF90EF90DF90CF90BF90AF9008958F92FD
:101BC0009F92AF92BF92CF92DF92EF92FF920F93CC
:101BD0001F93CF93DF93EC01A42E8901FB01C480F6
:101BE000D580D60111972FEF3FEF50E040E090E015
:101BF00080E0B12CEB2DF0E0A817B9071CF10E170F
:101C00001F071CF1FC0131967F018C159D0560F4C6
:101C1000FB01808091808114910431F0F401E80F80
:101C2000F91FE081AE1619F08A179B0749F4B394A7
:101C3000A9014F5F5F4F97018A179B0709F09C012D
:101C4000C701D8CF0E171F078CF4CE010E94990D43
:101C5000CE01DF91CF911F910F91FF90EF90DF9018
:101C6000CF90BF90AF909F908F9008956CE371E0FC
:101C7000CE010E94880DECCFEF92FF920F931F933D
:101C8000CF93DF93EC018B01198218821B821A8299
:101C90001D821C82CB010E94CA237C01BC01CE01A3
:101CA0000E94F20B811109C0CE01DF91CF911F91EB
:101CB0000F91FF90EF900C94B00CFD82EC82B80174
:101CC00088819981DF91CF911F910F91FF90EF90C3
:101CD0000C94C323FC0180819181009711F00C9436
:101CE000672C0895BF92CF92DF92EF92FF920F93ED
:101CF0001F93CF93DF9300D000D000D0CDB7DEB7D5
:101D00008C017B01B42E6CE371E00E94880DB70159
:101D1000FF0C880B990B0E941A050E944D056B0160
:101D20007C0186E993E00E940E07892B91F40E94C2
:101D30004D056C197D098E099F09693E7340810527
:101D4000910538F465E070E080E090E00E941A05AB
:101D5000E8CF86E993E00E940E0718161906ACF446
:101D600086E993E00E94240789831A8241E050E0CB
:101D7000BE016F5F7F4FC8010E941A0C61E070E0E6
:101D800080E090E00E941A05E4CF6CE371E0C801A6
:101D90000E94710A811127C0B801CE0101960E94EC
:101DA0007F0DBE016F5F7F4FC8010E94770CCE018F
:101DB00001960E946A0EBB2029F0B80187E292E0EA
:101DC0000E94250AC80126960FB6F894DEBF0FBE02
:101DD000CDBFDF91CF911F910F91FF90EF90DF90DA
:101DE000CF90BF9008956DE371E0CE0101960E94FF
:101DF000880DD7CFEF92FF920F931F93CF93DF936E
:101E0000CDB7DEB7E3970FB6F894DEBF0FBECDBFF8
:101E10007C01CB01BA01F701118210821382128278
:101E20001582148242E0420F8E010F5F1F4F0E9405
:101E30005C23BC01C7010E94590DE3960FB6F894CC
:101E4000DEBF0FBECDBFDF91CF911F910F91FF90ED
:101E5000EF900895AF92BF92CF92DF92EF92FF92F0
:101E60000F931F93CF93DF93CDB7DEB762970FB673
:101E7000F894DEBF0FBECDBF6EE373E087E292E061
:101E80000E94390A86E993E00E945B078091000175
:101E9000882309F4BBC186E993E00E94450786E9DF
:101EA00093E00E94840760E273E086E993E00E9479
:101EB000390A40E06FE070E0CE0101960E94720E98
:101EC000CE0101960E946A0E66EF72E086E993E009
:101ED0000E94390A40E06FE070E0CE0101960E9456
:101EE000720ECE0101960E946A0E69ED72E086E9DB
:101EF00093E00E94390A40E06FE070E0CE01019665
:101F00000E94720ECE0101960E946A0E68EB72E08A
:101F100086E993E00E94390A40E06FE070E0CE016C
:101F200001960E94720ECE0101960E946A0E6EEA20
:101F300072E086E993E00E94390A40E06FE070E0C9
:101F4000CE0101960E94720ECE0101960E946A0E89
:101F500061EA72E086E993E00E94390A40E06FE0AE
:101F600070E0CE0101960E94720ECE0101960E9491
:101F70006A0E64E972E086E993E00E94390A40E063
:101F80006FE070E0CE0101960E94720ECE010196C4
:101F90000E946A0E6CE872E086E993E00E94390ABA
:101FA00040E06FE070E0CE010D960E94720E6BE88B
:101FB00072E0CE0101960E943C0E69E872E0CE010B
:101FC00007960E943C0EAE014F5F5F4FBE01695FF6
:101FD0007F4FCE010D960E94AC0ACE0107960E945B
:101FE0006A0ECE0101960E946A0E68E872E0CE0188
:101FF00001960E943C0E66E872E0CE0107960E94B0
:102000003C0EAE014F5F5F4FBE01695F7F4FCE0157
:102010000D960E94AC0ACE0107960E946A0ECE0170
:1020200001960E946A0E65E872E0CE0101960E9458
:102030003C0E6DE772E0CE0107960E943C0EAE01A9
:102040004F5F5F4FBE01695F7F4FCE010D960E94CB
:10205000AC0ACE0107960E946A0ECE0101960E943C
:102060006A0E6CE772E0CE0101960E943C0E6AE7B0
:1020700072E0CE0107960E943C0EAE014F5F5F4FAB
:10208000BE01695F7F4FCE010D960E94AC0ACE0162
:1020900007960E946A0ECE0101960E946A0E69E7B9
:1020A00072E0CE0101960E943C0E66E772E0CE011E
:1020B00007960E943C0EAE014F5F5F4FBE01695F05
:1020C0007F4FCE010D960E94AC0ACE0107960E946A
:1020D0006A0ECE0101960E946A0ECD84DE84C11480
:1020E000D10431F009891A89760101151105C1F56C
:1020F00029893A892150310948E050E0BE01635FE7
:102100007F4FCE0101960E94990DBE016F5F7F4FF8
:10211000CE010D960E94770CCE0101960E946A0EA8
:10212000BE01635F7F4FCE0101960E947F0DE98162
:10213000FA812D813E812E0F3F1F2E173F0709F494
:1021400045C08191082E000C990BC0970A97A8F3FF
:1021500065E772E0CE0107960E943C0E44C075010F
:1021600057018FEFA81AB80AF7018081082E000CDA
:10217000990B0E949127892B91F7015011090C0DA1
:102180001D1DF8018081082E000C990B0E949127DB
:10219000892B31F00E151F0518F001501109F1CFF0
:1021A000A8014F5F5F4F4E195F095A8B498BCE14C0
:1021B000DF0420F4B701C6010E94AD2DED85FE8538
:1021C00089899A89E80FF91F108292CF89899A89A3
:1021D0000A97029708F0BCCFBE01635F7F4FCE0124
:1021E00007960E947F0DCE0101960E946A0ECE01D5
:1021F0000D960E946A0EBE01695F7F4F8BEB93E0E4
:102200000E94770CCE0107960E946A0E62960FB666
:10221000F894DEBF0FBECDBFDF91CF911F910F911C
:10222000FF90EF90DF90CF90BF90AF9008954F92C6
:102230005F926F927F928F929F92AF92BF92CF9256
:10224000DF92EF92FF920F931F93CF93DF93CDB75F
:10225000DEB72C970FB6F894DEBF0FBECDBF84E07B
:1022600093E00E94840784E093E00E945B078090E3
:10227000F9019090FA01A090FB01B090FC010E943E
:102280004D052B013C01E12C92E0C92E11E00E948A
:102290004D056419750986099709683E73408105E3
:1022A000910508F48BC2EE2009F40FC1809033032E
:1022B00090903403A0903503B090360340903B03D8
:1022C00050903C0360903D0370903E0380916F03FB
:1022D00090917003A0917103B09172038F3F9F4F53
:1022E000AF4FBF4F11F00E944D05C12CD12C8AE792
:1022F000E82E84E4F82EFFEF8F16F9EC9F06FAE93A
:10230000AF06FBE3BF0661F0C501B4010E94C92717
:1023100020E034E244E759E40E94672A6B017C0123
:10232000C092EE01D092EF01E092F001F092F10143
:1023300060E070E08AE794E42FEF821629EC9206C1
:102340002AE9A2062BE3B20651F0C301B2010E94B2
:10235000C92720E034E244E759E40E94672A6093E9
:10236000EA017093EB018093EC019093ED012091D1
:1023700005023091060240910702509108020E9426
:10238000832925E33AEF4EE85CE30E9428282B01DD
:102390003C0125E33AEF4EE85CE36091090270915D
:1023A0000A0280910B0290910C020E9428284B0196
:1023B0005C0125E33AEF4EE85CE3C701B6010E94F9
:1023C00028286B017C01C301B2010E94822B6D831E
:1023D0007E838F839887C701B6010E94622A698332
:1023E0007A838B839C83C501B4010E94822B698709
:1023F0007A878B879C87C301B2010E94622A2B01D6
:102400003C0129853A854B855C8569817A818B8180
:102410009C810E942828A30192010E9428282B0158
:102420003C01C501B4010E94622A4B015C01C70155
:10243000B6010E94822B9B01AC01C501B4010E9430
:102440002828A30192010E9483296B017C01298124
:102450003A814B815C816D817E818F8198850E945C
:102460002828A70196010E94032A6B017C0120E025
:1024700030E0A9010E94C22787FF0AC02BED3FE090
:1024800049EC50E4C701B6010E9484296B017C012C
:1024900021EE3EE245E652E4C701B6010E9428283B
:1024A0004B015C0180915B0390915C03A0915D0303
:1024B000B0915E038F3FEFEF9E07AE07BE0719F4A2
:1024C00080E090E0DC018093E90180918C039091A1
:1024D0008D03A0918E03B0918F03892B8A2B8B2BB8
:1024E00031F46BE272E087E292E00E94390A809256
:1024F000F9019092FA01A092FB01B092FC010E94B6
:102500004D0584E093E00E94450720E030E0A901FA
:102510006091EE017091EF018091F0019091F101D5
:102520000E94C227811110C020E030E0A901609113
:10253000EA017091EB018091EC019091ED010E9414
:10254000C227882309F45BC062E971E080ED92E064
:102550000E94710A882321F16091FF0170910002AD
:10256000072E000C880B990B0E94C9279B01AC0118
:10257000C501B4010E94752B87FD12C06091FD0159
:102580007091FE01072E000C880B990B0E94C92741
:102590009B01AC01C501B4010E94C22787FD09C39C
:1025A0006FE471E080ED92E00E94710A882339F1B6
:1025B0006091FF0170910002072E000C880B990BAF
:1025C0000E94C9279B01AC01C501B4010E94752B73
:1025D0001816ACF46091FD017091FE01072E000CFD
:1025E000880B990B0E94C9279B01AC01F1E0F9838C
:1025F000C501B4010E94C22718160CF0DCC2198272
:10260000DAC22AE2D21609F407C18CE2D812BDC29E
:10261000809177038D2580937703FEC09091890385
:10262000F0E0E758FC4F1082F0907803FF2009F4A7
:102630006CC120917903822F022E000C990B3FEB85
:10264000320F363008F0EDC0C7978295807F9091A9
:102650007A03292F092E000C330B4FEB490F46301C
:1026600008F0E7C027533109820F9091770389134F
:1026700042C1F0908B03FF2009F4D1C080919003F8
:102680009091910301969093910380939003809190
:102690006B0390916C03A0916D03B0916E038093D6
:1026A000670390936803A0936903B0936A038091D2
:1026B000730390917403A0917503B0917603809396
:1026C0006F0390937003A0937103B0937203809192
:1026D0008803882309F4B6C0813009F060C0809176
:1026E000270390912803A0912903B0912A03809396
:1026F000230390932403A0932503B0932603809192
:102700002F0390913003A0913103B0913203809355
:102710002B0390932C03A0932D03B0932E03809151
:10272000370390913803A0913903B0913A03809315
:10273000330390933403A0933503B0933603809111
:102740003F0390914003A0914103B09142038093D5
:102750003B0390933C03A0933D03B0933E038091D1
:102760004F0390915003A0915103B0915203809375
:102770004B0390934C03A0934D03B0934E03809171
:10278000570390915803A0915903B0915A03809335
:10279000530390935403A0935503B0935603809131
:1027A00089038F5F8093890310928A0381E09AE204
:1027B000D91280E080937803F110EF2C84E093E04D
:1027C0000E940E07892B09F462CD84E093E00E94F9
:1027D0002407D82E80918C0390918D03A0918E03B5
:1027E000B0918F030196A11DB11D80938C0390932E
:1027F0008D03A0938E03B0938F0384E2D81609F45F
:10280000B7C1E0918A038D150CF4FBCE9AE0D9167E
:1028100019F0FDE0DF12B9C1EF3008F4FFCEF12C62
:10282000BECF2156263018F4875591090ECFC09798
:102830000CCF9156963018F42755310915CF2053F7
:10284000310912CF8091470390914803A091490329
:10285000B0914A038093430390934403A0934503AC
:10286000B09346038091270390912803A0912903F8
:10287000B0912A038093230390932403A09325030C
:10288000B09326038091370390913803A0913903C8
:10289000B0913A038093330390933403A0933503AC
:1028A000B093360380913F0390914003A091410380
:1028B000B091420380933B0390933C03A0933D036C
:1028C000B0933E03809165039091660390936403F7
:1028D0008093630380915F0390916003A0916103F3
:1028E000B091620380935B0390935C03A0935D03BC
:1028F000B0935E0354CF809192039091930301961D
:1029000090939303809392038ACF91111CC049E75F
:1029100053E0A3E4B1E0CA01FC012191CF012223DD
:1029200009F461C13D912317B9F3A9E4B1E0FA01BB
:102930008191AF01882309F459C19D918917B9F399
:10294000C09288032CCFE0918803E23009F467CF6E
:1029500080917903882309F462CF20E2E29FF0019D
:102960001124E92B3197E932F10508F018CFE5542D
:10297000FB4E0C94C52B01151C1531154C15571524
:1029800091159815A215AD15CF13CF13CF13CF13F3
:10299000CF13CF13CF13CF13CF13CF13CF13CF1327
:1029A000CF13CF13CF13CF13CF13CF13CF13CF1317
:1029B000CF13CF13CF13011516151C1531154C1558
:1029C000571572157D15E414E9E7F3E020E030E0D7
:1029D000A901019180ED800F8A3008F099C0AAE02A
:1029E000B0E00E940829202F000F330B440B550B39
:1029F000260F371F481F591F20533109410951091C
:102A0000E8CF0E944A0360932703709328038093C2
:102A1000290390932A030E944D0560936B037093E2
:102A20006C0380936D0390936E03B9CE91E0813473
:102A300009F47BC090E079C00E94BC036093370327
:102A4000709338038093390390933A030E944D05A5
:102A5000609373037093740380937503909376036C
:102A60009ECE833509F0DBCE8091370390913803F9
:102A7000A0913903B0913A03B095A09590958195B6
:102A80009F4FAF4FBF4F8093370390933803A0936E
:102A90003903B0933A0383CE0E94BC0360933F0393
:102AA00070934003809341039093420378CE87351F
:102AB00009F0B5CE80913F0390914003A09141036E
:102AC000B0914203B095A095909581959F4FAF4FDF
:102AD000BF4F80933F0390934003A0934103B09373
:102AE00042035DCE0E944A0360934F0370935003EC
:102AF000809351039093520352CE0E944A036093F5
:102B00005703709358038093590390935A0347CE09
:102B100020932F03309330034093310350933203BB
:102B20003ECE91E081330CF485CF90938B0337CE6A
:102B300089E793E00E947E23992790936603809310
:102B400065032DCE0E944A0360935F037093600378
:102B5000809361039093620322CE0E944A036093A4
:102B60004703709348038093490390934A0317CE19
:102B700010928A031092890310927703C0928803FF
:102B80001092780310928B0319CEEE3040F481E05E
:102B90008E0F80938A03F0E0E758FC4FD08280913B
:102BA000780381110BCE80917703D826D0927703DA
:102BB00005CE21E0298389812C960FB6F894DEBFDB
:102BC0000FBECDBFDF91CF911F910F91FF90EF907E
:102BD000DF90CF90BF90AF909F908F907F906F903D
:102BE0005F904F90089510938803D9CD1092880379
:102BF000D6CD2F923F924F925F926F927F928F929B
:102C00009F92AF92BF92CF92DF92EF92FF920F937B
:102C10001F93CF93DF9300D000D000D0CDB7DEB7A5
:102C2000E6EFF5E08491E2E3F6E00491EEE1F6E010
:102C30001491112379F081110E945B04E12FF0E0DF
:102C4000EE0FFF1FE050FA4FA591B491EC91E023F5
:102C500081E009F480E081708093130240900102CA
:102C600050900202609003027090040220E030E075
:102C7000A901C301B2010E94752B11E018160CF0D6
:102C80007AC083E0282E312CC12CD12C76018EE025
:102C90000E94E3048C01C301B2010E94D92A9B0166
:102CA000AC01C801110FAA0BBB0BBC01CD016456CE
:102CB0007109810991090E94B52B2BE933E040E0AD
:102CC00050E00E94E928CA01B9010E94C9274B01BE
:102CD0005C0120E030E0A9010E94752B18161CF061
:102CE000812C912C5401A5019401C701B6010E94C9
:102CF00084296B017C016AE070E080E090E00E9432
:102D00001A0581E0281A310809F0C1CF20E030E02F
:102D100040E450E4C701B6010E94672A6B017C01C0
:102D200067E672E087E292E00E94680522E0B70160
:102D3000A601CE0101960E94FA0EBE016F5F7F4F81
:102D400087E292E00E94250ACE0101960E946A0E57
:102D5000C092F201D092F301E092F401F092F501F9
:102D600011E020E030E040E85FE3C701B6010E94D7
:102D7000752B87FD10E0109311020E9417118093AC
:102D800012020E944D0A982F8093F601809113023F
:102D90008111892F26960FB6F894DEBF0FBECDBFE6
:102DA000DF91CF911F910F91FF90EF90DF90CF9027
:102DB000BF90AF909F908F907F906F905F904F905B
:102DC0003F902F9008951F920F920FB60F921124EB
:102DD0002F933F938F939F93AF93BF9380911F0245
:102DE00090912002A0912102B091220230911E0206
:102DF00023E0230F2D3758F50196A11DB11D209317
:102E00001E0280931F0290932002A0932102B09390
:102E100022028091230290912402A0912502B09178
:102E200026020196A11DB11D8093230290932402D6
:102E3000A0932502B0932602BF91AF919F918F91ED
:102E40003F912F910F900FBE0F901F90189526E87D
:102E5000230F0296A11DB11DD2CF1F920F920FB664
:102E60000F9211242F933F934F935F936F937F9310
:102E70008F939F93AF93BF93EF93FF9387E292E07B
:102E80000E940A06FF91EF91BF91AF919F918F91A0
:102E90007F916F915F914F913F912F910F900FBE56
:102EA0000F901F9018951F920F920FB60F9211243A
:102EB0002F938F939F93EF93FF93E0913702F091BD
:102EC00038028081E0913D02F0913E0282FD1BC0FC
:102ED0009081809140028F5F8F7320914102821711
:102EE00041F0E0914002F0E0E95DFD4F958F809365
:102EF0004002FF91EF919F918F912F910F900FBE04
:102F00000F901F9018958081F4CF1F920F920FB6EB
:102F10000F9211242F933F934F935F936F937F935F
:102F20008F939F93AF93BF93EF93FF93E091E6014D
:102F3000F091E701309749F0A685B7858585968D94
:102F400091FF14C09C918923A1F4FF91EF91BF914F
:102F5000AF919F918F917F916F915F914F913F9131
:102F60002F910F900FBE0F901F9018959C91892361
:102F700061F7A389B4899C918589809589238C9375
:102F8000868997890197F1F7608D718DA685B78540
:102F9000558538E020E0CB010197F1F7822F90E0D2
:102FA00095958795282F4C91452309F0206831503D
:102FB00091F7868D81FD20958091E40190E0019646
:102FC0008F7399273091E501381799F0A091E401AA
:102FD000B0E0AC55BE4F2C938093E401828D938D6D
:102FE0000197F1F7A389B4898C919589892B8C93EA
:102FF000ACCF868D8160868FF1CF0F931F93CF93D7
:10300000DF93EC01162F042F1B821A8288EE93E0C7
:10301000A0E0B0E08C839D83AE83BF838EE091E01F
:10302000998388831F8A1E8A198E188E1B8E1A8E8A
:103030001D8E1C8E6E8D6E7F6D7F6E8F669561709E
:1030400081E06827842F0E94840461E0802F0E9421
:10305000B204802F90E0FC01E85DF94FE491E88B29
:10306000FC01EC5EF94FE491F0E0EE0FFF1FE65F2C
:10307000F94F859194919A8B898B60E0812F0E9402
:10308000B2048E8D81FD04C061E0812F0E94840412
:103090001C87812F90E0FC01E85DF94FE491ED87FA
:1030A000FC01EC5EF94FE491F0E0EE0FFF1FE05001
:1030B000FA4F859194919F878E87DF91CF911F91D1
:1030C0000F910895E7E2F2E01382128288EE93E016
:1030D000A0E0B0E084839583A683B78380E291E08B
:1030E0009183808385EC90E09587848784EC90E0E1
:1030F0009787868780EC90E0918B808B81EC90E0C5
:10310000938B828B82EC90E0958B848B86EC90E0A5
:10311000978B868B118E128E138E148E6CE371E05A
:103120008BEB93E00E94880D62E571E085EB93E004
:103130000E94880D42E063E086E993E00E94FD175B
:10314000E3E2F3E04FEF5FEFBA0140835183628324
:10315000738310861186128613868FEF99ECAAE985
:10316000BBE3808B918BA28BB38B808F918FA28FCF
:10317000B38F80A391A3A2A3B3A380A791A7A2A773
:10318000B3A780AB91ABA2ABB3AB40AF51AF62AFD3
:1031900073AF8FEF90E09093640380936303409349
:1031A0006703509368036093690370936A034093C5
:1031B0006F035093700360937103709372031092C6
:1031C00077031092780382E080938803109289033A
:1031D00010928A0310928B0310928C0310928D032D
:1031E00010928E0310928F0310929103109290030D
:1031F0001092930310929203109279034BE06CE0CB
:1032000084E093E00E94FD17E8EEF2E080E090E0B9
:10321000A0E8BFE380839183A283B38384839583F3
:10322000A683B783108611861286138614861586A8
:10323000168617866EE871E082EE92E00E94880D95
:1032400061E971E08CED92E00E94880D62E971E025
:1032500086ED92E00E94880D62E971E080ED92E0D7
:103260000E94880D61E971E08AEC92E00E94880D6D
:1032700061E971E084EC92E00C94880DCF93DF93C8
:10328000CDB7DEB7C656D1090FB6F894DEBF0FBE74
:10329000CDBF789484B5826084BD84B5816084BDDF
:1032A00085B5826085BD85B5816085BD80916E00E4
:1032B000816080936E001092810080918100826015
:1032C0008093810080918100816080938100809152
:1032D00080008160809380008091B1008460809341
:1032E000B1008091B00081608093B00080917A003D
:1032F000846080937A0080917A00826080937A0063
:1033000080917A00816080937A0080917A00806851
:1033100080937A001092C1000FB6F894A89580911E
:103320006000886180936000109260000FBE61E0D1
:1033300085E00E94B20460E085E00E94840460E0C1
:103340008AE00E94B20460E089E00E94B20461E079
:1033500084E00E94B20461E086E00E94B20461E071
:1033600087E00E94B20461E088E00E94B2040E94FB
:10337000E2070E94171180E090E0A0EFB1E4809393
:10338000F0029093F102A093F202B093F302E09165
:103390003702F091380282E08083E0913302F091AD
:1033A00034021082E0913502F091360280E1808390
:1033B00010923F02E0913B02F0913C0286E0808354
:1033C000E0913902F0913A02808180618083E0913E
:1033D0003902F0913A02808188608083E09139025D
:1033E000F0913A02808180688083E0913902F09107
:1033F0003A0280818F7D808366E573E087E292E008
:103400000E9468050E942A0F65E573E0CE010196CF
:103410000E943C0E2091BF033091C0038D819E819C
:103420002817390719F58091BB039091BC03698176
:103430007A81009759F06115710509F011C3232BAA
:1034400009F411C3FC01808190E00DC06115710584
:1034500009F409C3232B09F406C3FB01808190E022
:1034600091958195910911E0892B09F010E0CE0129
:1034700001960E946A0E111112C06EE473E087E299
:1034800092E00E9468056BEB73E087E292E00E9495
:103490005A056AE473E087E292E00E9468050E94A0
:1034A0004D050E944D0500910D0210910E022091D4
:1034B0000F0230911002601B710B820B930B613372
:1034C00075478105910508F4E8C60E944D05609393
:1034D0000D0270930E0280930F029093100286E902
:1034E00093E00E9484070E942A0F0E94F9156AED5A
:1034F00074E087E292E00E94390A86E993E00E9434
:103500005B0765ED74E0CE018F599F4F0E943C0E22
:1035100060ED74E0CE01855A9F4F0E943C0E6BEC2B
:1035200074E0CE018B5A9F4F0E943C0E66EC74E013
:10353000CE01815B9F4F0E943C0E61EC74E0CE0196
:10354000875B9F4F0E943C0E6CEB74E0CE018D5B5D
:103550009F4F0E943C0E67EB74E0CE01CD960E9417
:103560003C0E62EB74E0CE01C7960E943C0E6DEA01
:1035700074E0CE01C1960E943C0E68EA74E0CE0170
:103580008B960E943C0E63EA74E0CE0185960E9401
:103590003C0E6EE974E0CE014F960E943C0E69E944
:1035A00074E0CE0149960E943C0E66E374E086E921
:1035B00093E00E94390A40E06FE070E0CE0143964C
:1035C0000E94720EBE016D5E7F4FCE0101960E9479
:1035D0007F0D21E030E040E2BE016F5F7F4FCE0102
:1035E0000D960E94DF0DCE0101960E946A0EBE016B
:1035F000635F7F4FCE0101960E947F0D30E020E097
:103600004CE2BE016F5F7F4FCE0107960E94DF0D37
:10361000CE0101960E946A0E8F81988510E0009776
:1036200019F00E949C23162FCE0107960E946A0E65
:10363000CE010D960E946A0ECE0143960E946A0E3C
:103640001093F7016CED72E0CE018F599F4F0E94ED
:10365000460C8091F60164E974E0811102C06EE8C5
:1036600074E0CE01855A9F4F0E944D0C60ED72E0D0
:10367000CE018B5A9F4F0E94460C8091130269E83D
:1036800074E0811102C063E874E0CE01815B9F4F5A
:103690000E944D0C6AEC72E0CE01875B9F4F0E9446
:1036A000460C6091F801CE0101960E942C0DBE01DE
:1036B0006F5F7F4FCE018D5B9F4F0E94460CCE0106
:1036C00001960E946A0E4091F2015091F3016091BF
:1036D000F4017091F50122E0CE0101960E94FA0EEC
:1036E000BE016F5F7F4FCE01CD960E94460CCE018A
:1036F00001960E946A0E4091F9015091FA01609181
:10370000FB017091FC0121E0CE0101960E94FA0EAE
:10371000BE016F5F7F4FCE01C7960E94460CCE015F
:1037200001960E946A0E4091EE015091EF01609166
:10373000F0017091F10125E0CE0101960E94FA0E90
:10374000BE016F5F7F4FCE01C1960E94460CCE0135
:1037500001960E946A0E4091EA015091EB0160913E
:10376000EC017091ED0125E0CE0101960E94FA0E68
:10377000BE016F5F7F4FCE018B960E94460CCE013B
:1037800001960E946A0E6091E901CE0101960E94A5
:103790002C0DBE016F5F7F4FCE0185960E94460CB7
:1037A000CE0101960E946A0E8091010168E574E0E5
:1037B000811102C065E574E0CE014F960E944D0C68
:1037C0006091F701CE0107960E942C0DBE01695F42
:1037D0007F4FCE0101960E947F0D41E050E068E9E5
:1037E00071E0CE0101960E941A0C811104C0CE0135
:1037F00001960E94B00CBE016F5F7F4FCE014996CB
:103800000E94460CCE0101960E946A0ECE010796D8
:103810000E946A0E67E774E086E993E00E94390A25
:1038200040E06FE070E0CE0101960E94720ECE0182
:1038300001960E946A0E65EB73E0CE0101960E942C
:103840007F0D6BEB73E0CE0101960E94C20CBE01AE
:103850006F597F4F0E94C20CBE01655A7F4F0E9474
:10386000C20CBE016B5A7F4F0E94C20CBE01615B4D
:103870007F4F0E94C20CBE01675B7F4F0E94C20C4B
:10388000BE016D5B7F4F0E94C20CBE01635C7F4F27
:103890000E94C20CBE01695C7F4F0E94C20CBE0137
:1038A0006F5C7F4F0E94C20CBE01655D7F4F0E941E
:1038B000C20CBE016B5D7F4F0E94C20CBE01615EF7
:1038C0007F4F0E94C20CBE01675E7F4F0E94C20CF8
:1038D000BC0186E993E00E94250ACE0101960E9470
:1038E0006A0E41E069E170E0CE0101960E94720E1D
:1038F000CE0101960E946A0E0E94F20767E674E00C
:1039000086E993E00E94390A40E068EB7BE0CE0153
:1039100001960E94720ECE0101960E946A0E6BE51E
:1039200074E086E993E00E94390A40E070E060E0CC
:10393000CE010D960E94720E0E94F2076CE371E0B8
:10394000CE010D960E94710A81118FC065E971E068
:10395000CE0101960E94880DBE016F5F7F4FCE01A0
:103960000D960E94910A019609F083C061E971E009
:10397000CE0107960E94880DBE01695F7F4FCE0180
:103980000D960E94910A11E0019609F410E081E081
:1039900001E010930101882321F0CE0107960E94D7
:1039A0006A0E002321F0CE0101960E946A0E21E0EA
:1039B000112389F06AE971E0CE0101960E94880D19
:1039C000BE016F5F7F4FCE010D960E94910A21E0EC
:1039D000019609F420E020930001112321F0CE018B
:1039E00001960E946A0E69E474E086E993E00E9401
:1039F000390A40E06EE170E0CE0101960E94720E3D
:103A0000CE0101960E946A0E8091000191E0811121
:103A100003C01092E80190E08091E801890F809343
:103A2000E8016DE374E087E292E00E94680560912E
:103A3000E80170E090E080E04AE00E9403096AE358
:103A400071E087E292E00E94F4088091E8018A30F8
:103A5000A1F468EE73E080E090E00E941A05F9CFCF
:103A60000E94D32D00CD11E002CD80E000E010E0F7
:103A700090CF80E001E011E08CCF0E94F2076EE968
:103A800071E0CE0101960E94880DBE016F5F7F4FED
:103A9000CE010D960E94910A8C0170E060E0CE018B
:103AA0000D960E94D8089801AC01BE01635F7F4F5C
:103AB000CE0143960E94990DCE0101960E946A0E96
:103AC000CE010D960E946A0ECE0149960E946A0EA2
:103AD000CE014F960E946A0ECE0185960E946A0E14
:103AE000CE018B960E946A0ECE01C1960E946A0E8C
:103AF000CE01C7960E946A0ECE01CD960E946A0E34
:103B0000CE018D5B9F4F0E946A0ECE01875B9F4F57
:103B10000E946A0ECE01815B9F4F0E946A0ECE0109
:103B20008B5A9F4F0E946A0ECE01855A9F4F0E946A
:103B30006A0ECE018F599F4F0E946A0E809101013B
:103B4000882309F47BC4BE016D5E7F4FCE010D96C4
:103B50000E947F0D61EF74E087E292E00E946805A9
:103B6000BE01635F7F4F87E292E00E94250A70E00A
:103B700060E0CE010D960E94D8087C01FF24FFEF83
:103B8000EF1AFF0AB701CE010D960E94D8089C01DA
:103B9000A701BE01635F7F4FCE0107960E94990D7A
:103BA00065E971E0CE0107960E94710A81110AC091
:103BB00061E971E0CE0107960E94710A6CED72E036
:103BC000882319F0BE01695F7F4F8CED92E00E945F
:103BD000680DB701CE010D960E94D8087C01FF2424
:103BE0002FEFE21AF20AB701CE010D960E94D80813
:103BF0009C01A701BE01635F7F4FCE0101960E9429
:103C0000990DBE016F5F7F4FCE0107960E94770C22
:103C1000CE0101960E946A0E62E971E0CE0107961C
:103C20000E94710A81110AC06FE471E0CE0107960B
:103C30000E94710A60ED72E0882319F0BE01695F8D
:103C40007F4F80ED92E00E94680DB701CE010D9686
:103C50000E94D8087C01FF243FEFE31AF30AB70162
:103C6000CE010D960E94D8089C01A701BE01635F9A
:103C70007F4FCE0101960E94990DBE016F5F7F4F6D
:103C8000CE0107960E94770CCE0101960E946A0E23
:103C90006CE371E0CE0107960E94710A81119FC307
:103CA000CE0107960E94860A20E030E0A9010E941A
:103CB000752B18160CF09CC3CE0107960E94860A3D
:103CC00060930102709302028093030290930402B6
:103CD000B701CE010D960E94D8087C01FF248FEF1A
:103CE000E81AF80AB701CE010D960E94D8089C0187
:103CF000A701BE01635F7F4FCE0101960E94990D1F
:103D0000BE016F5F7F4FCE0107960E94770CCE01F8
:103D100001960E946A0E65E971E0CE0107960E9445
:103D2000710A81110AC061E971E0CE0107960E9413
:103D3000710A6AEC72E0882319F0BE01695F7F4F57
:103D40008AEC92E00E94680DB701CE010D960E94A8
:103D5000D8087C01FF24EFEFEE1AFE0AB701CE016E
:103D60000D960E94D8089C01A701BE01635F7F4F9A
:103D7000CE0101960E94990DBE016F5F7F4FCE016B
:103D800007960E94770CCE0101960E946A0E6CE3A2
:103D900071E0CE0107960E94710A81112DC3CE01F8
:103DA00007960E94860A6093090270930A02809324
:103DB0000B0290930C02B701CE010D960E94D80819
:103DC0007C01FF24FFEFEF1AFF0AB701CE010D9629
:103DD0000E94D8089C01A701BE01635F7F4FCE01FE
:103DE00001960E94990DBE016F5F7F4FCE0107962D
:103DF0000E94770CCE0101960E946A0E6CE371E07E
:103E0000CE0107960E94710A8111FFC2CE0107966A
:103E10000E94860A6093050270930602809307024F
:103E200090930802B701CE010D960E94D8087C013C
:103E3000FF242FEFE21AF20AB701CE010D960E947D
:103E4000D8089C01A701BE01635F7F4FCE01019698
:103E50000E94990DBE016F5F7F4FCE0107960E94B1
:103E6000770CCE0101960E946A0E6CE371E0CE01E0
:103E700007960E94710ABE01695F7F4F882311F087
:103E800062EE72E082EE92E00E94680DB701CE0110
:103E90000D960E94D8087C018C0111270F5F1F4FDF
:103EA000B801CE010D960E94D8089C01A801BE0160
:103EB000635F7F4FCE0101960E94990DBE016F5F37
:103EC0007F4FCE0107960E94770CCE0101960E948B
:103ED0006A0E6CE371E0CE0107960E94710A8111AF
:103EE000DCC08F819885009709F498C20E949C23BA
:103EF0004B01161617060CF0D0C01E2DB12CA12CAC
:103F0000612F70E06F5F7F4FCE010D960E94D80841
:103F10007C01FF243FEFE31AF30AB701CE010D96AF
:103F20000E94D8089C01A701BE01635F7F4FCE01AC
:103F300001960E94990DCE0101960E94860A0E9468
:103F4000D92A709300026093FF01CE0101960E946E
:103F50006A0EB701CE010D960E94D8087C01FF249D
:103F60008FEFE81AF80AB701CE010D960E94D80823
:103F70009C01A701BE01635F7F4FCE0101960E94A5
:103F8000990DCE0101960E94860A0E94D92A2B0122
:103F90007093FE016093FD01CE0101960E946A0EAE
:103FA000B701CE010D960E94D8087C01FF24EFEFE7
:103FB000EE1AFE0AB701CE010D960E94D8089C01A8
:103FC000A701BE01635F7F4FCE0101960E94990D4C
:103FD00089819A8100E0009719F00E949C23062FA6
:103FE000CE0101960E946A0EB701CE010D960E9485
:103FF000D808182F99277C01FFEFEF1AFF0AB701A5
:10400000CE010D960E94D8089C01A701BE01635FF6
:104010007F4FCE0101960E94990DC090F901D0907A
:10402000FA01E090FB01F090FC016091FF017091BA
:104030000002072E000C880B990B0E94C927A701CC
:1040400096010E94C22718160CF4ECC1B201550C5F
:10405000880B990B0E94C9279B01AC01C701B601CF
:104060000E94C22787FFDEC1053608F004E60093F0
:10407000F80161EA71E0CE0101960E94710A65E9DA
:1040800071E0811102C061E971E084EC92E00E946C
:10409000590DCE0101960E946A0ECE0107960E942C
:1040A0006A0ECE010D960E946A0E86E993E00E9488
:1040B0004507CE0143960E946A0E8091F80148E5BB
:1040C00052E0849F9001859F300D11243093190296
:1040D00020931802843609F4E0C180E69AEE821B30
:1040E000930B09F4DDC1909303018093020164E214
:1040F00074E087E292E00E94680568E174E087E27C
:1041000092E00E9468056EE871E082EE92E00E9403
:10411000710A6CE873E0811102C066E873E087E21F
:1041200092E00E94390A6BE074E087E292E00E941C
:1041300068056CED72E087E292E00E94250A6BEF61
:1041400073E087E292E00E94680560ED72E087E22A
:1041500092E00E94250A68EE73E087E292E00E94F6
:1041600068056AEC72E087E292E00E94250A69ED38
:1041700073E087E292E00E9468054091F901509156
:10418000FA016091FB017091FC0122E0CE010196E1
:104190000E94FA0EBE016F5F7F4F87E292E00E949D
:1041A0005A05CE0101960E946A0E66ED73E087E221
:1041B00092E00E94390A68EC73E087E292E00E9484
:1041C000680564EC72E0CE0101960E947F0DBE018D
:1041D0006F5F7F4F87E292E00E94250ACE01019631
:1041E0000E946A0E69EB73E087E292E00E94680524
:1041F0006091F801CE0101960E942C0DBE016F5F07
:104200007F4F87E292E00E945A05CE0101960E94FC
:104210006A0E67EB73E087E292E00E94390A6CEA6B
:1042200073E087E292E00E94680560911802709145
:104230001902CE0101960E94000DBE016F5F7F4FF3
:1042400087E292E00E945A05CE0101960E946A0E12
:1042500069EA73E087E292E00E94390A6DE973E04F
:1042600087E292E00E94680560910201709103016B
:10427000CE0101960E94000DBE016F5F7F4F87E265
:1042800092E00E945A05CE0101960E946A0E6AE9E8
:1042900073E087E292E00E94390A65E971E08CEDF3
:1042A00092E00E94710A882309F4C3C10E944D055F
:1042B00000911A0210911B0220911C0230911D02E4
:1042C0006B017C01C01AD10AE20AF30A809118023C
:1042D00090911902B0E0A0E0C816D906EA06FB06E4
:1042E00008F042C162E971E080ED92E00E94710A3B
:1042F000882371F061E087E00E94840464EF71E03C
:1043000080E090E00E941A0560E088E00E9484044A
:104310006FE471E080ED92E00E94710A882371F0F1
:1043200061E088E00E94840464EF71E080E090E046
:104330000E941A0560E087E00E9484040E94F9153B
:10434000882309F4E8C01091110280911202882399
:1043500009F4A9C0112309F4A6C062E971E080ED57
:1043600092E00E94710A60E775E0811102C06DE57C
:1043700075E087E292E00E94390A60E086E00E94E0
:10438000840465E971E084EC92E00E94710A61E0C6
:10439000811160E084E00E94840430E6C3163AEEA6
:1043A000D306E104F10450F00E944D0560931A0217
:1043B00070931B0280931C0290931D0281E090E099
:1043C0000E94050880E090E0892B09F46AC80E94E9
:1043D000F605882309F465C80E94000062C8609150
:1043E000010270910202809103029091040268CC54
:1043F00060E070E0CB0164CC6091090270910A0228
:1044000080910B0290910C02CECC609105027091CC
:1044100006028091070290910802FCCC60E070E0F7
:10442000CB0166CDCE0101960E946A0E2FEFA21A33
:10443000B20AA814B9040CF463CD2FCE64E175E080
:1044400087E292E00E9468056091090270910A0279
:1044500080910B0290910C0242E00E94490965E0B4
:1044600075E087E292E00E94680560910502709114
:104470000602809107029091080242E00E944909D9
:104480006AE371E087E292E00E94F40868EF74E06A
:1044900087E292E00E94390A08CE90E080E023CEC5
:1044A0008AE090E020CE61E086E00E94840465E925
:1044B00071E084EC92E00E94710A61E0811101C018
:1044C00060E084E00E9484046DE375E0112311F044
:1044D00062E275E087E292E00E94390A809112025E
:1044E000811112C061E971E0CE0101960E94880D30
:1044F000BE016F5F7F4F8CED92E00E94770CCE0182
:1045000001960E946A0E49CF6CED72E0CE010196D1
:104510000E947F0DEDCF0E94E2071091130211114E
:104520001CC06CED72E0CE0101960E947F0DBE01B1
:104530006F5F7F4F8CED92E00E94770CCE01019669
:104540000E946A0E6EE975E0112311F063E875E0D0
:1045500087E292E00E94390A20CF61E971E0CE0142
:1045600001960E94880DE3CF0E944D0A81110EC072
:1045700062EC75E087E292E00E9468050E94E20723
:1045800061E971E08CED92E00E94F60C0E94171137
:1045900081113DC061E971E0CE0101960E94880D54
:1045A000BE016F5F7F4F8CED92E00E94770CCE01D1
:1045B00001960E946A0E0E944D050091140210910E
:1045C00015022091160230911702AB01BC01401B6D
:1045D000510B620B730B8091020190910301B0E0CB
:1045E000A0E0481759076A077B07C0F468EB75E03D
:1045F00087E292E00E94680561E086E00E94840400
:104600006AE371E087E292E00E94F408C6CE6CEDA6
:1046100072E0CE0101960E947F0DC2CF0E944D052F
:104620006093140270931502809316029093170200
:10463000B4CE0E94E20764ED75E087E292E00E944A
:10464000390A89E090E00E940508B8CECF93DF9345
:1046500084EC92E00E946A0E8AEC92E00E946A0E5C
:1046600080ED92E00E946A0E86ED92E00E946A0E52
:104670008CED92E00E946A0E82EE92E00E946A0E39
:10468000CEE0D1E0D0930503C093040384E093E02F
:104690000E944507D0939703C093960386E993E061
:1046A0000E94450785EB93E00E946A0E8BEB93E036
:1046B000DF91CF910C946A0EEF920F931F93CF93DB
:1046C000DF93E80134E047FD34E1042E000C550B84
:1046D00057FF03C0519541955109E32E022F242F16
:1046E000AE010E940A24CE01DF91CF911F910F915C
:1046F000EF900895662777270C946925FC01882799
:104700009927E89421912032E9F3293010F02E30D6
:10471000C8F32B3241F02D3239F4689404C00E9462
:10472000E823820F911D219120532A30C0F31EF4FB
:10473000909581959F4F08951F93FC019927882795
:10474000BC01E89411911032E9F3193010F01E30D9
:10475000C8F31B3251F01D3249F4689406C00E9420
:10476000D323610F711D811D911D119110531A30BA
:10477000B0F33EF490958095709561957F4F8F4F83
:104780009F4F1F910895FB01DC0105900D920020C1
:10479000E1F70895FC0105900020E9F780959095D8
:1047A0008E0F9F1F0895592F482F372F262F660FE2
:1047B000771F881F991F660F771F881F991F620F29
:1047C000731F841F951F660F771F881F991F0895F9
:1047D0007AE0979F902D879F802D910D1124089549
:1047E000BB27FB015527AA27880F991FAA1FA417CB
:1047F00010F0A41B83955051B9F7A05DAA3308F0BF
:10480000A95DA193009779F7B111B1931192CB01F2
:104810000C94B227A9E0B0E0E0E1F4E20C94212985
:104820006A01F22EB02E102FFBE3AF2EA01608F473
:104830001BE31F5F012F27E0AE014F5F5F4F0E9418
:10484000B926BC018981982F9970913009F43FC035
:104850009BE2E1FC04C09E2D9170E0FC3AC05E2D0D
:104860005071E82FE87083FF46C084E0911101C0C9
:1048700083E0EF2DE81B8F1508F0E0E0D6018E2FC6
:1048800020E2552351F1992329F0D6019C93C601CA
:1048900001966C0196012D5F3F4FE2FE24C08EE42D
:1048A000D6018C9391E411969C93119712968C9358
:1048B000D9018E2F90E281111BC0E20FF32FF11D61
:1048C00010828EEF9FEF2996ECE00C943D299DE23B
:1048D000C6CF90E2C4CF2D9381508111FCCFCE0E74
:1048E000D11CE0E0D0CF8EE6D6018C9391E6DBCFF1
:1048F0009D938150E0CF482F447082FF3DC084E0FB
:10490000911101C083E08F1510F4EF2DE81BD60143
:104910008E2F20E2552309F1992329F0D6019C938B
:10492000C60101966C0196012D5F3F4FE2FE1BC050
:1049300089E4D6018C938EE411968C93119786E4CA
:1049400012968C93D9018E2F90E2882309F4B5CF6B
:104950009D938150FACF2D9381508111FCCFCE0EC3
:10496000D11CE0E0D9CF89E6D6018C938EE6119672
:104970008C93119786E6E4CF9B0177FF02C030E06D
:1049800020E0A1E0B0E0911102C0B0E0A0E0F901A8
:104990003196AE0FBF1F8B2C912CBB2009F461C048
:1049A0005401EFEFAE1ABE0AAA0DBB1DFA161B0684
:1049B00019F014F04F2D4A1B511188C0E3FC59C067
:1049C0007601A42FB0E2A1114FC0C40ED11C9923CF
:1049D00009F45BC040E0D6011196F60190836D01A9
:1049E000552309F448C0012F060F9A81582F5071A2
:1049F00084FF03C0913309F4015010160CF047C036
:104A0000093008F008E0EEE2FE2E5B01A01AB108C2
:104A100085019194819491082F3F320729F4D601A2
:104A2000FC92F60131966F016217730794F1021739
:104A300013077CF5DB01A21BB30BAA24A394B12CB2
:104A4000AC0EBD1EAA0DBB1D11968C9121503109D3
:104A5000D601119628153905F4F0F60180836D0111
:104A6000DBCFB12CA12CA0CFF701B1937F01A150D6
:104A7000AACF9111B0CFD601942F50E302C05D931D
:104A800091509111FCCFC40ED11C40E0ACCF01E09D
:104A9000BACF80E3DBCF6217730731F4963388F423
:104AA000953311F4552369F0F6018083FD01842FBD
:104AB00090E2811108C0A40FB11D1C9290E080E02B
:104AC00002CF81E3F1CF91938150F3CF911183CF46
:104AD0008ACFB0E0A0E0EFE6F5E20C9421295C017A
:104AE0007B016115710519F0DB018D939C938501A4
:104AF0000F5F1F4FF501D0818D2F90E00E9491270D
:104B00006C01892BB9F5DD32B9F50F5F1F4FD50167
:104B10001196DC91C1E05801F1E0AF1AB10843E011
:104B200050E06CEB70E0C5010E949A27892B69F573
:104B3000680182E0C80ED11C45E050E067EB70E0F0
:104B4000C6010E949A27892B21F4680197E0C90EBB
:104B5000D11CE114F10419F0D701CD92DC9260E090
:104B600070E080E89FEFC111FFC060E070E080E876
:104B70009FE7FAC05801BBCFDB3229F485010E5FF5
:104B80001F4FF501D181C0E0C6CF43E050E064EB98
:104B900070E0C5010E949A27892BE9F0F80110E026
:104BA00000E020E030E0A9015F01B0ED8B2E8D0E1A
:104BB00089E08815C8F19C2E689491F88C2F887034
:104BC000C2FF16C0811102C00F5F1F4F3196D50181
:104BD000DC91C92DE9CFE114F10429F00E5F1F4FDC
:104BE000F7011183008360E070E080EC9FE7BCC0B8
:104BF000882311F001501109A5E0B0E00E940829B6
:104C00009B01AC01220F331F441F551F280D311D7E
:104C1000411D511D283999E93907490799E159077B
:104C2000A8F2C6609C2ED2CFAEEF8A1206C0C3FD9A
:104C30003CC09C2E689493F8C9CFDF7DD534A9F58C
:104C400080818D3239F4C061DF011296818162E08A
:104C500070E006C0DF018B32C1F3119661E070E0B5
:104C600080535D01A61AB70A8A30F8F4E0E8CE1640
:104C7000ECE0DE065CF4B601660F771F660F771F67
:104C8000C60ED71ECC0CDD1CC80ED11C5D01FFEF7B
:104C9000AF1ABF0A8C9180538A30A8F1C4FF03C0B9
:104CA000D194C194D1080C0D1D1DC1FF09C0E114A0
:104CB000F10431F081E0A81AB108D701AD92BC929D
:104CC000CA01B9010E94C727C370C33009F49058C4
:104CD0004B015C0120E030E0A9010E94C22788233B
:104CE00009F440C0CBEED0E017FF05C01195019547
:104CF0001109C3EDD0E06E01B8E1CB1AD10880E212
:104D0000E82EF12C0FC0D501B1CFFE0125913591D0
:104D1000459154910E191F09C501B4010E9428281C
:104D20004B015C01D501C4010E151F0574F72497D2
:104D3000F594E794CC16DD06A9F78A2F880F8B2F00
:104D4000881F8F3F49F020E030E0A901C501B40180
:104D50000E94C227811106C082E290E09093C203B4
:104D60008093C103C501B401CDB7DEB7ECE00C946C
:104D70003D29283008F027E03327DA01990F311D4B
:104D800087FD916000966105710539F432602E5FF0
:104D90003D9330E32A95E1F708959F3F30F0803846
:104DA0007105610509F03C5F3C5F3D93913008F06F
:104DB0008068911DDF93CF931F930F93FF92EF9223
:104DC000192F987F9695E92F96959695E90FFF27CD
:104DD000E75BFE4F99273327EE24FF24A701E70165
:104DE00005900894079428F4360FE71EF81E491F13
:104DF000511D660F771F881F991F0694A1F7059014
:104E0000079428F4E70EF81E491F561FC11D770F9F
:104E1000881F991F661F0694A1F70590079428F430
:104E2000F80E491F561FC71FD11D880F991F661FF7
:104E3000771F0694A1F70590079420F4490F561F99
:104E4000C71FD81F990F661F771F881F0694A9F7E1
:104E500084911095177041F0D695C7955795479551
:104E6000F794E7941A95C1F7EFEEF0E06894159087
:104E7000159135916591959105907FE27395E118B3
:104E8000F10A430B560BC90BD009C0F7E10CF11E18
:104E9000431F561FC91FD01D7EF4703311F48A952D
:104EA000E6CFE894015030F0080F0AF4002702170B
:104EB00008F4202F2395022F7A3328F079E37D938D
:104EC0002A95E9F710C07D932A9589F6069497955F
:104ED0006795379517951794E118F10A430B560B10
:104EE000C90BD00998F023957E9173957A3308F019
:104EF00070E37C932013B8F77E9170617D9330F05E
:104F0000839571E37D9370E32A95E1F71124EF9087
:104F1000FF900F911F91CF91DF91992787FD909579
:104F2000089591110C949528803219F0895085507C
:104F3000C8F70895FB01DC014150504088F08D9185
:104F400081341CF08B350CF4805E659161341CF06B
:104F50006B350CF4605E861B611171F3990B08953B
:104F6000881BFCCFDC01FC01672F71917723E1F7EF
:104F7000329704C07C916D9370836291AE17BF0726
:104F8000C8F308950E94042808F481E00895E89485
:104F900009C097FB3EF490958095709561957F4F81
:104FA0008F4F9F4F9923A9F0F92F96E9BB2793952F
:104FB000F695879577956795B795F111F8CFFAF43F
:104FC000BB0F11F460FF1BC06F5F7F4F8F4F9F4F70
:104FD00016C0882311F096E911C0772321F09EE8CE
:104FE000872F762F05C0662371F096E8862F70E034
:104FF00060E02AF09A95660F771F881FDAF7880F0E
:105000009695879597F90895990F0008550FAA0B63
:10501000E0E8FEEF16161706E807F907C0F01216CB
:105020001306E407F50798F0621B730B840B950BCE
:1050300039F40A2661F0232B242B252B21F4089523
:105040000A2609F4A140A6958FEF811D811D0895C0
:105050000E943B280C94AF280E94A12838F00E949F
:10506000A82820F0952311F00C9498280C949E28E1
:1050700011240C94E3280E94C02870F3959FC1F37B
:10508000950F50E0551F629FF001729FBB27F00DF6
:10509000B11D639FAA27F00DB11DAA1F649F66274B
:1050A000B00DA11D661F829F2227B00DA11D621F9A
:1050B000739FB00DA11D621F839FA00D611D221F54
:1050C000749F3327A00D611D231F849F600D211D38
:1050D000822F762F6A2F11249F5750409AF0F1F0BB
:1050E00088234AF0EE0FFF1FBB1F661F771F881F24
:1050F00091505040A9F79E3F510580F00C9498289C
:105100000C94E3285F3FE4F3983ED4F386957795BB
:105110006795B795F795E7959F5FC1F7FE2B880FC9
:10512000911D9695879597F9089599278827089551
:1051300097F99F6780E870E060E008959FEF80EC4A
:10514000089500240A9416161706180609060895ED
:1051500000240A9412161306140605060895092E53
:105160000394000C11F4882352F0BB0F40F4BF2BC2
:1051700011F460FF04C06F5F7F4F8F4F9F4F089502
:1051800057FD9058440F551F59F05F3F71F04795F8
:10519000880F97FB991F61F09F3F79F087950895DD
:1051A000121613061406551FF2CF4695F1DF08C0FC
:1051B000161617061806991FF1CF86957105610519
:1051C00008940895E894BB2766277727CB0197F9C1
:1051D0000895052E97FB1EF400940E94002957FDA8
:1051E00007D00E94522907FC03D04EF40C940029EA
:1051F00050954095309521953F4F4F4F5F4F089503
:1052000090958095709561957F4F8F4F9F4F089532
:105210000E947429A59F900DB49F900DA49F800DAE
:10522000911D11240895B7FF0C9408290E940829A4
:10523000821B930B08952F923F924F925F926F9231
:105240007F928F929F92AF92BF92CF92DF92EF9216
:10525000FF920F931F93CF93DF93CDB7DEB7CA1B97
:10526000DB0B0FB6F894DEBF0FBECDBF09942A88C2
:10527000398848885F846E847D848C849B84AA846A
:10528000B984C884DF80EE80FD800C811B81AA81F7
:10529000B981CE0FD11D0FB6F894DEBF0FBECDBFC2
:1052A000ED010895A1E21A2EAA1BBB1BFD010DC042
:1052B000AA1FBB1FEE1FFF1FA217B307E407F507C6
:1052C00020F0A21BB30BE40BF50B661F771F881FA2
:1052D000991F1A9469F760957095809590959B0138
:1052E000AC01BD01CF010895A29FB001B39FC001E1
:1052F000A39F700D811D1124911DB29F700D811D02
:105300001124911D08955058BB27AA270E949B295C
:105310000C94AF280E94A12838F00E94A82820F001
:1053200039F49F3F19F426F40C949E280EF4E0956E
:10533000E7FB0C949828E92F0E94C02858F3BA176D
:10534000620773078407950720F079F4A6F50C949B
:10535000E2280EF4E0950B2EBA2FA02D0B01B90117
:1053600090010C01CA01A0011124FF27591B99F0DB
:10537000593F50F4503E68F11A16F040A22F232FE7
:10538000342F4427585FF3CF469537952795A79537
:10539000F0405395C9F77EF41F16BA0B620B730BDE
:1053A000840BBAF09150A1F0FF0FBB1F661F771F4F
:1053B000881FC2F70EC0BA0F621F731F841F48F404
:1053C000879577956795B795F7959E3F08F0B0CF8D
:1053D0009395880F08F09927EE0F97958795089574
:1053E0000E94A12860F080E891E009F49EEF0E94FD
:1053F000A82828F040E851E071F45EEF0CC00C944E
:105400009E280C94E228E92FE0780E94C02840F3FF
:10541000092E052AB1F3261737074807590738F030
:105420000E2E07F8E02569F0E025E0640AC0EF637E
:1054300007F8009407FADB01B9019D01DC01CA01FC
:10544000AD01EF930E947E2A0E94AF280E94332A6A
:105450005F91552339F02BED3FE049E450FD49ECD5
:105460000C9484290895DF93DD27B92FBF7740E896
:105470005FE31616170648075B0718F4D92F0E943A
:105480007A2B9F938F937F936F930E948A2BE8E6EA
:10549000F0E00E940F2B0E94AF282F913F914F9177
:1054A0005F910E943B28DD2351F09058A2EA2AED3B
:1054B0003FE049EC5FE3D0785D270E949B29DF91B4
:1054C0000C94AF280E94382BE3950C94612B0E941A
:1054D0007B2A0C94AF280E94A82858F00E94A1288B
:1054E00040F029F45F3F29F00C94982851110C9456
:1054F000E3280C949E280E94C02868F39923B1F3F6
:10550000552391F3951B550BBB27AA2762177307E9
:10551000840738F09F5F5F4F220F331F441FAA1F7D
:10552000A9F335D00E2E3AF0E0E832D09150504039
:10553000E695001CCAF72BD0FE2F29D0660F771FE7
:10554000881FBB1F261737074807AB07B0E809F0CD
:10555000BB0B802DBF01FF2793585F4F3AF09E3F52
:10556000510578F00C9498280C94E3285F3FE4F3FD
:10557000983ED4F3869577956795B795F7959F5F95
:10558000C9F7880F911D9695879597F90895E1E0E1
:10559000660F771F881FBB1F621773078407BA0740
:1055A00020F0621B730B840BBA0BEE1F88F7E0959B
:1055B00008950E94E02A6894B1110C94E32808959C
:1055C0000E94C82888F09F5798F0B92F9927B751A3
:1055D000B0F0E1F0660F771F881F991F1AF0BA9597
:1055E000C9F714C0B13091F00E94E228B1E00895EB
:1055F0000C94E228672F782F8827B85F39F0B93FDD
:10560000CCF3869577956795B395D9F73EF4909549
:105610008095709561957F4F8F4F9F4F0895DF93D1
:10562000CF931F930F93FF92EF92DF927B018C0138
:10563000689406C0DA2EEF010E943B28FE01E89430
:10564000A5912591359145915591A6F3EF010E94C1
:105650009B29FE019701A801DA9469F7DF90EF908A
:10566000FF900F911F91CF91DF9108950C949E2888
:105670000E94C828D8F3E894E0E0BB279F57F0F0D9
:105680002AED3FE049EC06C0EE0FBB0F661F771F07
:10569000881F28F0B23A62077307840728F0B25ACD
:1056A000620B730B840BE3959A9572F7803830F494
:1056B0009A95BB0F661F771F881FD2F790480C94EE
:1056C000952BEF93E0FF07C0A2EA2AED3FE049ECFB
:1056D0005FEB0E949B290E94AF280F90039401FC6E
:1056E0009058E5E9F0E00C94A12B0E94042808F4FE
:1056F0008FEF08959B01AC0160E070E080E89FE3CC
:105700000C94672A9F930E94382B0F9007FCEE5F42
:105710000C94612B9B01AC010C9428280E94042856
:10572000880B990B08959F3F31F0915020F4879595
:1057300077956795B795880F911D9695879597F9F9
:1057400008959F938F937F936F93FF93EF939B01A4
:10575000AC010E942828EF91FF910E940F2B2F91FE
:105760003F914F915F910C942828DB018F939F9379
:105770000E940829BF91AF91A29F800D911DA39F08
:10578000900DB29F900D11240895EE0FFF1F05900C
:10579000F491E02D09940F931F93CF93DF93823000
:1057A000910510F482E090E0E091C503F091C6030A
:1057B00030E020E0B0E0A0E0309799F42115310509
:1057C00009F44AC0281B390B24303105D8F58A81E9
:1057D0009B816115710589F1FB0193838283FE0131
:1057E00011C0408151810281138148175907E0F0AF
:1057F0004817590799F4109761F012960C93129775
:1058000013961C933296CF01DF91CF911F910F9188
:1058100008950093C5031093C603F4CF21153105F5
:1058200051F04217530738F0A901DB019A01BD017D
:10583000DF01F801C1CFEF01F9CF9093C603809348
:10584000C503CDCFFE01E20FF31F81939193225048
:10585000310939832883D7CF2091C3033091C40302
:10586000232B41F420910601309107013093C403AA
:105870002093C303209104013091050121153105C6
:1058800041F42DB73EB74091080150910901241B06
:10589000350BE091C303F091C403E217F307A0F4C2
:1058A0002E1B3F0B2817390778F0AC014E5F5F4F76
:1058B0002417350748F04E0F5F1F5093C4034093E1
:1058C000C303819391939FCFF0E0E0E09CCFCF930F
:1058D000DF930097E9F0FC01329713821282A091C6
:1058E000C503B091C603ED0130E020E01097A1F4AC
:1058F00020813181820F931F2091C3033091C40313
:105900002817390709F061C0F093C403E093C3037B
:10591000DF91CF910895EA01CE17DF07E8F54A81BC
:105920005B819E0141155105B1F7E901FB83EA83D3
:1059300049915991C40FD51FEC17FD0761F480817F
:1059400091810296840F951FE90199838883828152
:1059500093819B838A83F0E0E0E012968D919C9185
:1059600013970097B9F52D913C911197CD010296AF
:10597000820F931F2091C3033091C4032817390766
:1059800039F6309751F51092C6031092C503B093C3
:10599000C403A093C303BCCFD383C283408151818E
:1059A000840F951FC817D90761F44E5F5F4F888138
:1059B0009981480F591F518340838A819B8193832A
:1059C00082832115310509F0B0CFF093C603E0932F
:1059D000C5039ECFFD01DC01C0CF13821282D7CF59
:1059E000B0E0A0E0E6EFFCE20C941D298C010097EA
:1059F00051F4CB010E94CB2B8C01C801CDB7DEB78F
:105A0000E0E10C943929FC01E60FF71F9C012250BC
:105A10003109E217F30708F49DC0D901CD91DC915B
:105A20001197C617D70798F0C530D10530F3CE01CE
:105A300004978617970708F3C61BD70B2297C193C5
:105A4000D1936D937C93CF010E94672CD6CF5B01DD
:105A5000AC1ABD0A4C018C0E9D1EA091C503B091DD
:105A6000C603512C412CF12CE12C109731F580917B
:105A7000C3039091C4038815990509F05CC04616CC
:105A8000570608F058C080910401909105010097D5
:105A900041F48DB79EB74091080150910901841BD4
:105AA000950BE817F90708F055C0F093C403E0938D
:105AB000C303F90171836083A0CF8D919C911197ED
:105AC00012966C90129713967C901397A815B905AF
:105AD00059F56C0142E0C40ED11CCA14DB0420F15C
