:100000000C94E3010C94D3120C94AC120C940B02DC
:100010000C940B020C940B020C9471140C940B02B4
:100020000C940B020C940B020C940B020C940B021C
:100030000C940B020C940B020C940B020C940B020C
:100040000C9462120C940B020C9420130C94FA1270
:100050000C940B020C940B020C940B020C940B02EC
:100060000C9452130C940B0207634236B79BD8A72B
:100070001A39685618AEBAAB558C1D3CB7CC5763CD
:10008000BD6DEDFD753EF6177231BF000000803F7B
:1000900000407A10F35A00A0724E18090010A5D43F
:1000A000E80000E87648170000E40B54020000CA9C
:1000B0009A3B000000E1F5050000809698000000E2
:1000C00040420F000000A086010000001027000041
:1000D0000000E803000000006400000000000A00C7
:1000E000000000000100000000002C76D888DC67CA
:1000F0004F0823DFC1DFAE59E1B1B796E5E3E45322
:10010000C63AE651997696E8E6C28426EB898C9B3E
:1001100062ED407C6FFCEFBC9C9F40F2BAA56FA5DE
:10012000F490055A2AF75C936B6CF9676DC11BFC60
:10013000E0E40D47FEF520E6B500D0ED902E03007B
:10014000943577050080841E080000204E0A0000C8
:1001500000C80C333333330F986E12831141EF8D87
:100160002114893BE65516CFFEE6DB18D1844B38C7
:100170001BF77C1D901DA4BBE424203284725E22F8
:100180008100C9F124ECA1E53D27005EBCE2613F9E
:10019000DD83C29C7E20A3FD1F41009D23BE46DB64
:1001A00065F88C11AF32CA57E9742020E280A22092
:1001B00053656E736F722044533A200044530030ED
:1001C0000030002020E280A22053656E736F722001
:1001D00053485434783A20005348540030002020CB
:1001E000E280A2204C6F526120696E696369616C84
:1001F000697A61646F20636F7272656374616D65A3
:100200006E74652E2E2E002020E280A22053656E93
:10021000736F722064652068756D65646164206425
:10022000656C207375656C6F20696E696369616CBC
:10023000697A61646F20636F7272656374616D6562
:100240006E74652E2E2E002020E280A22050726F48
:10025000746F636F6C6F3A204454412D534854348B
:100260002D307849642C4D732C48722C54C2B04305
:100270002C5663632C4353007E2048756D65646182
:100280006420792074656D70657261747572612087
:10029000616D6269656E7465007E20536F6E646186
:1002A0002064652068756D656461642064656C20F8
:1002B0007375656C6F000A0A4D6963726F657374BC
:1002C000616369C3B36E20616772C3AD636F6C61B4
:1002D000205354482076372E342E32303236303682
:1002E0003038002C002C002C002C002C0064420024
:1002F000200054783A20002C002C002C002C006D9B
:10030000732061676F7461646F0020202020E29C7D
:1003100097205469656D706F206465206573706502
:10032000726120002020E28692204D656E73616A22
:10033000652069676E6F7261646F3A20006D696E47
:10034000002020E29C9320436F6E6669726D6163AA
:1003500069C3B36E207265636962696461202D2090
:100360000053485400300000000000240027002AF9
:100370000000000000250028002B000000000800FD
:10038000020100000304070000000000000000005C
:1003900000000023002600290004040404040404CF
:1003A0000402020202020203030303030301020424
:1003B00008102040800102040810200102040810E7
:1003C0002000E714222111241FBECFEFD8E0DEBFAA
:1003D000CDBF11E0A0E0B1E0E6EDF6E502C005908A
:1003E0000D92A23BB107D9F724E0A2EBB1E001C026
:1003F0001D92A03FB207E1F711E0C2EED1E004C0C8
:100400002197FE010E941E29C13ED107C9F70E9413
:10041000B7150C945E2B0C940000FC019081909514
:1004200028E030E081E397FF03C0990F982701C0CF
:10043000990F21503109B9F78181892728E030E0EF
:1004400091E387FF03C0880F892701C0880F2150DF
:100450003109B9F70895833081F028F4813099F09B
:100460008230A9F008958730A9F08830C9F084302F
:10047000B1F4809180008F7D03C0809180008F77E0
:1004800080938000089584B58F7784BD089584B5E6
:100490008F7DFBCF8091B0008F778093B00008955F
:1004A0008091B0008F7DF9CF1F93CF93DF93282FDA
:1004B00030E0F901E558FC4F8491F901E355FC4F18
:1004C000D491F901E756FC4FC491CC23A9F0162F23
:1004D00081110E942B02EC2FF0E0EE0FFF1FEF586E
:1004E000FC4FA591B4918FB7F894EC91111108C00D
:1004F000D095DE23DC938FBFDF91CF911F910895BC
:10050000DE2BF8CFCF93DF9390E0FC01E355FC4F57
:10051000249187569C4FFC0184918823C9F090E078
:10052000880F991FFC01E959FC4FA591B491FC017A
:10053000EF58FC4FC591D49161110DC09FB7F8944D
:100540008C91209582238C938881282328839FBFB8
:10055000DF91CF910895623051F49FB7F8943C91A8
:10056000822F809583238C93E8812E2BEFCF8FB73A
:10057000F894EC912E2B2C938FBFEACF3FB7F894D1
:1005800080915D0390915E03A0915F03B091600341
:1005900026B5A89B05C02F3F19F00196A11DB11DDE
:1005A0003FBFBA2FA92F982F8827BC01CD01620F1A
:1005B000711D811D911D43E0660F771F881F991FD4
:1005C0004A95D1F708958F929F92AF92BF92CF92A2
:1005D000DF92EF92FF926B017C010E94BE024B0101
:1005E0005C01C114D104E104F104B9F00E94BE021F
:1005F000681979098A099B09683E7340810591054C
:1006000080F321E0C21AD108E108F10888EE880ED3
:1006100083E0981EA11CB11CE4CFFF90EF90DF9007
:10062000CF90BF90AF909F908F9008952FB7F89480
:100630006091590370915A0380915B0390915C0320
:100640002FBF08950895089508950895AF92BF9219
:10065000CF92DF92EF92FF920F931F93CF93DF938E
:100660006C017B018B01040F151FEB015E01AE18BD
:10067000BF08C017D10759F06991D601ED91FC91DF
:100680000190F081E02DC6010995892B79F7C5010C
:10069000DF91CF911F910F91FF90EF90DF90CF905E
:1006A000BF90AF900895FC01538D448D252F30E00D
:1006B000842F90E0821B930B541710F0CF9608956F
:1006C00001970895FC01918D828D981761F0A28D9C
:1006D000AE0FBF2FB11D5D968C91928D9F5F9F7362
:1006E000928F90E008958FEF9FEF0895FC01918D18
:1006F000828D981731F0828DE80FF11D858D90E085
:1007000008958FEF9FEF0895FC01918D228D892F21
:1007100090E0805C9F4F821B91098F739927089509
:1007200083ED93E00E94840321E0892B09F420E00B
:10073000822F089580E090E0892B29F00E94900399
:1007400081110C9400000895FC01A48DA80FB92F0D
:10075000B11DA35ABF4F2C91848D90E001968F73E9
:100760009927848FA689B7892C93A089B1898C9108
:10077000837080648C93938D848D981306C0028857
:10078000F389E02D80818F7D80830895EF92FF9221
:100790000F931F93CF93DF93EC0181E0888F9B8DA4
:1007A0008C8D98131AC0E889F989808185FF15C05E
:1007B0009FB7F894EE89FF896083E889F989808181
:1007C0008370806480839FBF81E090E0DF91CF9150
:1007D0001F910F91FF90EF900895F62E0B8D10E072
:1007E0000F5F1F4F0F731127E02E8C8D8E110CC0E1
:1007F0000FB607FCFACFE889F989808185FFF5CF2C
:10080000CE010E94A403F1CFEB8DEC0FFD2FF11D63
:10081000E35AFF4FF0829FB7F8940B8FEA89FB8968
:1008200080818062CFCF0F931F93CF93DF938C0192
:10083000D0E0C0E0F801EC0FFD1F6491662341F0A9
:1008400083ED93E00E94C603892B11F02196F2CF2D
:10085000CE01DF91CF911F910F910895CF93DF9338
:10086000EC01888D8823B9F0AA89BB89E889F989C8
:100870008C9185FD03C0808186FD0DC00FB607FCFD
:10088000F7CF8C9185FFF2CF808185FFEDCFCE0130
:100890000E94A403E9CFDF91CF9108950F931F9396
:1008A000CF93DF93EC01062F142F60E088890E941C
:1008B00054029C858D859CBD8DBD0EBD00000DB480
:1008C00007FEFDCF8EB51EBD00000DB407FEFDCFA7
:1008D0001EB561E088890E945402812FDF91CF917B
:1008E0001F910F91089541E861E881E794E00C942D
:1008F0004E04CF93DF93EC0182319105DCF04597F4
:1009000014F0C4E1D0E0239747E86DEC81E794E070
:100910000E944E0441E36BE881E794E00E944E049C
:100920004C2F4250406869E881E794E0DF91CF9115
:100930000C944E04029714F4C2E0D0E044E86DEC4D
:1009400081E794E00E944E044BE2E5CF40E00C9436
:100950004E0410928E0410928D046DE181E794E0B4
:100960000E94A604482F4E7F6DE981E794E00C9425
:100970004E0408950F931F93CF93DF93EC01E8810A
:10098000F9810084F185E02D0995892BB1F06DE0A6
:10099000CE010E94A604082F60E0CE010E94A604AA
:1009A000182F402F6DE8CE010E944E04812F90E059
:1009B000DF91CF911F910F9108958FEF9FEFF8CFA7
:1009C000CF93DF93EC01E881F9810084F185E02D7C
:1009D0000995892B69F08A8D9B8D01969B8F8A8F53
:1009E00060E0CE010E94A60490E0DF91CF910895CF
:1009F0008FEF9FEFFACFCF93DF93EC0163E10E947B
:100A0000A60490E02A8D3B8D821B930BDF91CF9142
:100A10000895AF92BF92CF92DF92FF920F931F93F0
:100A2000CF93DF936C015B01EA0162E20E94A604AE
:100A3000F82E90E09C012C0F3D1F2F3F310529F02F
:100A400020F0CFEFD0E0C81BD90B8501AC0EBD1E46
:100A50000A151B0541F0F80141918F0160E8C601BC
:100A60000E944E04F5CF4C2F4F0D62EAC6010E9442
:100A70004E04CE01DF91CF911F910F91FF90DF9037
:100A8000CF90BF90AF900895CF93DF931F92CDB7D3
:100A9000DEB76983DC01ED91FC910280F381E02DEA
:100AA00041E050E0BE016F5F7F4F09950F90DF91ED
:100AB000CF9108952091D401260F3327331F21327F
:100AC0003105ECF42091A903FC0190E080E0243092
:100AD00069F082E00895A091D4012191AC014C54B9
:100AE0005E4FA40FB52FB11D2C930196861798F376
:100AF0008091D401680F6093D40180E0089581E073
:100B000008951092A90381E08093A80310928303B3
:100B100061E082E10E94540261E083E10E9454029C
:100B2000E9EBF0E080818E7F808380818D7F808300
:100B300080E28093B80085E48093BC000895CF9351
:100B4000DF9391E09093B3018823B9F0C091B8008E
:100B5000D091BA008091BC008A7B8093BC0060E099
:100B600082E10E94540260E083E10E9454020E94EC
:100B70008105D093BA00C093B800DF91CF9108955A
:100B80008F929F92AF92BF92CF92DF92EF92FF929D
:100B90000F931F93CF93DF93D091D203D13208F0FC
:100BA000D7C0182FC091D1030E94BE026B017C01F7
:100BB0008091A90381116BC082E08093A9031093F7
:100BC000A8038FEF8093A7031092A603D093A503E9
:100BD000A1EBB3E0E5E8F3E080E0D81391C0109218
:100BE000840380918403CC0FC82BC093840380912D
:100BF0008303813009F088C0109283030E94BE02F3
:100C00006B017C01809184038093BB008091AB03D6
:100C10009091AC03A091AD03B091AE03892B8A2BC8
:100C20008B2BA1F00E94BE020091AB031091AC038C
:100C30002091AD033091AE036C197D098E099F0997
:100C4000061717072807390708F442C08091BC002F
:100C500083FDD8CF85EC8093BC000E94BE026B015F
:100C60007C018091A903823009F450C08091A703D0
:100C70008F3F09F46FC08091A703803209F46CC0E4
:100C80008091A703803309F469C084E026C0809175
:100C9000AB039091AC03A091AD03B091AE03892B4F
:100CA0008A2B8B2B09F484CF0E94BE028090AB0369
:100CB0009090AC03A090AD03B090AE036C197D0989
:100CC0008E099F0986169706A806B90608F070CF08
:100CD0008091AA030E949F0585E01092B0031092B4
:100CE000D2031092AF03DF91CF911F910F91FF902C
:100CF000EF90DF90CF90BF90AF909F908F9008952E
:100D00009D9191938F5F69CF85EEA5CF8091AB03C5
:100D10009091AC03A091AD03B091AE03892B8A2BC7
:100D20008B2B09F49ECF0E94BE020091AB03109161
:100D3000AC032091AD033091AE036C197D098E098F
:100D40009F09061717072807390708F08ACFC0CF71
:100D500081E0C3CF80E0C1CF82E0BFCF83E0BDCFD1
:100D6000DC0111968D919C91DC01ED91FC9102804A
:100D7000F381E02D41E050E00995019729F481E0ED
:100D80000E94C00591E0811190E0892F0895E091C3
:100D9000620380916103E81730F4F0E0ED59FC4FF5
:100DA000808190E008958FEF9FEF08959091620306
:100DB000809161032FEF3FEF981748F4E92FF0E09F
:100DC000ED59FC4F208130E09F5F90936203C90191
:100DD00008958091610390916203891B990B089596
:100DE000CF92DF92EF92FF920F931F93CF93DF93F7
:100DF0007C01CB018A012091AF03222389F0EB0112
:100E00006B01C40ED51ECC15DD0569F06991D701C3
:100E1000ED91FC910190F081E02DC7010995F3CF90
:100E2000642F0E945A05C801DF91CF911F910F9145
:100E3000FF90EF90DF90CF900895CF93DF931F92B4
:100E4000CDB7DEB769832091AF032223F9F020915B
:100E5000D203203258F021E030E0FC0133832283BA
:100E600090E080E00F90DF91CF9108958091B003E2
:100E7000E82FF0E0EF54FC4F998190838F5F8093CF
:100E8000B0038093D20381E090E0ECCF61E0CE012B
:100E900001960E945A05F7CF90E080E00895CF9325
:100EA000DF93EC018B818823A1F0888191E09093FE
:100EB000AF038093D1031092B0031092D20381E06C
:100EC0000E94C00591E0811190E0892FDF91CF91C0
:100ED000089510926203109261031092B003109271
:100EE000D2030E94810582E293E09093F8018093FF
:100EF000F70183E293E09093FA018093F90181E096
:100F00008B83CE010E944F07982F8111CECFDDCF6A
:100F100008950895DC0180E0615090F09D9198273C
:100F2000E92FEF70F0E0E657FE4F2491E92FE295AC
:100F3000EF70F0E0E656FE4FE491822F8E27ECCF63
:100F40000895DC012C911196ED91FC91F89481812A
:100F5000822B81839281322F30959323928382E07A
:100F600090E00197F1F781818323818380E190E014
:100F70000197F1F790817894E6E6F0E03197F1F788
:100F8000922381E009F480E00895FC0190810180C2
:100F9000F281E02D292F209560FF14C0F894828102
:100FA000822382838181892B8183A0E1B0E0119724
:100FB000F1F78281982B928378948AE690E00197EA
:100FC000F1F70895F8948281822382838181892BAD
:100FD0008183AEE7B0E01197F1F78281982B92837D
:100FE000789486E090E0EBCFDF92EF92FF920F9340
:100FF0001F93CF93DF93EC01D62EE42E08E010E090
:10100000FF24F39461E08D2D8F2109F460E0CE017F
:101010000E94C507FF0C01501109A1F7E11010C093
:10102000F894E981FA81918188818095892381836F
:10103000E981FA81928188818095892382837894DD
:10104000DF91CF911F910F91FF90EF90DF90089566
:10105000EF92FF920F931F93CF93DF938C017B014D
:1010600040E065E50E94F407E70188E0E80EF11C26
:10107000699140E0C8010E94F407CE15DF05C1F771
:10108000DF91CF911F910F91FF90EF90089541153F
:10109000510529F4EAE7F0E080818F7780836A3098
:1010A0007105B9F0CB01880F991F880F991F8072C5
:1010B00067706860682B88E10FB6F894A8958093F4
:1010C00060000FBE60936000E0E6F0E08081806425
:1010D0008083232BD9F483B7817F846083BFF89406
:1010E00083B7816083BF85B7806685BF8F7D85BFED
:1010F0007894889583B78E7F83BF7894452B29F4A5
:10110000EAE7F0E0808180688083089583B7817F7B
:10111000846083BFF89483B7816083BF7894889597
:1011200083B78E7F83BF7894E9CF8EE480937C0071
:1011300062E070E080E090E00E94E30280917A003B
:10114000806480937A0080917A0086FDFCCF809144
:1011500078002091790030E0322F2227032E000CF6
:10116000440B550B282B60E070E381E190E00E9476
:101170001026CA01B9010E94F32420E030E04AE7BA
:1011800054E40E9417270895DC0114966D917C9118
:10119000159730E020E090E080E026173707A1F0B7
:1011A000ED91FC911197309761F41092B201E2EB4E
:1011B000F1E04081840F911D47FD9A952F5F3F4FCD
:1011C000ECCFE20FF31FF5CF08952F923F924F928D
:1011D0005F926F927F928F929F92AF92BF92CF92C7
:1011E000DF92EF92FF920F931F93CF93DF936C01E7
:1011F0001B01F12CE12C86E0A82EB12CD60114960F
:101200008D919C9185010E191F098017910708F493
:101210008C01F601D0810E94BE022B013C0180911D
:10122000A903811172C0C02F013208F0C0E2F1E0C1
:10123000F093A90321E0C501801B910BE816F90684
:1012400008F420E02093A8038FEF8093A703109267
:10125000A6038C0F8093A503A1E0A0938403809143
:101260008403DD0FD82BD0938403809183038130D6
:1012700009F090C0109283030E94BE022B013C0132
:10128000809184038093BB008091AB039091AC0369
:10129000A091AD03B091AE03892B8A2B8B2BA1F0CB
:1012A0000E94BE022091AB033091AC034091AD038C
:1012B0005091AE03641975098609970926173707F7
:1012C0004807590708F442C08091BC0083FDD8CF7D
:1012D000B5ECB093BC000E94BE022B013C01809192
:1012E000A903813009F45AC08091A6038C1710F429
:1012F000C091A603A5E8B3E0E3E6F3E080E08C1735
:1013000051F19D9191938F5FFACF8091AB039091B2
:10131000AC03A091AD03B091AE03892B8A2B8B2B2C
:1013200009F47DCF0E94BE022091AB033091AC0343
:101330004091AD035091AE03641975098609970970
:10134000261737074807590708F069CF8091AA0385
:101350000E949F05C0E010926203C0936103C01712
:10136000110609F058C041018E0C9F1CE401CE010A
:10137000881999098017910798F5D60111968D91D2
:101380009C91DC01ED91FC910284F385E02D09959F
:101390008993EDCFE5EEE093BC009DCF8091AB0348
:1013A0009091AC03A091AD03B091AE03892B8A2B31
:1013B0008B2B09F494CF0E94BE022091AB03309195
:1013C000AC034091AD035091AE03641975098609D1
:1013D0009709261737074807590708F080CFB6CF77
:1013E000E00EF11EB6E0EB16F10408F407CF81E041
:1013F000DF91CF911F910F91FF90EF90DF90CF90F1
:10140000BF90AF909F908F907F906F905F904F9024
:101410003F902F90089580E0EBCFFC0190810180F8
:10142000F281E02DF8948181292F209582238183F8
:1014300078943DE7315011F180818923D9F3F894F4
:101440008281822382838181892B81837894ACEB92
:10145000B3E01197F1F7F894818182238183A8E8A2
:10146000B0E01197F1F78081982381E009F080E0E6
:101470007894E0E3F3E03197F1F7089580E0089580
:10148000BF92CF92DF92EF92FF920F931F93CF9371
:10149000DF93EC01B62EC72E8D85811105C0CE01DC
:1014A0000E940D0A81110EC01B861D861C8680E0DD
:1014B000DF91CF911F910F91FF90EF90DF90CF9030
:1014C000BF90089540E060EFCE010E94F40701E074
:1014D000E12CD12C11E0CE010E94A107F82ECE0103
:1014E0000E94A10791E0F91218C0813099F51134DA
:1014F000D8F2DB86D11002C081E08D878B818823F2
:1015000099F22396EB2DFC2DCF010896299121937A
:10151000E817F907D9F781E0CBCFEE2DF0E0F8120C
:101520000FC08B851817A0F4DE01AE0FBF1F1396F6
:101530008C91802379F4F12C193008F41C87D12E7A
:10154000EC0FFD1F8381902F9095892383830AC020
:101550008113F1CFFE01EE0DF11D8381802B83837A
:10156000FF24F3946F2DCE010E94C5071F5F000F6B
:1015700011F4E39401E087E08E1508F0ACCFB7CF0B
:10158000CF93DF93EC01E091BE04F091BF0413868A
:101590001586148612861186108617821682158289
:1015A00014821382BC018091BE049091BF040E94FA
:1015B000400A982F882341F067E0CE010E948A07F5
:1015C00091E02F81281390E0892FDF91CF9108952A
:1015D0006F927F928F929F92AF92BF92CF92DF9243
:1015E000EF92FF920F931F93CF93DF938C01EB0148
:1015F0008091BE049091BF040E940D0A882309F4D3
:101600003FC0B8018091BE049091BF040E94280899
:1016100040E06EEB8091BE049091BF040E94F407FD
:101620007E016E0189E0C80ED11C8E01A090BE041F
:10163000B090BF0488E0882E912C712C66246394AE
:10164000C5010E94A10781117628660CE1E08E1A7F
:101650009108B1F7F80171928F01CE16DF0631F7CC
:101660008091BE049091BF040E940D0A813041F424
:10167000F70181917F01811105C0E017F107C1F7E2
:1016800090E008C068E0CE010E948A0791E02885BA
:101690002813F6CF892FDF91CF911F910F91FF90E3
:1016A000EF90DF90CF90BF90AF909F908F907F9002
:1016B0006F9008952F923F924F925F926F927F9218
:1016C0008F929F92AF92BF92CF92DF92EF92FF9252
:1016D0000F931F93CF93DF93CDB7DEB72A970FB643
:1016E000F894DEBF0FBECDBF8C012DB73EB73A8751
:1016F00029876C0130E5C30ED11C7C0160E070E0ED
:10170000CB01F70121913191419151917F010E94CB
:10171000AB26CE14DF04A9F720E030E040EA51E424
:101720000E9417272B013C011A830983812C912CDD
:101730005401E981FA816191719181919191FA83CA
:10174000E983A30192010E94AA269B01AC010E9499
:1017500052259B01AC01C501B4010E94AB264B018F
:101760005C0129813A81E216F30619F720E030E0A6
:1017700040EA51E40E9417270E94A1282AE939E98A
:1017800049E95EE30E94EC2487FF7CC0F801808079
:101790009180A280B3801C830B8318861F82EB810B
:1017A000FC81C190D190E190F190FC83EB831E838A
:1017B0000D83312C212CED81FE81619171918191FC
:1017C0009191FE83ED83A70196010E94AA262B0129
:1017D0003C0120E030E0A9010E942028181674F492
:1017E0002DEC3CEC4CEC5DE3C301B2010E94EC2417
:1017F00087FF0EC0FFEF2F1A3F0A0AC02DEC3CEC0A
:101800004CEC5DEBC301B2010E942028181694F342
:1018100029813A818D819E812817390761F6EF81F0
:10182000F885E215F30524F438862F824601570126
:1018300029813A818B819C812817390709F0AFCF24
:10184000B401C501E985FA850FB6F894FEBF0FBE55
:10185000EDBF2A960FB6F894DEBF0FBECDBFDF9165
:10186000CF911F910F91FF90EF90DF90CF90BF909D
:10187000AF909F908F907F906F905F904F903F9030
:101880002F900895EDB7FEB7FA83E9832DB73EB7E1
:10189000205531090FB6F8943EBF0FBE2DBF8DB74E
:1018A0009EB701961C0180E5F801D10101900D92CF
:1018B0008A95E1F783E1E82EF12C8101D12CC12C2E
:1018C000CE14DF0414F5F80181909190A190B190AD
:1018D0008F01FFEFCF1ADF0AF8014080518062804C
:1018E0007380A3019201C501B4010E94202818163B
:1018F0003CF7F80134974082518262827382F8018A
:1019000080829182A282B382DBCFF1E0EF1AF108EC
:10191000A1F6F10120A531A542A553A564A175A1A9
:1019200086A197A10E94AB2620E030E040E05FE373
:101930000E9452254B015C0129813A810FB6F8942F
:101940003EBF0FBE2DBF7CCF8F929F92AF92BF92B2
:101950000F931F93CF93DF93CDB7DEB7A1970FB649
:10196000F894DEBF0FBECDBF19A2423008F44AE0A2
:101970008E010F5D1F4F842E912CB12CA12CA5013F
:1019800094010E947926E62FB901CA01EA3044F594
:10199000E05DD801EE938D01232B242B252B79F7C5
:1019A00090E080E0109769F0FD0101900020E9F7D8
:1019B0003197AF014A1B5B0BBD0183ED93E00E94A1
:1019C0002603A1960FB6F894DEBF0FBECDBFDF9100
:1019D000CF911F910F91BF90AF909F908F900895DE
:1019E000E95CD7CFCF92DF92EF92FF92CF93DF9354
:1019F0006C01990FEE08FF08F7FE19C06DE283ED48
:101A000093E00E94C603EC0166277727CB016C198F
:101A10007D098E099F094AE00E94A40C8C0F9D1F2E
:101A2000DF91CF91FF90EF90DF90CF9008954AE043
:101A3000C701B601DF91CF91FF90EF90DF90CF907B
:101A40000C94A40C42E050E060E971E083ED93E077
:101A50000C942603CF93DF930E941304EC010E94A1
:101A6000220D8C0F9D1FDF91CF910895CF93DF93AF
:101A7000FC01448155816081718183ED93E00E9476
:101A80002603EC010E94220D8C0F9D1FDF91CF9148
:101A90000895CF93DF93EC0188819981009711F02D
:101AA0000E94C029198218821D821C821B821A8200
:101AB000DF91CF910895FC0180819181009711F011
:101AC0000C94C02908950C94C0290C94C029AF929D
:101AD000BF92CF92DF92EF92FF920F931F93CF931B
:101AE000DF936B01EA01FB014481558141155105EA
:101AF00061F1FC01248135812115310531F1241773
:101B0000350718F1C217D30710F0E9012197FC013E
:101B100000811181C801AA24AA94BB24BA94780137
:101B2000EC0EFD1EE816F906A0F0F6016081718149
:101B30000E94442B009769F09C01201B310BC217B7
:101B4000D30708F059010196EDCFAA24AA94BB242B
:101B5000BA94C501DF91CF911F910F91FF90EF9043
:101B6000DF90CF90BF90AF900895CF93DF93DC01CB
:101B700014962D913C911597232B79F0FB01CD9173
:101B8000DC9160817181CE010E94442B009729F085
:101B90008C1B9D0BDF91CF9108958FEF9FEFFACFB4
:101BA000CF93DF93EC01A881B981EB01E881F98142
:101BB0001097F1F03097B1F4EC018C819D81892B65
:101BC000C9F08C9190E00BC0DB0114968D919C9133
:101BD000892B81F0808190E0919581959109DF9129
:101BE000CF910895BF01CD01DF91CF910C94172BB8
:101BF000309751F790E080E0F2CF0F931F93CF938F
:101C0000DF938C01EB01FC01808191810097E1F071
:101C10006881798161157105A9F0428153812C8118
:101C20003D814217530770F00E94202B8C819D81CB
:101C3000F801958384831D821C82DF91CF911F91CF
:101C40000F9108950E94C02988819981F80191839C
:101C500080838A819B81938382838C819D819583FC
:101C60008483198218821B821A82E5CF0F931F93F7
:101C7000CF93DF93EC0188819981009759F02A81F5
:101C80003B812617370730F081E0DF91CF911F911C
:101C90000F9108958B016F5F7F4F0E94492A009733
:101CA00059F0998388831B830A832C813D81232BE0
:101CB00059F7FC011082E8CF80E0E7CFEF92FF9266
:101CC0000F931F93CF93DF93EC017B01CB010E9415
:101CD00040220097A9F00C811D81080F191FB8013F
:101CE000CE010E94360E882361F0288139818C81D3
:101CF0009D81B701820F931F0E9439221D830C839F
:101D000081E0DF91CF911F910F91FF90EF900895A7
:101D1000EF92FF920F931F93CF93DF93611571059D
:101D200041F480E0DF91CF911F910F91FF90EF90F0
:101D3000089541155105B1F07B01EC010C811D8125
:101D4000040F151FB8010E94360E882351F3288115
:101D500039818C819D81B701820F931F0E94202BB6
:101D60001D830C8381E0DECFFB01448155816081BE
:101D700071810C94880EEF92FF920F931F93CF9373
:101D8000DF93EC018B01CB010E9440227C01BC015E
:101D9000CE010E94360E81110BC0CE010E94490D6A
:101DA000CE01DF91CF911F910F91FF90EF90089599
:101DB000FD82EC82B801888199810E943922F0CF9E
:101DC000FC011182108213821282158214820C94FB
:101DD000BB0EEF92FF920F931F93CF93DF93EC0113
:101DE0007B018A01BA010E94360E81110BC0CE011F
:101DF0000E94490DCE01DF91CF911F910F91FF906D
:101E0000EF9008951D830C83B701888199810E940A
:101E1000202BF0CFFB0101900020E9F73197AF01B3
:101E2000461B570B0C94E90E0F931F93CF93DF9330
:101E3000CDB7DEB729970FB6F894DEBF0FBECDBF82
:101E40008C01862FF8011182108213821282158272
:101E5000148240E1BE016F5F7F4F90E00E948B22B1
:101E6000BE016F5F7F4FC8010E940A0F29960FB60F
:101E7000F894DEBF0FBECDBFDF91CF911F910F91C0
:101E80000895FB01DC0111961C921E9213961C9280
:101E90001E92129715961C921E92149786179707FA
:101EA00049F0608171816115710521F0448155818E
:101EB0000C94E90E0895FC011182108213821282A3
:101EC00015821482FB0101900020E9F73197AF01E0
:101ED000461B570B0C94E90EAF92BF92CF92DF9244
:101EE000EF92FF920F931F93CF93DF936C015B01EF
:101EF0007A0189012417350720F48F2D7901042FE9
:101F0000182F62E971E0C6010E945B0FD50114969B
:101F1000CD91DC91EC16FD06E0F40C171D0708F4DA
:101F2000E801D501ED91FC911197EC0FFD1F108197
:101F300010826D917C916E0D7F1DC601611571053A
:101F4000A1F00E940A0FF50180819181C80FD91F6D
:101F50001883C601DF91CF911F910F91FF90EF90F1
:101F6000DF90CF90BF90AF9008950E94490DEBCFC6
:101F7000EF92FF920F931F93CF93DF93CDB7DEB70E
:101F8000E3970FB6F894DEBF0FBECDBF7C01CB0147
:101F9000BA01F70111821082138212821582148213
:101FA00042E0420F8E010F5F1F4F0E9450210097A9
:101FB00089F0BC01C7010E940A0FE3960FB6F8949E
:101FC000DEBF0FBECDBFDF91CF911F910F91FF906C
:101FD000EF900895C7010E94490DEFCF85ED8093E2
:101FE000BC008091AB039091AC03A091AD03B09184
:101FF000AE030796A11DB11D23E0B695A795979551
:1020000087952A95D1F72091BC0024FD03C010923A
:10201000A90308954091AB035091AC036091AD03C7
:102020007091AE03452B462B472B69F30097A10512
:10203000B10541F025E12A95F1F700000197A109CA
:10204000B109E1CF8091AA030C949F050F931F93D0
:10205000CF93DF938C01EB0188E2FB0111928A950B
:10206000E9F74BE050E063E971E0CE010E94352BC7
:102070001B8681E090E0A0E0B0E08C879D87AE8772
:10208000BF87F80182819381092E000CAA0BBB0B3C
:10209000888B998BAA8BBB8B8DE090E0A0E0B0E0A1
:1020A0008C8B9D8BAE8BBF8B1CA21DA21EA21FA270
:1020B00080E090E0A0E2B2EC8C8F9D8FAE8FBF8F5E
:1020C00080E090E0AAEAB2E4888F998FAA8FBB8F54
:1020D0008AE999E9A9E9BEE388A399A3AAA3BBA3C6
:1020E000DF91CF911F910F9108950F931F93CF937D
:1020F000DF938C01EB0188E2FB0111928A95E9F7ED
:102100004BE050E06BE971E0CE010E94352B1B865D
:1021100081E090E0A0E0B0E08C879D87AE87BF872C
:10212000F80182819381092E000CAA0BBB0B888BCE
:10213000998BAA8BBB8B8CE090E0A0E0B0E08C8BFD
:102140009D8BAE8BBF8B1CA21DA21EA21FA21C8E3C
:102150001D8E1E8E1F8E80E090E0A8ECB2E4888F6A
:10216000998FAA8FBB8F80E090E0A0E0B0E488A3B5
:1021700099A3AAA3BBA3DF91CF911F910F910895BB
:102180002F923F924F925F926F927F928F929F9287
:10219000AF92BF92CF92DF92EF92FF920F931F9375
:1021A000CF93DF9300D000D000D01F92CDB7DEB721
:1021B0007C016B011A010E9416032B013C018DEF7B
:1021C0008F83D70154968D919C915597009701F577
:1021D00052962D913C912130310561F426EF2F83E9
:1021E00005E010E08430910571F484E28F830EE6FF
:1021F00010E028C00AE010E02230310521F420EE82
:102200002F8302E010E08530910589F48EE117C03C
:102210008130910529F429E32F830CE414E0F3CFF6
:102220008230910541F422E32F830EE610E00697F9
:1022300049F485E1DBCF8330910541F58FE28F834F
:102240000CE414E0F70184859585DC0114962D914A
:102250003C91232BF1F410E0812F27960FB6F894D0
:10226000DEBF0FBECDBFDF91CF911F910F91FF90C9
:10227000EF90DF90CF90BF90AF909F908F907F9026
:102280006F905F904F903F902F9008950AE010E07C
:10229000A9CFFC01208131E03093AF032093D1031B
:1022A0001092B0031092D203BE01695F7F4F0E946B
:1022B000B006882381F2B80190E080E00E94E3023A
:1022C000BE016F5F7F4FD7011C968D919C910E943C
:1022D000E508182F882309F4BECF0B81CE010196A3
:1022E0000E940D020813B7CF0E81CE0104960E9402
:1022F0000D020813B0CF6C81862F90E0982F8827AD
:102300006D81680F792F711D90E080E00E94F124AB
:102310004B015C016981862F90E0982F88276A81A4
:10232000680F792F711D90E080E00E94F12420E079
:1023300030E04FE253E40E94522520E03FEF4FE7A8
:1023400057E40E94172720E030E044E352E40E9463
:10235000AA26F701608371838283938320E030E0B3
:102360004AEF52E4C501B4010E94522520E03FEF3C
:102370004FE757E40E94172720E030E040EC50E49C
:102380000E94AA264B015C0120E030E0A9010E94D6
:10239000202818160CF07FC020E030E048EC52E412
:1023A000C501B4010E94EC2487FD06C0812C912C4C
:1023B00088ECA82E82E4B82ED70114968D929D92B7
:1023C000AD92BC9217972114310481F1F10134963A
:1023D00080E2DF011D928A95E9F784E290E0A0E0B7
:1023E000B0E0F10180839183A283B383D7011A9671
:1023F0008D919C91B0E0A0E084839583A683B78300
:102400008DE090E0A0E0B0E080879187A287B3875D
:10241000408A518A628A738AF70180819181A28100
:10242000B381F101848B958BA68BB78BC114D1043A
:1024300009F412CFF601349680E2DF011D928A95ED
:10244000E9F784E290E0A0E0B0E0F60180839183B8
:10245000A283B383D70118968D919C91B0E0A0E040
:1024600084839583A683B7838CE090E0A0E0B0E0FE
:1024700080879187A287B387408A518A628A738A4C
:10248000F70184819581A681B781F601848B958BB4
:10249000A68BB78BE1CE812C912C54018DCFAB0153
:1024A00070E060E0FC01848195810E94C01081E0B1
:1024B000089550E040E0FC01848195810E94C010A5
:1024C00081E008951F920F920FB60F9211242F935F
:1024D0003F938F939F93AF93BF93809159039091B4
:1024E0005A03A0915B03B0915C033091580326E03E
:1024F000230F2D3758F50296A11DB11D20935803C7
:102500008093590390935A03A0935B03B0935C03A9
:1025100080915D0390915E03A0915F03B091600391
:102520000196A11DB11D80935D0390935E03A0935E
:102530005F03B0936003BF91AF919F918F913F91E3
:102540002F910F900FBE0F901F90189529E8230F21
:102550000396A11DB11DD2CF1F920F920FB60F92FD
:1025600011242F933F934F935F936F937F938F9398
:102570009F93AF93BF93EF93FF93E0910201F0918C
:1025800003010995FF91EF91BF91AF919F918F91B9
:102590007F916F915F914F913F912F910F900FBE5F
:1025A0000F901F9018951F920F920FB60F92112443
:1025B0002F933F934F935F936F937F938F939F934B
:1025C000AF93BF93EF93FF93E0910001F09101016E
:1025D0000995FF91EF91BF91AF919F918F917F915D
:1025E0006F915F914F913F912F910F900FBE0F9080
:1025F0001F9018951F920F920FB60F9211242F93D0
:102600003F934F935F936F937F938F939F93AF937A
:10261000BF93EF93FF9383ED93E00E94A403FF9198
:10262000EF91BF91AF919F918F917F916F915F914A
:102630004F913F912F910F900FBE0F901F901895C3
:102640001F920F920FB60F9211242F938F939F9387
:10265000EF93FF93E091E303F091E4038081E09135
:10266000E903F091EA0382FD1BC090818091EC03A5
:102670008F5F8F732091ED03821741F0E091EC039F
:10268000F0E0ED52FC4F958F8093EC03FF91EF91BA
:102690009F918F912F910F900FBE0F901F901895C3
:1026A0008081F4CF1F920F920FB60F9211242F93B7
:1026B0003F934F935F936F937F938F939F93AF93CA
:1026C000BF93EF93FF938091B900887F803609F420
:1026D0004AC0F0F5883209F4A7C018F5803109F432
:1026E0009BC0B8F4882309F4F9C0883009F494C079
:1026F000FF91EF91BF91AF919F918F917F916F91DA
:102700005F914F913F912F910F900FBE0F901F90AF
:102710001895883109F488C0803251F78093A70357
:1027200014C0803409F49DC040F48033B9F3883379
:10273000F9F68093A70385ECB0C0803509F485C015
:10274000883509F496C0883499F60E94EE0FD0CFF0
:10275000883909F48CC038F5883729F050F4883668
:1027600011F0803729F683E08093A9031092F601D7
:1027700057C0883809F47BC0803919F0803809F0D7
:10278000B7CF8091F601803208F071C0E091F60178
:1027900081E08E0F8093F6018091BB00F0E0EA5259
:1027A000FE4F80833DC0803B39F0E0F4803A09F46D
:1027B00079C0883A09F09CCF84E08093A9031092F5
:1027C000D5011092D401E091F701F091F80109953B
:1027D0008091D40181110FC081E08093D4011092C7
:1027E000B40109C0803C09F4A6CF883C09F4A3CF0A
:1027F000883B09F07DCFE091D50181E08E0F809379
:10280000D501F0E0EC54FE4F80818093BB009091A5
:10281000D5018091D40129C0809184038093BB00AD
:1028200085EC8093BC0064CF9091A6038091A503B2
:10283000981758F5E091A60381E08E0F8093A603C8
:10284000F0E0EB57FC4F8081E9CFE091A60381E0F7
:102850008E0F8093A6038091BB00F0E0EB57FC4FF6
:1028600080839091A6038091A5039817C8F285E80C
:10287000D8CFE091A60381E08E0F8093A6038091CC
:10288000BB00F0E0EB57FC4F80838091A8038111DF
:102890005CCF81E08093830384EA8093BC00109234
:1028A000A90326CF85EC8093BC001092A9038091E8
:1028B000F601803230F4E091F601F0E0EA52FE4F8A
:1028C00010826091F60170E0E091F901F091FA0157
:1028D00086ED91E009951092F6010ACF1092A703B8
:1028E00034CF1F920F920FB60F9211248F930FB611
:1028F000F894A895809160008861809360001092A0
:1029000060000FBE8F910F900FBE0F901F90189513
:10291000CF92DF92EF92FF92CF93DF936DE181E749
:1029200094E00E94A60490E034E0959587953A954E
:10293000E1F78A3091050CF042C0FC01EE0FFF1F59
:10294000E80FF91FE45CFE4FC080D180E2800E2CBE
:10295000000CFF086EE181E794E00E94A604D82FE6
:1029600066E281E794E00E94A604C82FD295DF704A
:1029700021E030E040E050E004C0220F331F441F4C
:10298000551FDA95D2F7C701B6010E94102668EEEE
:1029900073E080E090E00E9410262131310541056E
:1029A000510594F04C2F486066EA81E794E0DF918E
:1029B000CF91FF90EF90DF90CF900C944E04CC24F9
:1029C000CA94DC2C7601C6CF4C2F477FEDCFCF9336
:1029D000E3EDF3E01382128288EE93E0A0E0B0E032
:1029E00084839583A683B7832EE531E031832083EA
:1029F00025EC30E03587248724EC30E037872687C4
:102A000020EC30E0318B208B21EC30E0338B228BBB
:102A100022EC30E0358B248B26EC30E0378B268B94
:102A2000118E128E138E148EE1E7F4E0138212825F
:102A300020E731E03183208320E52487C1E0C5878A
:102A400020E734E0378726872AE030E0318B208B7F
:102A500029E030E0338B228B22E030E0358B248B71
:102A6000168A178A108E118E138E128E158E148E62
:102A7000178E168E11A210A214821582168217824A
:102A8000E3E9F4E01382128284839583A683B783FB
:102A900082E891E09183808363EA71E086EE94E0BE
:102AA0000E945B0F66EE74E080EE94E00E94410F9E
:102AB00062E971E08AED94E00E945B0F60E084E0DF
:102AC0000E948202E1EBF3E0E491ACECB4E0EC9321
:102AD000EDE9F3E0E491F0E0EE0FFF1FE157FC4F6A
:102AE0008591949112969C938E9311971B961C92AC
:102AF0001B971D961C921D971C961C921C971A964C
:102B00001C921A9719961C92199718961C9218974E
:102B100017961C92179716961C92169715961C924C
:102B2000159714961C92149713961C921397E5EB25
:102B3000F4E017821086108289E08383C483C58302
:102B4000C6831182168A158A8FEF838B148AB28707
:102B5000A187EFE9F4E01586148617861686118A98
:102B6000108A138A128A158A148ACF910895CF93F6
:102B7000DF93CDB7DEB7ED970FB6F894DEBF0FBE8B
:102B8000CDBF789484B5826084BD84B5816084BDF6
:102B900085B5826085BD85B5816085BD80916E00FB
:102BA000816080936E00109281008091810082602C
:102BB0008093810080918100816080938100809169
:102BC00080008160809380008091B1008460809358
:102BD000B1008091B00081608093B00080917A0054
:102BE000846080937A0080917A00826080937A007A
:102BF00080917A008E7F80937A0080917A0080683D
:102C000080937A001092C10062E083E00E94820209
:102C100061E08FE00E94820281E08093040160E025
:102C20008FE00E945402E091E303F091E40382E01C
:102C30008083E091DF03F091E0031082E091E103F3
:102C4000F091E20383E080831092EB03E091E703CD
:102C5000F091E80386E08083E091E503F091E603DC
:102C6000808180618083E091E503F091E6038081BB
:102C700088608083E091E503F091E60380818068BD
:102C80008083E091E503F091E60380818F7D80836E
:102C900086EB92E00E942A0D89E992E00E942A0DBB
:102CA00088E792E00E942A0D87E492E00E942A0DB4
:102CB00087E092E00E942A0D1AE0FF24F39403E0DB
:102CC000E091BE04F091BF04138615861486128627
:102CD0001186108617821682158214821382109232
:102CE000BC041092BD0462E370E080E090E00E94BA
:102CF000E302BE016E5D7F4F8091BE049091BF04E0
:102D00000E94400A882309F47AC067E0CE018296C7
:102D10000E948A0799A58913ECCF8091BC048F5F2C
:102D20008093BC048AA1883231F008F04EC0803113
:102D300011F08232F1F68091BD048F5F8093BD0463
:102D40008091B504811128C08091BE049091BF0488
:102D50000E940D0ABE016E5D7F4F8091BE0490916E
:102D6000BF040E94280840E064EB8091BE0490916B
:102D7000BF040E94F4078091BE049091BF040E949A
:102D8000A107E82E8091BE049091BF040E940D0A15
:102D9000E11002C0F092B5048AA1803109F1BE01B0
:102DA0006F5F7F4FCE0182960E94E80A882359F018
:102DB0008D819AA19B3311F487FD12C08F3391F05E
:102DC00058F48F31C1F080E00EC08B3309F4B3CFDB
:102DD000823409F08ECFAFCF8F3579F08F3799F7E6
:102DE0008CE001C08AE09091B804981708F081CF78
:102DF0008093B8047ECF89E0F6CF8BE0F4CF80914A
:102E0000BC0481110C94C720015009F059CF115016
:102E100009F0F0C06FEB71E0CE01C8960E94E00EA1
:102E20006CED71E0CE018A960E94E00E2CAD3DADB6
:102E30008EA59FA52817390709F071C1BE01665DEF
:102E40007F4FCE01C8960E94D00D892B09F067C133
:102E50004AE0442E54E4352E63E9662E64E0762E73
:102E600070E2C72ED12CEFE9EE2EE4E0FE2EF2E266
:102E7000AF2EF3E0BF2EA3E28A2EA3E09A2E5524B4
:102E80005394B4E92B2E8091AB049091AC0400973D
:102E900011F00E94C0298091AD049091AE0400977A
:102EA00039F0DC01ED91FC910280F381E02D099570
:102EB0008091AF049091B004009739F0DC01ED915E
:102EC000FC910280F381E02D099586E090E00E945C
:102ED00024298C01FC013082728261821382D582A6
:102EE000C4829093AC048093AB041092620310925E
:102EF00061031092B0031092D2030E948105B09238
:102F0000F801A092F7019092FA018092F901D8019C
:102F100013965C92C8010E944F07882309F477C07A
:102F200029828091AB049091AC04FC01248135810D
:102F3000232B09F46CC020815092AF032093D1035E
:102F40001092B0031092D203BE016F5F7F4F0E94B8
:102F5000B006882309F45BC061E070E080E090E097
:102F60000E94E30286E090E00E942429FC018CE2AA
:102F700091E09183808381E094E093838283F58262
:102F8000E482F093B004E093AF0486E090E00E9406
:102F90002429FC018EE191E09183808380E094E01C
:102FA00093838283F582E482F093AE04E093AD04D0
:102FB00068ED71E08AED94E00E94BB0E1092B204BD
:102FC0001092B1041092B4041092B30483EC91E017
:102FD0000E94130489E88AA38091AB049091AC0409
:102FE000DC0114962D913C91232BD9F460E070E024
:102FF000CB015AC068EC70E080E090E00E94E302F0
:103000005ECE01960E94140FC12C0C9409214A94A3
:1030100041107EC061EC71E0CE0182960E94E00E0C
:1030200056C0FC0120815092AF032093D10310922F
:10303000B0031092D203BE016E5D7F4F0E94B006B6
:103040008823A1F26AE070E080E090E00E94E30251
:10305000BE016F5F7F4F8091AB049091AC040E94E2
:10306000E508882319F2CE0101960E940D029B818A
:103070008913BCCFCE0104960E940D029E81891354
:10308000B5CF69817A8176276727762790E080E03F
:10309000982F872F762F66272C81622B982F872FCA
:1030A000762F66272D81622B1BA21AA21DA21CA2BD
:1030B0001FA21EA220E1AE014F5F5F4F0E94692256
:1030C000BE016F5F7F4FCE0182960E940A0FBE0144
:1030D0006E5D7F4FCE01C8960E94FD0DCE01829697
:1030E0000E945B0DCE018A960E945B0D08AD19AD62
:1030F00001151105E1F0D8018C918823C1F0082E4B
:10310000000C990B0E94062BF80181938F01F3CFDD
:1031100068EC70E080E090E00E94E302B4CEBE0173
:10312000685C7F4FCE0182960E94410FD0CFBE01D6
:10313000685C7F4F80EE94E00E94B40E80EE94E0D5
:103140000E94360DCE01C8960E945B0D61E0809111
:1031500081040E94820261E0809181040E945402F5
:1031600080918304909184048F3F9807C9F061E0B7
:103170000E94820260E0809183040E9454026AE00F
:1031800070E080E090E00E94E30261E080918304BF
:103190000E9454026AE070E080E090E00E94E30246
:1031A0001FB7F8948091FB01811127C0E3EAF3E097
:1031B0008491E7EBF3E09491E82FF0E0EE0FFF1F2E
:1031C000E959FC4FA591B491EC91E92321F461E018
:1031D0008AE00E94540261E08AE00E9482028CB57B
:1031E00080618CBD8CB580648CBD61E08DE00E94F7
:1031F000820261E08BE00E9482028091FB018F5F7E
:103200008093FB011FBF62E481E794E00E94A60463
:10321000823109F03CC440E861E881E794E00E9413
:103220004E0480EC9AECA9E8B6E38093870490936F
:103230008804A0938904B0938A0444EE66E881E789
:1032400094E00E944E0440EC67E881E794E00E941D
:103250004E0440E068E881E794E00E944E0440E0BC
:103260006EE881E794E00E944E0440E06FE881E759
:1032700094E00E944E046CE081E794E00E94A60472
:10328000482F43606CE881E794E00E944E0444E0DC
:1032900066EA81E794E00E944E0481E190E00E949A
:1032A00079040E94730480910F0190E00E947904D8
:1032B0006DE181E794E00E94A6048F70482F40677B
:1032C0006DE981E794E00E944E040E94881443EC6B
:1032D00061EB81E794E00E944E044AE067EB81E7EE
:1032E00094E00E944E046EE181E794E00E94A604FF
:1032F0008F70482F406C6EE981E794E00E944E0485
:103300000E9488146DE181E794E00E94A604817F09
:10331000482F42606DE981E794E00E944E040E94CC
:1033200073048EED91E00E942A0D0E94220D88E127
:1033300099E20FB6F894A895809360000FBE909321
:103340006000A89566EE74E0CE0101960E94410FE0
:1033500065E673E0CE0101960E945E0E811104C005
:10336000CE0101960E94490DBE016F5F7F4F80EE36
:1033700094E00E94B50D8C01CE0101960E945B0D78
:10338000012B09F46FC061E673E0CE0101960E9443
:10339000E00E2091DE043091DF048D819E8128179C
:1033A000390751F4BE016F5F7F4F8AED94E00E94B0
:1033B000D00D11E0892B09F010E0CE0101960E949A
:1033C0005B0D112309F464C34DE952E061EC72E036
:1033D0008FE994E00E94C010C090B102D090B20278
:1033E000E090B302F090B402C0920501D0920601C1
:1033F000E0920701F09208014091D5025091D60267
:103400006091D7027091D8024093090150930A014C
:1034100060930B0170930C018091FC0190E09C0182
:10342000220F331F220F331FF901E35BFD4FC082D0
:10343000D182E282F38223503E4FD9014D935D93B6
:103440006D937C931397019664E170E00E94F628D7
:103450008093FC018DE492E00E945A0B8DEF91E085
:103460000E945A0BA89561E08FE00E94540262E32B
:1034700070E080E090E00E94E30203E013E023E5C7
:10348000E22E23E0F22E8091040120E4829FC0010D
:10349000112480937C0080917A00806480937A006C
:1034A00080917A0086FDFCCF609178007091790060
:1034B000072E000C880B990B0E94F324D8016D9302
:1034C0007D938D939D938D0166E970E080E090E09F
:1034D0000E94E302E016F106B1F660E08FE00E9480
:1034E000540283E093E00E945A0B4B015C010E945E
:1034F00095086B017C01C501B4010E94C327072E0A
:10350000000C880B990B0E94F32420E030EC4FE76D
:1035100054E40E941727A70196010E94522520E03B
:1035200030E04AE754E40E9452250E94C3279B01E1
:10353000AC0124503B4041095109ACE3B0E00E948A
:103540002F26C12CD12C7601663DB6E07B07810584
:103550009105ACF46339EDE47E07EDEF8E07EFEFF4
:103560009E070CF432C42AE239EF4FEF5FEF0E945E
:103570001026CA01B9010E94F3246B017C0100915D
:103580000D0110910E018091020390E0FC01EE0FFD
:10359000FF1FEE0FFF1FE251FD4FC082D182E2827A
:1035A000F382019625E030E0B9010E94F628FC0183
:1035B000809302030496B9010E94F628DC01AA0F49
:1035C000BB1FAA0FBB1FA251BD4FEE0FFF1FEE0F77
:1035D000FF1FE251FD4F20813181428153816D9166
:1035E0007D918D919C910E94AA2620E030E040E8D8
:1035F0005FE30E94202818160CF0EEC381E0809350
:10360000ED021092E9021092EA021092EB0210927F
:10361000EC028091ED0281114AC06091E902709143
:10362000EA028091EB029091EC020E94F32420E0E8
:1036300030E040E752E40E94172720E030E040EC01
:1036400051E40E94AA262AE037ED43E25CE30E949F
:1036500052250E94912720E030E040E85FE30E947D
:10366000AB269B01AC0160E070E080E89FE30E9424
:10367000172725E639E44FE05FE30E9417274B0147
:103680005C0120E030E040E651E4C701B6010E9451
:10369000AA269B01AC01C501B4010E94522520E07D
:1036A00030E040E651E40E94AB266B017C0123E34D
:1036B00033E343E35FE36091E5027091E6028091BA
:1036C000E7029091E8020E9452254B015C012AE931
:1036D00039E949E95EE3C701B6010E9452259B0121
:1036E000AC01C501B4010E94AB266093E502709362
:1036F000E6028093E7029093E8026093540370938C
:103700005503809356039093570310910F011B307C
:1037100088F00E94950820E030E040E450E40E94E8
:10372000202818163CF4125010930F01812F90E0BE
:103730000E94790446E0342E59E0252EA89560EECB
:1037400074E0CE01C2960E94410F6BEE72E0CE0192
:10375000C2960E945E0E40915403509155036091B1
:1037600056037091570322E0CE0101960E94B80FD4
:10377000BE016F5F7F4FCE01C2960E94B40ECE0194
:1037800001960E945B0D69EE72E0CE01C2960E9426
:103790005E0E4091090150910A0160910B017091F8
:1037A0000C0120E0CE0101960E94B80FBE016F5FB0
:1037B0007F4FCE01C2960E94B40ECE0101960E94A8
:1037C0005B0D67EE72E0CE01C2960E945E0E4091E4
:1037D000050150910601609107017091080121E0F7
:1037E000CE0101960E94B80FBE016F5F7F4FCE01E0
:1037F000C2960E94B40ECE0101960E945B0D65EE4A
:1038000072E0CE01C2960E945E0E0E949508AB0146
:10381000BC0121E0CE0101960E94B80FBE016F5F8E
:103820007F4FCE01C2960E94B40ECE0101960E9437
:103830005B0D63EE72E0CE01C2960E945E0EBE0189
:103840006E5C7F4FCE018A960E94410FCE018A9610
:103850000E94C4081BA21AA21DA21CA21FA21EA283
:103860004AE0BE016F5F7F4F0E944922BE016F5F39
:103870007F4FCE0182960E940A0FBE016E5D7F4F80
:10388000CE01C2960E94B40ECE0182960E945B0DBC
:10389000CE018A960E945B0D0E94730482EF92E033
:1038A0000E9413044EA95FA96AA97BA983ED93E046
:1038B0000E94260380EF92E00E94130460910F01A2
:1038C00070E090E080E04AE00E94A40C8DEE92E06F
:1038D0000E942A0D61E081E794E00E94A6048370B3
:1038E0008330E9F062E181E794E00E94A60483FF5F
:1038F00006C048E062E981E794E00E944E040E941D
:1039000073040E94A90440E06DE881E794E00E94FE
:103910004E0440E062EA81E794E00E944E044EA922
:103920005FA96AA97BA981E794E00E94090543E8A1
:1039300061E881E794E00E944E0462E181E794E04F
:103940000E94A60483FFF9CF48E062E981E794E092
:103950000E944E0464E670E080E090E00E94E30282
:1039600040E861E881E794E00E944E04CE01C296EF
:103970000E945B0DA8950E9416036B017C01C11487
:10398000D104E104F10411F00E9409220E94BA213D
:1039900020E137E240E050E00E9410262B013C017C
:1039A000F8E84F0EF3E15F1E611C711C0E941603C4
:1039B0006C197D098E099F096415750586059705A3
:1039C00008F0BAC362E181E794E00E94A604182FD0
:1039D0000E94A904412F62E981E794E00E944E040D
:1039E00016FF18C215FD16C210928C0410928B049B
:1039F00080918D0490918E0462E2892B09F463E139
:103A000081E794E00E94A604082F10E060E181E7BE
:103A100094E00E94A604482F6DE881E794E00E949C
:103A20004E040E947304012B09F009C280917A00B0
:103A30008F7780937A008091640081608093640026
:103A400058E10FB6F894A895509360000FBE2092ED
:103A500060008091600080648093600083B7817F04
:103A600083BFF89483B7816083BF7894889583B7C8
:103A70008E7F83BF7894809164008E7F80936400F2
:103A800080917A00806880937A00A8958FCFFFCFCD
:103A900080E090E0A0E8BFEB8093090190930A01D9
:103AA000A0930B01B0930C0113E0B12E8091BE04E2
:103AB0009091BF040E940D0A40E06CEC8091BE041E
:103AC0009091BF040E94F4074091B50464E4809192
:103AD000BE049091BF040E94F4070E9416036B017C
:103AE0007C018091B9048823E1F08091BA04882395
:103AF00009F490C08091B50481118CC08091BE04FE
:103B00009091BF040E94A107813059F00E941603D2
:103B10006C197D098E099F096E3E724081059105E1
:103B200068F38091BC0481119EC0C12CD12CAEEFF2
:103B3000EA2EA2ECFA2EA89520E030E04EEF52ECEF
:103B4000C701B6010E94EC248823F1F020E030E0A8
:103B50004AEA52E4C701B6010E94EC248823A1F08E
:103B600020E030E040EF51ECC701B6010E94EC24A8
:103B7000181654F420E030E04CE852E4C701B601D6
:103B80000E94202887FDFEC2BA94B1108FCF20E09A
:103B900030EC49E754ECC701B6010E94EC248823BD
:103BA00041F120E030E04EEF52ECC701B6010E9437
:103BB000EC248823F1F020E030E04AEA52E4C70127
:103BC000B6010E94EC248823A1F020E030E040EF11
:103BD00051ECC701B6010E942028181654F420E0C9
:103BE00030E04CE852E4C701B6010E94EC2487FDA6
:103BF00008C0C0900501D0900601E0900701F09048
:103C00000801C0920501D0920601E0920701F092EE
:103C1000080128CCE091B804E9508EEE92E0E33040
:103C200038F4F0E0EE0FFF1FEA5CFE4F80819181D7
:103C30006C01F12CE12C8091B604882329F060E01E
:103C40008091B7040E945402C701B6010E94E302AA
:103C50008091B604882309F464CF61E08091B704B1
:103C60000E9454025ECFCE0182960E94C00A882331
:103C700009F45BCFBE016F5F7F4FCE0182960E9439
:103C8000E80A882309F451CF9A81C12CD12C7601FE
:103C900097FF06C0C12CD12CF8EFEF2EFF24FA9429
:103CA0004AA189814B33F1F52D8127FF3BC080FD6F
:103CB0003CCF082F10E030E020E073E0000F111F30
:103CC000221F331F7A95D1F7007E177022273327E2
:103CD000892F90E0B0E0A0E0EBE0880F991FAA1FC9
:103CE000BB1FEA95D1F7802B912BA22BB32B8C0114
:103CF0009D010C291D292E293F290138F4EE1F07AB
:103D0000FFEF2F073F070CF410CFC901B8010E9445
:103D1000F32420E030E040E05CE30E9452256B0198
:103D20007C0109CF092F10E0102F0027110F110F70
:103D3000110FB8E08B9FB0011124062B172B012E19
:103D4000000C220B330B0C291D292E293F29483248
:103D500069F4803531F4953081F68F818C3069F6C5
:103D6000E4CE8F3F51F6973041F6DFCE403129F651
:103D70006885662311F270E08F81FB01E81BF10971
:103D8000CF019695982F8827979587950E94F628BA
:103D9000CB01770FAA0BBB0B53E0000F111F221FA3
:103DA000331F5A95D1F70078277033270052110935
:103DB00021093109800F911FA21FB31F97018601AE
:103DC000082B192B2A2B3B2B98CFC12CD12C98ECEC
:103DD000E92E92E4F92ED3CB8091ED02882309F4E9
:103DE00018CCC801110FAA0BBB0B0091E90210916E
:103DF000EA022091EB023091EC02800F911FA21F8A
:103E0000B31F8093E9029093EA02A093EB02B09370
:103E1000EC02FFCB61E081E794E00E94A6048638C3
:103E200009F404CE40E06DE881E794E00E944E047E
:103E300046E861E881E794E00E944E04F7CD62E92C
:103E400071E0CE01C2960E945B0F81E794E00E9470
:103E5000FB04892B89F081E794E00E94E0048983C8
:103E60001A8241E050E0BE016F5F7F4FCE01C296E3
:103E70000E94880EA895E9CF4091E4045091E50492
:103E80008EA99FA98417950708F449C18AA99BA9FF
:103E9000009709F444C16091E0047091E104611558
:103EA000710509F43CC10E94272B892B09F037C109
:103EB000BE016E5C7F4FCE0182960E94410F67EF7C
:103EC00072E0CE0101960E94E00E4EA15FA18D81AD
:103ED0009E81481B590BBE016F5F7F4FCE018296BA
:103EE0000E94670D8C01CE0101960E945B0D0F5F51
:103EF0001F4F2EA13FA1A801BE016E5D7F4FCE01D5
:103F000001960E946C0F89819A81812C912C540119
:103F1000009719F00E9412224B01CE0101960E94D7
:103F20005B0D980150E040E0BE016E5D7F4FCE0119
:103F300001960E946C0FBE016F5F7F4FCE0182968B
:103F40000E94FD0DCE0101960E945B0DBE016E5DCB
:103F50007F4FCE0101960E94410FCE0101960E9433
:103F6000C4088C01CE0101960E945B0DCE018296A1
:103F70000E945B0D0815190509F0D1C0BE016E5CE9
:103F80007F4FCE018A960E94410F6DEF72E0CE0105
:103F900001960E94E00EBE016F5F7F4FCE018A96B0
:103FA0000E94B50D8C01CE0101960E945B0D6BEF56
:103FB00072E0CE0182960E94E00E4EA55FA58EA112
:103FC0009FA1481B590BBE016E5D7F4FCE018A96A3
:103FD0000E94670DA8014F5F5F4F9C01BE01665DA7
:103FE0007F4FCE0101960E946C0FBE016F5F7F4F25
:103FF000CE018A960E94FD0DCE0101960E945B0DB6
:10400000CE0182960E945B0D69EF72E0CE010196AF
:104010000E94E00EBE016F5F7F4FCE018A960E9424
:10402000B50D0FEF1FEF019641F48AA59BA50097F0
:1040300009F471C00E9412228B01CE0101960E94E8
:104040005B0DCE018A960E945B0D0F3F100709F4AD
:104050006EC010930E0100930D0181E493E00E9465
:104060001304C8010E94F20C8DE393E00E942A0D14
:10407000CE01C2960E945B0D83ED93E00E942E0458
:1040800060910D0170910E01072E000C880B990BA9
:104090000E94F32420E030E040EF50E40E945225DB
:1040A0000E94C3277B0110E000E09EE7C92E93E049
:1040B000D92E20EBA22E23E0B22E3CE9832E33E052
:1040C000932E0E151F050CF050C0A89530E020E08F
:1040D00050E040E069E070E083E593E00E9447082B
:1040E000A895F6018491F5017490F401649066201E
:1040F00009F43BC081110E942B02E62DF0E0EE0F87
:10410000FF1FE157FC4FA591B4918C91782269F182
:104110000F5F1F4FD6CF60E070E0CB018DCF84E200
:1041200093E00E941304CE01C2960E94360DCE0188
:10413000C2960E945B0D7ACC8AE093E00E94130441
:10414000C2010E94F20C8FEF92E00E942A0D809132
:104150000F01843130F48E5F80930F0190E00E9454
:1041600079043A943110EACA87CF80E090E0892B35
:1041700009F4E7C80E949003882309F4E2C80E946A
:104180000000DFC820E030EC49E754EC18CDCE0148
:104190008A960E94C00AD82E882311F40C9407171F
:1041A0006CEB71E08AED94E00E94BB0E8AEA91E02C
:1041B0000E94130462E971E0CE01C8960E945B0F71
:1041C0008E01065D1F4F7E0122E3E20EF11CD80135
:1041D0006D918D01CE01603110F00C940118829622
:1041E0000E94140F6FEA71E0C7010E945B0F4EA19D
:1041F0005FA16AA17BA1C7010E94880E811103C043
:10420000C7010E94490DB701CE0101960E94410FDE
:10421000CD2CBE016F5F7F4FCE01C8960E94B40EB9
:10422000CE0101960E945B0DCC2039F0C7010E949F
:104230005B0DCE0182960E945B0D0E151F0539F6AF
:104240000C9410178091AB049091AC04009711F07E
:104250000E94C0298091AD049091AE04009739F07E
:10426000DC01ED91FC910280F381E02D09958091B4
:10427000AF049091B004009739F0DC01ED91FC910E
:104280000280F381E02D09958AED94E00E945B0D98
:1042900080EE94E00E945B0D86EE94E00C945B0D42
:1042A000EF920F931F93CF93DF93E80134E047FD24
:1042B00034E1042E000C550B57FF03C05195419576
:1042C0005109E32E022F242FAE010E94A522CE0118
:1042D000DF91CF911F910F91EF9008958F929F9250
:1042E000AF92BF92CF92DF92EF92FF92CF93DF9384
:1042F000EC01688179818A819B8161157105810555
:10430000910521F464E279ED8BE597E02DE133EF3F
:1043100041E050E00E94102649015A019B01AC0186
:10432000A7EAB1E40E942F266B017C01ACEEB4EF4A
:10433000A50194010E943D26C60ED71EE81EF91E57
:10434000F7FE06C081E0C81AD108E10880E8F80A43
:10435000C882D982EA82FB82C701B6019F77DF91CA
:10436000CF91FF90EF90DF90CF90BF90AF909F9054
:104370008F9008958F929F92AF92BF92CF92DF92CB
:10438000EF92FF92609110017091110180911201E2
:1043900090911301611571058105910521F464E285
:1043A00079ED8BE597E02DE133EF41E050E00E949D
:1043B000102649015A019B01AC01A7EAB1E40E9411
:1043C0002F266B017C01ACEEB4EFA50194010E9495
:1043D0003D26C60ED71EE81EF91EF7FE06C081E078
:1043E000C81AD108E10880E8F80AC0921001D092FA
:1043F0001101E0921201F0921301C701B6019F77FB
:10440000FF90EF90DF90CF90BF90AF909F908F90F4
:10441000089560931001709311018093120190939D
:10442000130108951F93FC0199278827BC01E89484
:1044300011911032E9F3193010F01E30C8F31B321D
:1044400051F01D3249F4689406C00E945422610F55
:10445000711D811D911D119110531A30B0F33EF45E
:1044600090958095709561957F4F8F4F9F4F1F91CD
:104470000895FB01DC0105900D920020E1F70895FD
:10448000FC0105900020E9F7809590958E0F9F1F05
:104490000895BB274A3031F4992322F4BDE2909568
:1044A00081959F4F0C948C22592F482F372F262F00
:1044B000660F771F881F991F660F771F881F991F28
:1044C000620F731F841F951F660F771F881F991F28
:1044D0000895BB27FA01A62F621771058105910582
:1044E000330B30FB66F0AA27660F771F881F991FD2
:1044F000AA1FA21710F0A21B63953850A9F7A05D60
:10450000AA3308F0A95DA19336F7B111B1931082D7
:10451000CA010C94DC24BB27FB015527AA27880F6E
:10452000991FAA1FA41710F0A41B83955051B9F727
:10453000A05DAA3308F0A95DA193009779F7B111A6
:10454000B1931192CB010C94DC24A9E0B0E0EBEA2A
:10455000F2E20C9448266A01F22EB02E102FFBE3F3
:10456000AF2EA01608F41BE31F5F012F27E0AE015A
:104570004F5F5F4F0E940424BC018981982F99707E
:10458000913009F43FC09BE2E1FC04C09E2D917084
:10459000E0FC3AC05E2D5071E82FE87083FF46C002
:1045A00084E0911101C083E0EF2DE81B8F1508F026
:1045B000E0E0D6018E2F20E2552351F1992329F016
:1045C000D6019C93C60101966C0196012D5F3F4F69
:1045D000E2FE24C08EE4D6018C9391E411969C9364
:1045E000119712968C93D9018E2F90E281111BC0E6
:1045F000E20FF32FF11D10828EEF9FEF2996ECE072
:104600000C9464269DE2C6CF90E2C4CF2D938150D6
:104610008111FCCFCE0ED11CE0E0D0CF8EE6D601CA
:104620008C9391E6DBCF9D938150E0CF482F44706F
:1046300082FF3DC084E0911101C083E08F1510F42A
:10464000EF2DE81BD6018E2F20E2552309F1992387
:1046500029F0D6019C93C60101966C0196012D5F4D
:104660003F4FE2FE1BC089E4D6018C938EE4119685
:104670008C93119786E412968C93D9018E2F90E239
:10468000882309F4B5CF9D938150FACF2D938150A3
:104690008111FCCFCE0ED11CE0E0D9CF89E6D60146
:1046A0008C938EE611968C93119786E6E4CF9B014E
:1046B00077FF02C030E020E0A1E0B0E0911102C03D
:1046C000B0E0A0E0F9013196AE0FBF1F8B2C912C0A
:1046D000BB2009F461C05401EFEFAE1ABE0AAA0D67
:1046E000BB1DFA161B0619F014F04F2D4A1B511171
:1046F00088C0E3FC59C07601A42FB0E2A1114FC0DD
:10470000C40ED11C992309F45BC040E0D601119678
:10471000F60190836D01552309F448C0012F060F5F
:104720009A81582F507184FF03C0913309F40150CE
:1047300010160CF047C0093008F008E0EEE2FE2E3B
:104740005B01A01AB10885019194819491082F3FD3
:10475000320729F4D601FC92F60131966F016217F7
:10476000730794F1021713077CF5DB01A21BB30B4F
:10477000AA24A394B12CAC0EBD1EAA0DBB1D11968C
:104780008C9121503109D601119628153905F4F084
:10479000F60180836D01DBCFB12CA12CA0CFF701F6
:1047A000B1937F01A150AACF9111B0CFD601942F20
:1047B00050E302C05D9391509111FCCFC40ED11C07
:1047C00040E0ACCF01E0BACF80E3DBCF62177307E4
:1047D00031F4963388F4953311F4552369F0F601DA
:1047E0008083FD01842F90E2811108C0A40FB11DC8
:1047F0001C9290E080E002CF81E3F1CF9193815051
:10480000F3CF911183CF8ACF283008F027E03327E8
:10481000DA01990F311D87FD9160009661057105E0
:1048200039F432602E5F3D9330E32A95E1F7089525
:104830009F3F30F080387105610509F03C5F3C5FB7
:104840003D93913008F08068911DDF93CF931F93C3
:104850000F93FF92EF92192F987F9695E92F9695D7
:104860009695E90FFF27E651FF4F99273327EE244E
:10487000FF24A701E70105900894079428F4360F58
:10488000E71EF81E491F511D660F771F881F991FCD
:104890000694A1F70590079428F4E70EF81E491F27
:1048A000561FC11D770F881F991F661F0694A1F719
:1048B0000590079428F4F80E491F561FC71FD11DF5
:1048C000880F991F661F771F0694A1F7059007941C
:1048D00020F4490F561FC71FD81F990F661F771F57
:1048E000881F0694A9F784911095177041F0D6950A
:1048F000C79557954795F794E7941A95C1F7E0E95E
:10490000F0E0689415901591359165919591059019
:104910007FE27395E118F10A430B560BC90BD009DE
:10492000C0F7E10CF11E431F561FC91FD01D7EF4B6
:10493000703311F48A95E6CFE894015030F0080FF7
:104940000AF40027021708F4202F2395022F7A3348
:1049500028F079E37D932A95E9F710C07D932A9595
:1049600089F6069497956795379517951794E118EA
:10497000F10A430B560BC90BD00998F023957E9191
:1049800073957A3308F070E37C932013B8F77E9127
:1049900070617D9330F0839571E37D9370E32A9588
:1049A000E1F71124EF90FF900F911F91CF91DF91CC
:1049B000992787FD90950895DC01FC01672F71917F
:1049C0007723E1F7329704C07C916D9370836291F5
:1049D000AE17BF07C8F308950E942E2508F481E0A2
:1049E0000895E89409C097FB3EF4909580957095E2
:1049F00061957F4F8F4F9F4F9923A9F0F92F96E92B
:104A0000BB279395F695879577956795B795F1119F
:104A1000F8CFFAF4BB0F11F460FF1BC06F5F7F4F3C
:104A20008F4F9F4F16C0882311F096E911C077234E
:104A300021F09EE8872F762F05C0662371F096E857
:104A4000862F70E060E02AF09A95660F771F881F26
:104A5000DAF7880F9695879597F90895990F0008CA
:104A6000550FAA0BE0E8FEEF16161706E807F90740
:104A7000C0F012161306E407F50798F0621B730BDB
:104A8000840B950B39F40A2661F0232B242B252B5C
:104A900021F408950A2609F4A140A6958FEF811DFF
:104AA000811D08950E9465250C94D6250E94C82575
:104AB00038F00E94CF2520F0952311F00C94BF25EB
:104AC0000C94C52511240C940A260E94E72570F346
:104AD000959FC1F3950F50E0551F629FF001729FA3
:104AE000BB27F00DB11D639FAA27F00DB11DAA1FB2
:104AF000649F6627B00DA11D661F829F2227B00DFF
:104B0000A11D621F739FB00DA11D621F839FA00D89
:104B1000611D221F749F3327A00D611D231F849FD9
:104B2000600D211D822F762F6A2F11249F57504030
:104B30009AF0F1F088234AF0EE0FFF1FBB1F661FAB
:104B4000771F881F91505040A9F79E3F510580F074
:104B50000C94BF250C940A265F3FE4F3983ED4F3EF
:104B6000869577956795B795F795E7959F5FC1F718
:104B7000FE2B880F911D9695879597F9089597F9C3
:104B80009F6780E870E060E008959FEF80EC0895F3
:104B900000240A941616170618060906089500241C
:104BA0000A9412161306140605060895092E039496
:104BB000000C11F4882352F0BB0F40F4BF2B11F40A
:104BC00060FF04C06F5F7F4F8F4F9F4F089557FD69
:104BD0009058440F551F59F05F3F71F04795880F6B
:104BE00097FB991F61F09F3F79F087950895121602
:104BF00013061406551FF2CF4695F1DF08C01616AE
:104C000017061806991FF1CF86957105610508945E
:104C10000895E894BB2766277727CB0197F9089575
:104C2000052E97FB1EF400940E94272657FD07D0FF
:104C30000E94792607FC03D04EF40C942726509549
:104C40004095309521953F4F4F4F5F4F0895909578
:104C50008095709561957F4F8F4F9F4F08950E946B
:104C60009B26A59F900DB49F900DA49F800D911D34
:104C700011240895B7FF0C942F260E942F26821B23
:104C8000930B08952F923F924F925F926F927F9273
:104C90008F929F92AF92BF92CF92DF92EF92FF924C
:104CA0000F931F93CF93DF93CDB7DEB7CA1BDB0BF8
:104CB0000FB6F894DEBF0FBECDBF09942A8839889D
:104CC00048885F846E847D848C849B84AA84B984A4
:104CD000C884DF80EE80FD800C811B81AA81B981B0
:104CE000CE0FD11D0FB6F894DEBF0FBECDBFED01C4
:104CF0000895A1E21A2EAA1BBB1BFD010DC0AA1F1D
:104D0000BB1FEE1FFF1FA217B307E407F50720F034
:104D1000A21BB30BE40BF50B661F771F881F991FAF
:104D20001A9469F760957095809590959B01AC01F8
:104D3000BD01CF010895A29FB001B39FC001A39F01
:104D4000700D811D1124911DB29F700D811D1124C4
:104D5000911D08955058BB27AA270E94C2260C9483
:104D6000D6250E94C82538F00E94CF2520F039F4BE
:104D70009F3F19F426F40C94C5250EF4E095E7FB4B
:104D80000C94BF25E92F0E94E72558F3BA17620754
:104D900073078407950720F079F4A6F50C9409268B
:104DA0000EF4E0950B2EBA2FA02D0B01B901900146
:104DB0000C01CA01A0011124FF27591B99F0593F8A
:104DC00050F4503E68F11A16F040A22F232F342FD2
:104DD0004427585FF3CF469537952795A795F04020
:104DE0005395C9F77EF41F16BA0B620B730B840B35
:104DF000BAF09150A1F0FF0FBB1F661F771F881FED
:104E0000C2F70EC0BA0F621F731F841F48F4879544
:104E100077956795B795F7959E3F08F0B0CF939536
:104E2000880F08F09927EE0F9795879508950E94AF
:104E30002B270C94D6250E94CF2558F00E94C82518
:104E400040F029F45F3F29F00C94BF2551110C94D8
:104E50000A260C94C5250E94E72568F39923B1F32F
:104E6000552391F3951B550BBB27AA276217730790
:104E7000840738F09F5F5F4F220F331F441FAA1F24
:104E8000A9F335D00E2E3AF0E0E832D091505040E0
:104E9000E695001CCAF72BD0FE2F29D0660F771F8E
:104EA000881FBB1F261737074807AB07B0E809F074
:104EB000BB0B802DBF01FF2793585F4F3AF09E3FF9
:104EC000510578F00C94BF250C940A265F3FE4F35B
:104ED000983ED4F3869577956795B795F7959F5F3C
:104EE000C9F7880F911D9695879597F90895E1E088
:104EF000660F771F881FBB1F621773078407BA07E7
:104F000020F0621B730B840BBA0BEE1F88F7E09541
:104F1000089529F416F00C94BF250C9409260C94DE
:104F2000C5250E94EF25A8F39638A0F707F80F9241
:104F3000E8942BE33AEA48EB5FE70E9468250F927A
:104F40000F920F924DB75EB70F920E946728E8E666
:104F5000F0E00E94F9274F915F91EF91FF91E59565
:104F6000EE1FFF1F49F0FE57E0684427EE0F441F75
:104F7000FA95E1F74195550B0E9431280F9007FEF5
:104F80000C94252808950E94CA276894B1110C94A6
:104F90000A2608950E94EF2588F09F5798F0B92FB0
:104FA0009927B751B0F0E1F0660F771F881F991F5E
:104FB0001AF0BA95C9F714C0B13091F00E940926D1
:104FC000B1E008950C940926672F782F8827B85FE1
:104FD00039F0B93FCCF3869577956795B395D9F7B6
:104FE0003EF490958095709561957F4F8F4F9F4FC0
:104FF0000895DF93CF931F930F93FF92EF92DF9269
:105000007B018C01689406C0DA2EEF010E946525B1
:10501000FE01E894A5912591359145915591A6F30E
:10502000EF010E94C226FE019701A801DA9469F7F8
:10503000DF90EF90FF900F911F91CF91DF91089536
:105040000E942E2508F48FEF08959B01AC0160E0CB
:1050500070E080E89FE30C9417270C94BF250C9414
:10506000E1280E94EF25D8F39923C9F3940F511D2D
:10507000A3F39150504094F059F0882332F0660F1A
:10508000771F881F91505040C1F79E3F51052CF764
:10509000880F911D9695879597F908955F3FACF01D
:1050A000983E9CF0BB27869577956795B79508F451
:1050B000B1609395C1F7BB0F58F711F460FFE8CFCB
:1050C0006F5F7F4F8F4F9F4FE3CF0C940A26FA01FB
:1050D000DC01AA0FBB1F9B01AC01BF5728F422279C
:1050E00033274427507820C0B75190F4AB2F0024C9
:1050F000469537952795011CA395D2F3002071F0B2
:10510000220F331F441FB395DAF30ED00C94AA2656
:1051100061307105A0E88A07B94630F49B01AC0103
:105120006627772788279078309621F0208331836F
:1051300042835383089519F416F40C94C5250C94F6
:10514000E1280E94EF25B8F39923C9F3B6F39F57DE
:10515000550B87FF0E94EF280024A0E640EA90014B
:1051600080585695979528F4805C660F771F881FA6
:1051700020F026173707480730F4621B730B840BA7
:10518000202931294A2BA6951794079420253125EB
:105190004A2758F7660F771F881F20F02617370712
:1051A000480730F4620B730B840B200D311D411D39
:1051B000A09581F7B901842F9158880F969587950E
:1051C00008959F3F31F0915020F48795779567952A
:1051D000B795880F911D9695879597F908959150E9
:1051E0005040660F771F881FD2F7089597FB072E50
:1051F00016F4009407D077FD09D00E940A2907FC15
:1052000005D03EF4909581959F4F089570956195D6
:105210007F4F0895AA1BBB1B51E107C0AA1FBB1FEC
:10522000A617B70710F0A61BB70B881F991F5A9532
:10523000A9F780959095BC01CD010895EE0FFF1F51
:105240000590F491E02D09940F931F93CF93DF9372
:105250008230910510F482E090E0E091EE04F0914C
:10526000EF0430E020E0B0E0A0E0309799F42115A1
:10527000310509F44AC0281B390B24303105D8F513
:105280008A819B816115710589F1FB01938382837A
:10529000FE0111C0408151810281138148175907D5
:1052A000E0F04817590799F4109761F012960C93A3
:1052B000129713961C933296CF01DF91CF911F91D5
:1052C0000F9108950093EE041093EF04F4CF21158D
:1052D000310551F04217530738F0A901DB019A015B
:1052E000BD01DF01F801C1CFEF01F9CF9093EF04C9
:1052F0008093EE04CDCFFE01E20FF31F81939193D3
:105300002250310939832883D7CF2091EC04309182
:10531000ED04232B41F420911601309117013093B5
:10532000ED042093EC042091140130911501211516
:10533000310541F42DB73EB7409118015091190144
:10534000241B350BE091EC04F091ED04E217F30718
:10535000A0F42E1B3F0B2817390778F0AC014E5FE5
:105360005F4F2417350748F04E0F5F1F5093ED0431
:105370004093EC04819391939FCFF0E0E0E09CCFC9
:10538000CF93DF930097E9F0FC01329713821282EA
:10539000A091EE04B091EF04ED0130E020E0109711
:1053A000A1F420813181820F931F2091EC04309170
:1053B000ED042817390709F061C0F093ED04E0937C
:1053C000EC04DF91CF910895EA01CE17DF07E8F5ED
:1053D0004A815B819E0141155105B1F7E901FB83CB
:1053E000EA8349915991C40FD51FEC17FD0761F469
:1053F000808191810296840F951FE90199838883AA
:10540000828193819B838A83F0E0E0E012968D9104
:105410009C9113970097B9F52D913C911197CD016F
:105420000296820F931F2091EC043091ED0428170F
:10543000390739F6309751F51092EF041092EE04C7
:10544000B093ED04A093EC04BCCFD383C28340811E
:105450005181840F951FC817D90761F44E5F5F4FC4
:1054600088819981480F591F518340838A819B818C
:10547000938382832115310509F0B0CFF093EF04B7
:10548000E093EE049ECFFD01DC01C0CF13821282B7
:10549000D7CFB0E0A0E0EFE4FAE20C9444268C0110
:1054A000009751F4CB010E9424298C01C801CDB78B
:1054B000DEB7E0E10C946026FC01E60FF71F9C01CB
:1054C00022503109E217F30708F49DC0D901CD91AC
:1054D000DC911197C617D70798F0C530D10530F386
:1054E000CE0104978617970708F3C61BD70B2297A0
:1054F000C193D1936D937C93CF010E94C029D6CFE5
:105500005B01AC1ABD0A4C018C0E9D1EA091EE04ED
:10551000B091EF04512C412CF12CE12C109731F576
:105520008091EC049091ED048815990509F05CC018
:105530004616570608F058C0809114019091150145
:10554000009741F48DB79EB7409118015091190111
:10555000841B950BE817F90708F055C0F093ED048C
:10556000E093EC04F90171836083A0CF8D919C914D
:10557000119712966C90129713967C901397A8151A
:10558000B90559F56C0142E0C40ED11CCA14DB0404
:1055900020F1AC014A195B09DA011296159780F0E7
:1055A0006282738251834083D9016D937C93E114AD
:1055B000F10471F0D7011396FC93EE93129776CF16
:1055C00022968C0F9D1FF90191838083F301EFCF09
:1055D000F093EF04E093EE0469CF4816590608F4FF
:1055E0002C017D01D3019ACFCB010E9424297C019B
:1055F000009749F0AE01B8010E940E2BC8010E942D
:10560000C029870153CF10E000E050CF91110895D9
:1056100081568A5108F4805285580895FB01DC01B7
:1056200002C001900D9241505040D8F70895FB01FF
:10563000DC018D91019080190110D9F3990B089527
:10564000FB01DC0101900D920020E1F70895FB01C0
:10565000DC014150504030F08D910190801919F4D7
:105660000020B9F7881B990B0895FB01DC0141501C
:10567000504048F001900D920020C9F701C01D92E2
:1056800041505040E0F70895FB0151915523A9F096
:10569000BF01DC014D9145174111E1F759F4CD01EE
:1056A0000190002049F04D9140154111C9F3FB01D3
:1056B0004111EFCF81E090E00197089511E0C2EE33
:1056C000D1E004C0FE010E941E292196C33ED107ED
:0656D000C9F7F894FFCFBA
:1056D600250325030100C079C4000080BF05000A28
:1056E600010000000000F0048000000000008807B0
:1056F600650D89074F122610000000008807630D0C
:105706008907591275105E00BC007701781E00A04B
:105716002800F03C00405100127A00E4A20024F474
:105726000048E80190D00320A10700000000C6034E
:10573600260353032E04840362037603000000004D
:10574600440509054C07B904FB04E004BA0400004B
:1057560000001D07F0064C07B904E906D606C70681
:105766000D0A0053485434785F5400534854347833
:105776005F48004454412D534854342D307800304E
:02578600000021
:00000001FF
