:020000040000FA
:100000000C9491010C94B9010C94B9010C947C15D9
:100010000C947C150C947C150C94B9010C94B901CA
:100020000C94B9010C94B9010C94B9010C94B90168
:100030000C94B9010C94B9010C94B9010C94B90158
:100040000C94DA140C94B9010C944A150C942415F0
:100050000C94B9010C94B9010C94B9010C94B90138
:100060000C94B9010C94B9015D005B0041542B481C
:10007000545450524541443D302C333030004154AB
:100080002B48545450414354494F4E3D30002F7734
:10009000732F636F6D6D6A5F76342E7068703F6981
:1000A000643D0041542B48545450504152413D222C
:1000B00055524C222C22687474703A2F2F00636FB3
:1000C0006D6D4572726F723A2000363034003630F2
:1000D00031004552524F520041542B485454505411
:1000E00045524D002B48545450524541443A20004B
:1000F0000A0041542B48545450504152413D224330
:100100004944222C310041542B48545450494E4903
:100110005400496E6963696F206465206C612063D7
:100120006F6D756E6963616369C3B36E2E2E2E00A9
:1001300000004F4E000000004300530050004F46A7
:1001400046004F4E0000646174613A20002C002B81
:100150004353513A20002C002B4353513A20004185
:10016000542B43535100004F4B00002000004154DA
:100170002B4343494400000A00000D000041542B6A
:10018000434349440020636F6E206572726F722092
:10019000E29C980020525353493A200020636F722A
:1001A00072656374616D656E746520E29C9420498C
:1001B000443A2000002E000041542B53415042523B
:1001C0003D312C310041542B53415042523D332C90
:1001D000312C22505744222C22776562677072734B
:1001E00032303032220041542B53415042523D3381
:1001F0002C312C2255534552222C22776562677090
:1002000072220041542B53415042523D332C312C29
:100210002241504E222C22696E7465726E65742ED6
:100220006974656C63656C2E636F6D220041542B9D
:1002300053415042523D332C312C22434F4E54599E
:100240005045222C2247505253220041542B434602
:10025000554E3D310041542B53415042523D302CBC
:10026000310047534D20696E696369616C697A6139
:10027000646F005D20005B005D5D20005B5B003E05
:1002800020003C003E20003C004F4646004F4E0000
:100290000A0A3C3C3C204454412D416772C3AD6383
:1002A0006F6C613A20536572696520414778782008
:1002B00076302E30322E3235303832332041203EE7
:1002C0003E3E0000000000240027002A000000003D
:1002D0000800020100000304070000000000000005
:1002E0000000000000230026002900000000002577
:1002F0000028002B00040404040404040402020285
:100300000202020303030303030102040810204056
:100310008001020408102001020408102000F415D6
:10032000CD1711241FBECFEFD8E0DEBFCDBF22E036
:10033000A2EAB1E001C01D92AF3FB207E1F711E0C0
:10034000A0E0B1E0E6EAF6E302C005900D92A23A21
:10035000B107D9F711E0C0E9D1E004C02197FE014F
:100360000E94F818CF38D107C9F70E94AA160C943A
:10037000461B0C9400008091F6029091F702892BA5
:1003800059F1E0913102F091320282E0EC3DF80740
:1003900019F1309739F0A389B4899C9185898095AA
:1003A00089238C938091FA028E7F8093FA021092B7
:1003B000300210922F028CED92E0909332028093E3
:1003C0003102E091EF02F091F00280819091F10210
:1003D000892B808381E0089580E0089590E0FC01FE
:1003E000E353FD4F2491FC01E75FFC4F3491FC0186
:1003F000EB50FD4FE491EE23C9F0222339F0233076
:1004000001F1A8F4213019F1223029F1F0E0EE0FCA
:10041000FF1FE551FD4FA591B4918FB7F894EC9172
:10042000611126C030953E233C938FBF089527303D
:10043000A9F02830C9F0243049F7809180008F7DE1
:1004400003C0809180008F7780938000DFCF84B5D8
:100450008F7784BDDBCF84B58F7DFBCF8091B000DB
:100460008F778093B000D2CF8091B0008F7DF9CF8D
:100470003E2BDACFCF93DF9390E0FC01E75FFC4F98
:1004800024918B509D4FFC0184918823D1F090E002
:10049000880F991FFC01ED53FD4FA591B491FC010C
:1004A000E551FD4FC591D49161110EC09FB7F894ED
:1004B0008C91E22FE0958E238C932881E223E883B0
:1004C0009FBFDF91CF9108958FB7F894EC91E22B05
:1004D000EC938FBFF6CF3FB7F89480912B029091A9
:1004E0002C02A0912D02B0912E0226B5A89B05C02A
:1004F0002F3F19F00196A11DB11D3FBFBA2FA92FA3
:10050000982F8827BC01CD01620F711D811D911D9F
:1005100042E0660F771F881F991F4A95D1F708950B
:100520008F929F92AF92BF92CF92DF92EF92FF9203
:100530006B017C010E946B024B015C01C114D10470
:10054000E104F104B9F00E946B02681979098A0983
:100550009B09683E73408105910580F321E0C21A32
:10056000D108E108F10888EE880E83E0981EA11CEE
:10057000B11CE4CFFF90EF90DF90CF90BF90AF9091
:100580009F908F9008952FB7F894609127027091F3
:1005900028028091290290912A022FBF0895089580
:1005A000DB0114964D915C9115976D917C91DC0166
:1005B000ED91FC910280F381E02D0994AF92BF92FE
:1005C000CF92DF92EF92FF920F931F93CF93DF931F
:1005D0006C017B018B01040F151FEB015E01AE184E
:1005E000BF08C017D10759F06991D601ED91FC9170
:1005F0000190F081E02DC6010995892B79F7C5019D
:10060000DF91CF911F910F91FF90EF90DF90CF90EE
:10061000BF90AF900895FC01538D448D252F30E09D
:10062000842F90E0821B930B541710F0CF960895FF
:1006300001970895FC01918D828D981761F0A28D2C
:10064000AE0FBF2FB11D5D968C91928D9F5F9F73F2
:10065000928F90E008958FEF9FEF0895FC01918DA8
:10066000828D981731F0828DE80FF11D858D90E015
:1006700008958FEF9FEF0895FC01918D228D892FB2
:1006800090E0805C9F4F821B91098F73992708959A
:1006900083E392E00E943C0321E0892B09F420E0EF
:1006A000822F089580E090E0892B29F00E94480372
:1006B00081110C9400000895FC01A48DA80FB92F9E
:1006C000B11DA35ABF4F2C91848D90E001968F737A
:1006D0009927848FA689B7892C93A089B1898C9199
:1006E000837080648C93938D848D981306C00288E8
:1006F000F389E02D80818F7D80830895EF92FF92B2
:100700000F931F93CF93DF93EC0181E0888F9B8D34
:100710008C8D98131AC0E889F989808185FF15C0EE
:100720009FB7F894EE89FF896083E889F989808111
:100730008370806480839FBF81E090E0DF91CF91E0
:100740001F910F91FF90EF900895F62E0B8D10E002
:100750000F5F1F4F0F731127E02E8C8D8E110CC071
:100760000FB607FCFACFE889F989808185FFF5CFBC
:10077000CE010E945C03F1CFEB8DEC0FFD2FF11D3C
:10078000E35AFF4FF0829FB7F8940B8FEA89FB89F9
:1007900080818062CFCF0F931F93CF93DF938C0123
:1007A000D0E0C0E0F801EC0FFD1F6491662341F03A
:1007B00083E392E00E947E03892B11F02196F2CF11
:1007C000CE01DF91CF911F910F910895CF93DF93C9
:1007D000EC01888D8823B9F0AA89BB89E889F98959
:1007E0008C9185FD03C0808186FD0DC00FB607FC8E
:1007F000F7CF8C9185FFF2CF808185FFEDCFCE01C1
:100800000E945C03E9CFDF91CF91089520913102DE
:10081000309132022817390771F490912F0280919C
:100820003002981741F0E0912F02F0E0E355FE4FBF
:10083000808190E008958FEF9FEF08950895EF92E3
:10084000FF920F931F93CF93DF93DC015C96ED90A3
:10085000FC905D97E114F10479F481E090E0139647
:100860009C938E93129790E080E0DF91CF911F913F
:100870000F91FF90EF9008955196ED91FC91529752
:1008800050968C915097982F90950FB75E962C911B
:100890005E97122F127021FD6095F894208111232C
:1008A00019F1282B2083E7012197F1F728E0462F43
:1008B00050E0308160FF1AC0382B3083E701219768
:1008C000F1F7BA0175956795215089F7112381F0E9
:1008D0008081892380830FBF5C968D919C910197C5
:1008E000F1F781E090E0C1CF2923DCCF3923E5CFB8
:1008F0009081892BEFCF209131023091320228175D
:10090000390761F48091300220912F0290E0805CE1
:100910009F4F821B91098F739927089590E080E083
:100920000895209131023091320228173907B9F425
:1009300090912F0280913002981789F0E0912F0258
:10094000F0E0E355FE4F808120912F0230E02F5FD1
:100950003F4F2F73332720932F0290E008958FEF9E
:100960009FEF089590E080E008950F931F93CF9339
:10097000DF93FC01EC5FFE4F2081263449F491E0C7
:1009800069278B5FDF91CF911F910F910C94EE013E
:10099000203509F58C010A551E4FF801D0816623D8
:1009A000C1F0D11118C0C5E0C80F60E08C2F0E94C3
:1009B000EE016CED75E080E090E00E94900261E055
:1009C0008C2F0E94EE01D1110BC081E0F8018083D1
:1009D00002C0D111E8CFDF91CF911F910F910895FF
:1009E000F8011082F8CFCF92DF92EF92FF920F932F
:1009F0001F93CF93DF930E94C302C0910902EC2F93
:100A0000F0E09F01220F331F220F331FD901A65F91
:100A1000BD4FCD90DD90ED90FC90AB01BC014C1929
:100A20005D096E097F0923513E4FD9010D911D913A
:100A30002D913C91401751076207730710F1F09018
:100A40000C018F2D8150990B9C0181E08C0FE217D6
:100A5000F3070CF080E0809309020AE012E0D0E096
:100A6000C0E0CF1570F460E0CE010E94B5040E9492
:100A7000C302D8016D937D938D939D938D01219633
:100A8000F0CFDF91CF911F910F91FF90EF90DF900A
:100A9000CF900895DF92EF92FF920F931F93CF9321
:100AA000DF93FC01E480F580E114F10451F48FEF51
:100AB0009FEFDF91CF911F910F91FF90EF90DF900B
:100AC0000895EC010190F081E02DEE0DFF1DD08026
:100AD00010820881198162E270E0C8010E94211B26
:100AE0000E0D1F1DF801D082009709F3288139816E
:100AF000821B930BDECFFB0101900020E9F73197B9
:100B0000AF01461B570BDC01ED91FC910280F38194
:100B1000E02D09948F929F92AF92BF920F931F93F3
:100B2000CF93DF93CDB7DEB7A1970FB6F894DEBFB2
:100B30000FBECDBF19A2423008F44AE08E010F5D0E
:100B40001F4F842E912CB12CA12CA50194010E9441
:100B5000D618E62FB901CA01EA3004F5E05DD801E4
:100B6000EE938D01232B242B252B79F790E080E049
:100B7000109729F0BD0183E392E00E947B05A196C6
:100B80000FB6F894DEBF0FBECDBFDF91CF911F919E
:100B90000F91BF90AF909F908F900895E95CDFCF49
:100BA000CF92DF92EF92FF92CF93DF936B017C01A4
:100BB0006DE283E392E00E947E03EC0166277727D3
:100BC000CB016C197D098E099F094AE00E948A05B4
:100BD0008C0F9D1FDF91CF91FF90EF90DF90CF9012
:100BE0000895CF93DF930E94CB03EC0167E371E09C
:100BF00083E392E00E947B058C0F9D1FDF91CF91D4
:100C000008950F931F93CF93DF93EC010E94D002BE
:100C10008C0167E371E0CE010E947B05800F911F7C
:100C2000DF91CF911F910F910895CF92DF92EF92B4
:100C3000FF92CF9387E892E00E94CB0360ED72E0D1
:100C400083E392E00E94D00284E892E00E94CB030A
:100C500082E892E00E94CB0360910B0183E392E073
:100C60000E947E038FE792E00E94CB03C0E0809158
:100C70000C01C817A0F58C2F90E06C012FEFC21A61
:100C8000D20A0D2C000CEE08FF08880F991F880F60
:100C9000991FFC01E351FE4F80819181A281B381B4
:100CA000892B8A2B8B2B79F08CE792E00E94CB0367
:100CB0004AE0C701B6010E948A0588E792E00E94D7
:100CC000CB03CF5FD4CF86E792E00E94CB034AE00C
:100CD000C701B6010E948A0583E792E0F0CF67E37F
:100CE00071E083E392E0CF91FF90EF90DF90CF909F
:100CF0000C947B05FC0180819181009711F00C948C
:100D0000F11760E070E0CB010895CF93DF93DC0131
:100D100014962D913C911597232B79F0FB01CD91E1
:100D2000DC9160817181CE010E942C1B009729F01B
:100D30008C1B9D0BDF91CF9108958FEF9FEFFACF22
:100D40002F923F924F925F926F927F928F929F92DB
:100D5000AF92BF92CF92DF92EF92FF920F931F93C9
:100D6000CF93DF9300D000D0CDB7DEB7FC01448035
:100D700055804114510409F412C1FB01648075804F
:100D80006114710409F40BC17A016B019C838B839C
:100D9000FA01A480B580A618B708FC010081118172
:100DA000A114B104B9F4F60160817181C8010E94F7
:100DB0002C1B8C01009709F4F2C0F701608171814E
:100DC000448155810E94E01AF70184819581080FC2
:100DD000191FE9CFB7FC10C0FB0120803180420110
:100DE000C801B1010E942C1B009709F44EC0860D6A
:100DF000971D8A0C9B1CF5CF3801F601608171812B
:100E0000C8010E942C1B2C01009729F14C01801A6B
:100E1000910AA401B801C3010E94E01A680C791C70
:100E2000F7016081718144815581C3010E94E01AFC
:100E3000F70184809580680C791CF6010481158186
:100E4000040D151DEB81FC81848195818A0D9B1D0C
:100E500095838483D2CFB801C3010F900F900F9078
:100E60000F90DF91CF911F910F91FF90EF90DF9046
:100E7000CF90BF90AF909F908F907F906F905F903A
:100E80004F903F902F900C941A1B4814590409F46A
:100E900086C0EB81FC81828193818815990578F465
:100EA000B4016F5F7F4FC8010E94231A009709F4B5
:100EB00076C0EB81FC819183808393828282EB8177
:100EC000FC81048115810150110917FD68C03801AA
:100ED000F601248035802114310409F460C0EB81CF
:100EE000FC81848095808114910409F458C0821497
:100EF000930408F454C00815190520F03401F1E0FA
:100F00006F1A7108EB81FC8140805180C2010FEFA4
:100F10001FEF9201260D371D3A832983E981FA815B
:100F2000E817F90788F0F601608171810E942C1B97
:100F3000009751F09C01241935096216730608F4D4
:100F4000980101968901EACF17FD29C0200E311EB4
:100F5000C201820D931DA40142195309BC018A0DDF
:100F60009B1D0E94E91AEB81FC81848195818A0D89
:100F70009B1D9583848320813181820F931FFC0107
:100F80001082EB81FC8180819181F7016081718108
:100F900044815581800F911F0E94E01A94CF0F90D9
:100FA0000F900F900F90DF91CF911F910F91FF90B5
:100FB000EF90DF90CF90BF90AF909F908F907F90F9
:100FC0006F905F904F903F902F9008950F931F93D5
:100FD000CF93DF93EC0188819981009759F02A81A2
:100FE0003B812617370730F081E0DF91CF911F91C9
:100FF0000F9108958B016F5F7F4F0E94231A009716
:1010000059F0998388831B830A832C813D81232B8C
:1010100059F7FC011082E8CF80E0E7CFEF92FF9212
:101020000F931F93CF93DF936115710541F480E017
:10103000DF91CF911F910F91FF90EF90089541158F
:101040005105B1F07B01EC010C811D81040F151FCE
:10105000B8010E94E607882351F3288139818C81E9
:101060009D81B701820F931F0E941A1B1D830C8361
:1010700081E0DECFFC0124813581FB014481558173
:1010800024173507E1F4FC0180819181FB01608127
:1010900071810097D1F061157105A1F4232BC1F086
:1010A000FC01808190E008C0232B91F0FB0180813E
:1010B00090E091958195910921E0892B09F020E03C
:1010C000822F08950E94111BF7CF6115710561F7FA
:1010D00021E0F6CF0F931F93CF93DF938C01EB01A9
:1010E000FC01808191810097E1F06881798161152F
:1010F0007105A9F0428153812C813D81421753072C
:1011000070F00E941A1B8C819D81F8019583848365
:101110001D821C82DF91CF911F910F9108950E9433
:101120009A1988819981F801918380838A819B81B2
:10113000938382838C819D81958384831982188215
:101140001B821A82E5CFCF93DF93EC0188819981CE
:10115000009711F00E949A19198218821D821C8230
:101160001B821A82DF91CF910895EF92FF920F9325
:101170001F93CF93DF93EC018B016115710551F043
:10118000CB010E942A187C01BC01CE010E94E60717
:1011900081110BC0CE010E94A308CE01DF91CF9137
:1011A0001F910F91FF90EF900895FD82EC82B8019E
:1011B000888199810E942318F0CFFC01118210824E
:1011C00013821282158214820C94B508EF92FF925A
:1011D0000F931F93CF93DF93EC017B018A01BA0138
:1011E0000E94E60781110BC0CE010E94A308CE0128
:1011F000DF91CF911F910F91FF90EF9008951D8384
:101200000C83B701888199810E941A1BF0CFFB01E2
:1012100001900020E9F73197AF01461B570B0C9462
:10122000E6080F931F93CF93DF93CDB7DEB7629796
:101230000FB6F894DEBF0FBECDBF8C01CB01F80115
:101240001182108213821282158214824AE0BE013A
:101250006F5F7F4F0E943318BE016F5F7F4FC801E1
:101260000E94070962960FB6F894DEBF0FBECDBF8D
:10127000DF91CF911F910F9108951F93CF93DF932B
:1012800061E084E00E94EE0110E080910C011817EB
:10129000D8F4C12FD0E060E0CE010E94B504CC0F9D
:1012A000DD1FCC0FDD1FFE01E351FE4F10821182C6
:1012B000128213820E94C302C65FDD4F6883798366
:1012C0008A839B831F5FE1CF6AE371E080ED92E048
:1012D000DF91CF911F910C9407094F925F926F920B
:1012E0007F928F929F92AF92BF92EF92FF920F9355
:1012F0001F93CF93DF938091D4029091D502892BD5
:1013000009F493C06EE371E08091D0029091D10214
:101310000E94111B892B09F088C080910B01803538
:1013200009F046C0D0E0C0E080910C01D81708F069
:101330008CC0ED2EF12C8701000F111F000F111F23
:10134000F801E351FE4F80809180A280B380811428
:101350009104A104B104C9F00E94C302F801E65F40
:10136000FD4F408051806280738064197509860941
:101370009709681579058A059B0538F461E0C7016E
:101380000E94B504C1E0DF5FCFCF60E0C7010E94DB
:10139000B504F801E351FE4F1082118212821382CC
:1013A000F801E65FFD4F1082118212821382EBCFAB
:1013B000833551F4C0910902D0E080910C01815035
:1013C000990BC817D9075CF40E94F30480910902B5
:1013D00061E090E00E94B504C1E060E021C0C81760
:1013E000D907E1F40E94C302CC0FDD1FCC0FDD1F33
:1013F000FE01E65FFD4F0081118122813381601B78
:10140000710B820B930BC351DE4F088119812A8126
:101410003B816017710782079307B0F2C0E061E07B
:1014200084E00E94EE01C11113C0DF91CF911F91A2
:101430000F91FF90EF90BF90AF909F908F907F9013
:101440006F905F904F900C943D09CC2339F3C5CF3A
:10145000DF91CF911F910F91FF90EF90BF90AF90D0
:101460009F908F907F906F905F904F900895CF9353
:10147000DF93EC01FB018617970749F060817181CA
:101480006115710541F0448155810E94E608CE0145
:10149000DF91CF9108950E94A308F9CFFC0111823A
:1014A000108213821282158214820C94370AFC0176
:1014B000118210821382128215821482FB01019024
:1014C0000020E9F73197AF01461B570B0C94E60853
:1014D000AF92BF92CF92DF92EF92FF920F931F9342
:1014E000CF93DF936C015B017A01890124173507E3
:1014F00020F48F2D7901042F182F69E371E0C601C4
:101500000E94570AD5011496CD91DC91EC16FD0688
:10151000E0F40C171D0708F4E801D501ED91FC91EA
:101520001197EC0FFD1F108110826D917C916E0D53
:101530007F1DC60161157105A1F00E940709F50123
:1015400080819181C80FD91F1883C601DF91CF9187
:101550001F910F91FF90EF90DF90CF90BF90AF90D1
:1015600008950E94A308EBCF8F929F92AF92BF92F3
:10157000CF92DF92EF92FF920F931F93CF93DF935F
:10158000EC017A01DB011496CD90DC9086010150CC
:1015900011092FEF3FEF50E040E090E080E0F0E0F5
:1015A000E0E0081719071CF1EE16FF061CF1DC013C
:1015B00011965D018C159D0560F4DB018D909C906A
:1015C0008114910431F0D401A80FB91FAC91A2325B
:1015D00019F00817190749F43196A9014F5F5F4FB9
:1015E00095010817190709F09C01C501DACFEE161D
:1015F000FF068CF4CE010E94680ACE01DF91CF91E4
:101600001F910F91FF90EF90DF90CF90BF90AF9020
:101610009F908F90089569E371E0CE010E94570A70
:10162000ECCF7F928F929F92AF92BF92CF92DF9238
:10163000EF92FF920F931F93CF93DF9300D0CDB71C
:10164000DEB78C017A01722E8CED92E00E940106C9
:10165000B701FF0C880B990B0E94900269E371E0BF
:10166000C8010E94570A0E94C3024B015C0128E88E
:10167000820E23E1921EA11CB11C0E94C3026B01C9
:101680007C010E94C302681579058A059B05C0F09C
:10169000772029F0B80183E392E00E940106C80197
:1016A0000F900F90DF91CF911F910F91FF90EF90CE
:1016B000DF90CF90BF90AF909F908F907F900895D4
:1016C0008CED92E00E947B04892B99F08CED92E0E6
:1016D0000E94910489831A8241E050E0BE016F5F4D
:1016E0007F4FC8010E940E080E94C3026B017C015B
:1016F000E7CFF80184819581892B19F20E94C302FA
:101700006C197D098E099F09693C71058105910558
:1017100008F4B7CFBDCFFC0180819181009711F013
:101720000C949A190895CF92DF92EF92FF920F9343
:101730001F93CF93DF93CDB7DEB7CA5AD1090FB647
:10174000F894DEBF0FBECDBF7C01162F63EA70E0B8
:10175000CE0101960E94231860E571E0112311F07B
:1017600061E471E0CE0101960E94FB1A6EE870E020
:10177000CE0101960E9418186091D6027091D7028E
:10178000CE0101960E94FB1A6DE671E0CE01019632
:101790000E94FB1A6091D0027091D102CE01019695
:1017A0000E94FB1A6AE670E0CE0187569F4F0E94A6
:1017B000DD088DEEC82E81E0D82E10E000E080918B
:1017C0000C018017110669F164F169E671E00115F9
:1017D000110511F469E371E0FB0101900020E9F7C4
:1017E0003197AF01461B570BCE0187569F4F0E9482
:1017F0000E08F60181919191A191B1916F016CE96F
:1018000071E0892B8A2B8B2B11F06BE671E041E0A4
:1018100050E0CE0187569F4F0E940E080F5F1F4F6A
:10182000CECFC356DF4F08811981CD59D0400F5F0D
:101830001F4FB801CE0187569F4F0E94E6078823AD
:10184000C1F0C756DF4F28813981C959D040C356EE
:10185000DF4F88819981CD59D04068E670E0820FD2
:10186000931F0E942318C356DF4F19830883CD5955
:10187000D04062E771E0CE0101960E94FB1AC75684
:10188000DF4F68817981C959D040CE0101960E940D
:10189000FB1A67E771E0CE0101960E94FB1A809166
:1018A00000016FE571E0811108C08091010166E6D9
:1018B00071E0882311F063E671E0CE0101960E9489
:1018C000FB1A8091A4014AE0BE0161567F4F90E06F
:1018D0000E9433186CE771E0CE0101960E94FB1A5A
:1018E000BE0161567F4FCE0101960E94FB1A809186
:1018F00002014AE0BE0161567F4F90E00E9433181A
:1019000061E871E0CE0101960E94FB1ABE016156AA
:101910007F4FCE0101960E94FB1A67E871E0CE016D
:1019200001960E94FB1AC457DF4F1882CC58D04052
:10193000BE016F5F7F4FCE0183579F4F0E94570AB2
:1019400021E04FE050E0BE0163577F4FCE018D563E
:101950009F4F0E94110BCE018D569F4F0E948B0B03
:10196000CE0183579F4F0E948B0B6EE770E0CE0134
:1019700083579F4F0E94DD0821E040E157E2BE01FE
:1019800063577F4FCE018B559F4F0E94110BCE01A5
:1019900083579F4F0E948B0B69E871E0CE018D56F3
:1019A0009F4F0E94570ABE016D567F4FCE018B5547
:1019B0009F4F0E9485060196A9F56CE670E0CE0166
:1019C00083579F4F0E94DD0821E050E040E0BE01B8
:1019D00063577F4FC7010E94110BCE0183579F4F62
:1019E0000E948B0BCE018D569F4F0E948B0BCE0118
:1019F0008B559F4F0E948B0BCE0187569F4F0E94A5
:101A00008B0BC701C655DF4F0FB6F894DEBF0FBE74
:101A1000CDBFDF91CF911F910F91FF90EF90DF909D
:101A2000CF90089569E371E0C7010E94570ADACFA9
:101A30008F929F92AF92BF92CF92DF92EF92FF92DE
:101A40000F931F93CF93DF93CDB7DEB7C954D1095E
:101A50000FB6F894DEBF0FBECDBF67E371E083E33E
:101A600092E00E947B0569E371E0CE01CE960E9470
:101A7000570A60E371E0CE0101960E94DD08BE01C5
:101A80006F5F7F4F86ED92E00E943A08182FCE01DB
:101A900001960E948B0B111153C282E191E00E94CA
:101AA000F10566E071E0CE018C960E94DD0820E031
:101AB0004FE050E0BE01645D7F4FCE0101960E9471
:101AC000110BCE0101960E948B0BCE018C960E94C9
:101AD0008B0B62EF70E0CE018C960E94DD0820E057
:101AE0004FE050E0BE01645D7F4FCE0101960E9441
:101AF000110BCE0101960E948B0BCE018C960E9499
:101B00008B0B61E0CE0101960E94930BBE016F5FCB
:101B10007F4FCE01CE960E946A08CE0101960E94A8
:101B20008B0B24968EAD9FAD2497892B29F0EEADBB
:101B3000FFAD8081811110C060E0CE0101960E944E
:101B4000930BBE016F5F7F4FCE01CE960E946A0855
:101B5000CE0101960E948B0BCE01CE960E944A05C3
:101B600001967C0124968EAD9FAD2497892B61F060
:101B70000EAD1FAD62E270E0C8010E94061BAC0111
:101B8000401B510B892B11F44FEF5FEF9701BE0102
:101B9000625C7F4FCE0101960E94680AED80FE8054
:101BA000CE0101960E948B0B60EF70E0CE018C9607
:101BB0000E94DD0824968EAD9FAD2497469708F4C9
:101BC00036C10EAD1FAD6CA57DA5C80145960E941E
:101BD0002C1B009709F42BC19C01201B310B8901A0
:101BE00064EE70E0CE01C2960E94DD08BE016E5C1C
:101BF0007F4FCE01CE960E948506AC01455F5F4FB8
:101C00009801BE01625C7F4FCE0101960E94680A76
:101C1000CE0101960E947A064B016B01CE0101961E
:101C20000E948B0BCE01C2960E948B0BCE018C962C
:101C30000E948B0BB401CE0101960E941109B701DD
:101C4000CE01C2960E941109BE016E5C7F4FCE018B
:101C50008C960E944E0A43E050E06EE971E0CE019E
:101C60008C960E940E08811104C0CE018C960E94B1
:101C7000A3084D815E8169817A81CE018C960E9494
:101C80000E08811104C0CE018C960E94A308BE01EB
:101C9000645D7F4F83E392E00E940106CE018C9643
:101CA0000E948B0BCE01C2960E948B0BCE01019637
:101CB0000E948B0B68ED70E0CE018C960E94DD08CF
:101CC00020E04EE150E0BE01645D7F4FCE01019601
:101CD0000E94110BCE0101960E948B0BCE018C96B7
:101CE0000E948B0BEC14FD0409F0A4C0E114F10474
:101CF00009F4A0C0CE01CE960E944A058C010F5F68
:101D00001F4F24968EAD9FAD2497892B61F0AEAC0A
:101D1000BFAC62E270E0C5010E94061BAC014A192B
:101D20005B09892B11F44FEF5FEF9801BE01625CF4
:101D30007F4FCE0101960E94680ABE016F5F7F4F00
:101D4000CE01CE960E946A08CE0101960E948B0BAE
:101D5000BE01625C7F4FCE01C8960E944E0A62EDC2
:101D600070E0CE0101960E94DD08BE016F5F7F4FDB
:101D7000CE01C8960E948506019609F062C06EECFD
:101D800070E0CE018C960E94DD08BE01645D7F4F3D
:101D9000CE01C8960E948506019609F056C06AECED
:101DA00070E0CE01C2960E94DD08BE016E5C7F4FDE
:101DB000CE01C8960E94850611E0019609F410E054
:101DC00081E001E010930301882321F0CE01C29647
:101DD0000E948B0B002321F0CE018C960E948B0B6E
:101DE000CE0101960E948B0B8091A401863080F178
:101DF00080910201873060F511112AC0EC14FD04B6
:101E000039F51092A2018091A2018130D9F510928A
:101E1000A20160E083E10E94EE01F0E0E0E00995BC
:101E200068EE73E080E090E00E949002F9CF0FEF3F
:101E30001FEFD6CE69E371E0CE01CE960E9407096E
:101E400087CF80E000E011E0BDCF80E001E0FBCF74
:101E50006091A20111E0160F1093A201112399F2D3
:101E60008EEB90E00E94CB03612F70E090E080E069
:101E70004AE00E948A0567E371E083E392E00E94F2
:101E80007B05C1CFCE01C8960E948B0B26961FAE54
:101E90001EAE269728961FAE1EAE28972A961FAE16
:101EA0001EAE2A97BE01625C7F4FCE018C5B9F4FB6
:101EB0000E946A08CE01CE960E948B0B86E491E0C8
:101EC0000E94CB03BE016C5B7F4F83E392E00E94D4
:101ED0000106BE016C5B7F4FCE018C960E944E0ABC
:101EE00061E371E0CE0101960E94DD08BE016F5FE3
:101EF0007F4FCE018C960E943A08182FCE01019692
:101F00000E948B0B111129C04CA55DA568A979A968
:101F100090E080E030E020E068177907D1F0FA0126
:101F2000E80FF91F4115510521F41092A301E3EACE
:101F3000F1E0E081E23211F42F5F3F4F0196ECCFE8
:101F400081E0809303018091A2018F5F8093A201C1
:101F50009DCF11E0223131050CF410E01093010106
:101F6000CE018C960E948B0B2A968EAD9FAD2A9740
:101F7000892B09F410C22696EEADFFAD269780811D
:101F8000882309F408C2112309F405C21092000144
:101F900065E471E0CE01C8960E94DD08BE016C5B6D
:101FA0007F4FCE0101960E944E0A41E050E0BE01F3
:101FB0006F5F7F4FCE018C960E94B40ABE01645DB4
:101FC0007F4FCE01C8960E946A08CE018C960E946F
:101FD0008B0BCE0101960E948B0B62E471E0CE0167
:101FE0008C960E94DD08BE01645D7F4FCE01C896CD
:101FF0000E943A0800E0811112C06EE371E0CE0148
:1020000001960E94DD08BE016F5F7F4FCE01C8962A
:102010000E943A08012F60ED72E0882319F0BE019A
:10202000685C7F4F80ED92E00E94370A002321F028
:10203000CE0101960E948B0BCE018C960E948B0BD9
:10204000BE016C5B7F4FCE0101960E944E0A42E0BA
:1020500050E0BE016F5F7F4FCE018C960E94B40AA4
:10206000BE01645D7F4FCE01C8960E946A08CE0112
:102070008C960E948B0BCE0101960E948B0B6CE319
:1020800071E0CE01C2960E94DD08BE016E5C7F4FFA
:10209000CE01C8960E943A0881110CC16AE371E032
:1020A000CE018C960E94DD08BE01645D7F4FCE019B
:1020B000C8960E943A08811100C168E371E0CE0120
:1020C00001960E94DD08BE016F5F7F4FCE01C8966A
:1020D0000E943A08882309F4F2C0812F2CAD3DAD4F
:1020E000232B21F0E8ADF9AD309721F41092A30134
:1020F000E3EAF1E0908190930B01882321F0CE0177
:1021000001960E948B0B112321F0CE018C960E9428
:102110008B0BCE01C2960E948B0BBE016C5B7F4F76
:10212000CE0101960E944E0A43E050E0BE016F5F6F
:102130007F4FCE018C960E94B40ABE01645D7F4F32
:10214000CE01C8960E946A08CE018C960E948B0B25
:10215000CE0101960E948B0B67E371E0CE010196E0
:102160000E94DD08BE016F5F7F4FCE01C8960E94BE
:102170003A0860910C01811104C0CE01C8960E94FA
:102180007A0660930C01CE0101960E948B0BF12C14
:1021900080910C01F81608F09CC0CF2CD12C860140
:1021A0000E5F1F4F000F111FBE016C5B7F4FCE01F2
:1021B00001960E944E0AA801BE016F5F7F4FCE01BB
:1021C0008C960E94B40ABE01645D7F4FCE01C89612
:1021D0000E946A08CE018C960E948B0BCE0101965C
:1021E0000E948B0B66E371E0CE0101960E94DD0830
:1021F000BE016F5F7F4FCE01C8960E943A088111E1
:1022000062C0CE01C8960E947A06F601EE0FFF1F4B
:10221000EE0FFF1FE351FE4F608371838283938330
:10222000CE0101960E948B0BBE016C5B7F4FCE01ED
:1022300001960E944E0AA8014F5F5F4FBE016F5F7B
:102240007F4FCE018C960E94B40ABE01645D7F4F21
:10225000CE01C8960E946A08CE018C960E948B0B14
:10226000CE0101960E948B0B65E371E0CE010196D1
:102270000E94DD08BE016F5F7F4FCE01C8960E94AD
:102280003A08811124C08CAD9DAD892B21F0E8ADB9
:10229000F9AD309721F41092A301E3EAF1E08081D7
:1022A000F601EC5FFE4F8083CE0101960E948B0BFE
:1022B000F3946ECF80E010E011CF80E00FCF9091CB
:1022C0000B01812F18CF60E070E0CB019ECF86E438
:1022D000E7CF62E371E0CE018C960E94DD08BE017B
:1022E000645D7F4F80ED92E00E943A0891E0811199
:1022F00001C090E09983CE018C960E948B0B809157
:1023000009028A8380910B018B83EDEEF1E09E013F
:102310002C5F3F4F84E091E08E010C5D1F4F419197
:10232000519161917191D9014D935D936D937D931D
:102330009D01DC014D91CD01D8014D938D01B2E09D
:10234000ED30FB0761F78E010F5F1F4FEE24E39422
:10235000F12CF801D1908F01C7010E948918D8167D
:1023600021F06D2DC7010E949118FFEFEF1AFF0AAF
:102370002CE2E216F10469F790E080E00E948918EF
:102380008A3229F06AE290E080E00E949118CE0142
:10239000C8960E948B0BCE018C5B9F4F0E948B0BCB
:1023A000C75BDF4F0FB6F894DEBF0FBECDBFDF9126
:1023B000CF911F910F91FF90EF90DF90CF90BF9042
:1023C000AF909F908F9008956F927F928F929F927F
:1023D000AF92BF92CF92DF92EF92FF920F931F9333
:1023E000CF93DF93CDB7DEB7A6970FB6F894DEBFD5
:1023F0000FBECDBF8091A50181118BC280910301D9
:10240000882309F484C282E692E00E94CB031092F2
:10241000F7021092F6021092F5021092F402109256
:10242000F3021092F2028DE991E09093F902809309
:10243000F8029091E802963108F047C02DEB30E0A9
:102440003093F3022093F2022BE931E03093F5024E
:102450002093F4022CE231E03093F7022093F6024D
:102460002091680084E0983048F031E09E3008F414
:1024700030E081E001C0880F3A95EAF7822B809323
:1024800068002DE630E0983050F02BE630E09E30CA
:1024900030F02CE630E0963110F030E020E0309360
:1024A000F0022093EF02292F30E0983008F037C176
:1024B00081E001C0880F9A95EAF78093F10280913C
:1024C000F8029091F9020197F1F70E94BB010E9476
:1024D000BB0185E592E09A8389838BE492E09C833B
:1024E0008B838DE292E09E838D8383E092E09887D8
:1024F0008F8386EE91E09A87898785EC91E09C87AF
:102500008B8788EB91E09E878D87CE0101967C01B9
:102510008E01015F1F4FF701619171917F01C80129
:102520000E94DD0820E04FE050E0B801CE01459662
:102530000E94110BCE0145960E948B0BC8010E9490
:102540008B0B0E151F0539F78AE0882E912C67EB4F
:1025500071E0C8010E94DD08B80186ED92E00E949A
:102560003A08882329F0FF24F394181419040CF076
:10257000F12CC8010E948B0BFF2009F417C16DE7F5
:1025800071E0C8010E94DD0820E04FE050E0B80192
:10259000CE014B960E94110BC8010E948B0B6CE779
:1025A00071E0C8010E94DD086AE771E0CE0145963E
:1025B0000E94DD08A801BE016B5E7F4FCE014B96E5
:1025C0000E94A006CE0145960E948B0BC8010E9476
:1025D0008B0B69E771E0C8010E94DD0867E771E0D5
:1025E000CE0145960E94DD08A801BE016B5E7F4FBB
:1025F000CE014B960E94A006CE0145960E948B0B01
:10260000C8010E948B0B66E771E0C8010E94DD08DB
:102610006EE671E0CE0145960E94DD08A801BE017C
:102620006B5E7F4FCE014B960E94A006CE01459671
:102630000E948B0BC8010E948B0B6DE671E0C801F4
:102640000E94DD086BE671E0CE0145960E94DD0830
:10265000A801BE016B5E7F4FCE014B960E94A00683
:10266000CE0145960E948B0BC8010E948B0B6AE637
:1026700071E0C8010E94DD0867E671E0CE01459671
:102680000E94DD08A801BE016B5E7F4FCE014B9614
:102690000E94A006CE0145960E948B0BC8010E94A5
:1026A0008B0BAB8CBC8CA114B10439F0EF8CF8A06F
:1026B0006501E114F10409F040C02F8D38A12150CB
:1026C000310948E050E0BE01655E7F4FC8010E94BD
:1026D000680AB801CE014B960E946A08C8010E94A0
:1026E0008B0BBE01655E7F4FC8010E944E0AEF85CD
:1026F000F8892B893C892E0F3F1F2E173F0709F4BD
:102700002CC18191082E000C990BC0970A97A8F351
:1027100066E671E0CE0145960E94DD082BC19E3031
:1027200040F42850310981E001C0880F2A95EAF76A
:10273000C4CE2E503109F7CF63013601FFEF6F1A77
:102740007F0AF6018081082E000C990B0E946D18FB
:10275000892B91F7F1E0EF1AF108EA0CFB1CF70165
:102760008081082E000C990B0E946D18892B39F07E
:10277000EC14FD0420F0F1E0EF1AF108F0CF8FEF38
:10278000E81AF80AA7014C195D0958A34F8FAC1439
:10279000BD0420F4B601C5010E94E01AEB8DFC8D4A
:1027A0008F8D98A1E80FF91F108287CF64EB71E03D
:1027B000C8010E94DD08B80186ED92E00E943A0847
:1027C000F82EC8010E948B0BF110BFC08CE991E07C
:1027D0000E94CB0366ED72E083E392E00E94D00298
:1027E0008FEF8093A401809302016FE571E0C8012F
:1027F0000E94DD0820E04FE050E0B801CE01819654
:102800000E94110BC8010E948B0B68E571E0C801A2
:102810000E94DD08B801CE0181960E9485067C01E8
:10282000C8010E948B0BEF20E09409F45AC066E5C2
:1028300071E0CE0145960E94DD08BE016B5E7F4FC0
:10284000CE0181960E9485067C016FE471E0CE0185
:102850004B960E94DD08BE01655E7F4FCE018196DA
:102860000E948506AC014A5F5F4F9701BE016F5D14
:102870007F4FC8010E94680AC8010E947A066093CF
:10288000A401C8010E948B0BCE014B960E948B0BBA
:10289000CE0145960E948B0BEDA0FEA06DE471E089
:1028A000CE0145960E94DD08BE016B5E7F4FCE01D2
:1028B00081960E948506AC014F5F5F4F9701BE0174
:1028C0006F5D7F4FC8010E94680AC8010E947A06A6
:1028D00060930201C8010E948B0BCE0145960E94B5
:1028E0008B0BCE0181960E948B0B84E991E00E94B4
:1028F000CB036091A40170E090E080E04AE00E9488
:102900008A0567E371E083E392E00E947B050E9401
:10291000180D8091A5018F5F8B30E0F48093A501A5
:10292000A6960FB6F894DEBF0FBECDBFDF91CF9154
:102930001F910F91FF90EF90DF90CF90BF90AF90DD
:102940009F908F907F906F90089585E891E00E940E
:10295000F105DDCF1092A501E3CF8F8D98A10A97E5
:10296000029708F0D5CEBE01655E7F4FCE01459639
:102970000E944E0AC8010E948B0BCE014B960E940A
:102980008B0BBE016B5E7F4F86ED92E00E946A0862
:10299000CE0145960E948B0B68EE73E080E090E0DC
:1029A0000E94900285EB91E00E94CB0391E0891A8E
:1029B0009108CDCD1F920F920FB60F9211242F9335
:1029C0003F938F939F93AF93BF93809127029091F2
:1029D0002802A0912902B0912A023091260223E018
:1029E000230F2D3758F50196A11DB11D2093260206
:1029F0008093270290932802A0932902B0932A0281
:102A000080912B0290912C02A0912D02B0912E0268
:102A10000196A11DB11D80932B0290932C02A093CF
:102A20002D02B0932E02BF91AF919F918F913F9154
:102A30002F910F900FBE0F901F90189526E8230F2F
:102A40000296A11DB11DD2CF1F920F920FB60F9209
:102A500011242F933F934F935F936F937F938F93A3
:102A60009F93AF93BF93EF93FF9383E392E00E9412
:102A70005C03FF91EF91BF91AF919F918F917F91F7
:102A80006F915F914F913F912F910F900FBE0F90DB
:102A90001F9018951F920F920FB60F9211242F932B
:102AA0008F939F93EF93FF93E0914302F091440241
:102AB0008081E0914902F0914A0282FD1BC0908121
:102AC00080914C028F5F8F7320914D02821741F0ED
:102AD000E0914C02F0E0ED5CFD4F958F80934C024D
:102AE000FF91EF919F918F912F910F900FBE0F90BB
:102AF0001F9018958081F4CF1F920F920FB60F92FE
:102B000011242F933F934F935F936F937F938F93F2
:102B10009F93AF93BF93EF93FF93E0913102F091B6
:102B20003202309749F0A685B7858585968D91FF4D
:102B300014C09C918923A1F4FF91EF91BF91AF91B3
:102B40009F918F917F916F915F914F913F912F91C5
:102B50000F900FBE0F901F9018959C91892361F7DD
:102B6000A389B4899C918589809589238C938689D2
:102B700097890197F1F7608D718DA685B785558589
:102B800038E020E0CB010197F1F7822F90E0959596
:102B90008795282F4C91452309F02068315091F7F3
:102BA000868D81FD20958091300290E001968F7393
:102BB000992730912F02381799F0A0913002B0E098
:102BC000A355BE4F2C9380933002828D938D019735
:102BD000F1F7A389B4898C919589892B8C93ACCF1B
:102BE000868D8160868FF1CF109236021092350269
:102BF00088EE93E0A0E0B0E0809337029093380233
:102C0000A0933902B0933A0227E131E030933402C5
:102C10002093330225EC30E03093400220933F02B2
:102C200024EC30E0309342022093410220EC30E06B
:102C3000309344022093430221EC30E0309346026B
:102C40002093450222EC30E0309348022093470263
:102C500026EC30E030934A022093490210924C0255
:102C600010924D0210924E0210924F021092DF020B
:102C70001092DE028093E0029093E102A093E202C0
:102C8000B093E30289E291E09093DD028093DC024D
:102C90001092F3021092F2021092F5021092F402D6
:102CA0001092F7021092F6021092F9021092F802B6
:102CB0006091FA026E7F6D7F6093FA026695617093
:102CC00081E0682783E00E94EE0161E083E00E94DA
:102CD0003A02ECE0F3E0E491E093EC02E8EFF2E09A
:102CE000E491F0E0EE0FFF1FE551FD4F85919491C7
:102CF0009093EE028093ED0260E082E00E943A023F
:102D00008091FA0281FD04C061E082E00E94EE0140
:102D100082E08093E802EBE0F3E0E491E093E902E3
:102D2000E7EFF2E0E491F0E0EE0FFF1FEF51FD4F0F
:102D3000859194919093EB028093EA0269E371E0AC
:102D400086ED92E00E94570A6AE371E080ED92E01E
:102D50000C94570ACF93DF93CDB7DEB7AB970FB67E
:102D6000F894DEBF0FBECDBF789484B5826084BD79
:102D700084B5816084BD85B5826085BD85B581607F
:102D800085BD80916E00816080936E0010928100FD
:102D900080918100826080938100809181008160B8
:102DA0008093810080918000816080938000809179
:102DB000B10084608093B1008091B0008160809305
:102DC000B00080917A00846080937A0080917A00CC
:102DD000826080937A0080917A00816080937A008B
:102DE00080917A00806880937A001092C100E0910F
:102DF0004302F091440282E08083E0913F02F0912F
:102E000040021082E0914102F091420280E1808311
:102E100010924B02E0914702F091480286E08083D5
:102E2000E0914502F0914602808180618083E091CB
:102E30004502F0914602808188608083E0914502DE
:102E4000F0914602808180688083E0914502F09194
:102E5000460280818F7D808361E084E00E943A0297
:102E600010E080910C0161E0181790F485E0810F6B
:102E70000E943A020E94C30224E0129FF001112432
:102E8000E65FFD4F60837183828393831F5FE9CF89
:102E90008CE00E943A0261E08CE00E94EE0180E941
:102EA00092E00E94F1050E943D090E94E41108E6AB
:102EB00011E068EE73E080E090E00E949002015023
:102EC0001109B9F790E080E00E9489188A3209F070
:102ED00061C0CE0101967C0101E010E0C8010E94B2
:102EE0008918D7018D937D010F5F1F4F0C3211059B
:102EF000A9F7898169E872E0882311F06DE872E032
:102F000080ED92E00E94B5088A81809309028B814E
:102F100080930B019E012C5F3F4FEDEEF1E0CE015F
:102F2000849604E011E0D9014D915D916D917D9100
:102F30009D014193519361937193DC014D91CD01BA
:102F4000D8014D938D01B2E0ED30FB0761F70E948F
:102F500015060E946D0980E0E82E80E0F82E0E94A0
:102F6000E4110E9415060E946D0905E010E068EE6C
:102F700073E080E090E00E94900201501109B9F7DF
:102F8000E114F10461F30E944803882341F30E9495
:102F90000000E5CF0E943D09DECF80ED92E00E9467
:102FA0008B0B86ED92E00E948B0B89E291E090936F
:102FB000DD028093DC0280913102909132028C5DBF
:102FC000924071F4E091EF02F091F00290818091D3
:102FD000F10280958923808310923202109231028F
:102FE00008951F93FC0199278827BC01E89411914B
:102FF0001032E9F3193010F01E30C8F31B3251F0D3
:103000001D3249F4689406C00E943E18610F711D7C
:10301000811D911D119110531A30B0F33EF490951B
:103020008095709561957F4F8F4F9F4F1F910895A9
:10303000FB01DC010D900020E9F7119705900D923E
:103040000020E1F70895FB01DC0105900D920020BE
:10305000E1F70895FC0105900020E9F7809590952F
:103060008E0F9F1F0895BB274A3031F4992322F415
:10307000BDE2909581959F4F0C945418592F482F7D
:10308000372F262F660F771F881F991F660F771F10
:10309000881F991F620F731F841F951F660F771F6C
:1030A000881F991F0895BB27FB015527AA27880F62
:1030B000991FAA1FA41710F0A41B83955051B9F7AC
:1030C000A05DAA3308F0A95DA193009779F7B1112B
:1030D000B1931192CB010C94761891110C9486182F
:1030E000803219F089508550C8F70895DC01FC0141
:1030F000672F71917723E1F7329704C07C916D932C
:1031000070836291AE17BF07C8F308959927882787
:103110000895F999FECF92BD81BDF89A992780B59F
:103120000895262FF999FECF1FBA92BD81BD20BD0B
:103130000FB6F894FA9AF99A0FBE019608952F9255
:103140003F924F925F926F927F928F929F92AF9237
:10315000BF92CF92DF92EF92FF920F931F93CF9384
:10316000DF93CDB7DEB7CA1BDB0B0FB6F894DEBF1B
:103170000FBECDBF09942A88398848885F846E8441
:103180007D848C849B84AA84B984C884DF80EE808B
:10319000FD800C811B81AA81B981CE0FD11D0FB694
:1031A000F894DEBF0FBECDBFED010895A1E21A2E47
:1031B000AA1BBB1BFD010DC0AA1FBB1FEE1FFF1FDB
:1031C000A217B307E407F50720F0A21BB30BE40B2B
:1031D000F50B661F771F881F991F1A9469F7609572
:1031E0007095809590959B01AC01BD01CF0108952C
:1031F000EE0FFF1F0590F491E02D09940F931F939C
:10320000CF93DF938230910510F482E090E0E0915B
:10321000FD02F091FE0230E020E0B0E0A0E0309747
:1032200099F42115310509F44AC0281B390B2430C3
:103230003105D8F58A819B816115710589F1FB0102
:1032400093838283FE0111C04081518102811381E9
:1032500048175907E0F04817590799F4109761F09B
:1032600012960C93129713961C933296CF01DF910E
:10327000CF911F910F9108950093FD021093FE02CC
:10328000F4CF2115310551F04217530738F0A90149
:10329000DB019A01BD01DF01F801C1CFEF01F9CFD8
:1032A0009093FE028093FD02CDCFFE01E20FF31F4B
:1032B000819391932250310939832883D7CF20916C
:1032C000FB023091FC02232B41F420910F0130913D
:1032D00010013093FC022093FB0220910D013091EC
:1032E0000E012115310541F42DB73EB74091110172
:1032F00050911201241B350BE091FB02F091FC026E
:10330000E217F307A0F42E1B3F0B2817390778F0BC
:10331000AC014E5F5F4F2417350748F04E0F5F1F1B
:103320005093FC024093FB02819391939FCFF0E076
:10333000E0E09CCFCF93DF930097E9F0FC01329758
:1033400013821282A091FD02B091FE02ED0130E0E5
:1033500020E01097A1F420813181820F931F2091EA
:10336000FB023091FC022817390709F061C0F09385
:10337000FC02E093FB02DF91CF910895EA01CE17A2
:10338000DF07E8F54A815B819E0141155105B1F7E0
:10339000E901FB83EA8349915991C40FD51FEC17CA
:1033A000FD0761F4808191810296840F951FE901E8
:1033B00099838883828193819B838A83F0E0E0E014
:1033C00012968D919C9113970097B9F52D913C9190
:1033D0001197CD010296820F931F2091FB0230912D
:1033E000FC022817390739F6309751F51092FE0282
:1033F0001092FD02B093FC02A093FB02BCCFD383DA
:10340000C28340815181840F951FC817D90761F489
:103410004E5F5F4F88819981480F591F51834083C8
:103420008A819B81938382832115310509F0B0CF76
:10343000F093FE02E093FD029ECFFD01DC01C0CFC0
:1034400013821282D7CFB0E0A0E0E9E2FAE10C9457
:10345000A1188C01009751F4CB010E94FE188C0139
:10346000C801CDB7DEB7E0E10C94BD18FC01E60F52
:10347000F71F9C0122503109E217F30708F49DC0A1
:10348000D901CD91DC911197C617D70798F0C530B7
:10349000D10530F3CE0104978617970708F3C61BB2
:1034A000D70B2297C193D1936D937C93CF010E9448
:1034B0009A19D6CF5B01AC1ABD0A4C018C0E9D1E29
:1034C000A091FD02B091FE02512C412CF12CE12C77
:1034D000109731F58091FB029091FC0288159905B7
:1034E00009F05CC04616570608F058C080910D01DF
:1034F00090910E01009741F48DB79EB74091110154
:1035000050911201841B950BE817F90708F055C07C
:10351000F093FC02E093FB02F90171836083A0CF7A
:103520008D919C91119712966C90129713967C90A6
:103530001397A815B90559F56C0142E0C40ED11CCA
:10354000CA14DB0420F1AC014A195B09DA011296B6
:10355000159780F06282738251834083D9016D9305
:103560007C93E114F10471F0D7011396FC93EE9370
:10357000129776CF22968C0F9D1FF901918380833D
:10358000F301EFCFF093FE02E093FD0269CF4816FE
:10359000590608F42C017D01D3019ACFCB010E947A
:1035A000FE187C01009749F0AE01B8010E94E01AB4
:1035B000C8010E949A19870153CF10E000E050CF54
:1035C000FB01DC0102C001900D9241505040D8F740
:1035D00008956817790768F4FB01DC01E40FF51F13
:1035E000A40FB51F02C002900E9241505040D8F770
:1035F00008950C94E01AFB01DC010D900020E9F71E
:10360000119701900D920020E1F70895FC0181913E
:10361000861721F08823D9F7992708953197CF018C
:103620000895FB01DC018D91019080190110D9F3FF
:10363000990B0895FB01DC0101900D920020E1F748
:103640000895FC0181E090E00190061609F4CF0195
:103650000020D1F701970895FB0151915523A9F05E
:10366000BF01DC014D9145174111E1F759F4CD013E
:103670000190002049F04D9140154111C9F3FB0123
:103680004111EFCF81E090E00197089511E0C0E98A
:10369000D1E004C0FE010E94F8182196C139D1077B
:1036A000C9F7F894FFCF01016301464646464646F6
:1036B0004650070000FF028000000000007E03DE8D
:1036C000020B03E6033C031A032E03000000001F55
:1036D00004DE02B2041E047B04910406040D0A00F9
:1036E0004F4646004F4E00647461616D65726963B8
:1036F000612E636F6D003137322E3130322E32340D
:10370000362E323200696E69004F6B004572002C14
:103710000031002673743D002664743D00267278E3
:103720003D002673693D0026716F733D0022002B1A
:1037300048545450414354494F4E3A20302C36306F
:08374000332C3000202F200083
:107E0000112484B714BE81FFF0D085E080938100F7
:107E100082E08093C00088E18093C10086E0809377
:107E2000C20080E18093C4008EE0C9D0259A86E02C
:107E300020E33CEF91E0309385002093840096BBD3
:107E4000B09BFECF1D9AA8958150A9F7CC24DD24C4
:107E500088248394B5E0AB2EA1E19A2EF3E0BF2EE7
:107E6000A2D0813461F49FD0082FAFD0023811F036
:107E7000013811F484E001C083E08DD089C08234E0
:107E800011F484E103C0853419F485E0A6D080C0E4
:107E9000853579F488D0E82EFF2485D0082F10E0AE
:107EA000102F00270E291F29000F111F8ED06801E7
:107EB0006FC0863521F484E090D080E0DECF843638
:107EC00009F040C070D06FD0082F6DD080E0C81688
:107ED00080E7D80618F4F601B7BEE895C0E0D1E017
:107EE00062D089930C17E1F7F0E0CF16F0E7DF06D8
:107EF00018F0F601B7BEE89568D007B600FCFDCFD4
:107F0000A601A0E0B1E02C9130E011968C91119780
:107F100090E0982F8827822B932B1296FA010C0160
:107F200087BEE89511244E5F5F4FF1E0A038BF0790
:107F300051F7F601A7BEE89507B600FCFDCF97BE46
:107F4000E89526C08437B1F42ED02DD0F82E2BD052
:107F50003CD0F601EF2C8F010F5F1F4F84911BD097
:107F6000EA94F801C1F70894C11CD11CFA94CF0C13
:107F7000D11C0EC0853739F428D08EE10CD085E9AC
:107F80000AD08FE07ACF813511F488E018D01DD067
:107F900080E101D065CF982F8091C00085FFFCCF94
:107FA0009093C60008958091C00087FFFCCF809118
:107FB000C00084FD01C0A8958091C6000895E0E648
:107FC000F0E098E1908380830895EDDF803219F02E
:107FD00088E0F5DFFFCF84E1DECF1F93182FE3DFCA
:107FE0001150E9F7F2DF1F91089580E0E8DFEE27F6
:047FF000FF270994CA
:027FFE00040479
:00000001FF
