:100000000C94C6010C947B120C9454120C94EE01C7
:100010000C94EE010C94EE010C9419140C94EE0166
:100020000C94EE010C94EE010C94EE010C94EE0194
:100030000C94EE010C94EE010C94EE010C94EE0184
:100040000C940A120C94EE010C94C8120C94A21297
:100050000C94EE010C94EE010C94EE010C94EE0164
:100060000C94FA120C94EE0100407A10F35A00A09E
:10007000724E18090010A5D4E80000E87648170071
:1000800000E40B54020000CA9A3B000000E1F505B1
:10009000000080969800000040420F000000A086FB
:1000A00001000000102700000000E803000000002D
:1000B0006400000000000A000000000001000000D1
:1000C00000002C76D888DC674F0823DFC1DFAE59EB
:1000D000E1B1B796E5E3E453C63AE651997696E87E
:1000E000E6C28426EB898C9B62ED407C6FFCEFBC02
:1000F0009C9F40F2BAA56FA5F490055A2AF75C932D
:100100006B6CF9676DC11BFCE0E40D47FEF520E662
:10011000B500D0ED902E0300943577050080841E45
:10012000080000204E0A000000C80C333333330FA0
:10013000986E12831141EF8D2114893BE65516CF3D
:10014000FEE6DB18D1844B381BF77C1D901DA4BB49
:10015000E424203284725E228100C9F124ECA1E5FE
:100160003D27005EBCE2613FDD83C29C7E20A3FD93
:100170001F41009D23BE46DB65F88C11AF32CA5784
:10018000E9742020E280A22053656E736F722044D0
:10019000533A20004453003030003030002020E239
:1001A00080A22053656E736F7220534854343A20F6
:1001B00000534854003030002020E280A2204C6FD1
:1001C000526120696E696369616C697A61646F204C
:1001D000636F7272656374616D656E74652E2E2E29
:1001E000002020E280A22053656E736F7220646548
:1001F0002068756D656461642064656C2073756545
:100200006C6F20696E696369616C697A61646F20E3
:10021000636F7272656374616D656E74652E2E2EE8
:10022000002020E280A22050726F746F636F6C6FA9
:100230003A204454412D574D2D307849642C4D734C
:100240002C48722C542C5663632C4353007E204858
:10025000756D6564616420792074656D7065726187
:100260007475726120616D6269656E7465007E20CF
:10027000536F6E64612064652068756D65646164A8
:100280002064656C207375656C6F000A0A4D6963A4
:10029000726F657374616369C3B36E20616772C303
:1002A000AD636F6C6120535448207638002C002CCD
:1002B000002C002C002C0054783A20002C002C003C
:1002C0002C0020202020E29C97205469656D706FDF
:1002D000206465206573706572612061676F746169
:1002E000646F002020E28692204D656E73616A651E
:1002F0002069676E6F7261646F3A20006D696E00ED
:100300002020E29C9320436F6E6669726D61636981
:10031000C3B36E207265636962696461202D2054E5
:10032000494D45523A2000534854003030000000F7
:100330000000240027002A000000000025002800FB
:100340002B00000000080002010000030407000069
:10035000000000000000000000002300260029002B
:10036000040404040404040402020202020203035B
:100370000303030301020408102040800102040863
:1003800010200102040810208F14FF1F11241FBE2B
:10039000CFEFD8E0DEBFCDBF11E0A0E0B1E0E4EEEA
:1003A000F2E502C005900D92AE3AB107D9F724E00C
:1003B000AEEAB1E001C01D92A837B207E1F711E043
:1003C000C5ECD1E004C02197FE010E942527C43C62
:1003D000D107C9F70E9459150C9465290C940000A7
:1003E00080910E0120E4829FC001112480937C0043
:1003F00080917A00806480937A0080917A0086FDF3
:10040000FCCF80917800909179000895FC01908153
:10041000909528E030E081E397FF03C0990F98277B
:1004200001C0990F21503109B9F78181892728E04E
:1004300030E091E387FF03C0880F892701C0880F50
:1004400021503109B9F70895833081F028F48130C3
:1004500099F08230A9F008958730A9F08830C9F06A
:100460008430B1F4809180008F7D03C08091800042
:100470008F7780938000089584B58F7784BD089529
:1004800084B58F7DFBCF8091B0008F778093B000D3
:1004900008958091B0008F7DF9CFCF93DF93E5E48D
:1004A000F3E08491E7E7F3E0D491E3E6F3E0C4916D
:1004B000CC23A1F081110E942402EC2FF0E0EE0F7A
:1004C000FF1FEA5AFC4FA591B491EC91ED2381E016
:1004D00090E009F480E0DF91CF91089580E090E012
:1004E000FACF1F93CF93DF93282F30E0F901EE5B13
:1004F000FC4F8491F901EC58FC4FD491F901E05A7A
:10050000FC4FC491CC23A9F0162F81110E94240224
:10051000EC2FF0E0EE0FFF1FE85CFC4FA591B491CB
:100520008FB7F894EC91111108C0D095DE23DC93BD
:100530008FBFDF91CF911F910895DE2BF8CFCF931E
:10054000DF9390E0FC01EC58FC4F2491805A9C4FC3
:10055000FC0184918823C9F090E0880F991FFC0169
:10056000E25DFC4FA591B491FC01E85CFC4FC591A4
:10057000D49161110DC09FB7F8948C91209582237E
:100580008C938881282328839FBFDF91CF91089582
:10059000623051F49FB7F8943C91822F8095832369
:1005A0008C93E8812E2BEFCF8FB7F894EC912E2B04
:1005B0002C938FBFEACF3FB7F8948091EB029091D4
:1005C000EC02A091ED02B091EE0226B5A89B05C009
:1005D0002F3F19F00196A11DB11D3FBFBA2FA92FC2
:1005E000982F8827BC01CD01620F711D811D911DBF
:1005F00043E0660F771F881F991F4A95D1F708952A
:100600008F929F92AF92BF92CF92DF92EF92FF9222
:100610006B017C010E94DB024B015C01C114D1041F
:10062000E104F104B9F00E94DB02681979098A0932
:100630009B09683E73408105910580F321E0C21A51
:10064000D108E108F10888EE880E83E0981EA11C0D
:10065000B11CE4CFFF90EF90DF90CF90BF90AF90B0
:100660009F908F9008952FB7F8946091E702709152
:10067000E8028091E9029091EA022FBF089508955F
:10068000089508950895AF92BF92CF92DF92EF92AE
:10069000FF920F931F93CF93DF936C017B018B012C
:1006A000040F151FEB015E01AE18BF08C017D1077C
:1006B00059F06991D601ED91FC910190F081E02D06
:1006C000C6010995892B79F7C501DF91CF911F915B
:1006D0000F91FF90EF90DF90CF90BF90AF90089573
:1006E000FC01538D448D252F30E0842F90E0821B38
:1006F000930B541710F0CF96089501970895FC01BD
:10070000918D828D981761F0A28DAE0FBF2FB11D14
:100710005D968C91928D9F5F9F73928F90E008956C
:100720008FEF9FEF0895FC01918D828D981731F026
:10073000828DE80FF11D858D90E008958FEF9FEF7A
:100740000895FC01918D228D892F90E0805C9F4F50
:10075000821B91098F739927089581E693E00E9487
:10076000A10321E0892B09F420E0822F089580E085
:1007700090E0892B29F00E94AD0381110C940000B8
:100780000895FC01A48DA80FB92FB11DA35ABF4F26
:100790002C91848D90E001968F739927848FA68980
:1007A000B7892C93A089B1898C91837080648C93D4
:1007B000938D848D981306C00288F389E02D808183
:1007C0008F7D80830895EF92FF920F931F93CF93B5
:1007D000DF93EC0181E0888F9B8D8C8D98131AC07C
:1007E000E889F989808185FF15C09FB7F894EE8963
:1007F000FF896083E889F9898081837080648083C0
:100800009FBF81E090E0DF91CF911F910F91FF900A
:10081000EF900895F62E0B8D10E00F5F1F4F0F73B2
:100820001127E02E8C8D8E110CC00FB607FCFACF6D
:10083000E889F989808185FFF5CFCE010E94C10347
:10084000F1CFEB8DEC0FFD2FF11DE35AFF4FF0823E
:100850009FB7F8940B8FEA89FB8980818062CFCFA4
:100860000F931F93CF93DF938C01D0E0C0E0F8018A
:10087000EC0FFD1F6491662341F081E693E00E9436
:10088000E303892B11F02196F2CFCE01DF91CF91B6
:100890001F910F910895CF93DF93EC01888D8823EA
:1008A000B9F0AA89BB89E889F9898C9185FD03C0D3
:1008B000808186FD0DC00FB607FCF7CF8C9185FFB8
:1008C000F2CF808185FFEDCFCE010E94C103E9CF39
:1008D000DF91CF9108950F931F93CF93DF93EC0196
:1008E000062F142F60E088890E9471029C858D85F7
:1008F0009CBD8DBD0EBD00000DB407FEFDCF8EB5B5
:100900001EBD00000DB407FEFDCF1EB561E0888955
:100910000E947102812FDF91CF911F910F91089555
:1009200041E861E88FEF93E00C946B0440E00C9495
:100930006B0410921C0410921B046DE18FEF93E086
:100940000E949604482F4E7F6DE98FEF93E00C9440
:100950006B0408950F931F93CF93DF93EC01E8810D
:10096000F9810084F185E02D0995892BB1F06DE0C6
:10097000CE010E949604082F60E0CE010E949604EA
:10098000182F402F6DE8CE010E946B04812F90E05C
:10099000DF91CF911F910F9108958FEF9FEFF8CFC7
:1009A000CF93DF93EC01E881F9810084F185E02D9C
:1009B0000995892B69F08A8D9B8D01969B8F8A8F73
:1009C00060E0CE010E94960490E0DF91CF910895FF
:1009D0008FEF9FEFFACFCF93DF93EC0163E10E949B
:1009E000960490E02A8D3B8D821B930BDF91CF9173
:1009F0000895AF92BF92CF92DF92FF920F931F9311
:100A0000CF93DF936C015B01EA0162E20E949604DE
:100A1000F82E90E09C012C0F3D1F2F3F310529F04F
:100A200020F0CFEFD0E0C81BD90B8501AC0EBD1E66
:100A30000A151B0541F0F80141918F0160E8C601DC
:100A40000E946B04F5CF4C2F4F0D62EAC6010E9445
:100A50006B04CE01DF91CF911F910F91FF90DF903A
:100A6000CF90BF90AF900895CF93DF931F92CDB7F3
:100A7000DEB76983DC01ED91FC910280F381E02D0A
:100A800041E050E0BE016F5F7F4F09950F90DF910D
:100A9000CF9108952091D001260F3327331F2132A3
:100AA0003105ECF420913703FC0190E080E0243024
:100AB00069F082E00895A091D0012191AC014055E8
:100AC0005E4FA40FB52FB11D2C930196861798F396
:100AD0008091D001680F6093D00180E0089581E09B
:100AE00008951092370381E080933603109211032A
:100AF00061E082E10E94710261E083E10E94710283
:100B0000E9EBF0E080818E7F808380818D7F808320
:100B100080E28093B80085E48093BC000895CF9371
:100B2000DF9391E09093AF018823B9F0C091B800B2
:100B3000D091BA008091BC008A7B8093BC0060E0B9
:100B400082E10E94710260E083E10E9471020E94D2
:100B50007105D093BA00C093B800DF91CF9108958A
:100B60008F929F92AF92BF92CF92DF92EF92FF92BD
:100B70000F931F93CF93DF93D0916003D13208F08E
:100B8000D7C0182FC0915F030E94DB026B017C016C
:100B90008091370381116BC082E0809337031093FB
:100BA00036038FEF8093350310923403D0933303D1
:100BB000AFE3B3E0E3E1F3E080E0D81391C010923B
:100BC000120380911203CC0FC82BC09312038091A3
:100BD0001103813009F088C0109211030E94DB02DA
:100BE0006B017C01809112038093BB0080913903DB
:100BF00090913A03A0913B03B0913C03892B8A2B3F
:100C00008B2BA1F00E94DB020091390310913A0373
:100C100020913B0330913C036C197D098E099F099B
:100C2000061717072807390708F442C08091BC004F
:100C300083FDD8CF85EC8093BC000E94DB026B0162
:100C40007C0180913703823009F450C080913503D4
:100C50008F3F09F46FC080913503803209F46CC076
:100C600080913503803309F469C084E026C0809107
:100C7000390390913A03A0913B03B0913C03892B37
:100C80008A2B8B2B09F484CF0E94DB0280903903DE
:100C900090903A03A0903B03B0903C036C197D09FF
:100CA0008E099F0986169706A806B90608F070CF28
:100CB000809138030E948F0585E010923E031092C8
:100CC000600310923D03DF91CF911F910F91FF9030
:100CD000EF90DF90CF90BF90AF909F908F9008954E
:100CE0009D9191938F5F69CF85EEA5CF8091390358
:100CF00090913A03A0913B03B0913C03892B8A2B3E
:100D00008B2B09F49ECF0E94DB02009139031091D6
:100D10003A0320913B0330913C036C197D098E0905
:100D20009F09061717072807390708F08ACFC0CF91
:100D300081E0C3CF80E0C1CF82E0BFCF83E0BDCFF1
:100D4000DC0111968D919C91DC01ED91FC9102806A
:100D5000F381E02D41E050E00995019729F481E00D
:100D60000E94B00591E0811190E0892F0895E091F3
:100D7000F0028091EF02E81730F4F0E0EF50FD4F01
:100D8000808190E008958FEF9FEF08959091F00299
:100D90008091EF022FEF3FEF981748F4E92FF0E032
:100DA000EF50FD4F208130E09F5F9093F002C9012A
:100DB00008958091EF029091F002891B990B08959C
:100DC000CF92DF92EF92FF920F931F93CF93DF9317
:100DD0007C01CB018A0120913D03222389F0EB01A4
:100DE0006B01C40ED51ECC15DD0569F06991D701E4
:100DF000ED91FC910190F081E02DC7010995F3CFB1
:100E0000642F0E944A05C801DF91CF911F910F9175
:100E1000FF90EF90DF90CF900895CF93DF931F92D4
:100E2000CDB7DEB7698320913D032223F9F02091ED
:100E30006003203258F021E030E0FC01338322834C
:100E400090E080E00F90DF91CF91089580913E0374
:100E5000E82FF0E0E15CFC4F998190838F5F8093F5
:100E60003E038093600381E090E0ECCF61E0CE012F
:100E700001960E944A05F7CF90E080E00895CF9355
:100E8000DF93EC018B818823A1F0888191E090931E
:100E90003D0380935F0310923E031092600381E054
:100EA0000E94B00591E0811190E0892FDF91CF91F0
:100EB00008951092F0021092EF0210923E031092E9
:100EC00060030E9471058FE393E09093F401809397
:100ED000F30180E493E09093F6018093F50181E0C3
:100EE0008B83CE010E943F07982F8111CECFDDCF9B
:100EF00008950895DC0180E0615090F09D9198275D
:100F0000E92FEF70F0E0EE59FE4F2491E92FE295C2
:100F1000EF70F0E0EE58FE4FE491822F8E27ECCF79
:100F20000895DC012C911196ED91FC91F89481814A
:100F3000822B81839281322F30959323928382E09A
:100F400090E00197F1F781818323818380E190E034
:100F50000197F1F790817894E6E6F0E03197F1F7A8
:100F6000922381E009F480E00895FC0190810180E2
:100F7000F281E02D292F209560FF14C0F894828122
:100F8000822382838181892B8183A0E1B0E0119744
:100F9000F1F78281982B928378948AE690E001970A
:100FA000F1F70895F8948281822382838181892BCD
:100FB0008183AEE7B0E01197F1F78281982B92839D
:100FC000789486E090E0EBCFDF92EF92FF920F9360
:100FD0001F93CF93DF93EC01D62EE42E08E010E0B0
:100FE000FF24F39461E08D2D8F2109F460E0CE01A0
:100FF0000E94B507FF0C01501109A1F7E11010C0C4
:10100000F894E981FA81918188818095892381838F
:10101000E981FA81928188818095892382837894FD
:10102000DF91CF911F910F91FF90EF90DF90089586
:10103000EF92FF920F931F93CF93DF938C017B016D
:1010400040E065E50E94E407E70188E0E80EF11C56
:10105000699140E0C8010E94E407CE15DF05C1F7A1
:10106000DF91CF911F910F91FF90EF90089541155F
:10107000510529F4EAE7F0E080818F7780836A30B8
:101080007105B9F0CB01880F991F880F991F8072E5
:1010900067706860682B88E10FB6F894A895809314
:1010A00060000FBE60936000E0E6F0E08081806445
:1010B0008083232BD9F483B7817F846083BFF89426
:1010C00083B7816083BF85B7806685BF8F7D85BF0D
:1010D0007894889583B78E7F83BF7894452B29F4C5
:1010E000EAE7F0E0808180688083089583B7817F9C
:1010F000846083BFF89483B7816083BF78948895B8
:1011000083B78E7F83BF7894E9CF8EE480937C0091
:1011100062E070E080E090E00E94000380917A003D
:10112000806480937A0080917A0086FDFCCF809164
:1011300078002091790030E0322F2227032E000C16
:10114000440B550B282B60E070E381E190E00E9496
:10115000E924CA01B9010E94CC2320E030E04AE72B
:1011600054E40E94F0250895DC0114966D917C9161
:10117000159730E020E090E080E026173707A1F0D7
:10118000ED91FC911197309761F41092AE01EEEA67
:10119000F1E04081840F911D47FD9A952F5F3F4FED
:1011A000ECCFE20FF31FF5CF08952F923F924F92AD
:1011B0005F926F927F928F929F92AF92BF92CF92E7
:1011C000DF92EF92FF920F931F93CF93DF936C0107
:1011D0001B01F12CE12C86E0A82EB12CD60114962F
:1011E0008D919C9185010E191F098017910708F4B4
:1011F0008C01F601D0810E94DB022B013C01809121
:101200003703811172C0C02F013208F0C0E2F1E053
:10121000F093370321E0C501801B910BE816F90616
:1012200008F420E0209336038FEF8093350310926B
:1012300034038C0F80933303A1E0A09312038091B9
:101240001203DD0FD82BD09312038091110381304C
:1012500009F090C0109211030E94DB022B013C01A7
:10126000809112038093BB008091390390913A03DF
:10127000A0913B03B0913C03892B8A2B8B2BA1F0CF
:101280000E94DB022091390330913A0340913B03E5
:1012900050913C0364197509860997092617370789
:1012A0004807590708F442C08091BC0083FDD8CF9D
:1012B000B5ECB093BC000E94DB022B013C01809195
:1012C0003703813009F45AC0809134038C1710F42D
:1012D000C0913403A3E1B3E0E1EFF2E080E08C17CA
:1012E00051F19D9191938F5FFACF80913903909145
:1012F0003A03A0913B03B0913C03892B8A2B8B2BA3
:1013000009F47DCF0E94DB022091390330913A032A
:1013100040913B0350913C03641975098609970974
:10132000261737074807590708F069CF8091380317
:101330000E948F05C0E01092F002C093EF02C01728
:10134000110609F058C041018E0C9F1CE401CE012A
:10135000881999098017910798F5D60111968D91F2
:101360009C91DC01ED91FC910284F385E02D0995BF
:101370008993EDCFE5EEE093BC009DCF80913903DA
:1013800090913A03A0913B03B0913C03892B8A2BA7
:101390008B2B09F494CF0E94DB022091390330910A
:1013A0003A0340913B0350913C0364197509860947
:1013B0009709261737074807590708F080CFB6CF97
:1013C000E00EF11EB6E0EB16F10408F407CF81E061
:1013D000DF91CF911F910F91FF90EF90DF90CF9011
:1013E000BF90AF909F908F907F906F905F904F9045
:1013F0003F902F90089580E0EBCFFC019081018019
:10140000F281E02DF8948181292F20958223818318
:1014100078943DE7315011F180818923D9F3F89414
:101420008281822382838181892B81837894ACEBB2
:10143000B3E01197F1F7F894818182238183A8E8C2
:10144000B0E01197F1F78081982381E009F080E006
:101450007894E0E3F3E03197F1F7089580E00895A0
:10146000BF92CF92DF92EF92FF920F931F93CF9391
:10147000DF93EC01B62EC72E8D85811105C0CE01FC
:101480000E94FD0981110EC01B861D861C8680E00E
:10149000DF91CF911F910F91FF90EF90DF90CF9050
:1014A000BF90089540E060EFCE010E94E40701E0A4
:1014B000E12CD12C11E0CE010E949107F82ECE0133
:1014C0000E94910791E0F91218C0813099F511340A
:1014D000D8F2DB86D11002C081E08D878B81882312
:1014E00099F22396EB2DFC2DCF010896299121939B
:1014F000E817F907D9F781E0CBCFEE2DF0E0F8122D
:101500000FC08B851817A0F4DE01AE0FBF1F139616
:101510008C91802379F4F12C193008F41C87D12E9A
:10152000EC0FFD1F8381902F9095892383830AC040
:101530008113F1CFFE01EE0DF11D8381802B83839A
:10154000FF24F3946F2DCE010E94B5071F5F000F9B
:1015500011F4E39401E087E08E1508F0ACCFB7CF2B
:10156000CF93DF93EC01E0914C04F0914D0413868E
:1015700015861486128611861086178216821582A9
:1015800014821382BC0180914C0490914D040E94FE
:10159000300A982F882341F067E0CE010E947A0735
:1015A00091E02F81281390E0892FDF91CF9108954A
:1015B0006F927F928F929F92AF92BF92CF92DF9263
:1015C000EF92FF920F931F93CF93DF938C01EB0168
:1015D00080914C0490914D040E94FD09882309F4E8
:1015E0003FC0B80180914C0490914D040E941808AE
:1015F00040E06EEB80914C0490914D040E94E40712
:101600007E016E0189E0C80ED11C8E01A0904C04B1
:10161000B0904D0488E0882E912C712C6624639440
:10162000C5010E94910781117628660CE1E08E1AAF
:101630009108B1F7F80171928F01CE16DF0631F7EC
:1016400080914C0490914D040E94FD09813041F439
:10165000F70181917F01811105C0E017F107C1F702
:1016600090E008C068E0CE010E947A0791E02885EA
:101670002813F6CF892FDF91CF911F910F91FF9003
:10168000EF90DF90CF90BF90AF909F908F907F9022
:101690006F9008952F923F924F925F926F927F9238
:1016A0008F929F92AF92BF92CF92DF92EF92FF9272
:1016B0000F931F93CF93DF93CDB7DEB72A970FB663
:1016C000F894DEBF0FBECDBF8C012DB73EB73A8771
:1016D00029876C0130E5C30ED11C7C0160E070E00D
:1016E000CB01F70121913191419151917F010E94EC
:1016F0008425CE14DF04A9F720E030E040EA51E46D
:101700000E94F0252B013C011A830983812C912C26
:101710005401E981FA816191719181919191FA83EA
:10172000E983A30192010E9483259B01AC010E94E1
:101730002B249B01AC01C501B4010E9484254B01FF
:101740005C0129813A81E216F30619F720E030E0C6
:1017500040EA51E40E94F0250E94A3262AE939E9D3
:1017600049E95EE30E94C52387FF7CC0F8018080C1
:101770009180A280B3801C830B8318861F82EB812B
:10178000FC81C190D190E190F190FC83EB831E83AA
:101790000D83312C212CED81FE816191719181911C
:1017A0009191FE83ED83A70196010E9483252B0171
:1017B0003C0120E030E0A9010E949826181674F43C
:1017C0002DEC3CEC4CEC5DE3C301B2010E94C5235F
:1017D00087FF0EC0FFEF2F1A3F0A0AC02DEC3CEC2A
:1017E0004CEC5DEBC301B2010E949826181694F3ED
:1017F00029813A818D819E812817390761F6EF8111
:10180000F885E215F30524F438862F824601570146
:1018100029813A818B819C812817390709F0AFCF44
:10182000B401C501E985FA850FB6F894FEBF0FBE75
:10183000EDBF2A960FB6F894DEBF0FBECDBFDF9185
:10184000CF911F910F91FF90EF90DF90CF90BF90BD
:10185000AF909F908F907F906F905F904F903F9050
:101860002F900895EDB7FEB7FA83E9832DB73EB701
:10187000205531090FB6F8943EBF0FBE2DBF8DB76E
:101880009EB701961C0180E5F801D10101900D92EF
:101890008A95E1F783E1E82EF12C8101D12CC12C4E
:1018A000CE14DF0414F5F80181909190A190B190CD
:1018B0008F01FFEFCF1ADF0AF8014080518062806C
:1018C0007380A3019201C501B4010E9498261816E5
:1018D0003CF7F80134974082518262827382F801AA
:1018E00080829182A282B382DBCFF1E0EF1AF1080D
:1018F000A1F6F10120A531A542A553A564A175A1CA
:1019000086A197A10E94842520E030E040E05FE3BB
:101910000E942B244B015C0129813A810FB6F89477
:101920003EBF0FBE2DBF7CCF8F929F92AF92BF92D2
:101930000F931F93CF93DF93CDB7DEB7A1970FB669
:10194000F894DEBF0FBECDBF19A2423008F44AE0C2
:101950008E010F5D1F4F842E912CB12CA12CA5015F
:1019600094010E945225E62FB901CA01EA3044F5DC
:10197000E05DD801EE938D01232B242B252B79F7E5
:1019800090E080E0109769F0FD0101900020E9F7F8
:101990003197AF014A1B5B0BBD0181E693E00E94CA
:1019A0004303A1960FB6F894DEBF0FBECDBFDF9103
:1019B000CF911F910F91BF90AF909F908F900895FE
:1019C000E95CD7CF42E050E06FE871E081E693E058
:1019D0000C944303CF93DF930E943004EC010E94E8
:1019E000E20C8C0F9D1FDF91CF910895CF93DF9371
:1019F000FC01448155816081718181E693E00E9400
:101A00004303EC010E94E20C8C0F9D1FDF91CF91EC
:101A10000895AF92BF92CF92DF92EF92FF920F9311
:101A20001F93CF93DF936B01EA01FB014481558142
:101A30004115510561F1FC012481358121153105E4
:101A400031F12417350718F1C217D30710F0E90157
:101A50002197FC0100811181C801AA24AA94BB240A
:101A6000BA947801EC0EFD1EE816F906A0F0F60116
:101A7000608171810E944B29009769F09C01201BB5
:101A8000310BC217D30708F059010196EDCFAA24F4
:101A9000AA94BB24BA94C501DF91CF911F910F91F5
:101AA000FF90EF90DF90CF90BF90AF900895CF93CD
:101AB000DF93EC0188819981009711F00E94C7277C
:101AC000198218821D821C821B821A82DF91CF919B
:101AD0000895FC0180819181009711F00C94C72733
:101AE00008950C94C7270C94C727FC0124813581E5
:101AF000FB014481558124173507E1F4FC01808105
:101B00009181FB01608171810097D1F061157105B0
:101B1000A1F4232BC1F0FC01808190E008C0232BAD
:101B200091F0FB01808190E091958195910921E0F0
:101B3000892B09F020E0822F08950E941E29F7CFFB
:101B40006115710561F721E0F6CF0F931F93CF93D5
:101B5000DF938C01EB01FC01808191810097E1F022
:101B60006881798161157105A9F0428153812C81C9
:101B70003D814217530770F00E9427298C819D8177
:101B8000F801958384831D821C82DF91CF911F9180
:101B90000F9108950E94C72788819981F801918348
:101BA00080838A819B81938382838C819D819583AD
:101BB0008483198218821B821A82E5CF0F931F93A8
:101BC000CF93DF93EC0188819981009759F02A81A6
:101BD0003B812617370730F081E0DF91CF911F91CD
:101BE0000F9108958B016F5F7F4F0E9450280097DF
:101BF00059F0998388831B830A832C813D81232B91
:101C000059F7FC011082E8CF80E0E7CFEF92FF9216
:101C10000F931F93CF93DF93EC017B01CB010E94C5
:101C200019210097A9F00C811D81080F191FB80117
:101C3000CE010E94DE0D882361F0288139818C81DC
:101C40009D81B701820F931F0E9412211D830C8377
:101C500081E0DF91CF911F910F91FF90EF90089558
:101C6000EF92FF920F931F93CF93DF93611571054E
:101C700041F480E0DF91CF911F910F91FF90EF90A1
:101C8000089541155105B1F07B01EC010C811D81D6
:101C9000040F151FB8010E94DE0D882351F328811F
:101CA00039818C819D81B701820F931F0E94272962
:101CB0001D830C8381E0DECFFB014481558160816F
:101CC00071810C94300EEF92FF920F931F93CF937C
:101CD000DF93EC018B01CB010E9419217C01BC0137
:101CE000CE010E94DE0D81110BC0CE010E94570D66
:101CF000CE01DF91CF911F910F91FF90EF9008954A
:101D0000FD82EC82B801888199810E941221F0CF76
:101D1000FC011182108213821282158214820C94AB
:101D2000630EEF92FF920F931F93CF93DF93EC011B
:101D30007B018A01BA010E94DE0D81110BC0CE0128
:101D40000E94570DCE01DF91CF911F910F91FF900F
:101D5000EF9008951D830C83B701888199810E94BB
:101D60002729F0CFFB0101900020E9F73197AF015F
:101D7000461B570B0C94910E0F931F93CF93DF9339
:101D8000CDB7DEB729970FB6F894DEBF0FBECDBF33
:101D90008C01862FF8011182108213821282158223
:101DA000148240E1BE016F5F7F4F90E00E9464218A
:101DB000BE016F5F7F4FC8010E94B20E29960FB619
:101DC000F894DEBF0FBECDBFDF91CF911F910F9171
:101DD0000895FB01DC0111961C921E9213961C9231
:101DE0001E92129715961C921E92149786179707AB
:101DF00049F0608171816115710521F0448155813F
:101E00000C94910E0895FC011182108213821282AB
:101E100015821482FB0101900020E9F73197AF0190
:101E2000461B570B0C94910EAF92BF92CF92DF924C
:101E3000EF92FF920F931F93CF93DF936C015B019F
:101E40007A0189012417350720F48F2D7901042F99
:101E5000182F61E971E0C6010E94030FD5011496A5
:101E6000CD91DC91EC16FD06E0F40C171D0708F48B
:101E7000E801D501ED91FC911197EC0FFD1F108148
:101E800010826D917C916E0D7F1DC60161157105EB
:101E9000A1F00E94B20EF50180819181C80FD91F77
:101EA0001883C601DF91CF911F910F91FF90EF90A2
:101EB000DF90CF90BF90AF9008950E94570DEBCF69
:101EC000EF92FF920F931F93CF93DF93CDB7DEB7BF
:101ED000E3970FB6F894DEBF0FBECDBF7C01CB01F8
:101EE000BA01F701118210821382128215821482C4
:101EF00042E0420F8E010F5F1F4F0E942920009782
:101F000089F0BC01C7010E94B20EE3960FB6F894A7
:101F1000DEBF0FBECDBFDF91CF911F910F91FF901C
:101F2000EF900895C7010E94570DEFCF85ED809384
:101F3000BC008091390390913A03A0913B03B0918A
:101F40003C030796A11DB11D23E0B695A795979573
:101F500087952A95D1F72091BC0024FD03C01092EB
:101F6000370308954091390350913A0360913B0340
:101F700070913C03452B462B472B69F30097A10535
:101F8000B10541F025E12A95F1F700000197A1097B
:101F9000B109E1CF809138030C948F050F931F9303
:101FA000CF93DF938C01EB0188E2FB0111928A95BC
:101FB000E9F74BE050E062E971E0CE010E943C2974
:101FC0001B8681E090E0A0E0B0E08C879D87AE8723
:101FD000BF87F80182819381092E000CAA0BBB0BED
:101FE000888B998BAA8BBB8B8DE090E0A0E0B0E052
:101FF0008C8B9D8BAE8BBF8B1CA21DA21EA21FA221
:1020000080E090E0A0E2B2EC8C8F9D8FAE8FBF8F0E
:1020100080E090E0AAEAB2E4888F998FAA8FBB8F04
:102020008AE999E9A9E9BEE388A399A3AAA3BBA376
:10203000DF91CF911F910F9108950F931F93CF932D
:10204000DF938C01EB0188E2FB0111928A95E9F79D
:102050004BE050E06AE971E0CE010E943C291B860A
:1020600081E090E0A0E0B0E08C879D87AE87BF87DD
:10207000F80182819381092E000CAA0BBB0B888B7F
:10208000998BAA8BBB8B8CE090E0A0E0B0E08C8BAE
:102090009D8BAE8BBF8B1CA21DA21EA21FA21C8EED
:1020A0001D8E1E8E1F8E80E090E0A8ECB2E4888F1B
:1020B000998FAA8FBB8F80E090E0A0E0B0E488A366
:1020C00099A3AAA3BBA3DF91CF911F910F9108956C
:1020D0002F923F924F925F926F927F928F929F9238
:1020E000AF92BF92CF92DF92EF92FF920F931F9326
:1020F000CF93DF9300D000D000D01F92CDB7DEB7D2
:102100007C016B011A010E9433032B013C018DEF0E
:102110008F83D70154968D919C915597009701F527
:1021200052962D913C912130310561F426EF2F8399
:1021300005E010E08430910571F484E28F830EE6AF
:1021400010E028C00AE010E02230310521F420EE32
:102150002F8302E010E08530910589F48EE117C0ED
:102160008130910529F429E32F830CE414E0F3CFA7
:102170008230910541F422E32F830EE610E00697AA
:1021800049F485E1DBCF8330910541F58FE28F8300
:102190000CE414E0F70184859585DC0114962D91FB
:1021A0003C91232BF1F410E0812F27960FB6F89481
:1021B000DEBF0FBECDBFDF91CF911F910F91FF907A
:1021C000EF90DF90CF90BF90AF909F908F907F90D7
:1021D0006F905F904F903F902F9008950AE010E02D
:1021E000A9CFFC01208131E030933D0320935F03B0
:1021F00010923E0310926003BE01695F7F4F0E9400
:10220000A006882381F2B80190E080E00E940003DC
:10221000BE016F5F7F4FD7011C968D919C910E94EC
:10222000D508182F882309F4BECF0B81CE01019663
:102230000E9406020813B7CF0E81CE0104960E94B9
:1022400006020813B0CF6C81862F90E0982F882764
:102250006D81680F792F711D90E080E00E94CA2384
:102260004B015C016981862F90E0982F88276A8155
:10227000680F792F711D90E080E00E94CA2320E052
:1022800030E04FE253E40E942B2420E03FEF4FE781
:1022900057E40E94F02520E030E044E352E40E943D
:1022A0008325F701608371838283938320E030E08C
:1022B0004AEF52E4C501B4010E942B2420E03FEF15
:1022C0004FE757E40E94F02520E030E040EC50E476
:1022D0000E9483254B015C0120E030E0A9010E94AF
:1022E000982618160CF07FC020E030E048EC52E44D
:1022F000C501B4010E94C52387FD06C0812C912C25
:1023000088ECA82E82E4B82ED70114968D929D9267
:10231000AD92BC9217972114310481F1F1013496EA
:1023200080E2DF011D928A95E9F784E290E0A0E067
:10233000B0E0F10180839183A283B383D7011A9621
:102340008D919C91B0E0A0E084839583A683B783B0
:102350008DE090E0A0E0B0E080879187A287B3870E
:10236000408A518A628A738AF70180819181A281B1
:10237000B381F101848B958BA68BB78BC114D104EB
:1023800009F412CFF601349680E2DF011D928A959E
:10239000E9F784E290E0A0E0B0E0F6018083918369
:1023A000A283B383D70118968D919C91B0E0A0E0F1
:1023B00084839583A683B7838CE090E0A0E0B0E0AF
:1023C00080879187A287B387408A518A628A738AFD
:1023D000F70184819581A681B781F601848B958B65
:1023E000A68BB78BE1CE812C912C54018DCFAB0104
:1023F00070E060E0FC01848195810E94681081E0BA
:10240000089550E040E0FC01848195810E946810AD
:1024100081E008951F920F920FB60F9211242F930F
:102420003F938F939F93AF93BF938091E7029091D7
:10243000E802A091E902B091EA023091E60226E0BA
:10244000230F2D3758F50296A11DB11D2093E602EA
:102450008093E7029093E802A093E902B093EA0226
:102460008091EB029091EC02A091ED02B091EE020E
:102470000196A11DB11D8093EB029093EC02A093F5
:10248000ED02B093EE02BF91AF919F918F913F917A
:102490002F910F900FBE0F901F90189529E8230FD2
:1024A0000396A11DB11DD2CF1F920F920FB60F92AE
:1024B00011242F933F934F935F936F937F938F9349
:1024C0009F93AF93BF93EF93FF93E0910201F0913D
:1024D00003010995FF91EF91BF91AF919F918F916A
:1024E0007F916F915F914F913F912F910F900FBE10
:1024F0000F901F9018951F920F920FB60F921124F4
:102500002F933F934F935F936F937F938F939F93FB
:10251000AF93BF93EF93FF93E0910001F09101011E
:102520000995FF91EF91BF91AF919F918F917F910D
:102530006F915F914F913F912F910F900FBE0F9030
:102540001F9018951F920F920FB60F9211242F9380
:102550003F934F935F936F937F938F939F93AF932B
:10256000BF93EF93FF9381E693E00E94C103FF9135
:10257000EF91BF91AF919F918F917F916F915F91FB
:102580004F913F912F910F900FBE0F901F90189574
:102590001F920F920FB60F9211242F938F939F9338
:1025A000EF93FF93E0917103F09172038081E091CA
:1025B0007703F091780382FD1BC0908180917A03AC
:1025C0008F5F8F7320917B03821741F0E0917A0334
:1025D000F0E0EF59FC4F958F80937A03FF91EF91D4
:1025E0009F918F912F910F900FBE0F901F90189574
:1025F0008081F4CF1F920F920FB60F9211242F9368
:102600003F934F935F936F937F938F939F93AF937A
:10261000BF93EF93FF938091B900887F803609F4D0
:102620004AC0F0F5883209F4A7C018F5803109F4E2
:102630009BC0B8F4882309F4F9C0883009F494C029
:10264000FF91EF91BF91AF919F918F917F916F918A
:102650005F914F913F912F910F900FBE0F901F9060
:102660001895883109F488C0803251F7809335037A
:1026700014C0803409F49DC040F48033B9F388332A
:10268000F9F68093350385ECB0C0803509F485C038
:10269000883509F496C0883499F60E94960FD0CFF9
:1026A000883909F48CC038F5883729F050F4883619
:1026B00011F0803729F683E0809337031092F201FE
:1026C00057C0883809F47BC0803919F0803809F088
:1026D000B7CF8091F201803208F071C0E091F20131
:1026E00081E08E0F8093F2018091BB00F0E0EE520A
:1026F000FE4F80833DC0803B39F0E0F4803A09F41E
:1027000079C0883A09F09CCF84E080933703109217
:10271000D1011092D001E091F301F091F4010995FB
:102720008091D00181110FC081E08093D00110927F
:10273000B00109C0803C09F4A6CF883C09F4A3CFBE
:10274000883B09F07DCFE091D10181E08E0F80932D
:10275000D101F0E0E055FE4F80818093BB00909165
:10276000D1018091D00129C0809112038093BB00D8
:1027700085EC8093BC0064CF909134038091330347
:10278000981758F5E091340381E08E0F809334035D
:10279000F0E0ED5EFC4F8081E9CFE091340381E011
:1027A0008E0F809334038091BB00F0E0ED5EFC4F10
:1027B000808390913403809133039817C8F285E8A1
:1027C000D8CFE091340381E08E0F80933403809161
:1027D000BB00F0E0ED5EFC4F8083809136038111F9
:1027E0005CCF81E08093110384EA8093BC00109257
:1027F000370326CF85EC8093BC001092370380917D
:10280000F201803230F4E091F201F0E0EE52FE4F3E
:1028100010826091F20170E0E091F501F091F60113
:1028200082ED91E009951092F2010ACF10923503E2
:1028300034CF1F920F920FB60F9211248F930FB6C1
:10284000F894A89580916000886180936000109250
:1028500060000FBE8F910F900FBE0F901F901895C4
:10286000CF92DF92EF92FF92CF93DF936DE18FEFE4
:1028700093E00E94960490E034E0959587953A9510
:10288000E1F78A3091050CF042C0FC01EE0FFF1F0A
:10289000E80FF91FE55CFE4FC080D180E2800E2C6E
:1028A000000CFF086EE18FEF93E00E949604D82F92
:1028B00066E28FEF93E00E949604C82FD295DF70F6
:1028C00021E030E040E050E004C0220F331F441FFD
:1028D000551FDA95D2F7C701B6010E94E92468EEC8
:1028E00073E080E090E00E94E92421313105410548
:1028F000510594F04C2F486066EA8FEF93E0DF912A
:10290000CF91FF90EF90DF90CF900C946B04CC248C
:10291000CA94DC2C7601C6CF4C2F477FEDCFCF93E6
:10292000E1E6F3E01382128288EE93E0A0E0B0E0EB
:1029300084839583A683B7832DE531E0318320839B
:1029400025EC30E03587248724EC30E03787268774
:1029500020EC30E0318B208B21EC30E0338B228B6C
:1029600022EC30E0358B248B26EC30E0378B268B45
:10297000118E128E138E148EEFEFF3E013821282FB
:102980002FE631E03183208320E52487C1E0C5872D
:102990002EEF33E0378726872AE030E0318B208B1B
:1029A00029E030E0338B228B22E030E0358B248B22
:1029B000168A178A108E118E138E128E158E148E13
:1029C000178E168E11A210A21482158216821782FB
:1029D000E1E2F4E01382128284839583A683B783B5
:1029E00081E891E09183808362EA71E08EE694E071
:1029F0000E94030F61E971E088E694E00E94030FF2
:102A000060E083E00E949F02E7E7F3E0E491AAE53B
:102A1000B4E0EC93E3E6F3E0E491F0E0EE0FFF1FA7
:102A2000EA5AFC4F8591949112969C938E9311973C
:102A30001B961C921B971D961C921D971C961C9210
:102A40001C971A961C921A9719961C921997189609
:102A50001C92189717961C92179716961C92169709
:102A600015961C92159714961C92149713961C9207
:102A70001397E3E4F4E017821086108289E08383E1
:102A8000C483C583C6831182168A158A8FEF838B10
:102A9000148AB287A187EDE2F4E0158614861786C2
:102AA0001686118A108A138A128A158A148ACF917F
:102AB0000895CF93DF93CDB7DEB7C154D1090FB6D8
:102AC000F894DEBF0FBECDBF789484B5826084BD1C
:102AD00084B5816084BD85B5826085BD85B5816022
:102AE00085BD80916E00816080936E0010928100A0
:102AF000809181008260809381008091810081605B
:102B0000809381008091800081608093800080911B
:102B1000B10084608093B1008091B00081608093A7
:102B2000B00080917A00846080937A0080917A006E
:102B3000826080937A0080917A008E7F80937A0001
:102B400080917A00806880937A001092C10062E0E0
:102B500083E00E949F0281E080930E01E091710367
:102B6000F091720382E08083E0916D03F0916E0337
:102B70001082E0916F03F091700383E080831092E4
:102B80007903E0917503F091760386E08083E0910C
:102B90007303F0917403808180618083E0917303FB
:102BA000F0917403808188608083E0917303F091D9
:102BB0007403808180688083E0917303F0917403D3
:102BC00080818F7D80838BE892E00E94EA0C8EE604
:102BD00092E00E94EA0C8DE492E00E94EA0C81E20D
:102BE00092E00E94EA0C81EE91E00E94EA0C61E022
:102BF0008FE00E949F0261E084E00E949F0260E0FB
:102C00008FE00E94710260E084E00E94710264E63D
:102C100070E080E090E00E9400031AE0FF24F3944B
:102C200003E0E0914C04F0914D0413861586148660
:102C300012861186108617821682158214821382DC
:102C400010924A0410924B0462E370E080E090E03E
:102C50000E940003BE016E5D7F4F80914C049091F5
:102C60004D040E94300A882309F47AC067E0CE013F
:102C700082960E947A0799A58913ECCF80914A0425
:102C80008F5F80934A048AA1883231F008F04EC0E9
:102C9000803111F08232F1F680914B048F5F809386
:102CA0004B0480914304811128C080914C04909181
:102CB0004D040E94FD09BE016E5D7F4F80914C0462
:102CC00090914D040E94180840E064EB80914C0400
:102CD00090914D040E94E40780914C0490914D0422
:102CE0000E949107E82E80914C0490914D040E941F
:102CF000FD09E11002C0F09243048AA1803109F17C
:102D0000BE016F5F7F4FCE0182960E94D80A882352
:102D100059F08D819AA19B3311F487FD12C08F3336
:102D200091F058F48F31C1F080E00EC08B3309F47C
:102D3000B3CF823409F08ECFAFCF8F3579F08F3794
:102D400099F78CE001C08AE090914604981708F04A
:102D500081CF809346047ECF89E0F6CF8BE0F4CF1D
:102D600080914A0481110C94A41F015009F059CF9D
:102D7000115009F0E8C067E971E0CE01C8960E94E1
:102D8000880E65EB71E0CE018A960E94880EBE0126
:102D9000665D7F4FCE01C8960E94750D882309F4A9
:102DA00067C14AE0442E54E4352E61E2662E64E0A9
:102DB000762E70E2C72ED12CEDE2EE2EE4E0FE2E50
:102DC000FFE3AF2EF3E0BF2EA0E48A2EA3E09A2EFD
:102DD00055245394B4E92B2E8091390490913A04F0
:102DE000009711F00E94C72780913B0490913C040A
:102DF000009739F0DC01ED91FC910280F381E02D28
:102E0000099580913D0490913E04009739F0DC01D2
:102E1000ED91FC910280F381E02D099586E090E030
:102E20000E942B278C01FC01308272826182138206
:102E3000D582C48290933A04809339041092F002B0
:102E40001092EF0210923E03109260030E947105EF
:102E5000B092F401A092F3019092F6018092F501F4
:102E6000D80113965C92C8010E943F07882309F499
:102E700077C029828091390490913A04FC01248121
:102E80003581232B09F46CC0208150923D0320939F
:102E90005F0310923E0310926003BE016F5F7F4F8D
:102EA0000E94A006882309F45BC061E070E080E026
:102EB00090E00E94000386E090E00E942B27FC0136
:102EC0008BE291E09183808381E094E0938382831D
:102ED000F582E482F0933E04E0933D0486E090E0C6
:102EE0000E942B27FC018DE191E09183808380E09B
:102EF00094E093838283F582E482F0933C04E09330
:102F00003B0461EB71E088E694E00E94630E10924E
:102F1000400410923F0410924204109241048DE943
:102F200091E00E94300489E88AA38091390490914D
:102F30003A04DC0114962D913C91232BD9F460E0E6
:102F400070E0CB015AC068EC70E080E090E00E9435
:102F5000000366CE01960E94BC0EC12C0C94E61FA5
:102F60004A9441107EC06AE971E0CE0182960E94C7
:102F7000880E56C0FC01208150923D0320935F03D0
:102F800010923E0310926003BE016E5D7F4F0E945F
:102F9000A0068823A1F26AE070E080E090E00E9441
:102FA0000003BE016F5F7F4F8091390490913A0416
:102FB0000E94D508882319F2CE0101960E940602CC
:102FC0009B818913BCCFCE0104960E9406029E818C
:102FD0008913B5CF69817A8176276727762790E0B4
:102FE00080E0982F872F762F66272C81622B982FD1
:102FF000872F762F66272D81622B1BA21AA21DA276
:103000001CA21FA21EA220E1AE014F5F5F4F0E94D3
:103010004221BE016F5F7F4FCE0182960E94B20EA9
:10302000BE016E5D7F4FCE01C8960E94A50DCE01F8
:1030300082960E94690DCE018A960E94690D08ADA4
:1030400019AD01151105E1F0D8018C918823C1F06B
:10305000082E000C990B0E940D29F80181938F0115
:10306000F3CF68EC70E080E090E00E940003B4CE03
:10307000BE01685C7F4FCE0182960E94E90ED0CFE0
:10308000BE01685C7F4F8EE694E00E945C0E8EE687
:1030900094E00E94F60CCE01C8960E94690D61E092
:1030A00080910F040E949F0261E080910F040E94B2
:1030B000710280911104909112048F3F9807C9F01A
:1030C00061E00E949F0260E0809111040E94710201
:1030D0006AE070E080E090E00E94000361E080918F
:1030E00011040E9471026AE070E080E090E00E94AA
:1030F00000031FB7F8948091F701811127C0EAE619
:10310000F3E08491EEE7F3E09491E82FF0E0EE0F26
:10311000FF1FE25DFC4FA591B491EC91E92321F4EE
:1031200061E08AE00E94710261E08AE00E949F02F1
:103130008CB580618CBD8CB580648CBD61E08DE008
:103140000E949F0261E08BE00E949F028091F70144
:103150008F5F8093F7011FBF62E48FEF93E00E94BF
:103160009604823109F01BC240E861E88FEF93E0DA
:103170000E946B0480EC9AECA9E8B6E380931504F6
:1031800090931604A0931704B093180444EE66E8D5
:103190008FEF93E00E946B0440EC67E88FEF93E0C1
:1031A0000E946B0440E068E88FEF93E00E946B049C
:1031B00040E06EE88FEF93E00E946B0440E06FE820
:1031C0008FEF93E00E946B046CE08FEF93E00E941E
:1031D0009604482F43606CE88FEF93E00E946B04E5
:1031E00044E066EA8FEF93E00E946B0444E86DECE4
:1031F0008FEF93E00E946B044BE26BE88FEF93E05C
:103200000E946B044FE869E88FEF93E00E946B0423
:103210000E94900447E86DEC8FEF93E00E946B04EE
:1032200041E36BE88FEF93E00E946B044FE869E89D
:103230008FEF93E00E946B046DE18FEF93E00E94AB
:1032400096048F70482F40676DE98FEF93E00E94DE
:103250006B040E94301443EC61EB8FEF93E00E940B
:103260006B044AE067EB8FEF93E00E946B046EE122
:103270008FEF93E00E9496048F70482F406C6EE9A8
:103280008FEF93E00E946B040E9430146DE18FEF8A
:1032900093E00E949604817F482F42606DE98FEF92
:1032A00093E00E946B040E94900488EB91E00E94DE
:1032B000EA0C0E94E20C88E199E20FB6F894A89516
:1032C000809360000FBE9093600010EB212E312C94
:1032D000A8956BE273E0CE0101960E94880EBE01B4
:1032E0006F5F7F4F8EE694E00E94750D182FCE0120
:1032F00001960E94690D111163C067E273E0CE016F
:1033000001960E94880EBE016F5F7F4F88E694E0B1
:103310000E94750D182FCE0101960E94690D112390
:1033200009F43EC149E952E06DEB72E08DE294E0B0
:103330000E946810C090AD02D090AE02E090AF0243
:10334000F090B002C0920401D0920501E092060113
:10335000F09207014091D1025091D2026091D302C4
:103360007091D402409308015093090160930A01BF
:1033700070930B018091F80190E09C01220F331FA4
:10338000220F331FF901E75BFD4FC082D182E28239
:10339000F38227503E4FD9014D935D936D937C93FB
:1033A0001397019664E170E00E94FD268093F80176
:1033B00089E492E00E944A0B89EF91E00E944A0B57
:1033C000A89561E08FE00E947102C1010197F1F7B9
:1033D0000E94F0015C0160E08FE00E94710264E6EF
:1033E00070E080E090E00E94000361E084E00E94D1
:1033F0007102C1010197F1F70E94F0018C0160E0B8
:1034000084E00E9471020E9485086B017C01B50175
:10341000BB0C880B990B0E94CC2320E030E040E8E5
:103420005AE30E942B24A70196010E942B244B01F2
:103430005C01B801110F880B990B0E94CC2320E08E
:1034400030E040E85AE30E942B24A70196010E9435
:103450002B242B013C01A5019401C701B6010E9458
:10346000832520E030E44CE156E40E942B24A501A2
:1034700094010E94F0254B015C0120E030E44CE116
:1034800056E4C301B2010E942B2422966CAF7DAF9B
:103490008EAF9FAF2297A3019201C701B6010E9490
:1034A00083259B01AC0122966CAD7DAD8EAD9FADA9
:1034B00022970E94F0259B01AC01C501B4010E9436
:1034C000842520E030E040E05FE30E942B240E944E
:1034D00062268B01072E000C880B990B0E94CC23CF
:1034E0006B017C014B015C01E894B7F82FEF3FEFD3
:1034F0004FE75FE7C501B4010E94E32681110BC0CD
:103500002FEF3FEF4FE75FE7C501B4010E94C523EE
:1035100018160CF48FC320E030E04AE754E4C701EA
:10352000B6010E94F0256B017C0101342FE11207E6
:103530000CF483C123EE35EA47EA50E40E942B24C1
:103540009B01AC0167E77EEB8FE090EC0E94832546
:103550004B015C0126EE3CE54AE85DE3C701B6019C
:103560000E942B24A70196010E942B249B01AC01F1
:10357000C501B4010E9483252DEC3CEC4CE85FE3CF
:103580000E942B246B017C0120E030E0A9010E9405
:10359000982618160CF09AC1C701B6019AC1FFCF40
:1035A00020E030E040E85FEB209308013093090110
:1035B00040930A0150930B0180914C0490914D046B
:1035C0000E94FD0940E06CEC80914C0490914D0408
:1035D0000E94E4074091430464E480914C0490917C
:1035E0004D040E94E4070E9433036B017C0180912B
:1035F00047048823E1F080914804882309F446C0F9
:1036000080914304811142C080914C0490914D04FB
:103610000E949107813059F00E9433036C197D0993
:103620008E099F096E3E72408105910568F3809175
:103630004A04811154C060E070E08EEF92EC609318
:103640000401709305018093060190930701A895EA
:10365000C0900401D0900501E0900601F0900701B0
:1036600020E030E04EEF52ECC701B6010E94C523C6
:10367000882309F4A1CF20E030E04CE852E4C701F0
:10368000B6010E94982687FF97CF9ACEE091460414
:10369000E9508EEE92E0E33038F4F0E0EE0FFF1FD9
:1036A000EB5CFE4F808191816C01F12CE12C8091CB
:1036B0004404882329F060E0809145040E9471024F
:1036C000C701B6010E94000380914404882309F4D5
:1036D000AECF61E0809145040E947102A8CFCE0177
:1036E00082960E94B00A882309F4A5CFBE016F5FBD
:1036F0007F4FCE0182960E94D80A882309F49BCF7F
:103700005A81C12CD12C760157FF06C0C12CD12C77
:10371000F8EFEF2EFF24FA947AA149817B33D1F59B
:103720008D8187FF37C040FD86CF042F10E030E049
:1037300020E073E0000F111F221F331F7A95D1F78D
:10374000007E177022273327452F50E070E060E09D
:10375000EBE0440F551F661F771FEA95D1F7042B46
:10376000152B262B372B0C291D292E293F290138F3
:10377000F4EE1F07FFEF2F073F070CF45CCFC901E2
:10378000B8010E94CC2320E030E040E05CE30E94DE
:103790002B2455CF052F10E0102F0027110F110FEC
:1037A000110FA8E04A9FC0011124082B192B012EEC
:1037B000000C220B330B0C291D292E293F297832AE
:1037C00069F4403531F4553091F68F818C3079F6BB
:1037D00032CF4F3F61F6573051F62DCF703139F669
:1037E0006885662321F270E08F81FB01E81BF109F7
:1037F000CF019695982F8827979587950E94FD264B
:10380000CB01770FAA0BBB0B53E0000F111F221F38
:10381000331F5A95D1F700782770332700521109CA
:1038200021093109800F911FA21FB31F9701860143
:10383000082B192B2A2B3B2B9ACF093E33E0130779
:103840005CF12BEC31EA4DE450EC0E942B242BED83
:1038500039EF42E850E40E9483254B015C0129E2E4
:1038600037E74FE15CE3C701B6010E942B249B01BF
:10387000AC0160E070E080E89FE30E94832526E0D1
:1038800032E144E95EE30E9483259B01AC01C5015E
:10389000B4010E94F02570CE073242E014070CF408
:1038A000C3C12DE73FE349EB51E40E942B2428EAF2
:1038B00036EC4BE451E40E9483256B017C0120E04F
:1038C00030E0A9010E94C52387FF66CEC701B6017B
:1038D00090580E946226072E000C880B990B0E94BC
:1038E000CC236093E2027093E3028093E40290930E
:1038F000E502A8956EE674E0CE01C2960E94E90E3C
:1039000065EB72E0CE01C2960E94060E4091E20283
:103910005091E3026091E4027091E50222E0CE0151
:1039200001960E94600FBE016F5F7F4FCE01C2966D
:103930000E945C0ECE0101960E94690D63EB72E05D
:10394000CE01C2960E94060E4091080150910901D5
:1039500060910A0170910B0120E0CE0101960E9456
:10396000600FBE016F5F7F4FCE01C2960E945C0E5A
:10397000CE0101960E94690D61EB72E0CE01C29604
:103980000E94060E409104015091050160910601CC
:103990007091070121E0CE0101960E94600FBE01E7
:1039A0006F5F7F4FCE01C2960E945C0ECE010196E2
:1039B0000E94690D6FEA72E0CE01C2960E94060E67
:1039C0000E948508AB01BC0121E0CE0101960E9456
:1039D000600FBE016F5F7F4FCE01C2960E945C0EEA
:1039E000CE0101960E94690D6DEA72E0CE01C29689
:1039F0000E94060EBE016E5C7F4FCE018A960E9429
:103A0000E90ECE018A960E94B4081BA21AA21DA23A
:103A10001CA21FA21EA24AE0BE016F5F7F4F0E9440
:103A20002221BE016F5F7F4FCE0182960E94B20EAF
:103A3000BE016E5D7F4FCE01C2960E945C0ECE012C
:103A400082960E94690DCE018A960E94690D0E949D
:103A5000900487EB92E00E943004CE01C2960E944F
:103A6000F60C61E08FEF93E00E9496048370833040
:103A7000E9F062E18FEF93E00E94960483FF06C0B5
:103A800048E062E98FEF93E00E946B040E9490048B
:103A90000E94990440E06DE88FEF93E00E946B0470
:103AA00040E062EA8FEF93E00E946B044EA95FA9A9
:103AB0006AA97BA98FEF93E00E94F90443E861E8CB
:103AC0008FEF93E00E946B0462E18FEF93E00E941E
:103AD000960483FFF9CF48E062E98FEF93E00E94FC
:103AE0006B0464E670E080E090E00E94000340E830
:103AF00061E88FEF93E00E946B04CE01C2960E94B2
:103B0000690DA8950E9433034B015C010E9493202C
:103B100028E833E140E050E00E94E9249B01AC0139
:103B200028573C4E4F4F5F4F22962CAF3DAF4EAFC4
:103B30005FAF229798E1C92E29E0D22E0E9433036D
:103B4000681979098A099B0922962CAD3DAD4EADC5
:103B50005FAD2297621773078407950708F0E3C1EA
:103B600062E18FEF93E00E949604182F0E9499045F
:103B7000412F62E98FEF93E00E946B0416FF5DC056
:103B800015FD5BC010921A041092190480911B0459
:103B900090911C0462E2892B09F463E18FEF93E0BA
:103BA0000E949604082F10E060E18FEF93E00E94DE
:103BB0009604482F6DE88FEF93E00E946B040E94FB
:103BC0009004012B09F04EC080917A008F7780938A
:103BD0007A00809164008160809364000FB6F8944D
:103BE000A895C09260000FBED092600080916000E6
:103BF00080648093600083B7817F83BFF89483B72C
:103C0000816083BF7894889583B78E7F83BF7894D3
:103C1000809164008E7F8093640080917A00806838
:103C200080937A00A8958ACF60EF70E00D32114042
:103C30000CF451CE70E060E04ECE61E08FEF93E087
:103C40000E949604863809F4BFCF40E06DE88FEFFC
:103C500093E00E946B0446E861E88FEF93E00E94D6
:103C60006B04B2CF61E971E0CE01C2960E94030FEE
:103C70008FEF93E00E94EB04892B89F08FEF93E0A4
:103C80000E94D00489831A8241E050E0BE016F5F38
:103C90007F4FCE01C2960E94300EA895E9CF409189
:103CA0007204509173048EA99FA98417950708F494
:103CB0002DC18AA99BA9009709F428C160916E04BF
:103CC00070916F046115710509F420C10E942E29BD
:103CD0008C01892B09F01AC1BE016E5C7F4FCE01A9
:103CE00082960E94E90E6CEB72E0CE0101960E9472
:103CF000880E4EA15FA18D819E81481B590BBE018C
:103D00006F5F7F4FCE0182960E94090D7C01CE012C
:103D100001960E94690D3FEFE31AF30A2EA13FA11D
:103D2000A701BE016E5D7F4FCE0101960E94140F68
:103D300089819A81412C512C3201009719F00E94FF
:103D4000EB202B01CE0101960E94690D970150E0F6
:103D500040E0BE016E5D7F4FCE0101960E94140FC0
:103D6000BE016F5F7F4FCE0182960E94A50DCE01EE
:103D700001960E94690DBE016E5D7F4FCE010196D6
:103D80000E94E90ECE0101960E94B4087C01CE018A
:103D900001960E94690DCE0182960E94690DE4147D
:103DA000F50409F0B3C0BE016E5C7F4FCE018A9668
:103DB0000E94E90E60EC72E0CE0101960E94880E2E
:103DC0008EA59FA5892B61F0CAA4DBA469817A81A5
:103DD000C6010E944B297C01EC18FD08892B19F4BF
:103DE000EE24EA94FE2CCE0101960E94690D6EEB42
:103DF00072E0CE0182960E94880E4EA55FA58EA12C
:103E00009FA1481B590BBE016E5D7F4FCE018A9664
:103E10000E94090DA7014F5F5F4F9C01BE01665DC7
:103E20007F4FCE0101960E94140FBE016F5F7F4F3E
:103E3000CE018A960E94A50DCE0101960E94690DC1
:103E4000CE0182960E94690D8AA59BA5C12CD12C1A
:103E50007601009719F00E94EB206B01D0920D01C2
:103E6000C0920C01CE018A960E94690D80E093E019
:103E70000E9430040D2C000CEE08FF084AE0C70138
:103E8000B601F7FE0DC06DE281E693E00E94E30308
:103E900066277727CB016C197D098E099F094AE0B7
:103EA0000E94940C8CEF92E00E94EA0CCE01C29624
:103EB0000E94690D0E944D027C0168E873E180E078
:103EC00090E00E940003EA94EF2889F580910C01AC
:103ED00090910D012FE0289F7001299FF00C112473
:103EE0000E151F0524F5A89530E020E050E040E0D5
:103EF00068E070E081EE92E00E943708A8950E9489
:103F00004D02892BA1F00F5F1F4FEACF83EE92E0A5
:103F10000E943004CE01C2960E94F60CCE01C296D9
:103F20000E94690D51CE82EC92E00E94EA0C80E082
:103F300090E0892B09F4CCC90E94AD03882309F4D1
:103F4000C4C90E940000C1C9CE018A960E94B00A6D
:103F5000D82E882311F40C94B81664E971E088E631
:103F600094E00E94630E82E891E00E94300461E9CF
:103F700071E0CE01C8960E94030F8E01065D1F4FAF
:103F80007E0122E3E20EF11CD8016D918D01CE017C
:103F9000603110F00C94AA1782960E94BC0E6CEA55
:103FA00071E0C7010E94030F4EA15FA16AA17BA12E
:103FB000C7010E94300E811103C0C7010E94570D36
:103FC000B701CE0101960E94E90ECD2CBE016F5FB4
:103FD0007F4FCE01C8960E945C0ECE0101960E94D2
:103FE000690DCC2039F0C7010E94690DCE0182967F
:103FF0000E94690D0E151F0539F60C94C1168091AB
:10400000390490913A04009711F00E94C7278091DB
:104010003B0490913C04009739F0DC01ED91FC9158
:104020000280F381E02D099580913D0490913E043A
:10403000009739F0DC01ED91FC910280F381E02DD5
:10404000099588E694E00E94690D8EE694E00C9450
:10405000690DEF920F931F93CF93DF93E80134E044
:1040600047FD34E1042E000C550B57FF03C051955A
:1040700041955109E32E022F242FAE010E947E218B
:10408000CE01DF91CF911F910F91EF9008958F9204
:104090009F92AF92BF92CF92DF92EF92FF92CF9317
:1040A000DF93EC01688179818A819B8161157105BB
:1040B0008105910521F464E279ED8BE597E02DE12E
:1040C00033EF41E050E00E94E92449015A019B018D
:1040D000AC01A7EAB1E40E9408256B017C01ACEEBB
:1040E000B4EFA50194010E941625C60ED71EE81E46
:1040F000F91EF7FE06C081E0C81AD108E10880E881
:10410000F80AC882D982EA82FB82C701B6019F778A
:10411000DF91CF91FF90EF90DF90CF90BF90AF9065
:104120009F908F9008958F929F92AF92BF92CF925F
:10413000DF92EF92FF9260910F01709110018091D8
:10414000110190911201611571058105910521F40C
:1041500064E279ED8BE597E02DE133EF41E050E04B
:104160000E94E92449015A019B01AC01A7EAB1E48C
:104170000E9408256B017C01ACEEB4EFA50194010F
:104180000E941625C60ED71EE81EF91EF7FE06C0B1
:1041900081E0C81AD108E10880E8F80AC0920F014E
:1041A000D0921001E0921101F0921201C701B60104
:1041B0009F77FF90EF90DF90CF90BF90AF909F9050
:1041C0008F90089560930F017093100180931101F7
:1041D0009093120108951F93FC0199278827BC0131
:1041E000E89411911032E9F3193010F01E30C8F341
:1041F0001B3251F01D3249F4689406C00E942D21F3
:10420000610F711D811D911D119110531A30B0F372
:104210003EF490958095709561957F4F8F4F9F4F9D
:104220001F910895FB01DC0105900D920020E1F73C
:104230000895FC0105900020E9F7809590958E0F78
:104240009F1F0895BB274A3031F4992322F4BDE221
:10425000909581959F4F0C946521592F482F372FAA
:10426000262F660F771F881F991F660F771F881FDD
:10427000991F620F731F841F951F660F771F881F7A
:10428000991F0895BB27FA01A62F621771058105B2
:104290009105330B30FB66F0AA27660F771F881F46
:1042A000991FAA1FA21710F0A21B63953850A9F7F7
:1042B000A05DAA3308F0A95DA19336F7B111B193BF
:1042C0001082CA010C94B523BB27FB015527AA27EE
:1042D000880F991FAA1FA41710F0A41B8395505193
:1042E000B9F7A05DAA3308F0A95DA193009779F70B
:1042F000B111B1931192CB010C94B523A9E0B0E0B8
:10430000E4E8F1E20C9421256A01F22EB02E102F80
:10431000FBE3AF2EA01608F41BE31F5F012F27E07D
:10432000AE014F5F5F4F0E94DD22BC018981982F53
:104330009970913009F43FC09BE2E1FC04C09E2DCE
:104340009170E0FC3AC05E2D5071E82FE87083FF59
:1043500046C084E0911101C083E0EF2DE81B8F156A
:1043600008F0E0E0D6018E2F20E2552351F1992389
:1043700029F0D6019C93C60101966C0196012D5F30
:104380003F4FE2FE24C08EE4D6018C9391E4119657
:104390009C93119712968C93D9018E2F90E28111E4
:1043A0001BC0E20FF32FF11D10828EEF9FEF2996B5
:1043B000ECE00C943D259DE2C6CF90E2C4CF2D9356
:1043C00081508111FCCFCE0ED11CE0E0D0CF8EE623
:1043D000D6018C9391E6DBCF9D938150E0CF482F9F
:1043E000447082FF3DC084E0911101C083E08F15CD
:1043F00010F4EF2DE81BD6018E2F20E2552309F192
:10440000992329F0D6019C93C60101966C0196016F
:104410002D5F3F4FE2FE1BC089E4D6018C938EE4F2
:1044200011968C93119786E412968C93D9018E2F56
:1044300090E2882309F4B5CF9D938150FACF2D9354
:1044400081508111FCCFCE0ED11CE0E0D9CF89E69E
:10445000D6018C938EE611968C93119786E6E4CF65
:104460009B0177FF02C030E020E0A1E0B0E09111B5
:1044700002C0B0E0A0E0F9013196AE0FBF1F8B2C57
:10448000912CBB2009F461C05401EFEFAE1ABE0AB3
:10449000AA0DBB1DFA161B0619F014F04F2D4A1B6E
:1044A000511188C0E3FC59C07601A42FB0E2A111DC
:1044B0004FC0C40ED11C992309F45BC040E0D60163
:1044C0001196F60190836D01552309F448C0012F20
:1044D000060F9A81582F507184FF03C0913309F45D
:1044E000015010160CF047C0093008F008E0EEE269
:1044F000FE2E5B01A01AB108850191948194910868
:104500002F3F320729F4D601FC92F60131966F0154
:104510006217730794F1021713077CF5DB01A21BE6
:10452000B30BAA24A394B12CAC0EBD1EAA0DBB1DC7
:1045300011968C9121503109D60111962815390513
:10454000F4F0F60180836D01DBCFB12CA12CA0CF5C
:10455000F701B1937F01A150AACF9111B0CFD6013D
:10456000942F50E302C05D9391509111FCCFC40E83
:10457000D11C40E0ACCF01E0BACF80E3DBCF6217C3
:10458000730731F4963388F4953311F4552369F0A9
:10459000F6018083FD01842F90E2811108C0A40FF1
:1045A000B11D1C9290E080E002CF81E3F1CF9193A6
:1045B0008150F3CF911183CF8ACF283008F027E0C4
:1045C0003327DA01990F311D87FD9160009661054F
:1045D000710539F432602E5F3D9330E32A95E1F79F
:1045E00008959F3F30F080387105610509F03C5F08
:1045F0003C5F3D93913008F08068911DDF93CF932D
:104600001F930F93FF92EF92192F987F9695E92FA2
:1046100096959695E90FFF27EE53FF4F992733277D
:10462000EE24FF24A701E70105900894079428F4DD
:10463000360FE71EF81E491F511D660F771F881F92
:10464000991F0694A1F70590079428F4E70EF81E29
:10465000491F561FC11D770F881F991F661F06949B
:10466000A1F70590079428F4F80E491F561FC71F9D
:10467000D11D880F991F661F771F0694A1F705901B
:10468000079420F4490F561FC71FD81F990F661FA4
:10469000771F881F0694A9F784911095177041F031
:1046A000D695C79557954795F794E7941A95C1F70E
:1046B000E8E6F0E068941590159135916591959133
:1046C00005907FE27395E118F10A430B560BC90B75
:1046D000D009C0F7E10CF11E431F561FC91FD01DA2
:1046E0007EF4703311F48A95E6CFE894015030F0EF
:1046F000080F0AF40027021708F4202F2395022F31
:104700007A3328F079E37D932A95E9F710C07D93F9
:104710002A9589F606949795679537951795179476
:10472000E118F10A430B560BC90BD00998F02395F9
:104730007E9173957A3308F070E37C932013B8F779
:104740007E9170617D9330F0839571E37D9370E38A
:104750002A95E1F71124EF90FF900F911F91CF91CF
:10476000DF91992787FD90950895DC01FC01672F63
:1047700071917723E1F7329704C07C916D93708338
:104780006291AE17BF07C8F308950E94072408F48A
:1047900081E00895E89409C097FB3EF490958095D8
:1047A000709561957F4F8F4F9F4F9923A9F0F92FF7
:1047B00096E9BB279395F695879577956795B79575
:1047C000F111F8CFFAF4BB0F11F460FF1BC06F5F5B
:1047D0007F4F8F4F9F4F16C0882311F096E911C06D
:1047E000772321F09EE8872F762F05C0662371F08E
:1047F00096E8862F70E060E02AF09A95660F771FA2
:10480000881FDAF7880F9695879597F90895990F7D
:104810000008550FAA0BE0E8FEEF16161706E8078A
:10482000F907C0F012161306E407F50798F0621BAB
:10483000730B840B950B39F40A2661F0232B242B80
:10484000252B21F408950A2609F4A140A6958FEF9F
:10485000811D811D08950E943E240C94AF240E9466
:10486000A12438F00E94A82420F0952311F00C9484
:1048700098240C949E2411240C94E3240E94C024B8
:1048800070F3959FC1F3950F50E0551F629FF001A3
:10489000729FBB27F00DB11D639FAA27F00DB11DBC
:1048A000AA1F649F6627B00DA11D661F829F222745
:1048B000B00DA11D621F739FB00DA11D621F839FCC
:1048C000A00D611D221F749F3327A00D611D231FA2
:1048D000849F600D211D822F762F6A2F11249F57F0
:1048E00050409AF0F1F088234AF0EE0FFF1FBB1FF3
:1048F000661F771F881F91505040A9F79E3F5105B2
:1049000080F00C9498240C94E3245F3FE4F3983EE9
:10491000D4F3869577956795B795F795E7959F5F5B
:10492000C1F7FE2B880F911D9695879597F90895ED
:1049300097F99F6780E870E060E008959FEF80EC52
:10494000089500240A9416161706180609060895F5
:1049500000240A9412161306140605060895092E5B
:104960000394000C11F4882352F0BB0F40F4BF2BCA
:1049700011F460FF04C06F5F7F4F8F4F9F4F08950A
:1049800057FD9058440F551F59F05F3F71F0479500
:10499000880F97FB991F61F09F3F79F087950895E5
:1049A000121613061406551FF2CF4695F1DF08C004
:1049B000161617061806991FF1CF86957105610521
:1049C00008940895E894BB2766277727CB0197F9C9
:1049D0000895052E97FB1EF400940E94002557FDB4
:1049E00007D00E94522507FC03D04EF40C940025FA
:1049F00050954095309521953F4F4F4F5F4F08950B
:104A000090958095709561957F4F8F4F9F4F08953A
:104A10000E947425A59F900DB49F900DA49F800DBA
:104A2000911D11240895B7FF0C9408250E940825B4
:104A3000821B930B08952F923F924F925F926F9239
:104A40007F928F929F92AF92BF92CF92DF92EF921E
:104A5000FF920F931F93CF93DF93CDB7DEB7CA1B9F
:104A6000DB0B0FB6F894DEBF0FBECDBF09942A88CA
:104A7000398848885F846E847D848C849B84AA8472
:104A8000B984C884DF80EE80FD800C811B81AA81FF
:104A9000B981CE0FD11D0FB6F894DEBF0FBECDBFCA
:104AA000ED010895A1E21A2EAA1BBB1BFD010DC04A
:104AB000AA1FBB1FEE1FFF1FA217B307E407F507CE
:104AC00020F0A21BB30BE40BF50B661F771F881FAA
:104AD000991F1A9469F760957095809590959B0140
:104AE000AC01BD01CF010895A29FB001B39FC001E9
:104AF000A39F700D811D1124911DB29F700D811D0A
:104B00001124911D08955058BB27AA270E949B2568
:104B10000C94AF240E94A12438F00E94A82420F015
:104B200039F49F3F19F426F40C949E240EF4E0957A
:104B3000E7FB0C949824E92F0E94C02458F3BA177D
:104B4000620773078407950720F079F4A6F50C94A3
:104B5000E2240EF4E0950B2EBA2FA02D0B01B90123
:104B600090010C01CA01A0011124FF27591B99F0E3
:104B7000593F50F4503E68F11A16F040A22F232FEF
:104B8000342F4427585FF3CF469537952795A7953F
:104B9000F0405395C9F77EF41F16BA0B620B730BE6
:104BA000840BBAF09150A1F0FF0FBB1F661F771F57
:104BB000881FC2F70EC0BA0F621F731F841F48F40C
:104BC000879577956795B795F7959E3F08F0B0CF95
:104BD0009395880F08F09927EE0F9795879508957C
:104BE0000E9404260C94AF240E94A82458F00E942E
:104BF000A12440F029F45F3F29F00C94982451112E
:104C00000C94E3240C949E240E94C02468F39923FE
:104C1000B1F3552391F3951B550BBB27AA276217B8
:104C20007307840738F09F5F5F4F220F331F441FC5
:104C3000AA1FA9F335D00E2E3AF0E0E832D09150F9
:104C40005040E695001CCAF72BD0FE2F29D0660FE6
:104C5000771F881FBB1F261737074807AB07B0E829
:104C600009F0BB0B802DBF01FF2793585F4F3AF02F
:104C70009E3F510578F00C9498240C94E3245F3FF8
:104C8000E4F3983ED4F3869577956795B795F795B5
:104C90009F5FC9F7880F911D9695879597F908959D
:104CA000E1E0660F771F881FBB1F62177307840739
:104CB000BA0720F0621B730B840BBA0BEE1F88F748
:104CC000E09508950E9469266894B1110C94E3243C
:104CD00008950E94C82488F09F5798F0B92F99270B
:104CE000B751B0F0E1F0660F771F881F991F1AF0D7
:104CF000BA95C9F714C0B13091F00E94E224B1E036
:104D000008950C94E224672F782F8827B85F39F034
:104D1000B93FCCF3869577956795B395D9F73EF46F
:104D200090958095709561957F4F8F4F9F4F089517
:104D30000E94072408F48FEF089519F416F40C94D8
:104D40009E240C94E8260E94C824B8F39923C9F342
:104D5000B6F39F57550B87FF0E94F6260024A0E666
:104D600040EA900180585695979528F4805C660F2C
:104D7000771F881F20F026173707480730F4621B7B
:104D8000730B840B202931294A2BA695179407947D
:104D9000202531254A2758F7660F771F881F20F0F6
:104DA00026173707480730F4620B730B840B200D6E
:104DB000311D411DA09581F7B901842F9158880FAD
:104DC0009695879508950E940724880B990B08955E
:104DD0009F3F31F0915020F4879577956795B7956F
:104DE000880F911D9695879597F908959150504099
:104DF000660F771F881FD2F7089597FB072E16F4CA
:104E0000009407D077FD09D00E94112707FC05D038
:104E10003EF4909581959F4F0895709561957F4FD1
:104E20000895AA1BBB1B51E107C0AA1FBB1FA617F1
:104E3000B70710F0A61BB70B881F991F5A95A9F743
:104E400080959095BC01CD010895EE0FFF1F059050
:104E5000F491E02D09940F931F93CF93DF93823049
:104E6000910510F482E090E0E0917604F0917704EF
:104E700030E020E0B0E0A0E0309799F42115310552
:104E800009F44AC0281B390B24303105D8F58A8132
:104E90009B816115710589F1FB0193838283FE017A
:104EA00011C0408151810281138148175907E0F0F8
:104EB0004817590799F4109761F012960C931297BE
:104EC00013961C933296CF01DF91CF911F910F91D2
:104ED00008950093760410937704F4CF21153105DB
:104EE00051F04217530738F0A901DB019A01BD01C7
:104EF000DF01F801C1CFEF01F9CF909377048093E0
:104F00007604CDCFFE01E20FF31F819391932250DF
:104F1000310939832883D7CF2091740430917504E7
:104F2000232B41F420911501309116013093750423
:104F3000209374042091130130911401211531053F
:104F400041F42DB73EB74091170150911801241B31
:104F5000350BE0917404F0917504E217F307A0F4A7
:104F60002E1B3F0B2817390778F0AC014E5F5F4FBF
:104F70002417350748F04E0F5F1F50937504409378
:104F80007404819391939FCFF0E0E0E09CCFCF93A6
:104F9000DF930097E9F0FC01329713821282A0910F
:104FA0007604B0917704ED0130E020E01097A1F491
:104FB00020813181820F931F2091740430917504F8
:104FC0002817390709F061C0F0937504E093740461
:104FD000DF91CF910895EA01CE17DF07E8F54A8106
:104FE0005B819E0141155105B1F7E901FB83EA831D
:104FF00049915991C40FD51FEC17FD0761F48081C9
:1050000091810296840F951FE9019983888382819B
:1050100093819B838A83F0E0E0E012968D919C91CE
:1050200013970097B9F52D913C911197CD010296F8
:10503000820F931F2091740430917504281739074B
:1050400039F6309751F51092770410927604B093A8
:105050007504A0937404BCCFD383C2834081518173
:10506000840F951FC817D90761F44E5F5F4F888181
:105070009981480F591F518340838A819B81938373
:1050800082832115310509F0B0CFF0937704E093C6
:1050900076049ECFFD01DC01C0CF13821282D7CFF0
:1050A000B0E0A0E0E6E5F8E20C941D258C01009745
:1050B00051F4CB010E942B278C01C801CDB7DEB77C
:1050C000E0E10C943925FC01E60FF71F9C0122500A
:1050D0003109E217F30708F49DC0D901CD91DC91A5
:1050E0001197C617D70798F0C530D10530F3CE0118
:1050F00004978617970708F3C61BD70B2297C1930F
:10510000D1936D937C93CF010E94C727D6CF5B01CB
:10511000AC1ABD0A4C018C0E9D1EA0917604B09174
:105120007704512C412CF12CE12C109731F5809112
:105130007404909175048815990509F05CC04616B1
:10514000570608F058C08091130190911401009700
:1051500041F48DB79EB74091170150911801841BFF
:10516000950BE817F90708F055C0F0937504E09324
:105170007404F90171836083A0CF8D919C91119784
:1051800012966C90129713967C901397A815B905F8
:1051900059F56C0142E0C40ED11CCA14DB0420F1A5
:1051A000AC014A195B09DA011296159780F0628208
:1051B000738251834083D9016D937C93E114F10490
:1051C00071F0D7011396FC93EE93129776CF229647
:1051D0008C0F9D1FF90191838083F301EFCFF09332
:1051E0007704E093760469CF4816590608F42C0139
:1051F0007D01D3019ACFCB010E942B277C01009720
:1052000049F0AE01B8010E941529C8010E94C727C4
:10521000870153CF10E000E050CF911108958156DF
:105220008A5108F4805285580895FB01DC0102C0C0
:1052300001900D9241505040D8F70895FB01DC01D8
:105240008D91019080190110D9F3990B0895FB01FC
:10525000DC0101900D920020E1F70895FB01DC01D3
:105260004150504030F08D910190801919F4002088
:10527000B9F7881B990B0895FB01DC0141505040A0
:1052800048F001900D920020C9F701C01D924150D5
:105290005040E0F70895FB0151915523A9F0BF015B
:1052A000DC014D9145174111E1F759F4CD01019011
:1052B000002049F04D9140154111C9F3FB01411106
:1052C000EFCF81E090E00197089511E0C5ECD1E0C7
:1052D00004C0FE010E9425272196C63CD107C9F7CC
:0452E000F894FFCF70
:1052E4004203420300C079C4000080BF05000101ED
:1052F40000000000007804800000000000780773BC
:105304000D7907F711CE0F000000007807710D79B1
:105314000701121D105E00BC007701781E00A02852
:1053240000F03C00405100127A00E4A20024F40092
:1053340048E80190D00320A10700000000E30343E4
:105344000370034B04A1037F0393030000000034A4
:1053540005F9043C07A904EB04D004AA04000000E6
:10536400000D07E0063C07A904D906C606B7060DDA
:105374000A0053485434785F540053485434785FD7
:0E53840048004454412D574D2D307800300024
:00000001FF
